{
	"contracts/1_Storage.sol": {
		"Election": {
			"abi": [
				{
					"inputs": [],
					"stateMutability": "nonpayable",
					"type": "constructor"
				},
				{
					"inputs": [
						{
							"internalType": "uint8",
							"name": "",
							"type": "uint8"
						},
						{
							"internalType": "address",
							"name": "",
							"type": "address"
						}
					],
					"name": "candidateVotes",
					"outputs": [
						{
							"internalType": "uint256",
							"name": "",
							"type": "uint256"
						}
					],
					"stateMutability": "view",
					"type": "function"
				},
				{
					"inputs": [],
					"name": "getAirdropPerPerson",
					"outputs": [
						{
							"internalType": "uint256",
							"name": "",
							"type": "uint256"
						}
					],
					"stateMutability": "view",
					"type": "function"
				},
				{
					"inputs": [],
					"name": "getCandidateQuantity",
					"outputs": [
						{
							"internalType": "uint256",
							"name": "",
							"type": "uint256"
						}
					],
					"stateMutability": "view",
					"type": "function"
				},
				{
					"inputs": [],
					"name": "getMaxElectionToken",
					"outputs": [
						{
							"internalType": "uint256",
							"name": "",
							"type": "uint256"
						}
					],
					"stateMutability": "view",
					"type": "function"
				},
				{
					"inputs": [],
					"name": "getMaxVotesForCandidate",
					"outputs": [
						{
							"internalType": "uint256",
							"name": "",
							"type": "uint256"
						}
					],
					"stateMutability": "view",
					"type": "function"
				},
				{
					"inputs": [],
					"name": "getRound",
					"outputs": [
						{
							"internalType": "uint8",
							"name": "",
							"type": "uint8"
						}
					],
					"stateMutability": "view",
					"type": "function"
				},
				{
					"inputs": [
						{
							"internalType": "uint8",
							"name": "",
							"type": "uint8"
						},
						{
							"internalType": "address",
							"name": "",
							"type": "address"
						}
					],
					"name": "givenVotes",
					"outputs": [
						{
							"internalType": "uint256",
							"name": "",
							"type": "uint256"
						}
					],
					"stateMutability": "view",
					"type": "function"
				},
				{
					"inputs": [
						{
							"internalType": "uint8",
							"name": "",
							"type": "uint8"
						}
					],
					"name": "missed",
					"outputs": [
						{
							"internalType": "uint256",
							"name": "",
							"type": "uint256"
						}
					],
					"stateMutability": "view",
					"type": "function"
				},
				{
					"inputs": [],
					"name": "sync",
					"outputs": [],
					"stateMutability": "nonpayable",
					"type": "function"
				},
				{
					"inputs": [
						{
							"internalType": "address",
							"name": "candidate",
							"type": "address"
						},
						{
							"internalType": "uint256",
							"name": "votes",
							"type": "uint256"
						}
					],
					"name": "vote",
					"outputs": [],
					"stateMutability": "nonpayable",
					"type": "function"
				},
				{
					"inputs": [
						{
							"internalType": "address",
							"name": "account",
							"type": "address"
						},
						{
							"internalType": "uint8",
							"name": "networkId",
							"type": "uint8"
						},
						{
							"internalType": "bytes",
							"name": "signature",
							"type": "bytes"
						}
					],
					"name": "whitelist",
					"outputs": [],
					"stateMutability": "nonpayable",
					"type": "function"
				},
				{
					"inputs": [
						{
							"internalType": "address",
							"name": "",
							"type": "address"
						}
					],
					"name": "winners",
					"outputs": [
						{
							"internalType": "uint8",
							"name": "",
							"type": "uint8"
						}
					],
					"stateMutability": "view",
					"type": "function"
				}
			],
			"devdoc": {
				"kind": "dev",
				"methods": {},
				"version": 1
			},
			"evm": {
				"assembly": "    /* \"contracts/1_Storage.sol\":57:3046  contract Election {... */\n  mstore(0x40, 0x80)\n    /* \"contracts/1_Storage.sol\":603:833  constructor() {... */\n  callvalue\n  dup1\n  iszero\n  tag_1\n  jumpi\n  0x00\n  dup1\n  revert\ntag_1:\n  pop\n    /* \"contracts/1_Storage.sol\":635:636  1 */\n  0x01\n    /* \"contracts/1_Storage.sol\":627:632  round */\n  0x00\n  dup1\n    /* \"contracts/1_Storage.sol\":627:636  round = 1 */\n  0x0100\n  exp\n  dup2\n  sload\n  dup2\n  0xff\n  mul\n  not\n  and\n  swap1\n  dup4\n  0xff\n  and\n  mul\n  or\n  swap1\n  sstore\n  pop\n    /* \"contracts/1_Storage.sol\":665:671  50_000 */\n  0xc350\n    /* \"contracts/1_Storage.sol\":646:662  airdropPerPerson */\n  0x01\n    /* \"contracts/1_Storage.sol\":646:671  airdropPerPerson = 50_000 */\n  dup2\n  swap1\n  sstore\n  pop\n    /* \"contracts/1_Storage.sol\":713:729  airdropPerPerson */\n  sload(0x01)\n    /* \"contracts/1_Storage.sol\":681:710  previousRoundAirdropPerPerson */\n  0x02\n    /* \"contracts/1_Storage.sol\":681:729  previousRoundAirdropPerPerson = airdropPerPerson */\n  dup2\n  swap1\n  sstore\n  pop\n    /* \"contracts/1_Storage.sol\":756:757  0 */\n  0x00\n    /* \"contracts/1_Storage.sol\":739:753  winnersOfRound */\n  0x08\n    /* \"contracts/1_Storage.sol\":739:757  winnersOfRound = 0 */\n  dup2\n  swap1\n  sstore\n  pop\n    /* \"contracts/1_Storage.sol\":783:784  0 */\n  0x00\n    /* \"contracts/1_Storage.sol\":767:780  communitySize */\n  0x07\n    /* \"contracts/1_Storage.sol\":767:784  communitySize = 0 */\n  dup2\n  swap1\n  sstore\n  pop\n    /* \"contracts/1_Storage.sol\":811:826  block.timestamp */\n  timestamp\n    /* \"contracts/1_Storage.sol\":794:808  roundStartedAt */\n  0x09\n    /* \"contracts/1_Storage.sol\":794:826  roundStartedAt = block.timestamp */\n  dup2\n  swap1\n  sstore\n  pop\n    /* \"contracts/1_Storage.sol\":57:3046  contract Election {... */\n  dataSize(sub_0)\n  dup1\n  dataOffset(sub_0)\n  0x00\n  codecopy\n  0x00\n  return\nstop\n\nsub_0: assembly {\n        /* \"contracts/1_Storage.sol\":57:3046  contract Election {... */\n      mstore(0x40, 0x80)\n      callvalue\n      dup1\n      iszero\n      tag_1\n      jumpi\n      0x00\n      dup1\n      revert\n    tag_1:\n      pop\n      jumpi(tag_2, lt(calldatasize, 0x04))\n      shr(0xe0, calldataload(0x00))\n      dup1\n      0x6bd5450a\n      gt\n      tag_15\n      jumpi\n      dup1\n      0x6bd5450a\n      eq\n      tag_9\n      jumpi\n      dup1\n      0x9f8743f7\n      eq\n      tag_10\n      jumpi\n      dup1\n      0xf4c98cc5\n      eq\n      tag_11\n      jumpi\n      dup1\n      0xf4d20e80\n      eq\n      tag_12\n      jumpi\n      dup1\n      0xf634c571\n      eq\n      tag_13\n      jumpi\n      dup1\n      0xfff6cae9\n      eq\n      tag_14\n      jumpi\n      jump(tag_2)\n    tag_15:\n      dup1\n      0x12c0816e\n      eq\n      tag_3\n      jumpi\n      dup1\n      0x1a19ac9f\n      eq\n      tag_4\n      jumpi\n      dup1\n      0x278a8d55\n      eq\n      tag_5\n      jumpi\n      dup1\n      0x3326152a\n      eq\n      tag_6\n      jumpi\n      dup1\n      0x53002316\n      eq\n      tag_7\n      jumpi\n      dup1\n      0x5f74bbde\n      eq\n      tag_8\n      jumpi\n    tag_2:\n      0x00\n      dup1\n      revert\n        /* \"contracts/1_Storage.sol\":196:259  mapping(uint8 => mapping(address => uint256)) public givenVotes */\n    tag_3:\n      tag_16\n      0x04\n      dup1\n      calldatasize\n      sub\n      dup2\n      add\n      swap1\n      tag_17\n      swap2\n      swap1\n      tag_18\n      jump\t// in\n    tag_17:\n      tag_19\n      jump\t// in\n    tag_16:\n      mload(0x40)\n      tag_20\n      swap2\n      swap1\n      tag_21\n      jump\t// in\n    tag_20:\n      mload(0x40)\n      dup1\n      swap2\n      sub\n      swap1\n      return\n        /* \"contracts/1_Storage.sol\":1274:1425  function getMaxVotesForCandidate() public view returns (uint256) {... */\n    tag_4:\n      tag_22\n      tag_23\n      jump\t// in\n    tag_22:\n      mload(0x40)\n      tag_24\n      swap2\n      swap1\n      tag_21\n      jump\t// in\n    tag_24:\n      mload(0x40)\n      dup1\n      swap2\n      sub\n      swap1\n      return\n        /* \"contracts/1_Storage.sol\":2370:2490  function whitelist(address account, uint8 networkId, bytes memory signature) external{... */\n    tag_5:\n      tag_25\n      0x04\n      dup1\n      calldatasize\n      sub\n      dup2\n      add\n      swap1\n      tag_26\n      swap2\n      swap1\n      tag_27\n      jump\t// in\n    tag_26:\n      tag_28\n      jump\t// in\n    tag_25:\n      stop\n        /* \"contracts/1_Storage.sol\":448:487  mapping(uint8 => uint256) public missed */\n    tag_6:\n      tag_29\n      0x04\n      dup1\n      calldatasize\n      sub\n      dup2\n      add\n      swap1\n      tag_30\n      swap2\n      swap1\n      tag_31\n      jump\t// in\n    tag_30:\n      tag_32\n      jump\t// in\n    tag_29:\n      mload(0x40)\n      tag_33\n      swap2\n      swap1\n      tag_21\n      jump\t// in\n    tag_33:\n      mload(0x40)\n      dup1\n      swap2\n      sub\n      swap1\n      return\n        /* \"contracts/1_Storage.sol\":293:360  mapping(uint8 => mapping(address => uint256)) public candidateVotes */\n    tag_7:\n      tag_34\n      0x04\n      dup1\n      calldatasize\n      sub\n      dup2\n      add\n      swap1\n      tag_35\n      swap2\n      swap1\n      tag_18\n      jump\t// in\n    tag_35:\n      tag_36\n      jump\t// in\n    tag_34:\n      mload(0x40)\n      tag_37\n      swap2\n      swap1\n      tag_21\n      jump\t// in\n    tag_37:\n      mload(0x40)\n      dup1\n      swap2\n      sub\n      swap1\n      return\n        /* \"contracts/1_Storage.sol\":1658:2364  function vote(address candidate, uint256 votes) external {... */\n    tag_8:\n      tag_38\n      0x04\n      dup1\n      calldatasize\n      sub\n      dup2\n      add\n      swap1\n      tag_39\n      swap2\n      swap1\n      tag_40\n      jump\t// in\n    tag_39:\n      tag_41\n      jump\t// in\n    tag_38:\n      stop\n        /* \"contracts/1_Storage.sol\":402:442  mapping(address => uint8) public winners */\n    tag_9:\n      tag_42\n      0x04\n      dup1\n      calldatasize\n      sub\n      dup2\n      add\n      swap1\n      tag_43\n      swap2\n      swap1\n      tag_44\n      jump\t// in\n    tag_43:\n      tag_45\n      jump\t// in\n    tag_42:\n      mload(0x40)\n      tag_46\n      swap2\n      swap1\n      tag_47\n      jump\t// in\n    tag_46:\n      mload(0x40)\n      dup1\n      swap2\n      sub\n      swap1\n      return\n        /* \"contracts/1_Storage.sol\":839:916  function getRound() public view returns (uint8) {... */\n    tag_10:\n      tag_48\n      tag_49\n      jump\t// in\n    tag_48:\n      mload(0x40)\n      tag_50\n      swap2\n      swap1\n      tag_47\n      jump\t// in\n    tag_50:\n      mload(0x40)\n      dup1\n      swap2\n      sub\n      swap1\n      return\n        /* \"contracts/1_Storage.sol\":1023:1124  function getAirdropPerPerson() public view returns (uint256) {... */\n    tag_11:\n      tag_51\n      tag_52\n      jump\t// in\n    tag_51:\n      mload(0x40)\n      tag_53\n      swap2\n      swap1\n      tag_21\n      jump\t// in\n    tag_53:\n      mload(0x40)\n      dup1\n      swap2\n      sub\n      swap1\n      return\n        /* \"contracts/1_Storage.sol\":922:1017  function getCandidateQuantity() public view returns(uint256) {... */\n    tag_12:\n      tag_54\n      tag_55\n      jump\t// in\n    tag_54:\n      mload(0x40)\n      tag_56\n      swap2\n      swap1\n      tag_21\n      jump\t// in\n    tag_56:\n      mload(0x40)\n      dup1\n      swap2\n      sub\n      swap1\n      return\n        /* \"contracts/1_Storage.sol\":1130:1268  function getMaxElectionToken() public view returns (uint256) {... */\n    tag_13:\n      tag_57\n      tag_58\n      jump\t// in\n    tag_57:\n      mload(0x40)\n      tag_59\n      swap2\n      swap1\n      tag_21\n      jump\t// in\n    tag_59:\n      mload(0x40)\n      dup1\n      swap2\n      sub\n      swap1\n      return\n        /* \"contracts/1_Storage.sol\":1456:1652  function sync() external {... */\n    tag_14:\n      tag_60\n      tag_61\n      jump\t// in\n    tag_60:\n      stop\n        /* \"contracts/1_Storage.sol\":196:259  mapping(uint8 => mapping(address => uint256)) public givenVotes */\n    tag_19:\n      mstore(0x20, 0x03)\n      dup2\n      0x00\n      mstore\n      mstore(0x20, keccak256(0x00, 0x40))\n      dup1\n      0x00\n      mstore\n      keccak256(0x00, 0x40)\n      0x00\n      swap2\n      pop\n      swap2\n      pop\n      pop\n      sload\n      dup2\n      jump\t// out\n        /* \"contracts/1_Storage.sol\":1274:1425  function getMaxVotesForCandidate() public view returns (uint256) {... */\n    tag_23:\n        /* \"contracts/1_Storage.sol\":1330:1337  uint256 */\n      0x00\n        /* \"contracts/1_Storage.sol\":1396:1418  getCandidateQuantity() */\n      tag_63\n        /* \"contracts/1_Storage.sol\":1396:1416  getCandidateQuantity */\n      tag_55\n        /* \"contracts/1_Storage.sol\":1396:1418  getCandidateQuantity() */\n      jump\t// in\n    tag_63:\n        /* \"contracts/1_Storage.sol\":1380:1393  communitySize */\n      sload(0x07)\n        /* \"contracts/1_Storage.sol\":1356:1377  getMaxElectionToken() */\n      tag_64\n        /* \"contracts/1_Storage.sol\":1356:1375  getMaxElectionToken */\n      tag_58\n        /* \"contracts/1_Storage.sol\":1356:1377  getMaxElectionToken() */\n      jump\t// in\n    tag_64:\n        /* \"contracts/1_Storage.sol\":1356:1393  getMaxElectionToken() * communitySize */\n      tag_65\n      swap2\n      swap1\n      tag_66\n      jump\t// in\n    tag_65:\n        /* \"contracts/1_Storage.sol\":1356:1418  getMaxElectionToken() * communitySize / getCandidateQuantity() */\n      tag_67\n      swap2\n      swap1\n      tag_68\n      jump\t// in\n    tag_67:\n        /* \"contracts/1_Storage.sol\":1349:1418  return getMaxElectionToken() * communitySize / getCandidateQuantity() */\n      swap1\n      pop\n        /* \"contracts/1_Storage.sol\":1274:1425  function getMaxVotesForCandidate() public view returns (uint256) {... */\n      swap1\n      jump\t// out\n        /* \"contracts/1_Storage.sol\":2370:2490  function whitelist(address account, uint8 networkId, bytes memory signature) external{... */\n    tag_28:\n      pop\n      pop\n      pop\n      jump\t// out\n        /* \"contracts/1_Storage.sol\":448:487  mapping(uint8 => uint256) public missed */\n    tag_32:\n      mstore(0x20, 0x06)\n      dup1\n      0x00\n      mstore\n      keccak256(0x00, 0x40)\n      0x00\n      swap2\n      pop\n      swap1\n      pop\n      sload\n      dup2\n      jump\t// out\n        /* \"contracts/1_Storage.sol\":293:360  mapping(uint8 => mapping(address => uint256)) public candidateVotes */\n    tag_36:\n      mstore(0x20, 0x04)\n      dup2\n      0x00\n      mstore\n      mstore(0x20, keccak256(0x00, 0x40))\n      dup1\n      0x00\n      mstore\n      keccak256(0x00, 0x40)\n      0x00\n      swap2\n      pop\n      swap2\n      pop\n      pop\n      sload\n      dup2\n      jump\t// out\n        /* \"contracts/1_Storage.sol\":1658:2364  function vote(address candidate, uint256 votes) external {... */\n    tag_41:\n        /* \"contracts/1_Storage.sol\":1814:1835  getMaxElectionToken() */\n      tag_71\n        /* \"contracts/1_Storage.sol\":1814:1833  getMaxElectionToken */\n      tag_58\n        /* \"contracts/1_Storage.sol\":1814:1835  getMaxElectionToken() */\n      jump\t// in\n    tag_71:\n        /* \"contracts/1_Storage.sol\":1806:1811  votes */\n      dup2\n        /* \"contracts/1_Storage.sol\":1774:1784  givenVotes */\n      0x03\n        /* \"contracts/1_Storage.sol\":1774:1791  givenVotes[round] */\n      0x00\n        /* \"contracts/1_Storage.sol\":1785:1790  round */\n      dup1\n      0x00\n      swap1\n      sload\n      swap1\n      0x0100\n      exp\n      swap1\n      div\n      0xff\n      and\n        /* \"contracts/1_Storage.sol\":1774:1791  givenVotes[round] */\n      0xff\n      and\n      0xff\n      and\n      dup2\n      mstore\n      0x20\n      add\n      swap1\n      dup2\n      mstore\n      0x20\n      add\n      0x00\n      keccak256\n        /* \"contracts/1_Storage.sol\":1774:1803  givenVotes[round][msg.sender] */\n      0x00\n        /* \"contracts/1_Storage.sol\":1792:1802  msg.sender */\n      caller\n        /* \"contracts/1_Storage.sol\":1774:1803  givenVotes[round][msg.sender] */\n      0xffffffffffffffffffffffffffffffffffffffff\n      and\n      0xffffffffffffffffffffffffffffffffffffffff\n      and\n      dup2\n      mstore\n      0x20\n      add\n      swap1\n      dup2\n      mstore\n      0x20\n      add\n      0x00\n      keccak256\n      sload\n        /* \"contracts/1_Storage.sol\":1774:1811  givenVotes[round][msg.sender] + votes */\n      tag_72\n      swap2\n      swap1\n      tag_73\n      jump\t// in\n    tag_72:\n        /* \"contracts/1_Storage.sol\":1774:1835  givenVotes[round][msg.sender] + votes > getMaxElectionToken() */\n      gt\n        /* \"contracts/1_Storage.sol\":1766:1871  require(givenVotes[round][msg.sender] + votes > getMaxElectionToken(), \"Voting limit excedeed for round\") */\n      tag_74\n      jumpi\n      mload(0x40)\n      0x08c379a000000000000000000000000000000000000000000000000000000000\n      dup2\n      mstore\n      0x04\n      add\n      tag_75\n      swap1\n      tag_76\n      jump\t// in\n    tag_75:\n      mload(0x40)\n      dup1\n      swap2\n      sub\n      swap1\n      revert\n    tag_74:\n        /* \"contracts/1_Storage.sol\":1932:1957  getMaxVotesForCandidate() */\n      tag_77\n        /* \"contracts/1_Storage.sol\":1932:1955  getMaxVotesForCandidate */\n      tag_23\n        /* \"contracts/1_Storage.sol\":1932:1957  getMaxVotesForCandidate() */\n      jump\t// in\n    tag_77:\n        /* \"contracts/1_Storage.sol\":1924:1929  votes */\n      dup2\n        /* \"contracts/1_Storage.sol\":1889:1903  candidateVotes */\n      0x04\n        /* \"contracts/1_Storage.sol\":1889:1910  candidateVotes[round] */\n      0x00\n        /* \"contracts/1_Storage.sol\":1904:1909  round */\n      dup1\n      0x00\n      swap1\n      sload\n      swap1\n      0x0100\n      exp\n      swap1\n      div\n      0xff\n      and\n        /* \"contracts/1_Storage.sol\":1889:1910  candidateVotes[round] */\n      0xff\n      and\n      0xff\n      and\n      dup2\n      mstore\n      0x20\n      add\n      swap1\n      dup2\n      mstore\n      0x20\n      add\n      0x00\n      keccak256\n        /* \"contracts/1_Storage.sol\":1889:1921  candidateVotes[round][candidate] */\n      0x00\n        /* \"contracts/1_Storage.sol\":1911:1920  candidate */\n      dup6\n        /* \"contracts/1_Storage.sol\":1889:1921  candidateVotes[round][candidate] */\n      0xffffffffffffffffffffffffffffffffffffffff\n      and\n      0xffffffffffffffffffffffffffffffffffffffff\n      and\n      dup2\n      mstore\n      0x20\n      add\n      swap1\n      dup2\n      mstore\n      0x20\n      add\n      0x00\n      keccak256\n      sload\n        /* \"contracts/1_Storage.sol\":1889:1929  candidateVotes[round][candidate] + votes */\n      tag_78\n      swap2\n      swap1\n      tag_73\n      jump\t// in\n    tag_78:\n        /* \"contracts/1_Storage.sol\":1889:1957  candidateVotes[round][candidate] + votes > getMaxVotesForCandidate() */\n      gt\n        /* \"contracts/1_Storage.sol\":1881:2002  require(candidateVotes[round][candidate] + votes > getMaxVotesForCandidate(), \"Candidate votes limit excedeed for round\") */\n      tag_79\n      jumpi\n      mload(0x40)\n      0x08c379a000000000000000000000000000000000000000000000000000000000\n      dup2\n      mstore\n      0x04\n      add\n      tag_80\n      swap1\n      tag_81\n      jump\t// in\n    tag_80:\n      mload(0x40)\n      dup1\n      swap2\n      sub\n      swap1\n      revert\n    tag_79:\n        /* \"contracts/1_Storage.sol\":2073:2078  votes */\n      dup1\n        /* \"contracts/1_Storage.sol\":2040:2050  givenVotes */\n      0x03\n        /* \"contracts/1_Storage.sol\":2040:2057  givenVotes[round] */\n      0x00\n        /* \"contracts/1_Storage.sol\":2051:2056  round */\n      dup1\n      0x00\n      swap1\n      sload\n      swap1\n      0x0100\n      exp\n      swap1\n      div\n      0xff\n      and\n        /* \"contracts/1_Storage.sol\":2040:2057  givenVotes[round] */\n      0xff\n      and\n      0xff\n      and\n      dup2\n      mstore\n      0x20\n      add\n      swap1\n      dup2\n      mstore\n      0x20\n      add\n      0x00\n      keccak256\n        /* \"contracts/1_Storage.sol\":2040:2069  givenVotes[round][msg.sender] */\n      0x00\n        /* \"contracts/1_Storage.sol\":2058:2068  msg.sender */\n      caller\n        /* \"contracts/1_Storage.sol\":2040:2069  givenVotes[round][msg.sender] */\n      0xffffffffffffffffffffffffffffffffffffffff\n      and\n      0xffffffffffffffffffffffffffffffffffffffff\n      and\n      dup2\n      mstore\n      0x20\n      add\n      swap1\n      dup2\n      mstore\n      0x20\n      add\n      0x00\n      keccak256\n      0x00\n        /* \"contracts/1_Storage.sol\":2040:2078  givenVotes[round][msg.sender] += votes */\n      dup3\n      dup3\n      sload\n      tag_82\n      swap2\n      swap1\n      tag_73\n      jump\t// in\n    tag_82:\n      swap3\n      pop\n      pop\n      dup2\n      swap1\n      sstore\n      pop\n        /* \"contracts/1_Storage.sol\":2124:2129  votes */\n      dup1\n        /* \"contracts/1_Storage.sol\":2088:2102  candidateVotes */\n      0x04\n        /* \"contracts/1_Storage.sol\":2088:2109  candidateVotes[round] */\n      0x00\n        /* \"contracts/1_Storage.sol\":2103:2108  round */\n      dup1\n      0x00\n      swap1\n      sload\n      swap1\n      0x0100\n      exp\n      swap1\n      div\n      0xff\n      and\n        /* \"contracts/1_Storage.sol\":2088:2109  candidateVotes[round] */\n      0xff\n      and\n      0xff\n      and\n      dup2\n      mstore\n      0x20\n      add\n      swap1\n      dup2\n      mstore\n      0x20\n      add\n      0x00\n      keccak256\n        /* \"contracts/1_Storage.sol\":2088:2120  candidateVotes[round][candidate] */\n      0x00\n        /* \"contracts/1_Storage.sol\":2110:2119  candidate */\n      dup5\n        /* \"contracts/1_Storage.sol\":2088:2120  candidateVotes[round][candidate] */\n      0xffffffffffffffffffffffffffffffffffffffff\n      and\n      0xffffffffffffffffffffffffffffffffffffffff\n      and\n      dup2\n      mstore\n      0x20\n      add\n      swap1\n      dup2\n      mstore\n      0x20\n      add\n      0x00\n      keccak256\n      0x00\n        /* \"contracts/1_Storage.sol\":2088:2129  candidateVotes[round][candidate] += votes */\n      dup3\n      dup3\n      sload\n      tag_83\n      swap2\n      swap1\n      tag_73\n      jump\t// in\n    tag_83:\n      swap3\n      pop\n      pop\n      dup2\n      swap1\n      sstore\n      pop\n        /* \"contracts/1_Storage.sol\":2179:2204  getMaxVotesForCandidate() */\n      tag_84\n        /* \"contracts/1_Storage.sol\":2179:2202  getMaxVotesForCandidate */\n      tag_23\n        /* \"contracts/1_Storage.sol\":2179:2204  getMaxVotesForCandidate() */\n      jump\t// in\n    tag_84:\n        /* \"contracts/1_Storage.sol\":2143:2157  candidateVotes */\n      0x04\n        /* \"contracts/1_Storage.sol\":2143:2164  candidateVotes[round] */\n      0x00\n        /* \"contracts/1_Storage.sol\":2158:2163  round */\n      dup1\n      0x00\n      swap1\n      sload\n      swap1\n      0x0100\n      exp\n      swap1\n      div\n      0xff\n      and\n        /* \"contracts/1_Storage.sol\":2143:2164  candidateVotes[round] */\n      0xff\n      and\n      0xff\n      and\n      dup2\n      mstore\n      0x20\n      add\n      swap1\n      dup2\n      mstore\n      0x20\n      add\n      0x00\n      keccak256\n        /* \"contracts/1_Storage.sol\":2143:2175  candidateVotes[round][candidate] */\n      0x00\n        /* \"contracts/1_Storage.sol\":2165:2174  candidate */\n      dup5\n        /* \"contracts/1_Storage.sol\":2143:2175  candidateVotes[round][candidate] */\n      0xffffffffffffffffffffffffffffffffffffffff\n      and\n      0xffffffffffffffffffffffffffffffffffffffff\n      and\n      dup2\n      mstore\n      0x20\n      add\n      swap1\n      dup2\n      mstore\n      0x20\n      add\n      0x00\n      keccak256\n      sload\n        /* \"contracts/1_Storage.sol\":2143:2204  candidateVotes[round][candidate] == getMaxVotesForCandidate() */\n      eq\n        /* \"contracts/1_Storage.sol\":2140:2358  if(candidateVotes[round][candidate] == getMaxVotesForCandidate()) {... */\n      iszero\n      tag_85\n      jumpi\n        /* \"contracts/1_Storage.sol\":2220:2241  _addWinner(candidate) */\n      tag_86\n        /* \"contracts/1_Storage.sol\":2231:2240  candidate */\n      dup3\n        /* \"contracts/1_Storage.sol\":2220:2230  _addWinner */\n      tag_87\n        /* \"contracts/1_Storage.sol\":2220:2241  _addWinner(candidate) */\n      jump\t// in\n    tag_86:\n        /* \"contracts/1_Storage.sol\":2277:2299  getCandidateQuantity() */\n      tag_88\n        /* \"contracts/1_Storage.sol\":2277:2297  getCandidateQuantity */\n      tag_55\n        /* \"contracts/1_Storage.sol\":2277:2299  getCandidateQuantity() */\n      jump\t// in\n    tag_88:\n        /* \"contracts/1_Storage.sol\":2259:2273  winnersOfRound */\n      sload(0x08)\n        /* \"contracts/1_Storage.sol\":2259:2299  winnersOfRound == getCandidateQuantity() */\n      eq\n        /* \"contracts/1_Storage.sol\":2256:2348  if(winnersOfRound == getCandidateQuantity()) {... */\n      iszero\n      tag_89\n      jumpi\n        /* \"contracts/1_Storage.sol\":2319:2333  _updateRound() */\n      tag_90\n        /* \"contracts/1_Storage.sol\":2319:2331  _updateRound */\n      tag_91\n        /* \"contracts/1_Storage.sol\":2319:2333  _updateRound() */\n      jump\t// in\n    tag_90:\n        /* \"contracts/1_Storage.sol\":2256:2348  if(winnersOfRound == getCandidateQuantity()) {... */\n    tag_89:\n        /* \"contracts/1_Storage.sol\":2140:2358  if(candidateVotes[round][candidate] == getMaxVotesForCandidate()) {... */\n    tag_85:\n        /* \"contracts/1_Storage.sol\":1658:2364  function vote(address candidate, uint256 votes) external {... */\n      pop\n      pop\n      jump\t// out\n        /* \"contracts/1_Storage.sol\":402:442  mapping(address => uint8) public winners */\n    tag_45:\n      mstore(0x20, 0x05)\n      dup1\n      0x00\n      mstore\n      keccak256(0x00, 0x40)\n      0x00\n      swap2\n      pop\n      sload\n      swap1\n      0x0100\n      exp\n      swap1\n      div\n      0xff\n      and\n      dup2\n      jump\t// out\n        /* \"contracts/1_Storage.sol\":839:916  function getRound() public view returns (uint8) {... */\n    tag_49:\n        /* \"contracts/1_Storage.sol\":880:885  uint8 */\n      0x00\n        /* \"contracts/1_Storage.sol\":904:909  round */\n      dup1\n      0x00\n      swap1\n      sload\n      swap1\n      0x0100\n      exp\n      swap1\n      div\n      0xff\n      and\n        /* \"contracts/1_Storage.sol\":897:909  return round */\n      swap1\n      pop\n        /* \"contracts/1_Storage.sol\":839:916  function getRound() public view returns (uint8) {... */\n      swap1\n      jump\t// out\n        /* \"contracts/1_Storage.sol\":1023:1124  function getAirdropPerPerson() public view returns (uint256) {... */\n    tag_52:\n        /* \"contracts/1_Storage.sol\":1075:1082  uint256 */\n      0x00\n        /* \"contracts/1_Storage.sol\":1101:1117  airdropPerPerson */\n      sload(0x01)\n        /* \"contracts/1_Storage.sol\":1094:1117  return airdropPerPerson */\n      swap1\n      pop\n        /* \"contracts/1_Storage.sol\":1023:1124  function getAirdropPerPerson() public view returns (uint256) {... */\n      swap1\n      jump\t// out\n        /* \"contracts/1_Storage.sol\":922:1017  function getCandidateQuantity() public view returns(uint256) {... */\n    tag_55:\n        /* \"contracts/1_Storage.sol\":974:981  uint256 */\n      0x00\n        /* \"contracts/1_Storage.sol\":1005:1010  round */\n      dup1\n      0x00\n      swap1\n      sload\n      swap1\n      0x0100\n      exp\n      swap1\n      div\n      0xff\n      and\n        /* \"contracts/1_Storage.sol\":1000:1001  2 */\n      0x02\n        /* \"contracts/1_Storage.sol\":1000:1010  2 ** round */\n      tag_95\n      swap2\n      swap1\n      tag_96\n      jump\t// in\n    tag_95:\n        /* \"contracts/1_Storage.sol\":993:1010  return 2 ** round */\n      swap1\n      pop\n        /* \"contracts/1_Storage.sol\":922:1017  function getCandidateQuantity() public view returns(uint256) {... */\n      swap1\n      jump\t// out\n        /* \"contracts/1_Storage.sol\":1130:1268  function getMaxElectionToken() public view returns (uint256) {... */\n    tag_58:\n        /* \"contracts/1_Storage.sol\":1182:1189  uint256 */\n      0x00\n        /* \"contracts/1_Storage.sol\":1240:1261  getAirdropPerPerson() */\n      tag_98\n        /* \"contracts/1_Storage.sol\":1240:1259  getAirdropPerPerson */\n      tag_52\n        /* \"contracts/1_Storage.sol\":1240:1261  getAirdropPerPerson() */\n      jump\t// in\n    tag_98:\n        /* \"contracts/1_Storage.sol\":1208:1237  previousRoundAirdropPerPerson */\n      sload(0x02)\n        /* \"contracts/1_Storage.sol\":1208:1261  previousRoundAirdropPerPerson - getAirdropPerPerson() */\n      tag_99\n      swap2\n      swap1\n      tag_100\n      jump\t// in\n    tag_99:\n        /* \"contracts/1_Storage.sol\":1201:1261  return previousRoundAirdropPerPerson - getAirdropPerPerson() */\n      swap1\n      pop\n        /* \"contracts/1_Storage.sol\":1130:1268  function getMaxElectionToken() public view returns (uint256) {... */\n      swap1\n      jump\t// out\n        /* \"contracts/1_Storage.sol\":1456:1652  function sync() external {... */\n    tag_61:\n        /* \"contracts/1_Storage.sol\":1521:1536  block.timestamp */\n      timestamp\n        /* \"contracts/1_Storage.sol\":1511:1517  7 days */\n      0x093a80\n        /* \"contracts/1_Storage.sol\":1494:1508  roundStartedAt */\n      sload(0x09)\n        /* \"contracts/1_Storage.sol\":1494:1517  roundStartedAt + 7 days */\n      tag_102\n      swap2\n      swap1\n      tag_73\n      jump\t// in\n    tag_102:\n        /* \"contracts/1_Storage.sol\":1494:1536  roundStartedAt + 7 days >= block.timestamp */\n      lt\n        /* \"contracts/1_Storage.sol\":1491:1646  if(roundStartedAt + 7 days >= block.timestamp) {... */\n      tag_103\n      jumpi\n        /* \"contracts/1_Storage.sol\":1552:1566  _updateRound() */\n      tag_104\n        /* \"contracts/1_Storage.sol\":1552:1564  _updateRound */\n      tag_91\n        /* \"contracts/1_Storage.sol\":1552:1566  _updateRound() */\n      jump\t// in\n    tag_104:\n        /* \"contracts/1_Storage.sol\":1621:1635  winnersOfRound */\n      sload(0x08)\n        /* \"contracts/1_Storage.sol\":1596:1618  getCandidateQuantity() */\n      tag_105\n        /* \"contracts/1_Storage.sol\":1596:1616  getCandidateQuantity */\n      tag_55\n        /* \"contracts/1_Storage.sol\":1596:1618  getCandidateQuantity() */\n      jump\t// in\n    tag_105:\n        /* \"contracts/1_Storage.sol\":1596:1635  getCandidateQuantity() - winnersOfRound */\n      tag_106\n      swap2\n      swap1\n      tag_100\n      jump\t// in\n    tag_106:\n        /* \"contracts/1_Storage.sol\":1580:1586  missed */\n      0x06\n        /* \"contracts/1_Storage.sol\":1580:1593  missed[round] */\n      0x00\n        /* \"contracts/1_Storage.sol\":1587:1592  round */\n      dup1\n      0x00\n      swap1\n      sload\n      swap1\n      0x0100\n      exp\n      swap1\n      div\n      0xff\n      and\n        /* \"contracts/1_Storage.sol\":1580:1593  missed[round] */\n      0xff\n      and\n      0xff\n      and\n      dup2\n      mstore\n      0x20\n      add\n      swap1\n      dup2\n      mstore\n      0x20\n      add\n      0x00\n      keccak256\n        /* \"contracts/1_Storage.sol\":1580:1635  missed[round] = getCandidateQuantity() - winnersOfRound */\n      dup2\n      swap1\n      sstore\n      pop\n        /* \"contracts/1_Storage.sol\":1491:1646  if(roundStartedAt + 7 days >= block.timestamp) {... */\n    tag_103:\n        /* \"contracts/1_Storage.sol\":1456:1652  function sync() external {... */\n      jump\t// out\n        /* \"contracts/1_Storage.sol\":2497:2613  function _addWinner(address account) internal {... */\n    tag_87:\n        /* \"contracts/1_Storage.sol\":2572:2577  round */\n      0x00\n      dup1\n      sload\n      swap1\n      0x0100\n      exp\n      swap1\n      div\n      0xff\n      and\n        /* \"contracts/1_Storage.sol\":2553:2560  winners */\n      0x05\n        /* \"contracts/1_Storage.sol\":2553:2569  winners[account] */\n      0x00\n        /* \"contracts/1_Storage.sol\":2561:2568  account */\n      dup4\n        /* \"contracts/1_Storage.sol\":2553:2569  winners[account] */\n      0xffffffffffffffffffffffffffffffffffffffff\n      and\n      0xffffffffffffffffffffffffffffffffffffffff\n      and\n      dup2\n      mstore\n      0x20\n      add\n      swap1\n      dup2\n      mstore\n      0x20\n      add\n      0x00\n      keccak256\n      0x00\n        /* \"contracts/1_Storage.sol\":2553:2577  winners[account] = round */\n      0x0100\n      exp\n      dup2\n      sload\n      dup2\n      0xff\n      mul\n      not\n      and\n      swap1\n      dup4\n      0xff\n      and\n      mul\n      or\n      swap1\n      sstore\n      pop\n        /* \"contracts/1_Storage.sol\":2605:2606  1 */\n      0x01\n        /* \"contracts/1_Storage.sol\":2587:2601  winnersOfRound */\n      0x08\n      0x00\n        /* \"contracts/1_Storage.sol\":2587:2606  winnersOfRound += 1 */\n      dup3\n      dup3\n      sload\n      tag_108\n      swap2\n      swap1\n      tag_73\n      jump\t// in\n    tag_108:\n      swap3\n      pop\n      pop\n      dup2\n      swap1\n      sstore\n      pop\n        /* \"contracts/1_Storage.sol\":2497:2613  function _addWinner(address account) internal {... */\n      pop\n      jump\t// out\n        /* \"contracts/1_Storage.sol\":2791:3043  function _updateRound() internal  {... */\n    tag_91:\n        /* \"contracts/1_Storage.sol\":2880:2905  _updateAirdropPerPerson() */\n      tag_110\n        /* \"contracts/1_Storage.sol\":2880:2903  _updateAirdropPerPerson */\n      tag_111\n        /* \"contracts/1_Storage.sol\":2880:2905  _updateAirdropPerPerson() */\n      jump\t// in\n    tag_110:\n        /* \"contracts/1_Storage.sol\":2932:2946  winnersOfRound */\n      sload(0x08)\n        /* \"contracts/1_Storage.sol\":2915:2928  communitySize */\n      0x07\n      0x00\n        /* \"contracts/1_Storage.sol\":2915:2946  communitySize += winnersOfRound */\n      dup3\n      dup3\n      sload\n      tag_112\n      swap2\n      swap1\n      tag_73\n      jump\t// in\n    tag_112:\n      swap3\n      pop\n      pop\n      dup2\n      swap1\n      sstore\n      pop\n        /* \"contracts/1_Storage.sol\":2973:2974  0 */\n      0x00\n        /* \"contracts/1_Storage.sol\":2956:2970  winnersOfRound */\n      0x08\n        /* \"contracts/1_Storage.sol\":2956:2974  winnersOfRound = 0 */\n      dup2\n      swap1\n      sstore\n      pop\n        /* \"contracts/1_Storage.sol\":3001:3016  block.timestamp */\n      timestamp\n        /* \"contracts/1_Storage.sol\":2984:2998  roundStartedAt */\n      0x09\n        /* \"contracts/1_Storage.sol\":2984:3016  roundStartedAt = block.timestamp */\n      dup2\n      swap1\n      sstore\n      pop\n        /* \"contracts/1_Storage.sol\":3035:3036  1 */\n      0x01\n        /* \"contracts/1_Storage.sol\":3026:3031  round */\n      0x00\n      dup1\n        /* \"contracts/1_Storage.sol\":3026:3036  round += 1 */\n      dup3\n      dup3\n      dup3\n      swap1\n      sload\n      swap1\n      0x0100\n      exp\n      swap1\n      div\n      0xff\n      and\n      tag_113\n      swap2\n      swap1\n      tag_114\n      jump\t// in\n    tag_113:\n      swap3\n      pop\n      0x0100\n      exp\n      dup2\n      sload\n      dup2\n      0xff\n      mul\n      not\n      and\n      swap1\n      dup4\n      0xff\n      and\n      mul\n      or\n      swap1\n      sstore\n      pop\n        /* \"contracts/1_Storage.sol\":2791:3043  function _updateRound() internal  {... */\n      jump\t// out\n        /* \"contracts/1_Storage.sol\":2619:2785  function _updateAirdropPerPerson() internal {... */\n    tag_111:\n        /* \"contracts/1_Storage.sol\":2705:2721  airdropPerPerson */\n      sload(0x01)\n        /* \"contracts/1_Storage.sol\":2673:2702  previousRoundAirdropPerPerson */\n      0x02\n        /* \"contracts/1_Storage.sol\":2673:2721  previousRoundAirdropPerPerson = airdropPerPerson */\n      dup2\n      swap1\n      sstore\n      pop\n        /* \"contracts/1_Storage.sol\":2776:2778  15 */\n      0x0f\n        /* \"contracts/1_Storage.sol\":2770:2772  10 */\n      0x0a\n        /* \"contracts/1_Storage.sol\":2751:2767  airdropPerPerson */\n      sload(0x01)\n        /* \"contracts/1_Storage.sol\":2751:2772  airdropPerPerson * 10 */\n      tag_116\n      swap2\n      swap1\n      tag_66\n      jump\t// in\n    tag_116:\n        /* \"contracts/1_Storage.sol\":2750:2778  (airdropPerPerson * 10) / 15 */\n      tag_117\n      swap2\n      swap1\n      tag_68\n      jump\t// in\n    tag_117:\n        /* \"contracts/1_Storage.sol\":2731:2747  airdropPerPerson */\n      0x01\n        /* \"contracts/1_Storage.sol\":2731:2778  airdropPerPerson = (airdropPerPerson * 10) / 15 */\n      dup2\n      swap1\n      sstore\n      pop\n        /* \"contracts/1_Storage.sol\":2619:2785  function _updateAirdropPerPerson() internal {... */\n      jump\t// out\n        /* \"#utility.yul\":7:417   */\n    tag_119:\n        /* \"#utility.yul\":84:89   */\n      0x00\n        /* \"#utility.yul\":109:174   */\n      tag_121\n        /* \"#utility.yul\":125:173   */\n      tag_122\n        /* \"#utility.yul\":166:172   */\n      dup5\n        /* \"#utility.yul\":125:173   */\n      tag_123\n      jump\t// in\n    tag_122:\n        /* \"#utility.yul\":109:174   */\n      tag_124\n      jump\t// in\n    tag_121:\n        /* \"#utility.yul\":100:174   */\n      swap1\n      pop\n        /* \"#utility.yul\":197:203   */\n      dup3\n        /* \"#utility.yul\":190:195   */\n      dup2\n        /* \"#utility.yul\":183:204   */\n      mstore\n        /* \"#utility.yul\":235:239   */\n      0x20\n        /* \"#utility.yul\":228:233   */\n      dup2\n        /* \"#utility.yul\":224:240   */\n      add\n        /* \"#utility.yul\":273:276   */\n      dup5\n        /* \"#utility.yul\":264:270   */\n      dup5\n        /* \"#utility.yul\":259:262   */\n      dup5\n        /* \"#utility.yul\":255:271   */\n      add\n        /* \"#utility.yul\":252:277   */\n      gt\n        /* \"#utility.yul\":249:361   */\n      iszero\n      tag_125\n      jumpi\n        /* \"#utility.yul\":280:359   */\n      tag_126\n      tag_127\n      jump\t// in\n    tag_126:\n        /* \"#utility.yul\":249:361   */\n    tag_125:\n        /* \"#utility.yul\":370:411   */\n      tag_128\n        /* \"#utility.yul\":404:410   */\n      dup5\n        /* \"#utility.yul\":399:402   */\n      dup3\n        /* \"#utility.yul\":394:397   */\n      dup6\n        /* \"#utility.yul\":370:411   */\n      tag_129\n      jump\t// in\n    tag_128:\n        /* \"#utility.yul\":90:417   */\n      pop\n        /* \"#utility.yul\":7:417   */\n      swap4\n      swap3\n      pop\n      pop\n      pop\n      jump\t// out\n        /* \"#utility.yul\":423:562   */\n    tag_130:\n        /* \"#utility.yul\":469:474   */\n      0x00\n        /* \"#utility.yul\":507:513   */\n      dup2\n        /* \"#utility.yul\":494:514   */\n      calldataload\n        /* \"#utility.yul\":485:514   */\n      swap1\n      pop\n        /* \"#utility.yul\":523:556   */\n      tag_132\n        /* \"#utility.yul\":550:555   */\n      dup2\n        /* \"#utility.yul\":523:556   */\n      tag_133\n      jump\t// in\n    tag_132:\n        /* \"#utility.yul\":423:562   */\n      swap3\n      swap2\n      pop\n      pop\n      jump\t// out\n        /* \"#utility.yul\":581:919   */\n    tag_134:\n        /* \"#utility.yul\":636:641   */\n      0x00\n        /* \"#utility.yul\":685:688   */\n      dup3\n        /* \"#utility.yul\":678:682   */\n      0x1f\n        /* \"#utility.yul\":670:676   */\n      dup4\n        /* \"#utility.yul\":666:683   */\n      add\n        /* \"#utility.yul\":662:689   */\n      slt\n        /* \"#utility.yul\":652:774   */\n      tag_136\n      jumpi\n        /* \"#utility.yul\":693:772   */\n      tag_137\n      tag_138\n      jump\t// in\n    tag_137:\n        /* \"#utility.yul\":652:774   */\n    tag_136:\n        /* \"#utility.yul\":810:816   */\n      dup2\n        /* \"#utility.yul\":797:817   */\n      calldataload\n        /* \"#utility.yul\":835:913   */\n      tag_139\n        /* \"#utility.yul\":909:912   */\n      dup5\n        /* \"#utility.yul\":901:907   */\n      dup3\n        /* \"#utility.yul\":894:898   */\n      0x20\n        /* \"#utility.yul\":886:892   */\n      dup7\n        /* \"#utility.yul\":882:899   */\n      add\n        /* \"#utility.yul\":835:913   */\n      tag_119\n      jump\t// in\n    tag_139:\n        /* \"#utility.yul\":826:913   */\n      swap2\n      pop\n        /* \"#utility.yul\":642:919   */\n      pop\n        /* \"#utility.yul\":581:919   */\n      swap3\n      swap2\n      pop\n      pop\n      jump\t// out\n        /* \"#utility.yul\":925:1064   */\n    tag_140:\n        /* \"#utility.yul\":971:976   */\n      0x00\n        /* \"#utility.yul\":1009:1015   */\n      dup2\n        /* \"#utility.yul\":996:1016   */\n      calldataload\n        /* \"#utility.yul\":987:1016   */\n      swap1\n      pop\n        /* \"#utility.yul\":1025:1058   */\n      tag_142\n        /* \"#utility.yul\":1052:1057   */\n      dup2\n        /* \"#utility.yul\":1025:1058   */\n      tag_143\n      jump\t// in\n    tag_142:\n        /* \"#utility.yul\":925:1064   */\n      swap3\n      swap2\n      pop\n      pop\n      jump\t// out\n        /* \"#utility.yul\":1070:1205   */\n    tag_144:\n        /* \"#utility.yul\":1114:1119   */\n      0x00\n        /* \"#utility.yul\":1152:1158   */\n      dup2\n        /* \"#utility.yul\":1139:1159   */\n      calldataload\n        /* \"#utility.yul\":1130:1159   */\n      swap1\n      pop\n        /* \"#utility.yul\":1168:1199   */\n      tag_146\n        /* \"#utility.yul\":1193:1198   */\n      dup2\n        /* \"#utility.yul\":1168:1199   */\n      tag_147\n      jump\t// in\n    tag_146:\n        /* \"#utility.yul\":1070:1205   */\n      swap3\n      swap2\n      pop\n      pop\n      jump\t// out\n        /* \"#utility.yul\":1211:1540   */\n    tag_44:\n        /* \"#utility.yul\":1270:1276   */\n      0x00\n        /* \"#utility.yul\":1319:1321   */\n      0x20\n        /* \"#utility.yul\":1307:1316   */\n      dup3\n        /* \"#utility.yul\":1298:1305   */\n      dup5\n        /* \"#utility.yul\":1294:1317   */\n      sub\n        /* \"#utility.yul\":1290:1322   */\n      slt\n        /* \"#utility.yul\":1287:1406   */\n      iszero\n      tag_149\n      jumpi\n        /* \"#utility.yul\":1325:1404   */\n      tag_150\n      tag_151\n      jump\t// in\n    tag_150:\n        /* \"#utility.yul\":1287:1406   */\n    tag_149:\n        /* \"#utility.yul\":1445:1446   */\n      0x00\n        /* \"#utility.yul\":1470:1523   */\n      tag_152\n        /* \"#utility.yul\":1515:1522   */\n      dup5\n        /* \"#utility.yul\":1506:1512   */\n      dup3\n        /* \"#utility.yul\":1495:1504   */\n      dup6\n        /* \"#utility.yul\":1491:1513   */\n      add\n        /* \"#utility.yul\":1470:1523   */\n      tag_130\n      jump\t// in\n    tag_152:\n        /* \"#utility.yul\":1460:1523   */\n      swap2\n      pop\n        /* \"#utility.yul\":1416:1533   */\n      pop\n        /* \"#utility.yul\":1211:1540   */\n      swap3\n      swap2\n      pop\n      pop\n      jump\t// out\n        /* \"#utility.yul\":1546:2020   */\n    tag_40:\n        /* \"#utility.yul\":1614:1620   */\n      0x00\n        /* \"#utility.yul\":1622:1628   */\n      dup1\n        /* \"#utility.yul\":1671:1673   */\n      0x40\n        /* \"#utility.yul\":1659:1668   */\n      dup4\n        /* \"#utility.yul\":1650:1657   */\n      dup6\n        /* \"#utility.yul\":1646:1669   */\n      sub\n        /* \"#utility.yul\":1642:1674   */\n      slt\n        /* \"#utility.yul\":1639:1758   */\n      iszero\n      tag_154\n      jumpi\n        /* \"#utility.yul\":1677:1756   */\n      tag_155\n      tag_151\n      jump\t// in\n    tag_155:\n        /* \"#utility.yul\":1639:1758   */\n    tag_154:\n        /* \"#utility.yul\":1797:1798   */\n      0x00\n        /* \"#utility.yul\":1822:1875   */\n      tag_156\n        /* \"#utility.yul\":1867:1874   */\n      dup6\n        /* \"#utility.yul\":1858:1864   */\n      dup3\n        /* \"#utility.yul\":1847:1856   */\n      dup7\n        /* \"#utility.yul\":1843:1865   */\n      add\n        /* \"#utility.yul\":1822:1875   */\n      tag_130\n      jump\t// in\n    tag_156:\n        /* \"#utility.yul\":1812:1875   */\n      swap3\n      pop\n        /* \"#utility.yul\":1768:1885   */\n      pop\n        /* \"#utility.yul\":1924:1926   */\n      0x20\n        /* \"#utility.yul\":1950:2003   */\n      tag_157\n        /* \"#utility.yul\":1995:2002   */\n      dup6\n        /* \"#utility.yul\":1986:1992   */\n      dup3\n        /* \"#utility.yul\":1975:1984   */\n      dup7\n        /* \"#utility.yul\":1971:1993   */\n      add\n        /* \"#utility.yul\":1950:2003   */\n      tag_140\n      jump\t// in\n    tag_157:\n        /* \"#utility.yul\":1940:2003   */\n      swap2\n      pop\n        /* \"#utility.yul\":1895:2013   */\n      pop\n        /* \"#utility.yul\":1546:2020   */\n      swap3\n      pop\n      swap3\n      swap1\n      pop\n      jump\t// out\n        /* \"#utility.yul\":2026:2819   */\n    tag_27:\n        /* \"#utility.yul\":2110:2116   */\n      0x00\n        /* \"#utility.yul\":2118:2124   */\n      dup1\n        /* \"#utility.yul\":2126:2132   */\n      0x00\n        /* \"#utility.yul\":2175:2177   */\n      0x60\n        /* \"#utility.yul\":2163:2172   */\n      dup5\n        /* \"#utility.yul\":2154:2161   */\n      dup7\n        /* \"#utility.yul\":2150:2173   */\n      sub\n        /* \"#utility.yul\":2146:2178   */\n      slt\n        /* \"#utility.yul\":2143:2262   */\n      iszero\n      tag_159\n      jumpi\n        /* \"#utility.yul\":2181:2260   */\n      tag_160\n      tag_151\n      jump\t// in\n    tag_160:\n        /* \"#utility.yul\":2143:2262   */\n    tag_159:\n        /* \"#utility.yul\":2301:2302   */\n      0x00\n        /* \"#utility.yul\":2326:2379   */\n      tag_161\n        /* \"#utility.yul\":2371:2378   */\n      dup7\n        /* \"#utility.yul\":2362:2368   */\n      dup3\n        /* \"#utility.yul\":2351:2360   */\n      dup8\n        /* \"#utility.yul\":2347:2369   */\n      add\n        /* \"#utility.yul\":2326:2379   */\n      tag_130\n      jump\t// in\n    tag_161:\n        /* \"#utility.yul\":2316:2379   */\n      swap4\n      pop\n        /* \"#utility.yul\":2272:2389   */\n      pop\n        /* \"#utility.yul\":2428:2430   */\n      0x20\n        /* \"#utility.yul\":2454:2505   */\n      tag_162\n        /* \"#utility.yul\":2497:2504   */\n      dup7\n        /* \"#utility.yul\":2488:2494   */\n      dup3\n        /* \"#utility.yul\":2477:2486   */\n      dup8\n        /* \"#utility.yul\":2473:2495   */\n      add\n        /* \"#utility.yul\":2454:2505   */\n      tag_144\n      jump\t// in\n    tag_162:\n        /* \"#utility.yul\":2444:2505   */\n      swap3\n      pop\n        /* \"#utility.yul\":2399:2515   */\n      pop\n        /* \"#utility.yul\":2582:2584   */\n      0x40\n        /* \"#utility.yul\":2571:2580   */\n      dup5\n        /* \"#utility.yul\":2567:2585   */\n      add\n        /* \"#utility.yul\":2554:2586   */\n      calldataload\n        /* \"#utility.yul\":2613:2631   */\n      0xffffffffffffffff\n        /* \"#utility.yul\":2605:2611   */\n      dup2\n        /* \"#utility.yul\":2602:2632   */\n      gt\n        /* \"#utility.yul\":2599:2716   */\n      iszero\n      tag_163\n      jumpi\n        /* \"#utility.yul\":2635:2714   */\n      tag_164\n      tag_165\n      jump\t// in\n    tag_164:\n        /* \"#utility.yul\":2599:2716   */\n    tag_163:\n        /* \"#utility.yul\":2740:2802   */\n      tag_166\n        /* \"#utility.yul\":2794:2801   */\n      dup7\n        /* \"#utility.yul\":2785:2791   */\n      dup3\n        /* \"#utility.yul\":2774:2783   */\n      dup8\n        /* \"#utility.yul\":2770:2792   */\n      add\n        /* \"#utility.yul\":2740:2802   */\n      tag_134\n      jump\t// in\n    tag_166:\n        /* \"#utility.yul\":2730:2802   */\n      swap2\n      pop\n        /* \"#utility.yul\":2525:2812   */\n      pop\n        /* \"#utility.yul\":2026:2819   */\n      swap3\n      pop\n      swap3\n      pop\n      swap3\n      jump\t// out\n        /* \"#utility.yul\":2825:3150   */\n    tag_31:\n        /* \"#utility.yul\":2882:2888   */\n      0x00\n        /* \"#utility.yul\":2931:2933   */\n      0x20\n        /* \"#utility.yul\":2919:2928   */\n      dup3\n        /* \"#utility.yul\":2910:2917   */\n      dup5\n        /* \"#utility.yul\":2906:2929   */\n      sub\n        /* \"#utility.yul\":2902:2934   */\n      slt\n        /* \"#utility.yul\":2899:3018   */\n      iszero\n      tag_168\n      jumpi\n        /* \"#utility.yul\":2937:3016   */\n      tag_169\n      tag_151\n      jump\t// in\n    tag_169:\n        /* \"#utility.yul\":2899:3018   */\n    tag_168:\n        /* \"#utility.yul\":3057:3058   */\n      0x00\n        /* \"#utility.yul\":3082:3133   */\n      tag_170\n        /* \"#utility.yul\":3125:3132   */\n      dup5\n        /* \"#utility.yul\":3116:3122   */\n      dup3\n        /* \"#utility.yul\":3105:3114   */\n      dup6\n        /* \"#utility.yul\":3101:3123   */\n      add\n        /* \"#utility.yul\":3082:3133   */\n      tag_144\n      jump\t// in\n    tag_170:\n        /* \"#utility.yul\":3072:3133   */\n      swap2\n      pop\n        /* \"#utility.yul\":3028:3143   */\n      pop\n        /* \"#utility.yul\":2825:3150   */\n      swap3\n      swap2\n      pop\n      pop\n      jump\t// out\n        /* \"#utility.yul\":3156:3626   */\n    tag_18:\n        /* \"#utility.yul\":3222:3228   */\n      0x00\n        /* \"#utility.yul\":3230:3236   */\n      dup1\n        /* \"#utility.yul\":3279:3281   */\n      0x40\n        /* \"#utility.yul\":3267:3276   */\n      dup4\n        /* \"#utility.yul\":3258:3265   */\n      dup6\n        /* \"#utility.yul\":3254:3277   */\n      sub\n        /* \"#utility.yul\":3250:3282   */\n      slt\n        /* \"#utility.yul\":3247:3366   */\n      iszero\n      tag_172\n      jumpi\n        /* \"#utility.yul\":3285:3364   */\n      tag_173\n      tag_151\n      jump\t// in\n    tag_173:\n        /* \"#utility.yul\":3247:3366   */\n    tag_172:\n        /* \"#utility.yul\":3405:3406   */\n      0x00\n        /* \"#utility.yul\":3430:3481   */\n      tag_174\n        /* \"#utility.yul\":3473:3480   */\n      dup6\n        /* \"#utility.yul\":3464:3470   */\n      dup3\n        /* \"#utility.yul\":3453:3462   */\n      dup7\n        /* \"#utility.yul\":3449:3471   */\n      add\n        /* \"#utility.yul\":3430:3481   */\n      tag_144\n      jump\t// in\n    tag_174:\n        /* \"#utility.yul\":3420:3481   */\n      swap3\n      pop\n        /* \"#utility.yul\":3376:3491   */\n      pop\n        /* \"#utility.yul\":3530:3532   */\n      0x20\n        /* \"#utility.yul\":3556:3609   */\n      tag_175\n        /* \"#utility.yul\":3601:3608   */\n      dup6\n        /* \"#utility.yul\":3592:3598   */\n      dup3\n        /* \"#utility.yul\":3581:3590   */\n      dup7\n        /* \"#utility.yul\":3577:3599   */\n      add\n        /* \"#utility.yul\":3556:3609   */\n      tag_130\n      jump\t// in\n    tag_175:\n        /* \"#utility.yul\":3546:3609   */\n      swap2\n      pop\n        /* \"#utility.yul\":3501:3619   */\n      pop\n        /* \"#utility.yul\":3156:3626   */\n      swap3\n      pop\n      swap3\n      swap1\n      pop\n      jump\t// out\n        /* \"#utility.yul\":3632:3998   */\n    tag_176:\n        /* \"#utility.yul\":3774:3777   */\n      0x00\n        /* \"#utility.yul\":3795:3862   */\n      tag_178\n        /* \"#utility.yul\":3859:3861   */\n      0x28\n        /* \"#utility.yul\":3854:3857   */\n      dup4\n        /* \"#utility.yul\":3795:3862   */\n      tag_179\n      jump\t// in\n    tag_178:\n        /* \"#utility.yul\":3788:3862   */\n      swap2\n      pop\n        /* \"#utility.yul\":3871:3964   */\n      tag_180\n        /* \"#utility.yul\":3960:3963   */\n      dup3\n        /* \"#utility.yul\":3871:3964   */\n      tag_181\n      jump\t// in\n    tag_180:\n        /* \"#utility.yul\":3989:3991   */\n      0x40\n        /* \"#utility.yul\":3984:3987   */\n      dup3\n        /* \"#utility.yul\":3980:3992   */\n      add\n        /* \"#utility.yul\":3973:3992   */\n      swap1\n      pop\n        /* \"#utility.yul\":3632:3998   */\n      swap2\n      swap1\n      pop\n      jump\t// out\n        /* \"#utility.yul\":4004:4370   */\n    tag_182:\n        /* \"#utility.yul\":4146:4149   */\n      0x00\n        /* \"#utility.yul\":4167:4234   */\n      tag_184\n        /* \"#utility.yul\":4231:4233   */\n      0x1f\n        /* \"#utility.yul\":4226:4229   */\n      dup4\n        /* \"#utility.yul\":4167:4234   */\n      tag_179\n      jump\t// in\n    tag_184:\n        /* \"#utility.yul\":4160:4234   */\n      swap2\n      pop\n        /* \"#utility.yul\":4243:4336   */\n      tag_185\n        /* \"#utility.yul\":4332:4335   */\n      dup3\n        /* \"#utility.yul\":4243:4336   */\n      tag_186\n      jump\t// in\n    tag_185:\n        /* \"#utility.yul\":4361:4363   */\n      0x20\n        /* \"#utility.yul\":4356:4359   */\n      dup3\n        /* \"#utility.yul\":4352:4364   */\n      add\n        /* \"#utility.yul\":4345:4364   */\n      swap1\n      pop\n        /* \"#utility.yul\":4004:4370   */\n      swap2\n      swap1\n      pop\n      jump\t// out\n        /* \"#utility.yul\":4376:4494   */\n    tag_187:\n        /* \"#utility.yul\":4463:4487   */\n      tag_189\n        /* \"#utility.yul\":4481:4486   */\n      dup2\n        /* \"#utility.yul\":4463:4487   */\n      tag_190\n      jump\t// in\n    tag_189:\n        /* \"#utility.yul\":4458:4461   */\n      dup3\n        /* \"#utility.yul\":4451:4488   */\n      mstore\n        /* \"#utility.yul\":4376:4494   */\n      pop\n      pop\n      jump\t// out\n        /* \"#utility.yul\":4500:4612   */\n    tag_191:\n        /* \"#utility.yul\":4583:4605   */\n      tag_193\n        /* \"#utility.yul\":4599:4604   */\n      dup2\n        /* \"#utility.yul\":4583:4605   */\n      tag_194\n      jump\t// in\n    tag_193:\n        /* \"#utility.yul\":4578:4581   */\n      dup3\n        /* \"#utility.yul\":4571:4606   */\n      mstore\n        /* \"#utility.yul\":4500:4612   */\n      pop\n      pop\n      jump\t// out\n        /* \"#utility.yul\":4618:5037   */\n    tag_81:\n        /* \"#utility.yul\":4784:4788   */\n      0x00\n        /* \"#utility.yul\":4822:4824   */\n      0x20\n        /* \"#utility.yul\":4811:4820   */\n      dup3\n        /* \"#utility.yul\":4807:4825   */\n      add\n        /* \"#utility.yul\":4799:4825   */\n      swap1\n      pop\n        /* \"#utility.yul\":4871:4880   */\n      dup2\n        /* \"#utility.yul\":4865:4869   */\n      dup2\n        /* \"#utility.yul\":4861:4881   */\n      sub\n        /* \"#utility.yul\":4857:4858   */\n      0x00\n        /* \"#utility.yul\":4846:4855   */\n      dup4\n        /* \"#utility.yul\":4842:4859   */\n      add\n        /* \"#utility.yul\":4835:4882   */\n      mstore\n        /* \"#utility.yul\":4899:5030   */\n      tag_196\n        /* \"#utility.yul\":5025:5029   */\n      dup2\n        /* \"#utility.yul\":4899:5030   */\n      tag_176\n      jump\t// in\n    tag_196:\n        /* \"#utility.yul\":4891:5030   */\n      swap1\n      pop\n        /* \"#utility.yul\":4618:5037   */\n      swap2\n      swap1\n      pop\n      jump\t// out\n        /* \"#utility.yul\":5043:5462   */\n    tag_76:\n        /* \"#utility.yul\":5209:5213   */\n      0x00\n        /* \"#utility.yul\":5247:5249   */\n      0x20\n        /* \"#utility.yul\":5236:5245   */\n      dup3\n        /* \"#utility.yul\":5232:5250   */\n      add\n        /* \"#utility.yul\":5224:5250   */\n      swap1\n      pop\n        /* \"#utility.yul\":5296:5305   */\n      dup2\n        /* \"#utility.yul\":5290:5294   */\n      dup2\n        /* \"#utility.yul\":5286:5306   */\n      sub\n        /* \"#utility.yul\":5282:5283   */\n      0x00\n        /* \"#utility.yul\":5271:5280   */\n      dup4\n        /* \"#utility.yul\":5267:5284   */\n      add\n        /* \"#utility.yul\":5260:5307   */\n      mstore\n        /* \"#utility.yul\":5324:5455   */\n      tag_198\n        /* \"#utility.yul\":5450:5454   */\n      dup2\n        /* \"#utility.yul\":5324:5455   */\n      tag_182\n      jump\t// in\n    tag_198:\n        /* \"#utility.yul\":5316:5455   */\n      swap1\n      pop\n        /* \"#utility.yul\":5043:5462   */\n      swap2\n      swap1\n      pop\n      jump\t// out\n        /* \"#utility.yul\":5468:5690   */\n    tag_21:\n        /* \"#utility.yul\":5561:5565   */\n      0x00\n        /* \"#utility.yul\":5599:5601   */\n      0x20\n        /* \"#utility.yul\":5588:5597   */\n      dup3\n        /* \"#utility.yul\":5584:5602   */\n      add\n        /* \"#utility.yul\":5576:5602   */\n      swap1\n      pop\n        /* \"#utility.yul\":5612:5683   */\n      tag_200\n        /* \"#utility.yul\":5680:5681   */\n      0x00\n        /* \"#utility.yul\":5669:5678   */\n      dup4\n        /* \"#utility.yul\":5665:5682   */\n      add\n        /* \"#utility.yul\":5656:5662   */\n      dup5\n        /* \"#utility.yul\":5612:5683   */\n      tag_187\n      jump\t// in\n    tag_200:\n        /* \"#utility.yul\":5468:5690   */\n      swap3\n      swap2\n      pop\n      pop\n      jump\t// out\n        /* \"#utility.yul\":5696:5910   */\n    tag_47:\n        /* \"#utility.yul\":5785:5789   */\n      0x00\n        /* \"#utility.yul\":5823:5825   */\n      0x20\n        /* \"#utility.yul\":5812:5821   */\n      dup3\n        /* \"#utility.yul\":5808:5826   */\n      add\n        /* \"#utility.yul\":5800:5826   */\n      swap1\n      pop\n        /* \"#utility.yul\":5836:5903   */\n      tag_202\n        /* \"#utility.yul\":5900:5901   */\n      0x00\n        /* \"#utility.yul\":5889:5898   */\n      dup4\n        /* \"#utility.yul\":5885:5902   */\n      add\n        /* \"#utility.yul\":5876:5882   */\n      dup5\n        /* \"#utility.yul\":5836:5903   */\n      tag_191\n      jump\t// in\n    tag_202:\n        /* \"#utility.yul\":5696:5910   */\n      swap3\n      swap2\n      pop\n      pop\n      jump\t// out\n        /* \"#utility.yul\":5916:6045   */\n    tag_124:\n        /* \"#utility.yul\":5950:5956   */\n      0x00\n        /* \"#utility.yul\":5977:5997   */\n      tag_204\n      tag_205\n      jump\t// in\n    tag_204:\n        /* \"#utility.yul\":5967:5997   */\n      swap1\n      pop\n        /* \"#utility.yul\":6006:6039   */\n      tag_206\n        /* \"#utility.yul\":6034:6038   */\n      dup3\n        /* \"#utility.yul\":6026:6032   */\n      dup3\n        /* \"#utility.yul\":6006:6039   */\n      tag_207\n      jump\t// in\n    tag_206:\n        /* \"#utility.yul\":5916:6045   */\n      swap2\n      swap1\n      pop\n      jump\t// out\n        /* \"#utility.yul\":6051:6126   */\n    tag_205:\n        /* \"#utility.yul\":6084:6090   */\n      0x00\n        /* \"#utility.yul\":6117:6119   */\n      0x40\n        /* \"#utility.yul\":6111:6120   */\n      mload\n        /* \"#utility.yul\":6101:6120   */\n      swap1\n      pop\n        /* \"#utility.yul\":6051:6126   */\n      swap1\n      jump\t// out\n        /* \"#utility.yul\":6132:6439   */\n    tag_123:\n        /* \"#utility.yul\":6193:6197   */\n      0x00\n        /* \"#utility.yul\":6283:6301   */\n      0xffffffffffffffff\n        /* \"#utility.yul\":6275:6281   */\n      dup3\n        /* \"#utility.yul\":6272:6302   */\n      gt\n        /* \"#utility.yul\":6269:6325   */\n      iszero\n      tag_210\n      jumpi\n        /* \"#utility.yul\":6305:6323   */\n      tag_211\n      tag_212\n      jump\t// in\n    tag_211:\n        /* \"#utility.yul\":6269:6325   */\n    tag_210:\n        /* \"#utility.yul\":6343:6372   */\n      tag_213\n        /* \"#utility.yul\":6365:6371   */\n      dup3\n        /* \"#utility.yul\":6343:6372   */\n      tag_214\n      jump\t// in\n    tag_213:\n        /* \"#utility.yul\":6335:6372   */\n      swap1\n      pop\n        /* \"#utility.yul\":6427:6431   */\n      0x20\n        /* \"#utility.yul\":6421:6425   */\n      dup2\n        /* \"#utility.yul\":6417:6432   */\n      add\n        /* \"#utility.yul\":6409:6432   */\n      swap1\n      pop\n        /* \"#utility.yul\":6132:6439   */\n      swap2\n      swap1\n      pop\n      jump\t// out\n        /* \"#utility.yul\":6445:6614   */\n    tag_179:\n        /* \"#utility.yul\":6529:6540   */\n      0x00\n        /* \"#utility.yul\":6563:6569   */\n      dup3\n        /* \"#utility.yul\":6558:6561   */\n      dup3\n        /* \"#utility.yul\":6551:6570   */\n      mstore\n        /* \"#utility.yul\":6603:6607   */\n      0x20\n        /* \"#utility.yul\":6598:6601   */\n      dup3\n        /* \"#utility.yul\":6594:6608   */\n      add\n        /* \"#utility.yul\":6579:6608   */\n      swap1\n      pop\n        /* \"#utility.yul\":6445:6614   */\n      swap3\n      swap2\n      pop\n      pop\n      jump\t// out\n        /* \"#utility.yul\":6620:6925   */\n    tag_73:\n        /* \"#utility.yul\":6660:6663   */\n      0x00\n        /* \"#utility.yul\":6679:6699   */\n      tag_217\n        /* \"#utility.yul\":6697:6698   */\n      dup3\n        /* \"#utility.yul\":6679:6699   */\n      tag_190\n      jump\t// in\n    tag_217:\n        /* \"#utility.yul\":6674:6699   */\n      swap2\n      pop\n        /* \"#utility.yul\":6713:6733   */\n      tag_218\n        /* \"#utility.yul\":6731:6732   */\n      dup4\n        /* \"#utility.yul\":6713:6733   */\n      tag_190\n      jump\t// in\n    tag_218:\n        /* \"#utility.yul\":6708:6733   */\n      swap3\n      pop\n        /* \"#utility.yul\":6867:6868   */\n      dup3\n        /* \"#utility.yul\":6799:6865   */\n      0xffffffffffffffffffffffffffffffffffffffffffffffffffffffffffffffff\n        /* \"#utility.yul\":6795:6869   */\n      sub\n        /* \"#utility.yul\":6792:6793   */\n      dup3\n        /* \"#utility.yul\":6789:6870   */\n      gt\n        /* \"#utility.yul\":6786:6893   */\n      iszero\n      tag_219\n      jumpi\n        /* \"#utility.yul\":6873:6891   */\n      tag_220\n      tag_221\n      jump\t// in\n    tag_220:\n        /* \"#utility.yul\":6786:6893   */\n    tag_219:\n        /* \"#utility.yul\":6917:6918   */\n      dup3\n        /* \"#utility.yul\":6914:6915   */\n      dup3\n        /* \"#utility.yul\":6910:6919   */\n      add\n        /* \"#utility.yul\":6903:6919   */\n      swap1\n      pop\n        /* \"#utility.yul\":6620:6925   */\n      swap3\n      swap2\n      pop\n      pop\n      jump\t// out\n        /* \"#utility.yul\":6931:7168   */\n    tag_114:\n        /* \"#utility.yul\":6969:6972   */\n      0x00\n        /* \"#utility.yul\":6988:7006   */\n      tag_223\n        /* \"#utility.yul\":7004:7005   */\n      dup3\n        /* \"#utility.yul\":6988:7006   */\n      tag_194\n      jump\t// in\n    tag_223:\n        /* \"#utility.yul\":6983:7006   */\n      swap2\n      pop\n        /* \"#utility.yul\":7020:7038   */\n      tag_224\n        /* \"#utility.yul\":7036:7037   */\n      dup4\n        /* \"#utility.yul\":7020:7038   */\n      tag_194\n      jump\t// in\n    tag_224:\n        /* \"#utility.yul\":7015:7038   */\n      swap3\n      pop\n        /* \"#utility.yul\":7110:7111   */\n      dup3\n        /* \"#utility.yul\":7104:7108   */\n      0xff\n        /* \"#utility.yul\":7100:7112   */\n      sub\n        /* \"#utility.yul\":7097:7098   */\n      dup3\n        /* \"#utility.yul\":7094:7113   */\n      gt\n        /* \"#utility.yul\":7091:7136   */\n      iszero\n      tag_225\n      jumpi\n        /* \"#utility.yul\":7116:7134   */\n      tag_226\n      tag_221\n      jump\t// in\n    tag_226:\n        /* \"#utility.yul\":7091:7136   */\n    tag_225:\n        /* \"#utility.yul\":7160:7161   */\n      dup3\n        /* \"#utility.yul\":7157:7158   */\n      dup3\n        /* \"#utility.yul\":7153:7162   */\n      add\n        /* \"#utility.yul\":7146:7162   */\n      swap1\n      pop\n        /* \"#utility.yul\":6931:7168   */\n      swap3\n      swap2\n      pop\n      pop\n      jump\t// out\n        /* \"#utility.yul\":7174:7359   */\n    tag_68:\n        /* \"#utility.yul\":7214:7215   */\n      0x00\n        /* \"#utility.yul\":7231:7251   */\n      tag_228\n        /* \"#utility.yul\":7249:7250   */\n      dup3\n        /* \"#utility.yul\":7231:7251   */\n      tag_190\n      jump\t// in\n    tag_228:\n        /* \"#utility.yul\":7226:7251   */\n      swap2\n      pop\n        /* \"#utility.yul\":7265:7285   */\n      tag_229\n        /* \"#utility.yul\":7283:7284   */\n      dup4\n        /* \"#utility.yul\":7265:7285   */\n      tag_190\n      jump\t// in\n    tag_229:\n        /* \"#utility.yul\":7260:7285   */\n      swap3\n      pop\n        /* \"#utility.yul\":7304:7305   */\n      dup3\n        /* \"#utility.yul\":7294:7329   */\n      tag_230\n      jumpi\n        /* \"#utility.yul\":7309:7327   */\n      tag_231\n      tag_232\n      jump\t// in\n    tag_231:\n        /* \"#utility.yul\":7294:7329   */\n    tag_230:\n        /* \"#utility.yul\":7351:7352   */\n      dup3\n        /* \"#utility.yul\":7348:7349   */\n      dup3\n        /* \"#utility.yul\":7344:7353   */\n      div\n        /* \"#utility.yul\":7339:7353   */\n      swap1\n      pop\n        /* \"#utility.yul\":7174:7359   */\n      swap3\n      swap2\n      pop\n      pop\n      jump\t// out\n        /* \"#utility.yul\":7365:8213   */\n    tag_233:\n        /* \"#utility.yul\":7426:7431   */\n      0x00\n        /* \"#utility.yul\":7433:7437   */\n      dup1\n        /* \"#utility.yul\":7457:7463   */\n      dup3\n        /* \"#utility.yul\":7448:7463   */\n      swap2\n      pop\n        /* \"#utility.yul\":7481:7486   */\n      dup4\n        /* \"#utility.yul\":7472:7486   */\n      swap1\n      pop\n        /* \"#utility.yul\":7495:8207   */\n    tag_235:\n        /* \"#utility.yul\":7516:7517   */\n      0x01\n        /* \"#utility.yul\":7506:7514   */\n      dup6\n        /* \"#utility.yul\":7503:7518   */\n      gt\n        /* \"#utility.yul\":7495:8207   */\n      iszero\n      tag_237\n      jumpi\n        /* \"#utility.yul\":7611:7615   */\n      dup1\n        /* \"#utility.yul\":7606:7609   */\n      dup7\n        /* \"#utility.yul\":7602:7616   */\n      div\n        /* \"#utility.yul\":7596:7600   */\n      dup2\n        /* \"#utility.yul\":7593:7617   */\n      gt\n        /* \"#utility.yul\":7590:7640   */\n      iszero\n      tag_238\n      jumpi\n        /* \"#utility.yul\":7620:7638   */\n      tag_239\n      tag_221\n      jump\t// in\n    tag_239:\n        /* \"#utility.yul\":7590:7640   */\n    tag_238:\n        /* \"#utility.yul\":7670:7671   */\n      0x01\n        /* \"#utility.yul\":7660:7668   */\n      dup6\n        /* \"#utility.yul\":7656:7672   */\n      and\n        /* \"#utility.yul\":7653:8104   */\n      iszero\n      tag_240\n      jumpi\n        /* \"#utility.yul\":8085:8089   */\n      dup1\n        /* \"#utility.yul\":8078:8083   */\n      dup3\n        /* \"#utility.yul\":8074:8090   */\n      mul\n        /* \"#utility.yul\":8065:8090   */\n      swap2\n      pop\n        /* \"#utility.yul\":7653:8104   */\n    tag_240:\n        /* \"#utility.yul\":8135:8139   */\n      dup1\n        /* \"#utility.yul\":8129:8133   */\n      dup2\n        /* \"#utility.yul\":8125:8140   */\n      mul\n        /* \"#utility.yul\":8117:8140   */\n      swap1\n      pop\n        /* \"#utility.yul\":8165:8197   */\n      tag_241\n        /* \"#utility.yul\":8188:8196   */\n      dup6\n        /* \"#utility.yul\":8165:8197   */\n      tag_242\n      jump\t// in\n    tag_241:\n        /* \"#utility.yul\":8153:8197   */\n      swap5\n      pop\n        /* \"#utility.yul\":7495:8207   */\n      jump(tag_235)\n    tag_237:\n        /* \"#utility.yul\":7365:8213   */\n      swap5\n      pop\n      swap5\n      swap3\n      pop\n      pop\n      pop\n      jump\t// out\n        /* \"#utility.yul\":8219:8500   */\n    tag_96:\n        /* \"#utility.yul\":8277:8282   */\n      0x00\n        /* \"#utility.yul\":8301:8324   */\n      tag_244\n        /* \"#utility.yul\":8319:8323   */\n      dup3\n        /* \"#utility.yul\":8301:8324   */\n      tag_190\n      jump\t// in\n    tag_244:\n        /* \"#utility.yul\":8293:8324   */\n      swap2\n      pop\n        /* \"#utility.yul\":8345:8370   */\n      tag_245\n        /* \"#utility.yul\":8361:8369   */\n      dup4\n        /* \"#utility.yul\":8345:8370   */\n      tag_194\n      jump\t// in\n    tag_245:\n        /* \"#utility.yul\":8333:8370   */\n      swap3\n      pop\n        /* \"#utility.yul\":8389:8493   */\n      tag_246\n        /* \"#utility.yul\":8426:8492   */\n      0xffffffffffffffffffffffffffffffffffffffffffffffffffffffffffffffff\n        /* \"#utility.yul\":8416:8424   */\n      dup5\n        /* \"#utility.yul\":8410:8414   */\n      dup5\n        /* \"#utility.yul\":8389:8493   */\n      tag_247\n      jump\t// in\n    tag_246:\n        /* \"#utility.yul\":8380:8493   */\n      swap1\n      pop\n        /* \"#utility.yul\":8219:8500   */\n      swap3\n      swap2\n      pop\n      pop\n      jump\t// out\n        /* \"#utility.yul\":8506:9579   */\n    tag_247:\n        /* \"#utility.yul\":8560:8565   */\n      0x00\n        /* \"#utility.yul\":8751:8759   */\n      dup3\n        /* \"#utility.yul\":8741:8781   */\n      tag_249\n      jumpi\n        /* \"#utility.yul\":8772:8773   */\n      0x01\n        /* \"#utility.yul\":8763:8773   */\n      swap1\n      pop\n        /* \"#utility.yul\":8774:8779   */\n      jump(tag_248)\n        /* \"#utility.yul\":8741:8781   */\n    tag_249:\n        /* \"#utility.yul\":8800:8804   */\n      dup2\n        /* \"#utility.yul\":8790:8826   */\n      tag_250\n      jumpi\n        /* \"#utility.yul\":8817:8818   */\n      0x00\n        /* \"#utility.yul\":8808:8818   */\n      swap1\n      pop\n        /* \"#utility.yul\":8819:8824   */\n      jump(tag_248)\n        /* \"#utility.yul\":8790:8826   */\n    tag_250:\n        /* \"#utility.yul\":8886:8890   */\n      dup2\n        /* \"#utility.yul\":8934:8935   */\n      0x01\n        /* \"#utility.yul\":8929:8956   */\n      dup2\n      eq\n      tag_252\n      jumpi\n        /* \"#utility.yul\":8970:8971   */\n      0x02\n        /* \"#utility.yul\":8965:9156   */\n      dup2\n      eq\n      tag_253\n      jumpi\n        /* \"#utility.yul\":8879:9156   */\n      jump(tag_251)\n        /* \"#utility.yul\":8929:8956   */\n    tag_252:\n        /* \"#utility.yul\":8947:8948   */\n      0x01\n        /* \"#utility.yul\":8938:8948   */\n      swap2\n      pop\n        /* \"#utility.yul\":8949:8954   */\n      pop\n      jump(tag_248)\n        /* \"#utility.yul\":8965:9156   */\n    tag_253:\n        /* \"#utility.yul\":9010:9013   */\n      0xff\n        /* \"#utility.yul\":9000:9008   */\n      dup5\n        /* \"#utility.yul\":8997:9014   */\n      gt\n        /* \"#utility.yul\":8994:9037   */\n      iszero\n      tag_254\n      jumpi\n        /* \"#utility.yul\":9017:9035   */\n      tag_255\n      tag_221\n      jump\t// in\n    tag_255:\n        /* \"#utility.yul\":8994:9037   */\n    tag_254:\n        /* \"#utility.yul\":9066:9074   */\n      dup4\n        /* \"#utility.yul\":9063:9064   */\n      0x02\n        /* \"#utility.yul\":9059:9075   */\n      exp\n        /* \"#utility.yul\":9050:9075   */\n      swap2\n      pop\n        /* \"#utility.yul\":9101:9104   */\n      dup5\n        /* \"#utility.yul\":9094:9099   */\n      dup3\n        /* \"#utility.yul\":9091:9105   */\n      gt\n        /* \"#utility.yul\":9088:9128   */\n      iszero\n      tag_256\n      jumpi\n        /* \"#utility.yul\":9108:9126   */\n      tag_257\n      tag_221\n      jump\t// in\n    tag_257:\n        /* \"#utility.yul\":9088:9128   */\n    tag_256:\n        /* \"#utility.yul\":9141:9146   */\n      pop\n      jump(tag_248)\n        /* \"#utility.yul\":8879:9156   */\n    tag_251:\n      pop\n        /* \"#utility.yul\":9265:9267   */\n      0x20\n        /* \"#utility.yul\":9255:9263   */\n      dup4\n        /* \"#utility.yul\":9252:9268   */\n      lt\n        /* \"#utility.yul\":9246:9249   */\n      0x0133\n        /* \"#utility.yul\":9240:9244   */\n      dup4\n        /* \"#utility.yul\":9237:9250   */\n      lt\n        /* \"#utility.yul\":9233:9269   */\n      and\n        /* \"#utility.yul\":9215:9217   */\n      0x4e\n        /* \"#utility.yul\":9205:9213   */\n      dup5\n        /* \"#utility.yul\":9202:9218   */\n      lt\n        /* \"#utility.yul\":9197:9199   */\n      0x0b\n        /* \"#utility.yul\":9191:9195   */\n      dup5\n        /* \"#utility.yul\":9188:9200   */\n      lt\n        /* \"#utility.yul\":9184:9219   */\n      and\n        /* \"#utility.yul\":9168:9279   */\n      or\n        /* \"#utility.yul\":9165:9411   */\n      iszero\n      tag_258\n      jumpi\n        /* \"#utility.yul\":9321:9329   */\n      dup3\n        /* \"#utility.yul\":9315:9319   */\n      dup3\n        /* \"#utility.yul\":9311:9330   */\n      exp\n        /* \"#utility.yul\":9302:9330   */\n      swap1\n      pop\n        /* \"#utility.yul\":9356:9359   */\n      dup4\n        /* \"#utility.yul\":9349:9354   */\n      dup2\n        /* \"#utility.yul\":9346:9360   */\n      gt\n        /* \"#utility.yul\":9343:9383   */\n      iszero\n      tag_259\n      jumpi\n        /* \"#utility.yul\":9363:9381   */\n      tag_260\n      tag_221\n      jump\t// in\n    tag_260:\n        /* \"#utility.yul\":9343:9383   */\n    tag_259:\n        /* \"#utility.yul\":9396:9401   */\n      jump(tag_248)\n        /* \"#utility.yul\":9165:9411   */\n    tag_258:\n        /* \"#utility.yul\":9436:9478   */\n      tag_261\n        /* \"#utility.yul\":9474:9477   */\n      dup5\n        /* \"#utility.yul\":9464:9472   */\n      dup5\n        /* \"#utility.yul\":9458:9462   */\n      dup5\n        /* \"#utility.yul\":9455:9456   */\n      0x01\n        /* \"#utility.yul\":9436:9478   */\n      tag_233\n      jump\t// in\n    tag_261:\n        /* \"#utility.yul\":9421:9478   */\n      swap3\n      pop\n      swap1\n      pop\n        /* \"#utility.yul\":9510:9514   */\n      dup2\n        /* \"#utility.yul\":9505:9508   */\n      dup5\n        /* \"#utility.yul\":9501:9515   */\n      div\n        /* \"#utility.yul\":9494:9499   */\n      dup2\n        /* \"#utility.yul\":9491:9516   */\n      gt\n        /* \"#utility.yul\":9488:9539   */\n      iszero\n      tag_262\n      jumpi\n        /* \"#utility.yul\":9519:9537   */\n      tag_263\n      tag_221\n      jump\t// in\n    tag_263:\n        /* \"#utility.yul\":9488:9539   */\n    tag_262:\n        /* \"#utility.yul\":9568:9572   */\n      dup2\n        /* \"#utility.yul\":9561:9566   */\n      dup2\n        /* \"#utility.yul\":9557:9573   */\n      mul\n        /* \"#utility.yul\":9548:9573   */\n      swap1\n      pop\n        /* \"#utility.yul\":8506:9579   */\n    tag_248:\n      swap4\n      swap3\n      pop\n      pop\n      pop\n      jump\t// out\n        /* \"#utility.yul\":9585:9933   */\n    tag_66:\n        /* \"#utility.yul\":9625:9632   */\n      0x00\n        /* \"#utility.yul\":9648:9668   */\n      tag_265\n        /* \"#utility.yul\":9666:9667   */\n      dup3\n        /* \"#utility.yul\":9648:9668   */\n      tag_190\n      jump\t// in\n    tag_265:\n        /* \"#utility.yul\":9643:9668   */\n      swap2\n      pop\n        /* \"#utility.yul\":9682:9702   */\n      tag_266\n        /* \"#utility.yul\":9700:9701   */\n      dup4\n        /* \"#utility.yul\":9682:9702   */\n      tag_190\n      jump\t// in\n    tag_266:\n        /* \"#utility.yul\":9677:9702   */\n      swap3\n      pop\n        /* \"#utility.yul\":9870:9871   */\n      dup2\n        /* \"#utility.yul\":9802:9868   */\n      0xffffffffffffffffffffffffffffffffffffffffffffffffffffffffffffffff\n        /* \"#utility.yul\":9798:9872   */\n      div\n        /* \"#utility.yul\":9795:9796   */\n      dup4\n        /* \"#utility.yul\":9792:9873   */\n      gt\n        /* \"#utility.yul\":9787:9788   */\n      dup3\n        /* \"#utility.yul\":9780:9789   */\n      iszero\n        /* \"#utility.yul\":9773:9790   */\n      iszero\n        /* \"#utility.yul\":9769:9874   */\n      and\n        /* \"#utility.yul\":9766:9897   */\n      iszero\n      tag_267\n      jumpi\n        /* \"#utility.yul\":9877:9895   */\n      tag_268\n      tag_221\n      jump\t// in\n    tag_268:\n        /* \"#utility.yul\":9766:9897   */\n    tag_267:\n        /* \"#utility.yul\":9925:9926   */\n      dup3\n        /* \"#utility.yul\":9922:9923   */\n      dup3\n        /* \"#utility.yul\":9918:9927   */\n      mul\n        /* \"#utility.yul\":9907:9927   */\n      swap1\n      pop\n        /* \"#utility.yul\":9585:9933   */\n      swap3\n      swap2\n      pop\n      pop\n      jump\t// out\n        /* \"#utility.yul\":9939:10130   */\n    tag_100:\n        /* \"#utility.yul\":9979:9983   */\n      0x00\n        /* \"#utility.yul\":9999:10019   */\n      tag_270\n        /* \"#utility.yul\":10017:10018   */\n      dup3\n        /* \"#utility.yul\":9999:10019   */\n      tag_190\n      jump\t// in\n    tag_270:\n        /* \"#utility.yul\":9994:10019   */\n      swap2\n      pop\n        /* \"#utility.yul\":10033:10053   */\n      tag_271\n        /* \"#utility.yul\":10051:10052   */\n      dup4\n        /* \"#utility.yul\":10033:10053   */\n      tag_190\n      jump\t// in\n    tag_271:\n        /* \"#utility.yul\":10028:10053   */\n      swap3\n      pop\n        /* \"#utility.yul\":10072:10073   */\n      dup3\n        /* \"#utility.yul\":10069:10070   */\n      dup3\n        /* \"#utility.yul\":10066:10074   */\n      lt\n        /* \"#utility.yul\":10063:10097   */\n      iszero\n      tag_272\n      jumpi\n        /* \"#utility.yul\":10077:10095   */\n      tag_273\n      tag_221\n      jump\t// in\n    tag_273:\n        /* \"#utility.yul\":10063:10097   */\n    tag_272:\n        /* \"#utility.yul\":10122:10123   */\n      dup3\n        /* \"#utility.yul\":10119:10120   */\n      dup3\n        /* \"#utility.yul\":10115:10124   */\n      sub\n        /* \"#utility.yul\":10107:10124   */\n      swap1\n      pop\n        /* \"#utility.yul\":9939:10130   */\n      swap3\n      swap2\n      pop\n      pop\n      jump\t// out\n        /* \"#utility.yul\":10136:10232   */\n    tag_274:\n        /* \"#utility.yul\":10173:10180   */\n      0x00\n        /* \"#utility.yul\":10202:10226   */\n      tag_276\n        /* \"#utility.yul\":10220:10225   */\n      dup3\n        /* \"#utility.yul\":10202:10226   */\n      tag_277\n      jump\t// in\n    tag_276:\n        /* \"#utility.yul\":10191:10226   */\n      swap1\n      pop\n        /* \"#utility.yul\":10136:10232   */\n      swap2\n      swap1\n      pop\n      jump\t// out\n        /* \"#utility.yul\":10238:10364   */\n    tag_277:\n        /* \"#utility.yul\":10275:10282   */\n      0x00\n        /* \"#utility.yul\":10315:10357   */\n      0xffffffffffffffffffffffffffffffffffffffff\n        /* \"#utility.yul\":10308:10313   */\n      dup3\n        /* \"#utility.yul\":10304:10358   */\n      and\n        /* \"#utility.yul\":10293:10358   */\n      swap1\n      pop\n        /* \"#utility.yul\":10238:10364   */\n      swap2\n      swap1\n      pop\n      jump\t// out\n        /* \"#utility.yul\":10370:10447   */\n    tag_190:\n        /* \"#utility.yul\":10407:10414   */\n      0x00\n        /* \"#utility.yul\":10436:10441   */\n      dup2\n        /* \"#utility.yul\":10425:10441   */\n      swap1\n      pop\n        /* \"#utility.yul\":10370:10447   */\n      swap2\n      swap1\n      pop\n      jump\t// out\n        /* \"#utility.yul\":10453:10539   */\n    tag_194:\n        /* \"#utility.yul\":10488:10495   */\n      0x00\n        /* \"#utility.yul\":10528:10532   */\n      0xff\n        /* \"#utility.yul\":10521:10526   */\n      dup3\n        /* \"#utility.yul\":10517:10533   */\n      and\n        /* \"#utility.yul\":10506:10533   */\n      swap1\n      pop\n        /* \"#utility.yul\":10453:10539   */\n      swap2\n      swap1\n      pop\n      jump\t// out\n        /* \"#utility.yul\":10545:10699   */\n    tag_129:\n        /* \"#utility.yul\":10629:10635   */\n      dup3\n        /* \"#utility.yul\":10624:10627   */\n      dup2\n        /* \"#utility.yul\":10619:10622   */\n      dup4\n        /* \"#utility.yul\":10606:10636   */\n      calldatacopy\n        /* \"#utility.yul\":10691:10692   */\n      0x00\n        /* \"#utility.yul\":10682:10688   */\n      dup4\n        /* \"#utility.yul\":10677:10680   */\n      dup4\n        /* \"#utility.yul\":10673:10689   */\n      add\n        /* \"#utility.yul\":10666:10693   */\n      mstore\n        /* \"#utility.yul\":10545:10699   */\n      pop\n      pop\n      pop\n      jump\t// out\n        /* \"#utility.yul\":10705:10986   */\n    tag_207:\n        /* \"#utility.yul\":10788:10815   */\n      tag_283\n        /* \"#utility.yul\":10810:10814   */\n      dup3\n        /* \"#utility.yul\":10788:10815   */\n      tag_214\n      jump\t// in\n    tag_283:\n        /* \"#utility.yul\":10780:10786   */\n      dup2\n        /* \"#utility.yul\":10776:10816   */\n      add\n        /* \"#utility.yul\":10918:10924   */\n      dup2\n        /* \"#utility.yul\":10906:10916   */\n      dup2\n        /* \"#utility.yul\":10903:10925   */\n      lt\n        /* \"#utility.yul\":10882:10900   */\n      0xffffffffffffffff\n        /* \"#utility.yul\":10870:10880   */\n      dup3\n        /* \"#utility.yul\":10867:10901   */\n      gt\n        /* \"#utility.yul\":10864:10926   */\n      or\n        /* \"#utility.yul\":10861:10949   */\n      iszero\n      tag_284\n      jumpi\n        /* \"#utility.yul\":10929:10947   */\n      tag_285\n      tag_212\n      jump\t// in\n    tag_285:\n        /* \"#utility.yul\":10861:10949   */\n    tag_284:\n        /* \"#utility.yul\":10969:10979   */\n      dup1\n        /* \"#utility.yul\":10965:10967   */\n      0x40\n        /* \"#utility.yul\":10958:10980   */\n      mstore\n        /* \"#utility.yul\":10748:10986   */\n      pop\n        /* \"#utility.yul\":10705:10986   */\n      pop\n      pop\n      jump\t// out\n        /* \"#utility.yul\":10992:11172   */\n    tag_221:\n        /* \"#utility.yul\":11040:11117   */\n      0x4e487b7100000000000000000000000000000000000000000000000000000000\n        /* \"#utility.yul\":11037:11038   */\n      0x00\n        /* \"#utility.yul\":11030:11118   */\n      mstore\n        /* \"#utility.yul\":11137:11141   */\n      0x11\n        /* \"#utility.yul\":11134:11135   */\n      0x04\n        /* \"#utility.yul\":11127:11142   */\n      mstore\n        /* \"#utility.yul\":11161:11165   */\n      0x24\n        /* \"#utility.yul\":11158:11159   */\n      0x00\n        /* \"#utility.yul\":11151:11166   */\n      revert\n        /* \"#utility.yul\":11178:11358   */\n    tag_232:\n        /* \"#utility.yul\":11226:11303   */\n      0x4e487b7100000000000000000000000000000000000000000000000000000000\n        /* \"#utility.yul\":11223:11224   */\n      0x00\n        /* \"#utility.yul\":11216:11304   */\n      mstore\n        /* \"#utility.yul\":11323:11327   */\n      0x12\n        /* \"#utility.yul\":11320:11321   */\n      0x04\n        /* \"#utility.yul\":11313:11328   */\n      mstore\n        /* \"#utility.yul\":11347:11351   */\n      0x24\n        /* \"#utility.yul\":11344:11345   */\n      0x00\n        /* \"#utility.yul\":11337:11352   */\n      revert\n        /* \"#utility.yul\":11364:11544   */\n    tag_212:\n        /* \"#utility.yul\":11412:11489   */\n      0x4e487b7100000000000000000000000000000000000000000000000000000000\n        /* \"#utility.yul\":11409:11410   */\n      0x00\n        /* \"#utility.yul\":11402:11490   */\n      mstore\n        /* \"#utility.yul\":11509:11513   */\n      0x41\n        /* \"#utility.yul\":11506:11507   */\n      0x04\n        /* \"#utility.yul\":11499:11514   */\n      mstore\n        /* \"#utility.yul\":11533:11537   */\n      0x24\n        /* \"#utility.yul\":11530:11531   */\n      0x00\n        /* \"#utility.yul\":11523:11538   */\n      revert\n        /* \"#utility.yul\":11550:11667   */\n    tag_138:\n        /* \"#utility.yul\":11659:11660   */\n      0x00\n        /* \"#utility.yul\":11656:11657   */\n      dup1\n        /* \"#utility.yul\":11649:11661   */\n      revert\n        /* \"#utility.yul\":11673:11790   */\n    tag_127:\n        /* \"#utility.yul\":11782:11783   */\n      0x00\n        /* \"#utility.yul\":11779:11780   */\n      dup1\n        /* \"#utility.yul\":11772:11784   */\n      revert\n        /* \"#utility.yul\":11796:11913   */\n    tag_165:\n        /* \"#utility.yul\":11905:11906   */\n      0x00\n        /* \"#utility.yul\":11902:11903   */\n      dup1\n        /* \"#utility.yul\":11895:11907   */\n      revert\n        /* \"#utility.yul\":11919:12036   */\n    tag_151:\n        /* \"#utility.yul\":12028:12029   */\n      0x00\n        /* \"#utility.yul\":12025:12026   */\n      dup1\n        /* \"#utility.yul\":12018:12030   */\n      revert\n        /* \"#utility.yul\":12042:12144   */\n    tag_214:\n        /* \"#utility.yul\":12083:12089   */\n      0x00\n        /* \"#utility.yul\":12134:12136   */\n      0x1f\n        /* \"#utility.yul\":12130:12137   */\n      not\n        /* \"#utility.yul\":12125:12127   */\n      0x1f\n        /* \"#utility.yul\":12118:12123   */\n      dup4\n        /* \"#utility.yul\":12114:12128   */\n      add\n        /* \"#utility.yul\":12110:12138   */\n      and\n        /* \"#utility.yul\":12100:12138   */\n      swap1\n      pop\n        /* \"#utility.yul\":12042:12144   */\n      swap2\n      swap1\n      pop\n      jump\t// out\n        /* \"#utility.yul\":12150:12252   */\n    tag_242:\n        /* \"#utility.yul\":12192:12200   */\n      0x00\n        /* \"#utility.yul\":12239:12244   */\n      dup2\n        /* \"#utility.yul\":12236:12237   */\n      0x01\n        /* \"#utility.yul\":12232:12245   */\n      shr\n        /* \"#utility.yul\":12211:12245   */\n      swap1\n      pop\n        /* \"#utility.yul\":12150:12252   */\n      swap2\n      swap1\n      pop\n      jump\t// out\n        /* \"#utility.yul\":12258:12485   */\n    tag_181:\n        /* \"#utility.yul\":12398:12432   */\n      0x43616e64696461746520766f746573206c696d69742065786365646565642066\n        /* \"#utility.yul\":12394:12395   */\n      0x00\n        /* \"#utility.yul\":12386:12392   */\n      dup3\n        /* \"#utility.yul\":12382:12396   */\n      add\n        /* \"#utility.yul\":12375:12433   */\n      mstore\n        /* \"#utility.yul\":12467:12477   */\n      0x6f7220726f756e64000000000000000000000000000000000000000000000000\n        /* \"#utility.yul\":12462:12464   */\n      0x20\n        /* \"#utility.yul\":12454:12460   */\n      dup3\n        /* \"#utility.yul\":12450:12465   */\n      add\n        /* \"#utility.yul\":12443:12478   */\n      mstore\n        /* \"#utility.yul\":12258:12485   */\n      pop\n      jump\t// out\n        /* \"#utility.yul\":12491:12672   */\n    tag_186:\n        /* \"#utility.yul\":12631:12664   */\n      0x566f74696e67206c696d697420657863656465656420666f7220726f756e6400\n        /* \"#utility.yul\":12627:12628   */\n      0x00\n        /* \"#utility.yul\":12619:12625   */\n      dup3\n        /* \"#utility.yul\":12615:12629   */\n      add\n        /* \"#utility.yul\":12608:12665   */\n      mstore\n        /* \"#utility.yul\":12491:12672   */\n      pop\n      jump\t// out\n        /* \"#utility.yul\":12678:12800   */\n    tag_133:\n        /* \"#utility.yul\":12751:12775   */\n      tag_298\n        /* \"#utility.yul\":12769:12774   */\n      dup2\n        /* \"#utility.yul\":12751:12775   */\n      tag_274\n      jump\t// in\n    tag_298:\n        /* \"#utility.yul\":12744:12749   */\n      dup2\n        /* \"#utility.yul\":12741:12776   */\n      eq\n        /* \"#utility.yul\":12731:12794   */\n      tag_299\n      jumpi\n        /* \"#utility.yul\":12790:12791   */\n      0x00\n        /* \"#utility.yul\":12787:12788   */\n      dup1\n        /* \"#utility.yul\":12780:12792   */\n      revert\n        /* \"#utility.yul\":12731:12794   */\n    tag_299:\n        /* \"#utility.yul\":12678:12800   */\n      pop\n      jump\t// out\n        /* \"#utility.yul\":12806:12928   */\n    tag_143:\n        /* \"#utility.yul\":12879:12903   */\n      tag_301\n        /* \"#utility.yul\":12897:12902   */\n      dup2\n        /* \"#utility.yul\":12879:12903   */\n      tag_190\n      jump\t// in\n    tag_301:\n        /* \"#utility.yul\":12872:12877   */\n      dup2\n        /* \"#utility.yul\":12869:12904   */\n      eq\n        /* \"#utility.yul\":12859:12922   */\n      tag_302\n      jumpi\n        /* \"#utility.yul\":12918:12919   */\n      0x00\n        /* \"#utility.yul\":12915:12916   */\n      dup1\n        /* \"#utility.yul\":12908:12920   */\n      revert\n        /* \"#utility.yul\":12859:12922   */\n    tag_302:\n        /* \"#utility.yul\":12806:12928   */\n      pop\n      jump\t// out\n        /* \"#utility.yul\":12934:13052   */\n    tag_147:\n        /* \"#utility.yul\":13005:13027   */\n      tag_304\n        /* \"#utility.yul\":13021:13026   */\n      dup2\n        /* \"#utility.yul\":13005:13027   */\n      tag_194\n      jump\t// in\n    tag_304:\n        /* \"#utility.yul\":12998:13003   */\n      dup2\n        /* \"#utility.yul\":12995:13028   */\n      eq\n        /* \"#utility.yul\":12985:13046   */\n      tag_305\n      jumpi\n        /* \"#utility.yul\":13042:13043   */\n      0x00\n        /* \"#utility.yul\":13039:13040   */\n      dup1\n        /* \"#utility.yul\":13032:13044   */\n      revert\n        /* \"#utility.yul\":12985:13046   */\n    tag_305:\n        /* \"#utility.yul\":12934:13052   */\n      pop\n      jump\t// out\n\n    auxdata: 0xa2646970667358221220aa4f197e274eb33250e208230ce94485db7c1c6ad685429e44228355578977e864736f6c63430008070033\n}\n",
				"bytecode": {
					"linkReferences": {},
					"object": "608060405234801561001057600080fd5b5060016000806101000a81548160ff021916908360ff16021790555061c3506001819055506001546002819055506000600881905550600060078190555042600981905550611010806100646000396000f3fe608060405234801561001057600080fd5b50600436106100b45760003560e01c80636bd5450a116100715780636bd5450a1461019f5780639f8743f7146101cf578063f4c98cc5146101ed578063f4d20e801461020b578063f634c57114610229578063fff6cae914610247576100b4565b806312c0816e146100b95780631a19ac9f146100e9578063278a8d55146101075780633326152a1461012357806353002316146101535780635f74bbde14610183575b600080fd5b6100d360048036038101906100ce9190610997565b610251565b6040516100e09190610a7b565b60405180910390f35b6100f1610276565b6040516100fe9190610a7b565b60405180910390f35b610121600480360381019061011c91906108fb565b6102a4565b005b61013d6004803603810190610138919061096a565b6102a9565b60405161014a9190610a7b565b60405180910390f35b61016d60048036038101906101689190610997565b6102c1565b60405161017a9190610a7b565b60405180910390f35b61019d600480360381019061019891906108bb565b6102e6565b005b6101b960048036038101906101b4919061088e565b6105e7565b6040516101c69190610a96565b60405180910390f35b6101d7610607565b6040516101e49190610a96565b60405180910390f35b6101f561061d565b6040516102029190610a7b565b60405180910390f35b610213610627565b6040516102209190610a7b565b60405180910390f35b610231610649565b60405161023e9190610a7b565b60405180910390f35b61024f610665565b005b6003602052816000526040600020602052806000526040600020600091509150505481565b6000610280610627565b60075461028b610649565b6102959190610d47565b61029f9190610ba5565b905090565b505050565b60066020528060005260406000206000915090505481565b6004602052816000526040600020602052806000526040600020600091509150505481565b6102ee610649565b81600360008060009054906101000a900460ff1660ff1660ff16815260200190815260200160002060003373ffffffffffffffffffffffffffffffffffffffff1673ffffffffffffffffffffffffffffffffffffffff1681526020019081526020016000205461035e9190610b18565b1161039e576040517f08c379a000000000000000000000000000000000000000000000000000000000815260040161039590610a5b565b60405180910390fd5b6103a6610276565b81600460008060009054906101000a900460ff1660ff1660ff16815260200190815260200160002060008573ffffffffffffffffffffffffffffffffffffffff1673ffffffffffffffffffffffffffffffffffffffff168152602001908152602001600020546104169190610b18565b11610456576040517f08c379a000000000000000000000000000000000000000000000000000000000815260040161044d90610a3b565b60405180910390fd5b80600360008060009054906101000a900460ff1660ff1660ff16815260200190815260200160002060003373ffffffffffffffffffffffffffffffffffffffff1673ffffffffffffffffffffffffffffffffffffffff16815260200190815260200160002060008282546104ca9190610b18565b9250508190555080600460008060009054906101000a900460ff1660ff1660ff16815260200190815260200160002060008473ffffffffffffffffffffffffffffffffffffffff1673ffffffffffffffffffffffffffffffffffffffff16815260200190815260200160002060008282546105459190610b18565b92505081905550610554610276565b600460008060009054906101000a900460ff1660ff1660ff16815260200190815260200160002060008473ffffffffffffffffffffffffffffffffffffffff1673ffffffffffffffffffffffffffffffffffffffff1681526020019081526020016000205414156105e3576105c8826106c7565b6105d0610627565b60085414156105e2576105e1610749565b5b5b5050565b60056020528060005260406000206000915054906101000a900460ff1681565b60008060009054906101000a900460ff16905090565b6000600154905090565b60008060009054906101000a900460ff1660026106449190610c29565b905090565b600061065361061d565b6002546106609190610da1565b905090565b4262093a806009546106779190610b18565b106106c557610684610749565b60085461068f610627565b6106999190610da1565b600660008060009054906101000a900460ff1660ff1660ff168152602001908152602001600020819055505b565b60008054906101000a900460ff16600560008373ffffffffffffffffffffffffffffffffffffffff1673ffffffffffffffffffffffffffffffffffffffff16815260200190815260200160002060006101000a81548160ff021916908360ff16021790555060016008600082825461073f9190610b18565b9250508190555050565b6107516107b3565b600854600760008282546107659190610b18565b9250508190555060006008819055504260098190555060016000808282829054906101000a900460ff166107999190610b6e565b92506101000a81548160ff021916908360ff160217905550565b600154600281905550600f600a6001546107cd9190610d47565b6107d79190610ba5565b600181905550565b60006107f26107ed84610ad6565b610ab1565b90508281526020810184848401111561080e5761080d610ef0565b5b610819848285610e1e565b509392505050565b60008135905061083081610f95565b92915050565b600082601f83011261084b5761084a610eeb565b5b813561085b8482602086016107df565b91505092915050565b60008135905061087381610fac565b92915050565b60008135905061088881610fc3565b92915050565b6000602082840312156108a4576108a3610efa565b5b60006108b284828501610821565b91505092915050565b600080604083850312156108d2576108d1610efa565b5b60006108e085828601610821565b92505060206108f185828601610864565b9150509250929050565b60008060006060848603121561091457610913610efa565b5b600061092286828701610821565b935050602061093386828701610879565b925050604084013567ffffffffffffffff81111561095457610953610ef5565b5b61096086828701610836565b9150509250925092565b6000602082840312156109805761097f610efa565b5b600061098e84828501610879565b91505092915050565b600080604083850312156109ae576109ad610efa565b5b60006109bc85828601610879565b92505060206109cd85828601610821565b9150509250929050565b60006109e4602883610b07565b91506109ef82610f1d565b604082019050919050565b6000610a07601f83610b07565b9150610a1282610f6c565b602082019050919050565b610a2681610e07565b82525050565b610a3581610e11565b82525050565b60006020820190508181036000830152610a54816109d7565b9050919050565b60006020820190508181036000830152610a74816109fa565b9050919050565b6000602082019050610a906000830184610a1d565b92915050565b6000602082019050610aab6000830184610a2c565b92915050565b6000610abb610acc565b9050610ac78282610e2d565b919050565b6000604051905090565b600067ffffffffffffffff821115610af157610af0610ebc565b5b610afa82610eff565b9050602081019050919050565b600082825260208201905092915050565b6000610b2382610e07565b9150610b2e83610e07565b9250827fffffffffffffffffffffffffffffffffffffffffffffffffffffffffffffffff03821115610b6357610b62610e5e565b5b828201905092915050565b6000610b7982610e11565b9150610b8483610e11565b92508260ff03821115610b9a57610b99610e5e565b5b828201905092915050565b6000610bb082610e07565b9150610bbb83610e07565b925082610bcb57610bca610e8d565b5b828204905092915050565b6000808291508390505b6001851115610c2057808604811115610bfc57610bfb610e5e565b5b6001851615610c0b5780820291505b8081029050610c1985610f10565b9450610be0565b94509492505050565b6000610c3482610e07565b9150610c3f83610e11565b9250610c6c7fffffffffffffffffffffffffffffffffffffffffffffffffffffffffffffffff8484610c74565b905092915050565b600082610c845760019050610d40565b81610c925760009050610d40565b8160018114610ca85760028114610cb257610ce1565b6001915050610d40565b60ff841115610cc457610cc3610e5e565b5b8360020a915084821115610cdb57610cda610e5e565b5b50610d40565b5060208310610133831016604e8410600b8410161715610d165782820a905083811115610d1157610d10610e5e565b5b610d40565b610d238484846001610bd6565b92509050818404811115610d3a57610d39610e5e565b5b81810290505b9392505050565b6000610d5282610e07565b9150610d5d83610e07565b9250817fffffffffffffffffffffffffffffffffffffffffffffffffffffffffffffffff0483118215151615610d9657610d95610e5e565b5b828202905092915050565b6000610dac82610e07565b9150610db783610e07565b925082821015610dca57610dc9610e5e565b5b828203905092915050565b6000610de082610de7565b9050919050565b600073ffffffffffffffffffffffffffffffffffffffff82169050919050565b6000819050919050565b600060ff82169050919050565b82818337600083830152505050565b610e3682610eff565b810181811067ffffffffffffffff82111715610e5557610e54610ebc565b5b80604052505050565b7f4e487b7100000000000000000000000000000000000000000000000000000000600052601160045260246000fd5b7f4e487b7100000000000000000000000000000000000000000000000000000000600052601260045260246000fd5b7f4e487b7100000000000000000000000000000000000000000000000000000000600052604160045260246000fd5b600080fd5b600080fd5b600080fd5b600080fd5b6000601f19601f8301169050919050565b60008160011c9050919050565b7f43616e64696461746520766f746573206c696d6974206578636564656564206660008201527f6f7220726f756e64000000000000000000000000000000000000000000000000602082015250565b7f566f74696e67206c696d697420657863656465656420666f7220726f756e6400600082015250565b610f9e81610dd5565b8114610fa957600080fd5b50565b610fb581610e07565b8114610fc057600080fd5b50565b610fcc81610e11565b8114610fd757600080fd5b5056fea2646970667358221220aa4f197e274eb33250e208230ce94485db7c1c6ad685429e44228355578977e864736f6c63430008070033",
					"opcodes": "PUSH1 0x80 PUSH1 0x40 MSTORE CALLVALUE DUP1 ISZERO PUSH2 0x10 JUMPI PUSH1 0x0 DUP1 REVERT JUMPDEST POP PUSH1 0x1 PUSH1 0x0 DUP1 PUSH2 0x100 EXP DUP2 SLOAD DUP2 PUSH1 0xFF MUL NOT AND SWAP1 DUP4 PUSH1 0xFF AND MUL OR SWAP1 SSTORE POP PUSH2 0xC350 PUSH1 0x1 DUP2 SWAP1 SSTORE POP PUSH1 0x1 SLOAD PUSH1 0x2 DUP2 SWAP1 SSTORE POP PUSH1 0x0 PUSH1 0x8 DUP2 SWAP1 SSTORE POP PUSH1 0x0 PUSH1 0x7 DUP2 SWAP1 SSTORE POP TIMESTAMP PUSH1 0x9 DUP2 SWAP1 SSTORE POP PUSH2 0x1010 DUP1 PUSH2 0x64 PUSH1 0x0 CODECOPY PUSH1 0x0 RETURN INVALID PUSH1 0x80 PUSH1 0x40 MSTORE CALLVALUE DUP1 ISZERO PUSH2 0x10 JUMPI PUSH1 0x0 DUP1 REVERT JUMPDEST POP PUSH1 0x4 CALLDATASIZE LT PUSH2 0xB4 JUMPI PUSH1 0x0 CALLDATALOAD PUSH1 0xE0 SHR DUP1 PUSH4 0x6BD5450A GT PUSH2 0x71 JUMPI DUP1 PUSH4 0x6BD5450A EQ PUSH2 0x19F JUMPI DUP1 PUSH4 0x9F8743F7 EQ PUSH2 0x1CF JUMPI DUP1 PUSH4 0xF4C98CC5 EQ PUSH2 0x1ED JUMPI DUP1 PUSH4 0xF4D20E80 EQ PUSH2 0x20B JUMPI DUP1 PUSH4 0xF634C571 EQ PUSH2 0x229 JUMPI DUP1 PUSH4 0xFFF6CAE9 EQ PUSH2 0x247 JUMPI PUSH2 0xB4 JUMP JUMPDEST DUP1 PUSH4 0x12C0816E EQ PUSH2 0xB9 JUMPI DUP1 PUSH4 0x1A19AC9F EQ PUSH2 0xE9 JUMPI DUP1 PUSH4 0x278A8D55 EQ PUSH2 0x107 JUMPI DUP1 PUSH4 0x3326152A EQ PUSH2 0x123 JUMPI DUP1 PUSH4 0x53002316 EQ PUSH2 0x153 JUMPI DUP1 PUSH4 0x5F74BBDE EQ PUSH2 0x183 JUMPI JUMPDEST PUSH1 0x0 DUP1 REVERT JUMPDEST PUSH2 0xD3 PUSH1 0x4 DUP1 CALLDATASIZE SUB DUP2 ADD SWAP1 PUSH2 0xCE SWAP2 SWAP1 PUSH2 0x997 JUMP JUMPDEST PUSH2 0x251 JUMP JUMPDEST PUSH1 0x40 MLOAD PUSH2 0xE0 SWAP2 SWAP1 PUSH2 0xA7B JUMP JUMPDEST PUSH1 0x40 MLOAD DUP1 SWAP2 SUB SWAP1 RETURN JUMPDEST PUSH2 0xF1 PUSH2 0x276 JUMP JUMPDEST PUSH1 0x40 MLOAD PUSH2 0xFE SWAP2 SWAP1 PUSH2 0xA7B JUMP JUMPDEST PUSH1 0x40 MLOAD DUP1 SWAP2 SUB SWAP1 RETURN JUMPDEST PUSH2 0x121 PUSH1 0x4 DUP1 CALLDATASIZE SUB DUP2 ADD SWAP1 PUSH2 0x11C SWAP2 SWAP1 PUSH2 0x8FB JUMP JUMPDEST PUSH2 0x2A4 JUMP JUMPDEST STOP JUMPDEST PUSH2 0x13D PUSH1 0x4 DUP1 CALLDATASIZE SUB DUP2 ADD SWAP1 PUSH2 0x138 SWAP2 SWAP1 PUSH2 0x96A JUMP JUMPDEST PUSH2 0x2A9 JUMP JUMPDEST PUSH1 0x40 MLOAD PUSH2 0x14A SWAP2 SWAP1 PUSH2 0xA7B JUMP JUMPDEST PUSH1 0x40 MLOAD DUP1 SWAP2 SUB SWAP1 RETURN JUMPDEST PUSH2 0x16D PUSH1 0x4 DUP1 CALLDATASIZE SUB DUP2 ADD SWAP1 PUSH2 0x168 SWAP2 SWAP1 PUSH2 0x997 JUMP JUMPDEST PUSH2 0x2C1 JUMP JUMPDEST PUSH1 0x40 MLOAD PUSH2 0x17A SWAP2 SWAP1 PUSH2 0xA7B JUMP JUMPDEST PUSH1 0x40 MLOAD DUP1 SWAP2 SUB SWAP1 RETURN JUMPDEST PUSH2 0x19D PUSH1 0x4 DUP1 CALLDATASIZE SUB DUP2 ADD SWAP1 PUSH2 0x198 SWAP2 SWAP1 PUSH2 0x8BB JUMP JUMPDEST PUSH2 0x2E6 JUMP JUMPDEST STOP JUMPDEST PUSH2 0x1B9 PUSH1 0x4 DUP1 CALLDATASIZE SUB DUP2 ADD SWAP1 PUSH2 0x1B4 SWAP2 SWAP1 PUSH2 0x88E JUMP JUMPDEST PUSH2 0x5E7 JUMP JUMPDEST PUSH1 0x40 MLOAD PUSH2 0x1C6 SWAP2 SWAP1 PUSH2 0xA96 JUMP JUMPDEST PUSH1 0x40 MLOAD DUP1 SWAP2 SUB SWAP1 RETURN JUMPDEST PUSH2 0x1D7 PUSH2 0x607 JUMP JUMPDEST PUSH1 0x40 MLOAD PUSH2 0x1E4 SWAP2 SWAP1 PUSH2 0xA96 JUMP JUMPDEST PUSH1 0x40 MLOAD DUP1 SWAP2 SUB SWAP1 RETURN JUMPDEST PUSH2 0x1F5 PUSH2 0x61D JUMP JUMPDEST PUSH1 0x40 MLOAD PUSH2 0x202 SWAP2 SWAP1 PUSH2 0xA7B JUMP JUMPDEST PUSH1 0x40 MLOAD DUP1 SWAP2 SUB SWAP1 RETURN JUMPDEST PUSH2 0x213 PUSH2 0x627 JUMP JUMPDEST PUSH1 0x40 MLOAD PUSH2 0x220 SWAP2 SWAP1 PUSH2 0xA7B JUMP JUMPDEST PUSH1 0x40 MLOAD DUP1 SWAP2 SUB SWAP1 RETURN JUMPDEST PUSH2 0x231 PUSH2 0x649 JUMP JUMPDEST PUSH1 0x40 MLOAD PUSH2 0x23E SWAP2 SWAP1 PUSH2 0xA7B JUMP JUMPDEST PUSH1 0x40 MLOAD DUP1 SWAP2 SUB SWAP1 RETURN JUMPDEST PUSH2 0x24F PUSH2 0x665 JUMP JUMPDEST STOP JUMPDEST PUSH1 0x3 PUSH1 0x20 MSTORE DUP2 PUSH1 0x0 MSTORE PUSH1 0x40 PUSH1 0x0 KECCAK256 PUSH1 0x20 MSTORE DUP1 PUSH1 0x0 MSTORE PUSH1 0x40 PUSH1 0x0 KECCAK256 PUSH1 0x0 SWAP2 POP SWAP2 POP POP SLOAD DUP2 JUMP JUMPDEST PUSH1 0x0 PUSH2 0x280 PUSH2 0x627 JUMP JUMPDEST PUSH1 0x7 SLOAD PUSH2 0x28B PUSH2 0x649 JUMP JUMPDEST PUSH2 0x295 SWAP2 SWAP1 PUSH2 0xD47 JUMP JUMPDEST PUSH2 0x29F SWAP2 SWAP1 PUSH2 0xBA5 JUMP JUMPDEST SWAP1 POP SWAP1 JUMP JUMPDEST POP POP POP JUMP JUMPDEST PUSH1 0x6 PUSH1 0x20 MSTORE DUP1 PUSH1 0x0 MSTORE PUSH1 0x40 PUSH1 0x0 KECCAK256 PUSH1 0x0 SWAP2 POP SWAP1 POP SLOAD DUP2 JUMP JUMPDEST PUSH1 0x4 PUSH1 0x20 MSTORE DUP2 PUSH1 0x0 MSTORE PUSH1 0x40 PUSH1 0x0 KECCAK256 PUSH1 0x20 MSTORE DUP1 PUSH1 0x0 MSTORE PUSH1 0x40 PUSH1 0x0 KECCAK256 PUSH1 0x0 SWAP2 POP SWAP2 POP POP SLOAD DUP2 JUMP JUMPDEST PUSH2 0x2EE PUSH2 0x649 JUMP JUMPDEST DUP2 PUSH1 0x3 PUSH1 0x0 DUP1 PUSH1 0x0 SWAP1 SLOAD SWAP1 PUSH2 0x100 EXP SWAP1 DIV PUSH1 0xFF AND PUSH1 0xFF AND PUSH1 0xFF AND DUP2 MSTORE PUSH1 0x20 ADD SWAP1 DUP2 MSTORE PUSH1 0x20 ADD PUSH1 0x0 KECCAK256 PUSH1 0x0 CALLER PUSH20 0xFFFFFFFFFFFFFFFFFFFFFFFFFFFFFFFFFFFFFFFF AND PUSH20 0xFFFFFFFFFFFFFFFFFFFFFFFFFFFFFFFFFFFFFFFF AND DUP2 MSTORE PUSH1 0x20 ADD SWAP1 DUP2 MSTORE PUSH1 0x20 ADD PUSH1 0x0 KECCAK256 SLOAD PUSH2 0x35E SWAP2 SWAP1 PUSH2 0xB18 JUMP JUMPDEST GT PUSH2 0x39E JUMPI PUSH1 0x40 MLOAD PUSH32 0x8C379A000000000000000000000000000000000000000000000000000000000 DUP2 MSTORE PUSH1 0x4 ADD PUSH2 0x395 SWAP1 PUSH2 0xA5B JUMP JUMPDEST PUSH1 0x40 MLOAD DUP1 SWAP2 SUB SWAP1 REVERT JUMPDEST PUSH2 0x3A6 PUSH2 0x276 JUMP JUMPDEST DUP2 PUSH1 0x4 PUSH1 0x0 DUP1 PUSH1 0x0 SWAP1 SLOAD SWAP1 PUSH2 0x100 EXP SWAP1 DIV PUSH1 0xFF AND PUSH1 0xFF AND PUSH1 0xFF AND DUP2 MSTORE PUSH1 0x20 ADD SWAP1 DUP2 MSTORE PUSH1 0x20 ADD PUSH1 0x0 KECCAK256 PUSH1 0x0 DUP6 PUSH20 0xFFFFFFFFFFFFFFFFFFFFFFFFFFFFFFFFFFFFFFFF AND PUSH20 0xFFFFFFFFFFFFFFFFFFFFFFFFFFFFFFFFFFFFFFFF AND DUP2 MSTORE PUSH1 0x20 ADD SWAP1 DUP2 MSTORE PUSH1 0x20 ADD PUSH1 0x0 KECCAK256 SLOAD PUSH2 0x416 SWAP2 SWAP1 PUSH2 0xB18 JUMP JUMPDEST GT PUSH2 0x456 JUMPI PUSH1 0x40 MLOAD PUSH32 0x8C379A000000000000000000000000000000000000000000000000000000000 DUP2 MSTORE PUSH1 0x4 ADD PUSH2 0x44D SWAP1 PUSH2 0xA3B JUMP JUMPDEST PUSH1 0x40 MLOAD DUP1 SWAP2 SUB SWAP1 REVERT JUMPDEST DUP1 PUSH1 0x3 PUSH1 0x0 DUP1 PUSH1 0x0 SWAP1 SLOAD SWAP1 PUSH2 0x100 EXP SWAP1 DIV PUSH1 0xFF AND PUSH1 0xFF AND PUSH1 0xFF AND DUP2 MSTORE PUSH1 0x20 ADD SWAP1 DUP2 MSTORE PUSH1 0x20 ADD PUSH1 0x0 KECCAK256 PUSH1 0x0 CALLER PUSH20 0xFFFFFFFFFFFFFFFFFFFFFFFFFFFFFFFFFFFFFFFF AND PUSH20 0xFFFFFFFFFFFFFFFFFFFFFFFFFFFFFFFFFFFFFFFF AND DUP2 MSTORE PUSH1 0x20 ADD SWAP1 DUP2 MSTORE PUSH1 0x20 ADD PUSH1 0x0 KECCAK256 PUSH1 0x0 DUP3 DUP3 SLOAD PUSH2 0x4CA SWAP2 SWAP1 PUSH2 0xB18 JUMP JUMPDEST SWAP3 POP POP DUP2 SWAP1 SSTORE POP DUP1 PUSH1 0x4 PUSH1 0x0 DUP1 PUSH1 0x0 SWAP1 SLOAD SWAP1 PUSH2 0x100 EXP SWAP1 DIV PUSH1 0xFF AND PUSH1 0xFF AND PUSH1 0xFF AND DUP2 MSTORE PUSH1 0x20 ADD SWAP1 DUP2 MSTORE PUSH1 0x20 ADD PUSH1 0x0 KECCAK256 PUSH1 0x0 DUP5 PUSH20 0xFFFFFFFFFFFFFFFFFFFFFFFFFFFFFFFFFFFFFFFF AND PUSH20 0xFFFFFFFFFFFFFFFFFFFFFFFFFFFFFFFFFFFFFFFF AND DUP2 MSTORE PUSH1 0x20 ADD SWAP1 DUP2 MSTORE PUSH1 0x20 ADD PUSH1 0x0 KECCAK256 PUSH1 0x0 DUP3 DUP3 SLOAD PUSH2 0x545 SWAP2 SWAP1 PUSH2 0xB18 JUMP JUMPDEST SWAP3 POP POP DUP2 SWAP1 SSTORE POP PUSH2 0x554 PUSH2 0x276 JUMP JUMPDEST PUSH1 0x4 PUSH1 0x0 DUP1 PUSH1 0x0 SWAP1 SLOAD SWAP1 PUSH2 0x100 EXP SWAP1 DIV PUSH1 0xFF AND PUSH1 0xFF AND PUSH1 0xFF AND DUP2 MSTORE PUSH1 0x20 ADD SWAP1 DUP2 MSTORE PUSH1 0x20 ADD PUSH1 0x0 KECCAK256 PUSH1 0x0 DUP5 PUSH20 0xFFFFFFFFFFFFFFFFFFFFFFFFFFFFFFFFFFFFFFFF AND PUSH20 0xFFFFFFFFFFFFFFFFFFFFFFFFFFFFFFFFFFFFFFFF AND DUP2 MSTORE PUSH1 0x20 ADD SWAP1 DUP2 MSTORE PUSH1 0x20 ADD PUSH1 0x0 KECCAK256 SLOAD EQ ISZERO PUSH2 0x5E3 JUMPI PUSH2 0x5C8 DUP3 PUSH2 0x6C7 JUMP JUMPDEST PUSH2 0x5D0 PUSH2 0x627 JUMP JUMPDEST PUSH1 0x8 SLOAD EQ ISZERO PUSH2 0x5E2 JUMPI PUSH2 0x5E1 PUSH2 0x749 JUMP JUMPDEST JUMPDEST JUMPDEST POP POP JUMP JUMPDEST PUSH1 0x5 PUSH1 0x20 MSTORE DUP1 PUSH1 0x0 MSTORE PUSH1 0x40 PUSH1 0x0 KECCAK256 PUSH1 0x0 SWAP2 POP SLOAD SWAP1 PUSH2 0x100 EXP SWAP1 DIV PUSH1 0xFF AND DUP2 JUMP JUMPDEST PUSH1 0x0 DUP1 PUSH1 0x0 SWAP1 SLOAD SWAP1 PUSH2 0x100 EXP SWAP1 DIV PUSH1 0xFF AND SWAP1 POP SWAP1 JUMP JUMPDEST PUSH1 0x0 PUSH1 0x1 SLOAD SWAP1 POP SWAP1 JUMP JUMPDEST PUSH1 0x0 DUP1 PUSH1 0x0 SWAP1 SLOAD SWAP1 PUSH2 0x100 EXP SWAP1 DIV PUSH1 0xFF AND PUSH1 0x2 PUSH2 0x644 SWAP2 SWAP1 PUSH2 0xC29 JUMP JUMPDEST SWAP1 POP SWAP1 JUMP JUMPDEST PUSH1 0x0 PUSH2 0x653 PUSH2 0x61D JUMP JUMPDEST PUSH1 0x2 SLOAD PUSH2 0x660 SWAP2 SWAP1 PUSH2 0xDA1 JUMP JUMPDEST SWAP1 POP SWAP1 JUMP JUMPDEST TIMESTAMP PUSH3 0x93A80 PUSH1 0x9 SLOAD PUSH2 0x677 SWAP2 SWAP1 PUSH2 0xB18 JUMP JUMPDEST LT PUSH2 0x6C5 JUMPI PUSH2 0x684 PUSH2 0x749 JUMP JUMPDEST PUSH1 0x8 SLOAD PUSH2 0x68F PUSH2 0x627 JUMP JUMPDEST PUSH2 0x699 SWAP2 SWAP1 PUSH2 0xDA1 JUMP JUMPDEST PUSH1 0x6 PUSH1 0x0 DUP1 PUSH1 0x0 SWAP1 SLOAD SWAP1 PUSH2 0x100 EXP SWAP1 DIV PUSH1 0xFF AND PUSH1 0xFF AND PUSH1 0xFF AND DUP2 MSTORE PUSH1 0x20 ADD SWAP1 DUP2 MSTORE PUSH1 0x20 ADD PUSH1 0x0 KECCAK256 DUP2 SWAP1 SSTORE POP JUMPDEST JUMP JUMPDEST PUSH1 0x0 DUP1 SLOAD SWAP1 PUSH2 0x100 EXP SWAP1 DIV PUSH1 0xFF AND PUSH1 0x5 PUSH1 0x0 DUP4 PUSH20 0xFFFFFFFFFFFFFFFFFFFFFFFFFFFFFFFFFFFFFFFF AND PUSH20 0xFFFFFFFFFFFFFFFFFFFFFFFFFFFFFFFFFFFFFFFF AND DUP2 MSTORE PUSH1 0x20 ADD SWAP1 DUP2 MSTORE PUSH1 0x20 ADD PUSH1 0x0 KECCAK256 PUSH1 0x0 PUSH2 0x100 EXP DUP2 SLOAD DUP2 PUSH1 0xFF MUL NOT AND SWAP1 DUP4 PUSH1 0xFF AND MUL OR SWAP1 SSTORE POP PUSH1 0x1 PUSH1 0x8 PUSH1 0x0 DUP3 DUP3 SLOAD PUSH2 0x73F SWAP2 SWAP1 PUSH2 0xB18 JUMP JUMPDEST SWAP3 POP POP DUP2 SWAP1 SSTORE POP POP JUMP JUMPDEST PUSH2 0x751 PUSH2 0x7B3 JUMP JUMPDEST PUSH1 0x8 SLOAD PUSH1 0x7 PUSH1 0x0 DUP3 DUP3 SLOAD PUSH2 0x765 SWAP2 SWAP1 PUSH2 0xB18 JUMP JUMPDEST SWAP3 POP POP DUP2 SWAP1 SSTORE POP PUSH1 0x0 PUSH1 0x8 DUP2 SWAP1 SSTORE POP TIMESTAMP PUSH1 0x9 DUP2 SWAP1 SSTORE POP PUSH1 0x1 PUSH1 0x0 DUP1 DUP3 DUP3 DUP3 SWAP1 SLOAD SWAP1 PUSH2 0x100 EXP SWAP1 DIV PUSH1 0xFF AND PUSH2 0x799 SWAP2 SWAP1 PUSH2 0xB6E JUMP JUMPDEST SWAP3 POP PUSH2 0x100 EXP DUP2 SLOAD DUP2 PUSH1 0xFF MUL NOT AND SWAP1 DUP4 PUSH1 0xFF AND MUL OR SWAP1 SSTORE POP JUMP JUMPDEST PUSH1 0x1 SLOAD PUSH1 0x2 DUP2 SWAP1 SSTORE POP PUSH1 0xF PUSH1 0xA PUSH1 0x1 SLOAD PUSH2 0x7CD SWAP2 SWAP1 PUSH2 0xD47 JUMP JUMPDEST PUSH2 0x7D7 SWAP2 SWAP1 PUSH2 0xBA5 JUMP JUMPDEST PUSH1 0x1 DUP2 SWAP1 SSTORE POP JUMP JUMPDEST PUSH1 0x0 PUSH2 0x7F2 PUSH2 0x7ED DUP5 PUSH2 0xAD6 JUMP JUMPDEST PUSH2 0xAB1 JUMP JUMPDEST SWAP1 POP DUP3 DUP2 MSTORE PUSH1 0x20 DUP2 ADD DUP5 DUP5 DUP5 ADD GT ISZERO PUSH2 0x80E JUMPI PUSH2 0x80D PUSH2 0xEF0 JUMP JUMPDEST JUMPDEST PUSH2 0x819 DUP5 DUP3 DUP6 PUSH2 0xE1E JUMP JUMPDEST POP SWAP4 SWAP3 POP POP POP JUMP JUMPDEST PUSH1 0x0 DUP2 CALLDATALOAD SWAP1 POP PUSH2 0x830 DUP2 PUSH2 0xF95 JUMP JUMPDEST SWAP3 SWAP2 POP POP JUMP JUMPDEST PUSH1 0x0 DUP3 PUSH1 0x1F DUP4 ADD SLT PUSH2 0x84B JUMPI PUSH2 0x84A PUSH2 0xEEB JUMP JUMPDEST JUMPDEST DUP2 CALLDATALOAD PUSH2 0x85B DUP5 DUP3 PUSH1 0x20 DUP7 ADD PUSH2 0x7DF JUMP JUMPDEST SWAP2 POP POP SWAP3 SWAP2 POP POP JUMP JUMPDEST PUSH1 0x0 DUP2 CALLDATALOAD SWAP1 POP PUSH2 0x873 DUP2 PUSH2 0xFAC JUMP JUMPDEST SWAP3 SWAP2 POP POP JUMP JUMPDEST PUSH1 0x0 DUP2 CALLDATALOAD SWAP1 POP PUSH2 0x888 DUP2 PUSH2 0xFC3 JUMP JUMPDEST SWAP3 SWAP2 POP POP JUMP JUMPDEST PUSH1 0x0 PUSH1 0x20 DUP3 DUP5 SUB SLT ISZERO PUSH2 0x8A4 JUMPI PUSH2 0x8A3 PUSH2 0xEFA JUMP JUMPDEST JUMPDEST PUSH1 0x0 PUSH2 0x8B2 DUP5 DUP3 DUP6 ADD PUSH2 0x821 JUMP JUMPDEST SWAP2 POP POP SWAP3 SWAP2 POP POP JUMP JUMPDEST PUSH1 0x0 DUP1 PUSH1 0x40 DUP4 DUP6 SUB SLT ISZERO PUSH2 0x8D2 JUMPI PUSH2 0x8D1 PUSH2 0xEFA JUMP JUMPDEST JUMPDEST PUSH1 0x0 PUSH2 0x8E0 DUP6 DUP3 DUP7 ADD PUSH2 0x821 JUMP JUMPDEST SWAP3 POP POP PUSH1 0x20 PUSH2 0x8F1 DUP6 DUP3 DUP7 ADD PUSH2 0x864 JUMP JUMPDEST SWAP2 POP POP SWAP3 POP SWAP3 SWAP1 POP JUMP JUMPDEST PUSH1 0x0 DUP1 PUSH1 0x0 PUSH1 0x60 DUP5 DUP7 SUB SLT ISZERO PUSH2 0x914 JUMPI PUSH2 0x913 PUSH2 0xEFA JUMP JUMPDEST JUMPDEST PUSH1 0x0 PUSH2 0x922 DUP7 DUP3 DUP8 ADD PUSH2 0x821 JUMP JUMPDEST SWAP4 POP POP PUSH1 0x20 PUSH2 0x933 DUP7 DUP3 DUP8 ADD PUSH2 0x879 JUMP JUMPDEST SWAP3 POP POP PUSH1 0x40 DUP5 ADD CALLDATALOAD PUSH8 0xFFFFFFFFFFFFFFFF DUP2 GT ISZERO PUSH2 0x954 JUMPI PUSH2 0x953 PUSH2 0xEF5 JUMP JUMPDEST JUMPDEST PUSH2 0x960 DUP7 DUP3 DUP8 ADD PUSH2 0x836 JUMP JUMPDEST SWAP2 POP POP SWAP3 POP SWAP3 POP SWAP3 JUMP JUMPDEST PUSH1 0x0 PUSH1 0x20 DUP3 DUP5 SUB SLT ISZERO PUSH2 0x980 JUMPI PUSH2 0x97F PUSH2 0xEFA JUMP JUMPDEST JUMPDEST PUSH1 0x0 PUSH2 0x98E DUP5 DUP3 DUP6 ADD PUSH2 0x879 JUMP JUMPDEST SWAP2 POP POP SWAP3 SWAP2 POP POP JUMP JUMPDEST PUSH1 0x0 DUP1 PUSH1 0x40 DUP4 DUP6 SUB SLT ISZERO PUSH2 0x9AE JUMPI PUSH2 0x9AD PUSH2 0xEFA JUMP JUMPDEST JUMPDEST PUSH1 0x0 PUSH2 0x9BC DUP6 DUP3 DUP7 ADD PUSH2 0x879 JUMP JUMPDEST SWAP3 POP POP PUSH1 0x20 PUSH2 0x9CD DUP6 DUP3 DUP7 ADD PUSH2 0x821 JUMP JUMPDEST SWAP2 POP POP SWAP3 POP SWAP3 SWAP1 POP JUMP JUMPDEST PUSH1 0x0 PUSH2 0x9E4 PUSH1 0x28 DUP4 PUSH2 0xB07 JUMP JUMPDEST SWAP2 POP PUSH2 0x9EF DUP3 PUSH2 0xF1D JUMP JUMPDEST PUSH1 0x40 DUP3 ADD SWAP1 POP SWAP2 SWAP1 POP JUMP JUMPDEST PUSH1 0x0 PUSH2 0xA07 PUSH1 0x1F DUP4 PUSH2 0xB07 JUMP JUMPDEST SWAP2 POP PUSH2 0xA12 DUP3 PUSH2 0xF6C JUMP JUMPDEST PUSH1 0x20 DUP3 ADD SWAP1 POP SWAP2 SWAP1 POP JUMP JUMPDEST PUSH2 0xA26 DUP2 PUSH2 0xE07 JUMP JUMPDEST DUP3 MSTORE POP POP JUMP JUMPDEST PUSH2 0xA35 DUP2 PUSH2 0xE11 JUMP JUMPDEST DUP3 MSTORE POP POP JUMP JUMPDEST PUSH1 0x0 PUSH1 0x20 DUP3 ADD SWAP1 POP DUP2 DUP2 SUB PUSH1 0x0 DUP4 ADD MSTORE PUSH2 0xA54 DUP2 PUSH2 0x9D7 JUMP JUMPDEST SWAP1 POP SWAP2 SWAP1 POP JUMP JUMPDEST PUSH1 0x0 PUSH1 0x20 DUP3 ADD SWAP1 POP DUP2 DUP2 SUB PUSH1 0x0 DUP4 ADD MSTORE PUSH2 0xA74 DUP2 PUSH2 0x9FA JUMP JUMPDEST SWAP1 POP SWAP2 SWAP1 POP JUMP JUMPDEST PUSH1 0x0 PUSH1 0x20 DUP3 ADD SWAP1 POP PUSH2 0xA90 PUSH1 0x0 DUP4 ADD DUP5 PUSH2 0xA1D JUMP JUMPDEST SWAP3 SWAP2 POP POP JUMP JUMPDEST PUSH1 0x0 PUSH1 0x20 DUP3 ADD SWAP1 POP PUSH2 0xAAB PUSH1 0x0 DUP4 ADD DUP5 PUSH2 0xA2C JUMP JUMPDEST SWAP3 SWAP2 POP POP JUMP JUMPDEST PUSH1 0x0 PUSH2 0xABB PUSH2 0xACC JUMP JUMPDEST SWAP1 POP PUSH2 0xAC7 DUP3 DUP3 PUSH2 0xE2D JUMP JUMPDEST SWAP2 SWAP1 POP JUMP JUMPDEST PUSH1 0x0 PUSH1 0x40 MLOAD SWAP1 POP SWAP1 JUMP JUMPDEST PUSH1 0x0 PUSH8 0xFFFFFFFFFFFFFFFF DUP3 GT ISZERO PUSH2 0xAF1 JUMPI PUSH2 0xAF0 PUSH2 0xEBC JUMP JUMPDEST JUMPDEST PUSH2 0xAFA DUP3 PUSH2 0xEFF JUMP JUMPDEST SWAP1 POP PUSH1 0x20 DUP2 ADD SWAP1 POP SWAP2 SWAP1 POP JUMP JUMPDEST PUSH1 0x0 DUP3 DUP3 MSTORE PUSH1 0x20 DUP3 ADD SWAP1 POP SWAP3 SWAP2 POP POP JUMP JUMPDEST PUSH1 0x0 PUSH2 0xB23 DUP3 PUSH2 0xE07 JUMP JUMPDEST SWAP2 POP PUSH2 0xB2E DUP4 PUSH2 0xE07 JUMP JUMPDEST SWAP3 POP DUP3 PUSH32 0xFFFFFFFFFFFFFFFFFFFFFFFFFFFFFFFFFFFFFFFFFFFFFFFFFFFFFFFFFFFFFFFF SUB DUP3 GT ISZERO PUSH2 0xB63 JUMPI PUSH2 0xB62 PUSH2 0xE5E JUMP JUMPDEST JUMPDEST DUP3 DUP3 ADD SWAP1 POP SWAP3 SWAP2 POP POP JUMP JUMPDEST PUSH1 0x0 PUSH2 0xB79 DUP3 PUSH2 0xE11 JUMP JUMPDEST SWAP2 POP PUSH2 0xB84 DUP4 PUSH2 0xE11 JUMP JUMPDEST SWAP3 POP DUP3 PUSH1 0xFF SUB DUP3 GT ISZERO PUSH2 0xB9A JUMPI PUSH2 0xB99 PUSH2 0xE5E JUMP JUMPDEST JUMPDEST DUP3 DUP3 ADD SWAP1 POP SWAP3 SWAP2 POP POP JUMP JUMPDEST PUSH1 0x0 PUSH2 0xBB0 DUP3 PUSH2 0xE07 JUMP JUMPDEST SWAP2 POP PUSH2 0xBBB DUP4 PUSH2 0xE07 JUMP JUMPDEST SWAP3 POP DUP3 PUSH2 0xBCB JUMPI PUSH2 0xBCA PUSH2 0xE8D JUMP JUMPDEST JUMPDEST DUP3 DUP3 DIV SWAP1 POP SWAP3 SWAP2 POP POP JUMP JUMPDEST PUSH1 0x0 DUP1 DUP3 SWAP2 POP DUP4 SWAP1 POP JUMPDEST PUSH1 0x1 DUP6 GT ISZERO PUSH2 0xC20 JUMPI DUP1 DUP7 DIV DUP2 GT ISZERO PUSH2 0xBFC JUMPI PUSH2 0xBFB PUSH2 0xE5E JUMP JUMPDEST JUMPDEST PUSH1 0x1 DUP6 AND ISZERO PUSH2 0xC0B JUMPI DUP1 DUP3 MUL SWAP2 POP JUMPDEST DUP1 DUP2 MUL SWAP1 POP PUSH2 0xC19 DUP6 PUSH2 0xF10 JUMP JUMPDEST SWAP5 POP PUSH2 0xBE0 JUMP JUMPDEST SWAP5 POP SWAP5 SWAP3 POP POP POP JUMP JUMPDEST PUSH1 0x0 PUSH2 0xC34 DUP3 PUSH2 0xE07 JUMP JUMPDEST SWAP2 POP PUSH2 0xC3F DUP4 PUSH2 0xE11 JUMP JUMPDEST SWAP3 POP PUSH2 0xC6C PUSH32 0xFFFFFFFFFFFFFFFFFFFFFFFFFFFFFFFFFFFFFFFFFFFFFFFFFFFFFFFFFFFFFFFF DUP5 DUP5 PUSH2 0xC74 JUMP JUMPDEST SWAP1 POP SWAP3 SWAP2 POP POP JUMP JUMPDEST PUSH1 0x0 DUP3 PUSH2 0xC84 JUMPI PUSH1 0x1 SWAP1 POP PUSH2 0xD40 JUMP JUMPDEST DUP2 PUSH2 0xC92 JUMPI PUSH1 0x0 SWAP1 POP PUSH2 0xD40 JUMP JUMPDEST DUP2 PUSH1 0x1 DUP2 EQ PUSH2 0xCA8 JUMPI PUSH1 0x2 DUP2 EQ PUSH2 0xCB2 JUMPI PUSH2 0xCE1 JUMP JUMPDEST PUSH1 0x1 SWAP2 POP POP PUSH2 0xD40 JUMP JUMPDEST PUSH1 0xFF DUP5 GT ISZERO PUSH2 0xCC4 JUMPI PUSH2 0xCC3 PUSH2 0xE5E JUMP JUMPDEST JUMPDEST DUP4 PUSH1 0x2 EXP SWAP2 POP DUP5 DUP3 GT ISZERO PUSH2 0xCDB JUMPI PUSH2 0xCDA PUSH2 0xE5E JUMP JUMPDEST JUMPDEST POP PUSH2 0xD40 JUMP JUMPDEST POP PUSH1 0x20 DUP4 LT PUSH2 0x133 DUP4 LT AND PUSH1 0x4E DUP5 LT PUSH1 0xB DUP5 LT AND OR ISZERO PUSH2 0xD16 JUMPI DUP3 DUP3 EXP SWAP1 POP DUP4 DUP2 GT ISZERO PUSH2 0xD11 JUMPI PUSH2 0xD10 PUSH2 0xE5E JUMP JUMPDEST JUMPDEST PUSH2 0xD40 JUMP JUMPDEST PUSH2 0xD23 DUP5 DUP5 DUP5 PUSH1 0x1 PUSH2 0xBD6 JUMP JUMPDEST SWAP3 POP SWAP1 POP DUP2 DUP5 DIV DUP2 GT ISZERO PUSH2 0xD3A JUMPI PUSH2 0xD39 PUSH2 0xE5E JUMP JUMPDEST JUMPDEST DUP2 DUP2 MUL SWAP1 POP JUMPDEST SWAP4 SWAP3 POP POP POP JUMP JUMPDEST PUSH1 0x0 PUSH2 0xD52 DUP3 PUSH2 0xE07 JUMP JUMPDEST SWAP2 POP PUSH2 0xD5D DUP4 PUSH2 0xE07 JUMP JUMPDEST SWAP3 POP DUP2 PUSH32 0xFFFFFFFFFFFFFFFFFFFFFFFFFFFFFFFFFFFFFFFFFFFFFFFFFFFFFFFFFFFFFFFF DIV DUP4 GT DUP3 ISZERO ISZERO AND ISZERO PUSH2 0xD96 JUMPI PUSH2 0xD95 PUSH2 0xE5E JUMP JUMPDEST JUMPDEST DUP3 DUP3 MUL SWAP1 POP SWAP3 SWAP2 POP POP JUMP JUMPDEST PUSH1 0x0 PUSH2 0xDAC DUP3 PUSH2 0xE07 JUMP JUMPDEST SWAP2 POP PUSH2 0xDB7 DUP4 PUSH2 0xE07 JUMP JUMPDEST SWAP3 POP DUP3 DUP3 LT ISZERO PUSH2 0xDCA JUMPI PUSH2 0xDC9 PUSH2 0xE5E JUMP JUMPDEST JUMPDEST DUP3 DUP3 SUB SWAP1 POP SWAP3 SWAP2 POP POP JUMP JUMPDEST PUSH1 0x0 PUSH2 0xDE0 DUP3 PUSH2 0xDE7 JUMP JUMPDEST SWAP1 POP SWAP2 SWAP1 POP JUMP JUMPDEST PUSH1 0x0 PUSH20 0xFFFFFFFFFFFFFFFFFFFFFFFFFFFFFFFFFFFFFFFF DUP3 AND SWAP1 POP SWAP2 SWAP1 POP JUMP JUMPDEST PUSH1 0x0 DUP2 SWAP1 POP SWAP2 SWAP1 POP JUMP JUMPDEST PUSH1 0x0 PUSH1 0xFF DUP3 AND SWAP1 POP SWAP2 SWAP1 POP JUMP JUMPDEST DUP3 DUP2 DUP4 CALLDATACOPY PUSH1 0x0 DUP4 DUP4 ADD MSTORE POP POP POP JUMP JUMPDEST PUSH2 0xE36 DUP3 PUSH2 0xEFF JUMP JUMPDEST DUP2 ADD DUP2 DUP2 LT PUSH8 0xFFFFFFFFFFFFFFFF DUP3 GT OR ISZERO PUSH2 0xE55 JUMPI PUSH2 0xE54 PUSH2 0xEBC JUMP JUMPDEST JUMPDEST DUP1 PUSH1 0x40 MSTORE POP POP POP JUMP JUMPDEST PUSH32 0x4E487B7100000000000000000000000000000000000000000000000000000000 PUSH1 0x0 MSTORE PUSH1 0x11 PUSH1 0x4 MSTORE PUSH1 0x24 PUSH1 0x0 REVERT JUMPDEST PUSH32 0x4E487B7100000000000000000000000000000000000000000000000000000000 PUSH1 0x0 MSTORE PUSH1 0x12 PUSH1 0x4 MSTORE PUSH1 0x24 PUSH1 0x0 REVERT JUMPDEST PUSH32 0x4E487B7100000000000000000000000000000000000000000000000000000000 PUSH1 0x0 MSTORE PUSH1 0x41 PUSH1 0x4 MSTORE PUSH1 0x24 PUSH1 0x0 REVERT JUMPDEST PUSH1 0x0 DUP1 REVERT JUMPDEST PUSH1 0x0 DUP1 REVERT JUMPDEST PUSH1 0x0 DUP1 REVERT JUMPDEST PUSH1 0x0 DUP1 REVERT JUMPDEST PUSH1 0x0 PUSH1 0x1F NOT PUSH1 0x1F DUP4 ADD AND SWAP1 POP SWAP2 SWAP1 POP JUMP JUMPDEST PUSH1 0x0 DUP2 PUSH1 0x1 SHR SWAP1 POP SWAP2 SWAP1 POP JUMP JUMPDEST PUSH32 0x43616E64696461746520766F746573206C696D69742065786365646565642066 PUSH1 0x0 DUP3 ADD MSTORE PUSH32 0x6F7220726F756E64000000000000000000000000000000000000000000000000 PUSH1 0x20 DUP3 ADD MSTORE POP JUMP JUMPDEST PUSH32 0x566F74696E67206C696D697420657863656465656420666F7220726F756E6400 PUSH1 0x0 DUP3 ADD MSTORE POP JUMP JUMPDEST PUSH2 0xF9E DUP2 PUSH2 0xDD5 JUMP JUMPDEST DUP2 EQ PUSH2 0xFA9 JUMPI PUSH1 0x0 DUP1 REVERT JUMPDEST POP JUMP JUMPDEST PUSH2 0xFB5 DUP2 PUSH2 0xE07 JUMP JUMPDEST DUP2 EQ PUSH2 0xFC0 JUMPI PUSH1 0x0 DUP1 REVERT JUMPDEST POP JUMP JUMPDEST PUSH2 0xFCC DUP2 PUSH2 0xE11 JUMP JUMPDEST DUP2 EQ PUSH2 0xFD7 JUMPI PUSH1 0x0 DUP1 REVERT JUMPDEST POP JUMP INVALID LOG2 PUSH5 0x6970667358 0x22 SLT KECCAK256 0xAA 0x4F NOT PUSH31 0x274EB33250E208230CE94485DB7C1C6AD685429E44228355578977E864736F PUSH13 0x63430008070033000000000000 "
				},
				"gasEstimates": {
					"creation": {
						"codeDepositCost": "822400",
						"executionCost": "103593",
						"totalCost": "925993"
					},
					"external": {
						"candidateVotes(uint8,address)": "3145",
						"getAirdropPerPerson()": "2481",
						"getCandidateQuantity()": "infinite",
						"getMaxElectionToken()": "infinite",
						"getMaxVotesForCandidate()": "infinite",
						"getRound()": "2501",
						"givenVotes(uint8,address)": "3057",
						"missed(uint8)": "2838",
						"sync()": "infinite",
						"vote(address,uint256)": "infinite",
						"whitelist(address,uint8,bytes)": "infinite",
						"winners(address)": "2845"
					},
					"internal": {
						"_addWinner(address)": "infinite",
						"_updateAirdropPerPerson()": "infinite",
						"_updateRound()": "infinite"
					}
				},
				"methodIdentifiers": {
					"candidateVotes(uint8,address)": "53002316",
					"getAirdropPerPerson()": "f4c98cc5",
					"getCandidateQuantity()": "f4d20e80",
					"getMaxElectionToken()": "f634c571",
					"getMaxVotesForCandidate()": "1a19ac9f",
					"getRound()": "9f8743f7",
					"givenVotes(uint8,address)": "12c0816e",
					"missed(uint8)": "3326152a",
					"sync()": "fff6cae9",
					"vote(address,uint256)": "5f74bbde",
					"whitelist(address,uint8,bytes)": "278a8d55",
					"winners(address)": "6bd5450a"
				}
			},
			"storageLayout": {
				"storage": [
					{
						"astId": 3,
						"contract": "contracts/1_Storage.sol:Election",
						"label": "round",
						"offset": 0,
						"slot": "0",
						"type": "t_uint8"
					},
					{
						"astId": 5,
						"contract": "contracts/1_Storage.sol:Election",
						"label": "airdropPerPerson",
						"offset": 0,
						"slot": "1",
						"type": "t_uint256"
					},
					{
						"astId": 7,
						"contract": "contracts/1_Storage.sol:Election",
						"label": "previousRoundAirdropPerPerson",
						"offset": 0,
						"slot": "2",
						"type": "t_uint256"
					},
					{
						"astId": 13,
						"contract": "contracts/1_Storage.sol:Election",
						"label": "givenVotes",
						"offset": 0,
						"slot": "3",
						"type": "t_mapping(t_uint8,t_mapping(t_address,t_uint256))"
					},
					{
						"astId": 19,
						"contract": "contracts/1_Storage.sol:Election",
						"label": "candidateVotes",
						"offset": 0,
						"slot": "4",
						"type": "t_mapping(t_uint8,t_mapping(t_address,t_uint256))"
					},
					{
						"astId": 23,
						"contract": "contracts/1_Storage.sol:Election",
						"label": "winners",
						"offset": 0,
						"slot": "5",
						"type": "t_mapping(t_address,t_uint8)"
					},
					{
						"astId": 27,
						"contract": "contracts/1_Storage.sol:Election",
						"label": "missed",
						"offset": 0,
						"slot": "6",
						"type": "t_mapping(t_uint8,t_uint256)"
					},
					{
						"astId": 29,
						"contract": "contracts/1_Storage.sol:Election",
						"label": "communitySize",
						"offset": 0,
						"slot": "7",
						"type": "t_uint256"
					},
					{
						"astId": 31,
						"contract": "contracts/1_Storage.sol:Election",
						"label": "winnersOfRound",
						"offset": 0,
						"slot": "8",
						"type": "t_uint256"
					},
					{
						"astId": 33,
						"contract": "contracts/1_Storage.sol:Election",
						"label": "roundStartedAt",
						"offset": 0,
						"slot": "9",
						"type": "t_uint256"
					}
				],
				"types": {
					"t_address": {
						"encoding": "inplace",
						"label": "address",
						"numberOfBytes": "20"
					},
					"t_mapping(t_address,t_uint256)": {
						"encoding": "mapping",
						"key": "t_address",
						"label": "mapping(address => uint256)",
						"numberOfBytes": "32",
						"value": "t_uint256"
					},
					"t_mapping(t_address,t_uint8)": {
						"encoding": "mapping",
						"key": "t_address",
						"label": "mapping(address => uint8)",
						"numberOfBytes": "32",
						"value": "t_uint8"
					},
					"t_mapping(t_uint8,t_mapping(t_address,t_uint256))": {
						"encoding": "mapping",
						"key": "t_uint8",
						"label": "mapping(uint8 => mapping(address => uint256))",
						"numberOfBytes": "32",
						"value": "t_mapping(t_address,t_uint256)"
					},
					"t_mapping(t_uint8,t_uint256)": {
						"encoding": "mapping",
						"key": "t_uint8",
						"label": "mapping(uint8 => uint256)",
						"numberOfBytes": "32",
						"value": "t_uint256"
					},
					"t_uint256": {
						"encoding": "inplace",
						"label": "uint256",
						"numberOfBytes": "32"
					},
					"t_uint8": {
						"encoding": "inplace",
						"label": "uint8",
						"numberOfBytes": "1"
					}
				}
			},
			"userdoc": {
				"kind": "user",
				"methods": {},
				"version": 1
			}
		}
	}
}