{
	"contracts/Whitelist.sol": {
		"WhitelistStorage": {
			"abi": [
				{
					"anonymous": false,
					"inputs": [
						{
							"indexed": true,
							"internalType": "bytes32",
							"name": "role",
							"type": "bytes32"
						},
						{
							"indexed": true,
							"internalType": "bytes32",
							"name": "previousAdminRole",
							"type": "bytes32"
						},
						{
							"indexed": true,
							"internalType": "bytes32",
							"name": "newAdminRole",
							"type": "bytes32"
						}
					],
					"name": "RoleAdminChanged",
					"type": "event"
				},
				{
					"anonymous": false,
					"inputs": [
						{
							"indexed": true,
							"internalType": "bytes32",
							"name": "role",
							"type": "bytes32"
						},
						{
							"indexed": true,
							"internalType": "address",
							"name": "account",
							"type": "address"
						},
						{
							"indexed": true,
							"internalType": "address",
							"name": "sender",
							"type": "address"
						}
					],
					"name": "RoleGranted",
					"type": "event"
				},
				{
					"anonymous": false,
					"inputs": [
						{
							"indexed": true,
							"internalType": "bytes32",
							"name": "role",
							"type": "bytes32"
						},
						{
							"indexed": true,
							"internalType": "address",
							"name": "account",
							"type": "address"
						},
						{
							"indexed": true,
							"internalType": "address",
							"name": "sender",
							"type": "address"
						}
					],
					"name": "RoleRevoked",
					"type": "event"
				},
				{
					"anonymous": false,
					"inputs": [
						{
							"indexed": false,
							"internalType": "address",
							"name": "account",
							"type": "address"
						}
					],
					"name": "Whitelist",
					"type": "event"
				},
				{
					"inputs": [],
					"name": "DEFAULT_ADMIN_ROLE",
					"outputs": [
						{
							"internalType": "bytes32",
							"name": "",
							"type": "bytes32"
						}
					],
					"stateMutability": "view",
					"type": "function"
				},
				{
					"inputs": [],
					"name": "SIGNER_ROLE",
					"outputs": [
						{
							"internalType": "bytes32",
							"name": "",
							"type": "bytes32"
						}
					],
					"stateMutability": "view",
					"type": "function"
				},
				{
					"inputs": [
						{
							"internalType": "bytes32",
							"name": "role",
							"type": "bytes32"
						}
					],
					"name": "getRoleAdmin",
					"outputs": [
						{
							"internalType": "bytes32",
							"name": "",
							"type": "bytes32"
						}
					],
					"stateMutability": "view",
					"type": "function"
				},
				{
					"inputs": [
						{
							"internalType": "bytes32",
							"name": "role",
							"type": "bytes32"
						},
						{
							"internalType": "uint256",
							"name": "index",
							"type": "uint256"
						}
					],
					"name": "getRoleMember",
					"outputs": [
						{
							"internalType": "address",
							"name": "",
							"type": "address"
						}
					],
					"stateMutability": "view",
					"type": "function"
				},
				{
					"inputs": [
						{
							"internalType": "bytes32",
							"name": "role",
							"type": "bytes32"
						}
					],
					"name": "getRoleMemberCount",
					"outputs": [
						{
							"internalType": "uint256",
							"name": "",
							"type": "uint256"
						}
					],
					"stateMutability": "view",
					"type": "function"
				},
				{
					"inputs": [
						{
							"internalType": "bytes32",
							"name": "role",
							"type": "bytes32"
						},
						{
							"internalType": "address",
							"name": "account",
							"type": "address"
						}
					],
					"name": "grantRole",
					"outputs": [],
					"stateMutability": "nonpayable",
					"type": "function"
				},
				{
					"inputs": [
						{
							"internalType": "bytes32",
							"name": "role",
							"type": "bytes32"
						},
						{
							"internalType": "address",
							"name": "account",
							"type": "address"
						}
					],
					"name": "hasRole",
					"outputs": [
						{
							"internalType": "bool",
							"name": "",
							"type": "bool"
						}
					],
					"stateMutability": "view",
					"type": "function"
				},
				{
					"inputs": [
						{
							"internalType": "bytes32",
							"name": "role",
							"type": "bytes32"
						},
						{
							"internalType": "address",
							"name": "account",
							"type": "address"
						}
					],
					"name": "renounceRole",
					"outputs": [],
					"stateMutability": "nonpayable",
					"type": "function"
				},
				{
					"inputs": [
						{
							"internalType": "bytes32",
							"name": "role",
							"type": "bytes32"
						},
						{
							"internalType": "address",
							"name": "account",
							"type": "address"
						}
					],
					"name": "revokeRole",
					"outputs": [],
					"stateMutability": "nonpayable",
					"type": "function"
				},
				{
					"inputs": [
						{
							"internalType": "bytes4",
							"name": "interfaceId",
							"type": "bytes4"
						}
					],
					"name": "supportsInterface",
					"outputs": [
						{
							"internalType": "bool",
							"name": "",
							"type": "bool"
						}
					],
					"stateMutability": "view",
					"type": "function"
				},
				{
					"inputs": [
						{
							"internalType": "address",
							"name": "account",
							"type": "address"
						},
						{
							"internalType": "uint16",
							"name": "networkId",
							"type": "uint16"
						},
						{
							"internalType": "bytes",
							"name": "signature",
							"type": "bytes"
						}
					],
					"name": "whitelist",
					"outputs": [],
					"stateMutability": "nonpayable",
					"type": "function"
				},
				{
					"inputs": [
						{
							"internalType": "address",
							"name": "",
							"type": "address"
						}
					],
					"name": "whitelisted",
					"outputs": [
						{
							"internalType": "bool",
							"name": "",
							"type": "bool"
						}
					],
					"stateMutability": "view",
					"type": "function"
				}
			],
			"devdoc": {
				"events": {
					"RoleAdminChanged(bytes32,bytes32,bytes32)": {
						"details": "Emitted when `newAdminRole` is set as ``role``'s admin role, replacing `previousAdminRole` `DEFAULT_ADMIN_ROLE` is the starting admin for all roles, despite {RoleAdminChanged} not being emitted signaling this. _Available since v3.1._"
					},
					"RoleGranted(bytes32,address,address)": {
						"details": "Emitted when `account` is granted `role`. `sender` is the account that originated the contract call, an admin role bearer except when using {AccessControl-_setupRole}."
					},
					"RoleRevoked(bytes32,address,address)": {
						"details": "Emitted when `account` is revoked `role`. `sender` is the account that originated the contract call:   - if using `revokeRole`, it is the admin role bearer   - if using `renounceRole`, it is the role bearer (i.e. `account`)"
					}
				},
				"kind": "dev",
				"methods": {
					"getRoleAdmin(bytes32)": {
						"details": "Returns the admin role that controls `role`. See {grantRole} and {revokeRole}. To change a role's admin, use {_setRoleAdmin}."
					},
					"getRoleMember(bytes32,uint256)": {
						"details": "Returns one of the accounts that have `role`. `index` must be a value between 0 and {getRoleMemberCount}, non-inclusive. Role bearers are not sorted in any particular way, and their ordering may change at any point. WARNING: When using {getRoleMember} and {getRoleMemberCount}, make sure you perform all queries on the same block. See the following https://forum.openzeppelin.com/t/iterating-over-elements-on-enumerableset-in-openzeppelin-contracts/2296[forum post] for more information."
					},
					"getRoleMemberCount(bytes32)": {
						"details": "Returns the number of accounts that have `role`. Can be used together with {getRoleMember} to enumerate all bearers of a role."
					},
					"grantRole(bytes32,address)": {
						"details": "Grants `role` to `account`. If `account` had not been already granted `role`, emits a {RoleGranted} event. Requirements: - the caller must have ``role``'s admin role. May emit a {RoleGranted} event."
					},
					"hasRole(bytes32,address)": {
						"details": "Returns `true` if `account` has been granted `role`."
					},
					"renounceRole(bytes32,address)": {
						"details": "Revokes `role` from the calling account. Roles are often managed via {grantRole} and {revokeRole}: this function's purpose is to provide a mechanism for accounts to lose their privileges if they are compromised (such as when a trusted device is misplaced). If the calling account had been revoked `role`, emits a {RoleRevoked} event. Requirements: - the caller must be `account`. May emit a {RoleRevoked} event."
					},
					"revokeRole(bytes32,address)": {
						"details": "Revokes `role` from `account`. If `account` had been granted `role`, emits a {RoleRevoked} event. Requirements: - the caller must have ``role``'s admin role. May emit a {RoleRevoked} event."
					},
					"supportsInterface(bytes4)": {
						"details": "See {IERC165-supportsInterface}."
					}
				},
				"version": 1
			},
			"evm": {
				"assembly": "    /* \"contracts/Whitelist.sol\":132:2230  contract WhitelistStorage is AccessControlEnumerable {... */\n  mstore(0x40, 0x80)\n  callvalue\n  dup1\n  iszero\n  tag_1\n  jumpi\n  0x00\n  dup1\n  revert\ntag_1:\n  pop\n  dataSize(sub_0)\n  dup1\n  dataOffset(sub_0)\n  0x00\n  codecopy\n  0x00\n  return\nstop\n\nsub_0: assembly {\n        /* \"contracts/Whitelist.sol\":132:2230  contract WhitelistStorage is AccessControlEnumerable {... */\n      mstore(0x40, 0x80)\n      callvalue\n      dup1\n      iszero\n      tag_1\n      jumpi\n      0x00\n      dup1\n      revert\n    tag_1:\n      pop\n      jumpi(tag_2, lt(calldatasize, 0x04))\n      shr(0xe0, calldataload(0x00))\n      dup1\n      0x91d14854\n      gt\n      tag_15\n      jumpi\n      dup1\n      0x91d14854\n      eq\n      tag_9\n      jumpi\n      dup1\n      0xa1ebf35d\n      eq\n      tag_10\n      jumpi\n      dup1\n      0xa217fddf\n      eq\n      tag_11\n      jumpi\n      dup1\n      0xca15c873\n      eq\n      tag_12\n      jumpi\n      dup1\n      0xd547741f\n      eq\n      tag_13\n      jumpi\n      dup1\n      0xd936547e\n      eq\n      tag_14\n      jumpi\n      jump(tag_2)\n    tag_15:\n      dup1\n      0x01ffc9a7\n      eq\n      tag_3\n      jumpi\n      dup1\n      0x248a9ca3\n      eq\n      tag_4\n      jumpi\n      dup1\n      0x2f2ff15d\n      eq\n      tag_5\n      jumpi\n      dup1\n      0x36568abe\n      eq\n      tag_6\n      jumpi\n      dup1\n      0x560d2901\n      eq\n      tag_7\n      jumpi\n      dup1\n      0x9010d07c\n      eq\n      tag_8\n      jumpi\n    tag_2:\n      0x00\n      dup1\n      revert\n        /* \"@openzeppelin/contracts/access/AccessControlEnumerable.sol\":634:846  function supportsInterface(bytes4 interfaceId) public view virtual override returns (bool) {... */\n    tag_3:\n      tag_16\n      0x04\n      dup1\n      calldatasize\n      sub\n      dup2\n      add\n      swap1\n      tag_17\n      swap2\n      swap1\n      tag_18\n      jump\t// in\n    tag_17:\n      tag_19\n      jump\t// in\n    tag_16:\n      mload(0x40)\n      tag_20\n      swap2\n      swap1\n      tag_21\n      jump\t// in\n    tag_20:\n      mload(0x40)\n      dup1\n      swap2\n      sub\n      swap1\n      return\n        /* \"@openzeppelin/contracts/access/AccessControl.sol\":4378:4507  function getRoleAdmin(bytes32 role) public view virtual override returns (bytes32) {... */\n    tag_4:\n      tag_22\n      0x04\n      dup1\n      calldatasize\n      sub\n      dup2\n      add\n      swap1\n      tag_23\n      swap2\n      swap1\n      tag_24\n      jump\t// in\n    tag_23:\n      tag_25\n      jump\t// in\n    tag_22:\n      mload(0x40)\n      tag_26\n      swap2\n      swap1\n      tag_27\n      jump\t// in\n    tag_26:\n      mload(0x40)\n      dup1\n      swap2\n      sub\n      swap1\n      return\n        /* \"@openzeppelin/contracts/access/AccessControl.sol\":4803:4948  function grantRole(bytes32 role, address account) public virtual override onlyRole(getRoleAdmin(role)) {... */\n    tag_5:\n      tag_28\n      0x04\n      dup1\n      calldatasize\n      sub\n      dup2\n      add\n      swap1\n      tag_29\n      swap2\n      swap1\n      tag_30\n      jump\t// in\n    tag_29:\n      tag_31\n      jump\t// in\n    tag_28:\n      stop\n        /* \"@openzeppelin/contracts/access/AccessControl.sol\":5912:6126  function renounceRole(bytes32 role, address account) public virtual override {... */\n    tag_6:\n      tag_32\n      0x04\n      dup1\n      calldatasize\n      sub\n      dup2\n      add\n      swap1\n      tag_33\n      swap2\n      swap1\n      tag_30\n      jump\t// in\n    tag_33:\n      tag_34\n      jump\t// in\n    tag_32:\n      stop\n        /* \"contracts/Whitelist.sol\":358:784  function whitelist(address account, uint16 networkId, bytes memory signature) external {... */\n    tag_7:\n      tag_35\n      0x04\n      dup1\n      calldatasize\n      sub\n      dup2\n      add\n      swap1\n      tag_36\n      swap2\n      swap1\n      tag_37\n      jump\t// in\n    tag_36:\n      tag_38\n      jump\t// in\n    tag_35:\n      stop\n        /* \"@openzeppelin/contracts/access/AccessControlEnumerable.sol\":1431:1582  function getRoleMember(bytes32 role, uint256 index) public view virtual override returns (address) {... */\n    tag_8:\n      tag_39\n      0x04\n      dup1\n      calldatasize\n      sub\n      dup2\n      add\n      swap1\n      tag_40\n      swap2\n      swap1\n      tag_41\n      jump\t// in\n    tag_40:\n      tag_42\n      jump\t// in\n    tag_39:\n      mload(0x40)\n      tag_43\n      swap2\n      swap1\n      tag_44\n      jump\t// in\n    tag_43:\n      mload(0x40)\n      dup1\n      swap2\n      sub\n      swap1\n      return\n        /* \"@openzeppelin/contracts/access/AccessControl.sol\":2895:3040  function hasRole(bytes32 role, address account) public view virtual override returns (bool) {... */\n    tag_9:\n      tag_45\n      0x04\n      dup1\n      calldatasize\n      sub\n      dup2\n      add\n      swap1\n      tag_46\n      swap2\n      swap1\n      tag_30\n      jump\t// in\n    tag_46:\n      tag_47\n      jump\t// in\n    tag_45:\n      mload(0x40)\n      tag_48\n      swap2\n      swap1\n      tag_21\n      jump\t// in\n    tag_48:\n      mload(0x40)\n      dup1\n      swap2\n      sub\n      swap1\n      return\n        /* \"contracts/Whitelist.sol\":194:256  bytes32 public constant SIGNER_ROLE = keccak256(\"SIGNER_ROLE\") */\n    tag_10:\n      tag_49\n      tag_50\n      jump\t// in\n    tag_49:\n      mload(0x40)\n      tag_51\n      swap2\n      swap1\n      tag_27\n      jump\t// in\n    tag_51:\n      mload(0x40)\n      dup1\n      swap2\n      sub\n      swap1\n      return\n        /* \"@openzeppelin/contracts/access/AccessControl.sol\":2027:2076  bytes32 public constant DEFAULT_ADMIN_ROLE = 0x00 */\n    tag_11:\n      tag_52\n      tag_53\n      jump\t// in\n    tag_52:\n      mload(0x40)\n      tag_54\n      swap2\n      swap1\n      tag_27\n      jump\t// in\n    tag_54:\n      mload(0x40)\n      dup1\n      swap2\n      sub\n      swap1\n      return\n        /* \"@openzeppelin/contracts/access/AccessControlEnumerable.sol\":1750:1890  function getRoleMemberCount(bytes32 role) public view virtual override returns (uint256) {... */\n    tag_12:\n      tag_55\n      0x04\n      dup1\n      calldatasize\n      sub\n      dup2\n      add\n      swap1\n      tag_56\n      swap2\n      swap1\n      tag_24\n      jump\t// in\n    tag_56:\n      tag_57\n      jump\t// in\n    tag_55:\n      mload(0x40)\n      tag_58\n      swap2\n      swap1\n      tag_59\n      jump\t// in\n    tag_58:\n      mload(0x40)\n      dup1\n      swap2\n      sub\n      swap1\n      return\n        /* \"@openzeppelin/contracts/access/AccessControl.sol\":5228:5375  function revokeRole(bytes32 role, address account) public virtual override onlyRole(getRoleAdmin(role)) {... */\n    tag_13:\n      tag_60\n      0x04\n      dup1\n      calldatasize\n      sub\n      dup2\n      add\n      swap1\n      tag_61\n      swap2\n      swap1\n      tag_30\n      jump\t// in\n    tag_61:\n      tag_62\n      jump\t// in\n    tag_60:\n      stop\n        /* \"contracts/Whitelist.sol\":265:308  mapping(address => bool) public whitelisted */\n    tag_14:\n      tag_63\n      0x04\n      dup1\n      calldatasize\n      sub\n      dup2\n      add\n      swap1\n      tag_64\n      swap2\n      swap1\n      tag_65\n      jump\t// in\n    tag_64:\n      tag_66\n      jump\t// in\n    tag_63:\n      mload(0x40)\n      tag_67\n      swap2\n      swap1\n      tag_21\n      jump\t// in\n    tag_67:\n      mload(0x40)\n      dup1\n      swap2\n      sub\n      swap1\n      return\n        /* \"@openzeppelin/contracts/access/AccessControlEnumerable.sol\":634:846  function supportsInterface(bytes4 interfaceId) public view virtual override returns (bool) {... */\n    tag_19:\n        /* \"@openzeppelin/contracts/access/AccessControlEnumerable.sol\":719:723  bool */\n      0x00\n        /* \"@openzeppelin/contracts/access/AccessControlEnumerable.sol\":757:799  type(IAccessControlEnumerable).interfaceId */\n      0x5a05180f00000000000000000000000000000000000000000000000000000000\n        /* \"@openzeppelin/contracts/access/AccessControlEnumerable.sol\":742:799  interfaceId == type(IAccessControlEnumerable).interfaceId */\n      not(0xffffffffffffffffffffffffffffffffffffffffffffffffffffffff)\n      and\n        /* \"@openzeppelin/contracts/access/AccessControlEnumerable.sol\":742:753  interfaceId */\n      dup3\n        /* \"@openzeppelin/contracts/access/AccessControlEnumerable.sol\":742:799  interfaceId == type(IAccessControlEnumerable).interfaceId */\n      not(0xffffffffffffffffffffffffffffffffffffffffffffffffffffffff)\n      and\n      eq\n        /* \"@openzeppelin/contracts/access/AccessControlEnumerable.sol\":742:839  interfaceId == type(IAccessControlEnumerable).interfaceId || super.supportsInterface(interfaceId) */\n      dup1\n      tag_69\n      jumpi\n      pop\n        /* \"@openzeppelin/contracts/access/AccessControlEnumerable.sol\":803:839  super.supportsInterface(interfaceId) */\n      tag_70\n        /* \"@openzeppelin/contracts/access/AccessControlEnumerable.sol\":827:838  interfaceId */\n      dup3\n        /* \"@openzeppelin/contracts/access/AccessControlEnumerable.sol\":803:826  super.supportsInterface */\n      tag_71\n        /* \"@openzeppelin/contracts/access/AccessControlEnumerable.sol\":803:839  super.supportsInterface(interfaceId) */\n      jump\t// in\n    tag_70:\n        /* \"@openzeppelin/contracts/access/AccessControlEnumerable.sol\":742:839  interfaceId == type(IAccessControlEnumerable).interfaceId || super.supportsInterface(interfaceId) */\n    tag_69:\n        /* \"@openzeppelin/contracts/access/AccessControlEnumerable.sol\":735:839  return interfaceId == type(IAccessControlEnumerable).interfaceId || super.supportsInterface(interfaceId) */\n      swap1\n      pop\n        /* \"@openzeppelin/contracts/access/AccessControlEnumerable.sol\":634:846  function supportsInterface(bytes4 interfaceId) public view virtual override returns (bool) {... */\n      swap2\n      swap1\n      pop\n      jump\t// out\n        /* \"@openzeppelin/contracts/access/AccessControl.sol\":4378:4507  function getRoleAdmin(bytes32 role) public view virtual override returns (bytes32) {... */\n    tag_25:\n        /* \"@openzeppelin/contracts/access/AccessControl.sol\":4452:4459  bytes32 */\n      0x00\n        /* \"@openzeppelin/contracts/access/AccessControl.sol\":4478:4484  _roles */\n      dup1\n        /* \"@openzeppelin/contracts/access/AccessControl.sol\":4478:4490  _roles[role] */\n      0x00\n        /* \"@openzeppelin/contracts/access/AccessControl.sol\":4485:4489  role */\n      dup4\n        /* \"@openzeppelin/contracts/access/AccessControl.sol\":4478:4490  _roles[role] */\n      dup2\n      mstore\n      0x20\n      add\n      swap1\n      dup2\n      mstore\n      0x20\n      add\n      0x00\n      keccak256\n        /* \"@openzeppelin/contracts/access/AccessControl.sol\":4478:4500  _roles[role].adminRole */\n      0x01\n      add\n      sload\n        /* \"@openzeppelin/contracts/access/AccessControl.sol\":4471:4500  return _roles[role].adminRole */\n      swap1\n      pop\n        /* \"@openzeppelin/contracts/access/AccessControl.sol\":4378:4507  function getRoleAdmin(bytes32 role) public view virtual override returns (bytes32) {... */\n      swap2\n      swap1\n      pop\n      jump\t// out\n        /* \"@openzeppelin/contracts/access/AccessControl.sol\":4803:4948  function grantRole(bytes32 role, address account) public virtual override onlyRole(getRoleAdmin(role)) {... */\n    tag_31:\n        /* \"@openzeppelin/contracts/access/AccessControl.sol\":4886:4904  getRoleAdmin(role) */\n      tag_73\n        /* \"@openzeppelin/contracts/access/AccessControl.sol\":4899:4903  role */\n      dup3\n        /* \"@openzeppelin/contracts/access/AccessControl.sol\":4886:4898  getRoleAdmin */\n      tag_25\n        /* \"@openzeppelin/contracts/access/AccessControl.sol\":4886:4904  getRoleAdmin(role) */\n      jump\t// in\n    tag_73:\n        /* \"@openzeppelin/contracts/access/AccessControl.sol\":2505:2521  _checkRole(role) */\n      tag_75\n        /* \"@openzeppelin/contracts/access/AccessControl.sol\":2516:2520  role */\n      dup2\n        /* \"@openzeppelin/contracts/access/AccessControl.sol\":2505:2515  _checkRole */\n      tag_76\n        /* \"@openzeppelin/contracts/access/AccessControl.sol\":2505:2521  _checkRole(role) */\n      jump\t// in\n    tag_75:\n        /* \"@openzeppelin/contracts/access/AccessControl.sol\":4916:4941  _grantRole(role, account) */\n      tag_78\n        /* \"@openzeppelin/contracts/access/AccessControl.sol\":4927:4931  role */\n      dup4\n        /* \"@openzeppelin/contracts/access/AccessControl.sol\":4933:4940  account */\n      dup4\n        /* \"@openzeppelin/contracts/access/AccessControl.sol\":4916:4926  _grantRole */\n      tag_79\n        /* \"@openzeppelin/contracts/access/AccessControl.sol\":4916:4941  _grantRole(role, account) */\n      jump\t// in\n    tag_78:\n        /* \"@openzeppelin/contracts/access/AccessControl.sol\":4803:4948  function grantRole(bytes32 role, address account) public virtual override onlyRole(getRoleAdmin(role)) {... */\n      pop\n      pop\n      pop\n      jump\t// out\n        /* \"@openzeppelin/contracts/access/AccessControl.sol\":5912:6126  function renounceRole(bytes32 role, address account) public virtual override {... */\n    tag_34:\n        /* \"@openzeppelin/contracts/access/AccessControl.sol\":6018:6030  _msgSender() */\n      tag_81\n        /* \"@openzeppelin/contracts/access/AccessControl.sol\":6018:6028  _msgSender */\n      tag_82\n        /* \"@openzeppelin/contracts/access/AccessControl.sol\":6018:6030  _msgSender() */\n      jump\t// in\n    tag_81:\n        /* \"@openzeppelin/contracts/access/AccessControl.sol\":6007:6030  account == _msgSender() */\n      0xffffffffffffffffffffffffffffffffffffffff\n      and\n        /* \"@openzeppelin/contracts/access/AccessControl.sol\":6007:6014  account */\n      dup2\n        /* \"@openzeppelin/contracts/access/AccessControl.sol\":6007:6030  account == _msgSender() */\n      0xffffffffffffffffffffffffffffffffffffffff\n      and\n      eq\n        /* \"@openzeppelin/contracts/access/AccessControl.sol\":5999:6082  require(account == _msgSender(), \"AccessControl: can only renounce roles for self\") */\n      tag_83\n      jumpi\n      mload(0x40)\n      0x08c379a000000000000000000000000000000000000000000000000000000000\n      dup2\n      mstore\n      0x04\n      add\n      tag_84\n      swap1\n      tag_85\n      jump\t// in\n    tag_84:\n      mload(0x40)\n      dup1\n      swap2\n      sub\n      swap1\n      revert\n    tag_83:\n        /* \"@openzeppelin/contracts/access/AccessControl.sol\":6093:6119  _revokeRole(role, account) */\n      tag_86\n        /* \"@openzeppelin/contracts/access/AccessControl.sol\":6105:6109  role */\n      dup3\n        /* \"@openzeppelin/contracts/access/AccessControl.sol\":6111:6118  account */\n      dup3\n        /* \"@openzeppelin/contracts/access/AccessControl.sol\":6093:6104  _revokeRole */\n      tag_87\n        /* \"@openzeppelin/contracts/access/AccessControl.sol\":6093:6119  _revokeRole(role, account) */\n      jump\t// in\n    tag_86:\n        /* \"@openzeppelin/contracts/access/AccessControl.sol\":5912:6126  function renounceRole(bytes32 role, address account) public virtual override {... */\n      pop\n      pop\n      jump\t// out\n        /* \"contracts/Whitelist.sol\":358:784  function whitelist(address account, uint16 networkId, bytes memory signature) external {... */\n    tag_38:\n        /* \"contracts/Whitelist.sol\":465:476  whitelisted */\n      0x02\n        /* \"contracts/Whitelist.sol\":465:485  whitelisted[account] */\n      0x00\n        /* \"contracts/Whitelist.sol\":477:484  account */\n      dup5\n        /* \"contracts/Whitelist.sol\":465:485  whitelisted[account] */\n      0xffffffffffffffffffffffffffffffffffffffff\n      and\n      0xffffffffffffffffffffffffffffffffffffffff\n      and\n      dup2\n      mstore\n      0x20\n      add\n      swap1\n      dup2\n      mstore\n      0x20\n      add\n      0x00\n      keccak256\n      0x00\n      swap1\n      sload\n      swap1\n      0x0100\n      exp\n      swap1\n      div\n      0xff\n      and\n        /* \"contracts/Whitelist.sol\":464:485  !whitelisted[account] */\n      iszero\n        /* \"contracts/Whitelist.sol\":456:517  require(!whitelisted[account], \"Account already whitelisted\") */\n      tag_89\n      jumpi\n      mload(0x40)\n      0x08c379a000000000000000000000000000000000000000000000000000000000\n      dup2\n      mstore\n      0x04\n      add\n      tag_90\n      swap1\n      tag_91\n      jump\t// in\n    tag_90:\n      mload(0x40)\n      dup1\n      swap2\n      sub\n      swap1\n      revert\n    tag_89:\n        /* \"contracts/Whitelist.sol\":530:555  bytes32 hashWithoutPrefix */\n      0x00\n        /* \"contracts/Whitelist.sol\":585:600  toUint(account) */\n      tag_92\n        /* \"contracts/Whitelist.sol\":592:599  account */\n      dup5\n        /* \"contracts/Whitelist.sol\":585:591  toUint */\n      tag_93\n        /* \"contracts/Whitelist.sol\":585:600  toUint(account) */\n      jump\t// in\n    tag_92:\n        /* \"contracts/Whitelist.sol\":602:611  networkId */\n      dup4\n        /* \"contracts/Whitelist.sol\":568:612  abi.encodePacked(toUint(account), networkId) */\n      add(0x20, mload(0x40))\n      tag_94\n      swap3\n      swap2\n      swap1\n      tag_95\n      jump\t// in\n    tag_94:\n      mload(0x40)\n      0x20\n      dup2\n      dup4\n      sub\n      sub\n      dup2\n      mstore\n      swap1\n      0x40\n      mstore\n        /* \"contracts/Whitelist.sol\":558:613  keccak256(abi.encodePacked(toUint(account), networkId)) */\n      dup1\n      mload\n      swap1\n      0x20\n      add\n      keccak256\n        /* \"contracts/Whitelist.sol\":530:613  bytes32 hashWithoutPrefix = keccak256(abi.encodePacked(toUint(account), networkId)) */\n      swap1\n      pop\n        /* \"contracts/Whitelist.sol\":658:700  verifySigner(hashWithoutPrefix, signature) */\n      tag_96\n        /* \"contracts/Whitelist.sol\":671:688  hashWithoutPrefix */\n      dup2\n        /* \"contracts/Whitelist.sol\":690:699  signature */\n      dup4\n        /* \"contracts/Whitelist.sol\":658:670  verifySigner */\n      tag_97\n        /* \"contracts/Whitelist.sol\":658:700  verifySigner(hashWithoutPrefix, signature) */\n      jump\t// in\n    tag_96:\n        /* \"contracts/Whitelist.sol\":736:740  true */\n      0x01\n        /* \"contracts/Whitelist.sol\":713:724  whitelisted */\n      0x02\n        /* \"contracts/Whitelist.sol\":713:733  whitelisted[account] */\n      0x00\n        /* \"contracts/Whitelist.sol\":725:732  account */\n      dup7\n        /* \"contracts/Whitelist.sol\":713:733  whitelisted[account] */\n      0xffffffffffffffffffffffffffffffffffffffff\n      and\n      0xffffffffffffffffffffffffffffffffffffffff\n      and\n      dup2\n      mstore\n      0x20\n      add\n      swap1\n      dup2\n      mstore\n      0x20\n      add\n      0x00\n      keccak256\n      0x00\n        /* \"contracts/Whitelist.sol\":713:740  whitelisted[account] = true */\n      0x0100\n      exp\n      dup2\n      sload\n      dup2\n      0xff\n      mul\n      not\n      and\n      swap1\n      dup4\n      iszero\n      iszero\n      mul\n      or\n      swap1\n      sstore\n      pop\n        /* \"contracts/Whitelist.sol\":758:776  Whitelist(account) */\n      0xeb73900b98b6a3e2b8b01708fe544760cf570d21e7fbe5225f24e48b5b2b432e\n        /* \"contracts/Whitelist.sol\":768:775  account */\n      dup5\n        /* \"contracts/Whitelist.sol\":758:776  Whitelist(account) */\n      mload(0x40)\n      tag_98\n      swap2\n      swap1\n      tag_44\n      jump\t// in\n    tag_98:\n      mload(0x40)\n      dup1\n      swap2\n      sub\n      swap1\n      log1\n        /* \"contracts/Whitelist.sol\":445:784  {... */\n      pop\n        /* \"contracts/Whitelist.sol\":358:784  function whitelist(address account, uint16 networkId, bytes memory signature) external {... */\n      pop\n      pop\n      pop\n      jump\t// out\n        /* \"@openzeppelin/contracts/access/AccessControlEnumerable.sol\":1431:1582  function getRoleMember(bytes32 role, uint256 index) public view virtual override returns (address) {... */\n    tag_42:\n        /* \"@openzeppelin/contracts/access/AccessControlEnumerable.sol\":1521:1528  address */\n      0x00\n        /* \"@openzeppelin/contracts/access/AccessControlEnumerable.sol\":1547:1575  _roleMembers[role].at(index) */\n      tag_100\n        /* \"@openzeppelin/contracts/access/AccessControlEnumerable.sol\":1569:1574  index */\n      dup3\n        /* \"@openzeppelin/contracts/access/AccessControlEnumerable.sol\":1547:1559  _roleMembers */\n      0x01\n        /* \"@openzeppelin/contracts/access/AccessControlEnumerable.sol\":1547:1565  _roleMembers[role] */\n      0x00\n        /* \"@openzeppelin/contracts/access/AccessControlEnumerable.sol\":1560:1564  role */\n      dup7\n        /* \"@openzeppelin/contracts/access/AccessControlEnumerable.sol\":1547:1565  _roleMembers[role] */\n      dup2\n      mstore\n      0x20\n      add\n      swap1\n      dup2\n      mstore\n      0x20\n      add\n      0x00\n      keccak256\n        /* \"@openzeppelin/contracts/access/AccessControlEnumerable.sol\":1547:1568  _roleMembers[role].at */\n      tag_101\n      swap1\n        /* \"@openzeppelin/contracts/access/AccessControlEnumerable.sol\":1547:1575  _roleMembers[role].at(index) */\n      swap2\n      swap1\n      0xffffffff\n      and\n      jump\t// in\n    tag_100:\n        /* \"@openzeppelin/contracts/access/AccessControlEnumerable.sol\":1540:1575  return _roleMembers[role].at(index) */\n      swap1\n      pop\n        /* \"@openzeppelin/contracts/access/AccessControlEnumerable.sol\":1431:1582  function getRoleMember(bytes32 role, uint256 index) public view virtual override returns (address) {... */\n      swap3\n      swap2\n      pop\n      pop\n      jump\t// out\n        /* \"@openzeppelin/contracts/access/AccessControl.sol\":2895:3040  function hasRole(bytes32 role, address account) public view virtual override returns (bool) {... */\n    tag_47:\n        /* \"@openzeppelin/contracts/access/AccessControl.sol\":2981:2985  bool */\n      0x00\n        /* \"@openzeppelin/contracts/access/AccessControl.sol\":3004:3010  _roles */\n      dup1\n        /* \"@openzeppelin/contracts/access/AccessControl.sol\":3004:3016  _roles[role] */\n      0x00\n        /* \"@openzeppelin/contracts/access/AccessControl.sol\":3011:3015  role */\n      dup5\n        /* \"@openzeppelin/contracts/access/AccessControl.sol\":3004:3016  _roles[role] */\n      dup2\n      mstore\n      0x20\n      add\n      swap1\n      dup2\n      mstore\n      0x20\n      add\n      0x00\n      keccak256\n        /* \"@openzeppelin/contracts/access/AccessControl.sol\":3004:3024  _roles[role].members */\n      0x00\n      add\n        /* \"@openzeppelin/contracts/access/AccessControl.sol\":3004:3033  _roles[role].members[account] */\n      0x00\n        /* \"@openzeppelin/contracts/access/AccessControl.sol\":3025:3032  account */\n      dup4\n        /* \"@openzeppelin/contracts/access/AccessControl.sol\":3004:3033  _roles[role].members[account] */\n      0xffffffffffffffffffffffffffffffffffffffff\n      and\n      0xffffffffffffffffffffffffffffffffffffffff\n      and\n      dup2\n      mstore\n      0x20\n      add\n      swap1\n      dup2\n      mstore\n      0x20\n      add\n      0x00\n      keccak256\n      0x00\n      swap1\n      sload\n      swap1\n      0x0100\n      exp\n      swap1\n      div\n      0xff\n      and\n        /* \"@openzeppelin/contracts/access/AccessControl.sol\":2997:3033  return _roles[role].members[account] */\n      swap1\n      pop\n        /* \"@openzeppelin/contracts/access/AccessControl.sol\":2895:3040  function hasRole(bytes32 role, address account) public view virtual override returns (bool) {... */\n      swap3\n      swap2\n      pop\n      pop\n      jump\t// out\n        /* \"contracts/Whitelist.sol\":194:256  bytes32 public constant SIGNER_ROLE = keccak256(\"SIGNER_ROLE\") */\n    tag_50:\n        /* \"contracts/Whitelist.sol\":232:256  keccak256(\"SIGNER_ROLE\") */\n      0xe2f4eaae4a9751e85a3e4a7b9587827a877f29914755229b07a7b2da98285f70\n        /* \"contracts/Whitelist.sol\":194:256  bytes32 public constant SIGNER_ROLE = keccak256(\"SIGNER_ROLE\") */\n      dup2\n      jump\t// out\n        /* \"@openzeppelin/contracts/access/AccessControl.sol\":2027:2076  bytes32 public constant DEFAULT_ADMIN_ROLE = 0x00 */\n    tag_53:\n        /* \"@openzeppelin/contracts/access/AccessControl.sol\":2072:2076  0x00 */\n      0x00\n        /* \"@openzeppelin/contracts/access/AccessControl.sol\":2027:2076  bytes32 public constant DEFAULT_ADMIN_ROLE = 0x00 */\n      dup1\n      shl\n      dup2\n      jump\t// out\n        /* \"@openzeppelin/contracts/access/AccessControlEnumerable.sol\":1750:1890  function getRoleMemberCount(bytes32 role) public view virtual override returns (uint256) {... */\n    tag_57:\n        /* \"@openzeppelin/contracts/access/AccessControlEnumerable.sol\":1830:1837  uint256 */\n      0x00\n        /* \"@openzeppelin/contracts/access/AccessControlEnumerable.sol\":1856:1883  _roleMembers[role].length() */\n      tag_104\n        /* \"@openzeppelin/contracts/access/AccessControlEnumerable.sol\":1856:1868  _roleMembers */\n      0x01\n        /* \"@openzeppelin/contracts/access/AccessControlEnumerable.sol\":1856:1874  _roleMembers[role] */\n      0x00\n        /* \"@openzeppelin/contracts/access/AccessControlEnumerable.sol\":1869:1873  role */\n      dup5\n        /* \"@openzeppelin/contracts/access/AccessControlEnumerable.sol\":1856:1874  _roleMembers[role] */\n      dup2\n      mstore\n      0x20\n      add\n      swap1\n      dup2\n      mstore\n      0x20\n      add\n      0x00\n      keccak256\n        /* \"@openzeppelin/contracts/access/AccessControlEnumerable.sol\":1856:1881  _roleMembers[role].length */\n      tag_105\n        /* \"@openzeppelin/contracts/access/AccessControlEnumerable.sol\":1856:1883  _roleMembers[role].length() */\n      jump\t// in\n    tag_104:\n        /* \"@openzeppelin/contracts/access/AccessControlEnumerable.sol\":1849:1883  return _roleMembers[role].length() */\n      swap1\n      pop\n        /* \"@openzeppelin/contracts/access/AccessControlEnumerable.sol\":1750:1890  function getRoleMemberCount(bytes32 role) public view virtual override returns (uint256) {... */\n      swap2\n      swap1\n      pop\n      jump\t// out\n        /* \"@openzeppelin/contracts/access/AccessControl.sol\":5228:5375  function revokeRole(bytes32 role, address account) public virtual override onlyRole(getRoleAdmin(role)) {... */\n    tag_62:\n        /* \"@openzeppelin/contracts/access/AccessControl.sol\":5312:5330  getRoleAdmin(role) */\n      tag_106\n        /* \"@openzeppelin/contracts/access/AccessControl.sol\":5325:5329  role */\n      dup3\n        /* \"@openzeppelin/contracts/access/AccessControl.sol\":5312:5324  getRoleAdmin */\n      tag_25\n        /* \"@openzeppelin/contracts/access/AccessControl.sol\":5312:5330  getRoleAdmin(role) */\n      jump\t// in\n    tag_106:\n        /* \"@openzeppelin/contracts/access/AccessControl.sol\":2505:2521  _checkRole(role) */\n      tag_108\n        /* \"@openzeppelin/contracts/access/AccessControl.sol\":2516:2520  role */\n      dup2\n        /* \"@openzeppelin/contracts/access/AccessControl.sol\":2505:2515  _checkRole */\n      tag_76\n        /* \"@openzeppelin/contracts/access/AccessControl.sol\":2505:2521  _checkRole(role) */\n      jump\t// in\n    tag_108:\n        /* \"@openzeppelin/contracts/access/AccessControl.sol\":5342:5368  _revokeRole(role, account) */\n      tag_110\n        /* \"@openzeppelin/contracts/access/AccessControl.sol\":5354:5358  role */\n      dup4\n        /* \"@openzeppelin/contracts/access/AccessControl.sol\":5360:5367  account */\n      dup4\n        /* \"@openzeppelin/contracts/access/AccessControl.sol\":5342:5353  _revokeRole */\n      tag_87\n        /* \"@openzeppelin/contracts/access/AccessControl.sol\":5342:5368  _revokeRole(role, account) */\n      jump\t// in\n    tag_110:\n        /* \"@openzeppelin/contracts/access/AccessControl.sol\":5228:5375  function revokeRole(bytes32 role, address account) public virtual override onlyRole(getRoleAdmin(role)) {... */\n      pop\n      pop\n      pop\n      jump\t// out\n        /* \"contracts/Whitelist.sol\":265:308  mapping(address => bool) public whitelisted */\n    tag_66:\n      mstore(0x20, 0x02)\n      dup1\n      0x00\n      mstore\n      keccak256(0x00, 0x40)\n      0x00\n      swap2\n      pop\n      sload\n      swap1\n      0x0100\n      exp\n      swap1\n      div\n      0xff\n      and\n      dup2\n      jump\t// out\n        /* \"@openzeppelin/contracts/access/AccessControl.sol\":2606:2808  function supportsInterface(bytes4 interfaceId) public view virtual override returns (bool) {... */\n    tag_71:\n        /* \"@openzeppelin/contracts/access/AccessControl.sol\":2691:2695  bool */\n      0x00\n        /* \"@openzeppelin/contracts/access/AccessControl.sol\":2729:2761  type(IAccessControl).interfaceId */\n      0x7965db0b00000000000000000000000000000000000000000000000000000000\n        /* \"@openzeppelin/contracts/access/AccessControl.sol\":2714:2761  interfaceId == type(IAccessControl).interfaceId */\n      not(0xffffffffffffffffffffffffffffffffffffffffffffffffffffffff)\n      and\n        /* \"@openzeppelin/contracts/access/AccessControl.sol\":2714:2725  interfaceId */\n      dup3\n        /* \"@openzeppelin/contracts/access/AccessControl.sol\":2714:2761  interfaceId == type(IAccessControl).interfaceId */\n      not(0xffffffffffffffffffffffffffffffffffffffffffffffffffffffff)\n      and\n      eq\n        /* \"@openzeppelin/contracts/access/AccessControl.sol\":2714:2801  interfaceId == type(IAccessControl).interfaceId || super.supportsInterface(interfaceId) */\n      dup1\n      tag_112\n      jumpi\n      pop\n        /* \"@openzeppelin/contracts/access/AccessControl.sol\":2765:2801  super.supportsInterface(interfaceId) */\n      tag_113\n        /* \"@openzeppelin/contracts/access/AccessControl.sol\":2789:2800  interfaceId */\n      dup3\n        /* \"@openzeppelin/contracts/access/AccessControl.sol\":2765:2788  super.supportsInterface */\n      tag_114\n        /* \"@openzeppelin/contracts/access/AccessControl.sol\":2765:2801  super.supportsInterface(interfaceId) */\n      jump\t// in\n    tag_113:\n        /* \"@openzeppelin/contracts/access/AccessControl.sol\":2714:2801  interfaceId == type(IAccessControl).interfaceId || super.supportsInterface(interfaceId) */\n    tag_112:\n        /* \"@openzeppelin/contracts/access/AccessControl.sol\":2707:2801  return interfaceId == type(IAccessControl).interfaceId || super.supportsInterface(interfaceId) */\n      swap1\n      pop\n        /* \"@openzeppelin/contracts/access/AccessControl.sol\":2606:2808  function supportsInterface(bytes4 interfaceId) public view virtual override returns (bool) {... */\n      swap2\n      swap1\n      pop\n      jump\t// out\n        /* \"@openzeppelin/contracts/access/AccessControl.sol\":3334:3437  function _checkRole(bytes32 role) internal view virtual {... */\n    tag_76:\n        /* \"@openzeppelin/contracts/access/AccessControl.sol\":3400:3430  _checkRole(role, _msgSender()) */\n      tag_116\n        /* \"@openzeppelin/contracts/access/AccessControl.sol\":3411:3415  role */\n      dup2\n        /* \"@openzeppelin/contracts/access/AccessControl.sol\":3417:3429  _msgSender() */\n      tag_117\n        /* \"@openzeppelin/contracts/access/AccessControl.sol\":3417:3427  _msgSender */\n      tag_82\n        /* \"@openzeppelin/contracts/access/AccessControl.sol\":3417:3429  _msgSender() */\n      jump\t// in\n    tag_117:\n        /* \"@openzeppelin/contracts/access/AccessControl.sol\":3400:3410  _checkRole */\n      tag_118\n        /* \"@openzeppelin/contracts/access/AccessControl.sol\":3400:3430  _checkRole(role, _msgSender()) */\n      jump\t// in\n    tag_116:\n        /* \"@openzeppelin/contracts/access/AccessControl.sol\":3334:3437  function _checkRole(bytes32 role) internal view virtual {... */\n      pop\n      jump\t// out\n        /* \"@openzeppelin/contracts/access/AccessControlEnumerable.sol\":1978:2144  function _grantRole(bytes32 role, address account) internal virtual override {... */\n    tag_79:\n        /* \"@openzeppelin/contracts/access/AccessControlEnumerable.sol\":2065:2096  super._grantRole(role, account) */\n      tag_120\n        /* \"@openzeppelin/contracts/access/AccessControlEnumerable.sol\":2082:2086  role */\n      dup3\n        /* \"@openzeppelin/contracts/access/AccessControlEnumerable.sol\":2088:2095  account */\n      dup3\n        /* \"@openzeppelin/contracts/access/AccessControlEnumerable.sol\":2065:2081  super._grantRole */\n      tag_121\n        /* \"@openzeppelin/contracts/access/AccessControlEnumerable.sol\":2065:2096  super._grantRole(role, account) */\n      jump\t// in\n    tag_120:\n        /* \"@openzeppelin/contracts/access/AccessControlEnumerable.sol\":2106:2137  _roleMembers[role].add(account) */\n      tag_122\n        /* \"@openzeppelin/contracts/access/AccessControlEnumerable.sol\":2129:2136  account */\n      dup2\n        /* \"@openzeppelin/contracts/access/AccessControlEnumerable.sol\":2106:2118  _roleMembers */\n      0x01\n        /* \"@openzeppelin/contracts/access/AccessControlEnumerable.sol\":2106:2124  _roleMembers[role] */\n      0x00\n        /* \"@openzeppelin/contracts/access/AccessControlEnumerable.sol\":2119:2123  role */\n      dup6\n        /* \"@openzeppelin/contracts/access/AccessControlEnumerable.sol\":2106:2124  _roleMembers[role] */\n      dup2\n      mstore\n      0x20\n      add\n      swap1\n      dup2\n      mstore\n      0x20\n      add\n      0x00\n      keccak256\n        /* \"@openzeppelin/contracts/access/AccessControlEnumerable.sol\":2106:2128  _roleMembers[role].add */\n      tag_123\n      swap1\n        /* \"@openzeppelin/contracts/access/AccessControlEnumerable.sol\":2106:2137  _roleMembers[role].add(account) */\n      swap2\n      swap1\n      0xffffffff\n      and\n      jump\t// in\n    tag_122:\n      pop\n        /* \"@openzeppelin/contracts/access/AccessControlEnumerable.sol\":1978:2144  function _grantRole(bytes32 role, address account) internal virtual override {... */\n      pop\n      pop\n      jump\t// out\n        /* \"@openzeppelin/contracts/utils/Context.sol\":640:736  function _msgSender() internal view virtual returns (address) {... */\n    tag_82:\n        /* \"@openzeppelin/contracts/utils/Context.sol\":693:700  address */\n      0x00\n        /* \"@openzeppelin/contracts/utils/Context.sol\":719:729  msg.sender */\n      caller\n        /* \"@openzeppelin/contracts/utils/Context.sol\":712:729  return msg.sender */\n      swap1\n      pop\n        /* \"@openzeppelin/contracts/utils/Context.sol\":640:736  function _msgSender() internal view virtual returns (address) {... */\n      swap1\n      jump\t// out\n        /* \"@openzeppelin/contracts/access/AccessControlEnumerable.sol\":2233:2404  function _revokeRole(bytes32 role, address account) internal virtual override {... */\n    tag_87:\n        /* \"@openzeppelin/contracts/access/AccessControlEnumerable.sol\":2321:2353  super._revokeRole(role, account) */\n      tag_126\n        /* \"@openzeppelin/contracts/access/AccessControlEnumerable.sol\":2339:2343  role */\n      dup3\n        /* \"@openzeppelin/contracts/access/AccessControlEnumerable.sol\":2345:2352  account */\n      dup3\n        /* \"@openzeppelin/contracts/access/AccessControlEnumerable.sol\":2321:2338  super._revokeRole */\n      tag_127\n        /* \"@openzeppelin/contracts/access/AccessControlEnumerable.sol\":2321:2353  super._revokeRole(role, account) */\n      jump\t// in\n    tag_126:\n        /* \"@openzeppelin/contracts/access/AccessControlEnumerable.sol\":2363:2397  _roleMembers[role].remove(account) */\n      tag_128\n        /* \"@openzeppelin/contracts/access/AccessControlEnumerable.sol\":2389:2396  account */\n      dup2\n        /* \"@openzeppelin/contracts/access/AccessControlEnumerable.sol\":2363:2375  _roleMembers */\n      0x01\n        /* \"@openzeppelin/contracts/access/AccessControlEnumerable.sol\":2363:2381  _roleMembers[role] */\n      0x00\n        /* \"@openzeppelin/contracts/access/AccessControlEnumerable.sol\":2376:2380  role */\n      dup6\n        /* \"@openzeppelin/contracts/access/AccessControlEnumerable.sol\":2363:2381  _roleMembers[role] */\n      dup2\n      mstore\n      0x20\n      add\n      swap1\n      dup2\n      mstore\n      0x20\n      add\n      0x00\n      keccak256\n        /* \"@openzeppelin/contracts/access/AccessControlEnumerable.sol\":2363:2388  _roleMembers[role].remove */\n      tag_129\n      swap1\n        /* \"@openzeppelin/contracts/access/AccessControlEnumerable.sol\":2363:2397  _roleMembers[role].remove(account) */\n      swap2\n      swap1\n      0xffffffff\n      and\n      jump\t// in\n    tag_128:\n      pop\n        /* \"@openzeppelin/contracts/access/AccessControlEnumerable.sol\":2233:2404  function _revokeRole(bytes32 role, address account) internal virtual override {... */\n      pop\n      pop\n      jump\t// out\n        /* \"contracts/Whitelist.sol\":2099:2225  function toUint(address _address) internal pure virtual returns (uint256) {... */\n    tag_93:\n        /* \"contracts/Whitelist.sol\":2164:2171  uint256 */\n      0x00\n        /* \"contracts/Whitelist.sol\":2207:2215  _address */\n      dup2\n        /* \"contracts/Whitelist.sol\":2191:2217  uint256(uint160(_address)) */\n      0xffffffffffffffffffffffffffffffffffffffff\n      and\n        /* \"contracts/Whitelist.sol\":2184:2217  return uint256(uint160(_address)) */\n      swap1\n      pop\n        /* \"contracts/Whitelist.sol\":2099:2225  function toUint(address _address) internal pure virtual returns (uint256) {... */\n      swap2\n      swap1\n      pop\n      jump\t// out\n        /* \"contracts/Whitelist.sol\":792:1234  function verifySigner(bytes32 hashWithoutPrefix, bytes memory signature) internal view {... */\n    tag_97:\n        /* \"contracts/Whitelist.sol\":965:977  bytes32 hash */\n      0x00\n        /* \"contracts/Whitelist.sol\":980:1007  prefixed(hashWithoutPrefix) */\n      tag_132\n        /* \"contracts/Whitelist.sol\":989:1006  hashWithoutPrefix */\n      dup4\n        /* \"contracts/Whitelist.sol\":980:988  prefixed */\n      tag_133\n        /* \"contracts/Whitelist.sol\":980:1007  prefixed(hashWithoutPrefix) */\n      jump\t// in\n    tag_132:\n        /* \"contracts/Whitelist.sol\":965:1007  bytes32 hash = prefixed(hashWithoutPrefix) */\n      swap1\n      pop\n        /* \"contracts/Whitelist.sol\":1076:1099  address recoveredSigner */\n      0x00\n        /* \"contracts/Whitelist.sol\":1102:1132  recoverSigner(hash, signature) */\n      tag_134\n        /* \"contracts/Whitelist.sol\":1116:1120  hash */\n      dup3\n        /* \"contracts/Whitelist.sol\":1122:1131  signature */\n      dup5\n        /* \"contracts/Whitelist.sol\":1102:1115  recoverSigner */\n      tag_135\n        /* \"contracts/Whitelist.sol\":1102:1132  recoverSigner(hash, signature) */\n      jump\t// in\n    tag_134:\n        /* \"contracts/Whitelist.sol\":1076:1132  address recoveredSigner = recoverSigner(hash, signature) */\n      swap1\n      pop\n        /* \"contracts/Whitelist.sol\":1153:1190  hasRole(SIGNER_ROLE, recoveredSigner) */\n      tag_136\n        /* \"contracts/Whitelist.sol\":232:256  keccak256(\"SIGNER_ROLE\") */\n      0xe2f4eaae4a9751e85a3e4a7b9587827a877f29914755229b07a7b2da98285f70\n        /* \"contracts/Whitelist.sol\":1174:1189  recoveredSigner */\n      dup3\n        /* \"contracts/Whitelist.sol\":1153:1160  hasRole */\n      tag_47\n        /* \"contracts/Whitelist.sol\":1153:1190  hasRole(SIGNER_ROLE, recoveredSigner) */\n      jump\t// in\n    tag_136:\n        /* \"contracts/Whitelist.sol\":1145:1226  require(hasRole(SIGNER_ROLE, recoveredSigner), \"Signer doesn't have SIGNER role\") */\n      tag_137\n      jumpi\n      mload(0x40)\n      0x08c379a000000000000000000000000000000000000000000000000000000000\n      dup2\n      mstore\n      0x04\n      add\n      tag_138\n      swap1\n      tag_139\n      jump\t// in\n    tag_138:\n      mload(0x40)\n      dup1\n      swap2\n      sub\n      swap1\n      revert\n    tag_137:\n        /* \"contracts/Whitelist.sol\":879:1234  {... */\n      pop\n      pop\n        /* \"contracts/Whitelist.sol\":792:1234  function verifySigner(bytes32 hashWithoutPrefix, bytes memory signature) internal view {... */\n      pop\n      pop\n      jump\t// out\n        /* \"@openzeppelin/contracts/utils/structs/EnumerableSet.sol\":9555:9711  function at(AddressSet storage set, uint256 index) internal view returns (address) {... */\n    tag_101:\n        /* \"@openzeppelin/contracts/utils/structs/EnumerableSet.sol\":9629:9636  address */\n      0x00\n        /* \"@openzeppelin/contracts/utils/structs/EnumerableSet.sol\":9679:9701  _at(set._inner, index) */\n      tag_141\n        /* \"@openzeppelin/contracts/utils/structs/EnumerableSet.sol\":9683:9686  set */\n      dup4\n        /* \"@openzeppelin/contracts/utils/structs/EnumerableSet.sol\":9683:9693  set._inner */\n      0x00\n      add\n        /* \"@openzeppelin/contracts/utils/structs/EnumerableSet.sol\":9695:9700  index */\n      dup4\n        /* \"@openzeppelin/contracts/utils/structs/EnumerableSet.sol\":9679:9682  _at */\n      tag_142\n        /* \"@openzeppelin/contracts/utils/structs/EnumerableSet.sol\":9679:9701  _at(set._inner, index) */\n      jump\t// in\n    tag_141:\n        /* \"@openzeppelin/contracts/utils/structs/EnumerableSet.sol\":9671:9702  uint256(_at(set._inner, index)) */\n      0x00\n      shr\n        /* \"@openzeppelin/contracts/utils/structs/EnumerableSet.sol\":9648:9704  return address(uint160(uint256(_at(set._inner, index)))) */\n      swap1\n      pop\n        /* \"@openzeppelin/contracts/utils/structs/EnumerableSet.sol\":9555:9711  function at(AddressSet storage set, uint256 index) internal view returns (address) {... */\n      swap3\n      swap2\n      pop\n      pop\n      jump\t// out\n        /* \"@openzeppelin/contracts/utils/structs/EnumerableSet.sol\":9098:9213  function length(AddressSet storage set) internal view returns (uint256) {... */\n    tag_105:\n        /* \"@openzeppelin/contracts/utils/structs/EnumerableSet.sol\":9161:9168  uint256 */\n      0x00\n        /* \"@openzeppelin/contracts/utils/structs/EnumerableSet.sol\":9187:9206  _length(set._inner) */\n      tag_144\n        /* \"@openzeppelin/contracts/utils/structs/EnumerableSet.sol\":9195:9198  set */\n      dup3\n        /* \"@openzeppelin/contracts/utils/structs/EnumerableSet.sol\":9195:9205  set._inner */\n      0x00\n      add\n        /* \"@openzeppelin/contracts/utils/structs/EnumerableSet.sol\":9187:9194  _length */\n      tag_145\n        /* \"@openzeppelin/contracts/utils/structs/EnumerableSet.sol\":9187:9206  _length(set._inner) */\n      jump\t// in\n    tag_144:\n        /* \"@openzeppelin/contracts/utils/structs/EnumerableSet.sol\":9180:9206  return _length(set._inner) */\n      swap1\n      pop\n        /* \"@openzeppelin/contracts/utils/structs/EnumerableSet.sol\":9098:9213  function length(AddressSet storage set) internal view returns (uint256) {... */\n      swap2\n      swap1\n      pop\n      jump\t// out\n        /* \"@openzeppelin/contracts/utils/introspection/ERC165.sol\":829:984  function supportsInterface(bytes4 interfaceId) public view virtual override returns (bool) {... */\n    tag_114:\n        /* \"@openzeppelin/contracts/utils/introspection/ERC165.sol\":914:918  bool */\n      0x00\n        /* \"@openzeppelin/contracts/utils/introspection/ERC165.sol\":952:977  type(IERC165).interfaceId */\n      0x01ffc9a700000000000000000000000000000000000000000000000000000000\n        /* \"@openzeppelin/contracts/utils/introspection/ERC165.sol\":937:977  interfaceId == type(IERC165).interfaceId */\n      not(0xffffffffffffffffffffffffffffffffffffffffffffffffffffffff)\n      and\n        /* \"@openzeppelin/contracts/utils/introspection/ERC165.sol\":937:948  interfaceId */\n      dup3\n        /* \"@openzeppelin/contracts/utils/introspection/ERC165.sol\":937:977  interfaceId == type(IERC165).interfaceId */\n      not(0xffffffffffffffffffffffffffffffffffffffffffffffffffffffff)\n      and\n      eq\n        /* \"@openzeppelin/contracts/utils/introspection/ERC165.sol\":930:977  return interfaceId == type(IERC165).interfaceId */\n      swap1\n      pop\n        /* \"@openzeppelin/contracts/utils/introspection/ERC165.sol\":829:984  function supportsInterface(bytes4 interfaceId) public view virtual override returns (bool) {... */\n      swap2\n      swap1\n      pop\n      jump\t// out\n        /* \"@openzeppelin/contracts/access/AccessControl.sol\":3718:4197  function _checkRole(bytes32 role, address account) internal view virtual {... */\n    tag_118:\n        /* \"@openzeppelin/contracts/access/AccessControl.sol\":3806:3828  hasRole(role, account) */\n      tag_148\n        /* \"@openzeppelin/contracts/access/AccessControl.sol\":3814:3818  role */\n      dup3\n        /* \"@openzeppelin/contracts/access/AccessControl.sol\":3820:3827  account */\n      dup3\n        /* \"@openzeppelin/contracts/access/AccessControl.sol\":3806:3813  hasRole */\n      tag_47\n        /* \"@openzeppelin/contracts/access/AccessControl.sol\":3806:3828  hasRole(role, account) */\n      jump\t// in\n    tag_148:\n        /* \"@openzeppelin/contracts/access/AccessControl.sol\":3801:4191  if (!hasRole(role, account)) {... */\n      tag_149\n      jumpi\n        /* \"@openzeppelin/contracts/access/AccessControl.sol\":3989:4017  Strings.toHexString(account) */\n      tag_150\n        /* \"@openzeppelin/contracts/access/AccessControl.sol\":4009:4016  account */\n      dup2\n        /* \"@openzeppelin/contracts/access/AccessControl.sol\":3989:4008  Strings.toHexString */\n      tag_151\n        /* \"@openzeppelin/contracts/access/AccessControl.sol\":3989:4017  Strings.toHexString(account) */\n      jump\t// in\n    tag_150:\n        /* \"@openzeppelin/contracts/access/AccessControl.sol\":4088:4126  Strings.toHexString(uint256(role), 32) */\n      tag_152\n        /* \"@openzeppelin/contracts/access/AccessControl.sol\":4116:4120  role */\n      dup4\n        /* \"@openzeppelin/contracts/access/AccessControl.sol\":4108:4121  uint256(role) */\n      0x00\n      shr\n        /* \"@openzeppelin/contracts/access/AccessControl.sol\":4123:4125  32 */\n      0x20\n        /* \"@openzeppelin/contracts/access/AccessControl.sol\":4088:4107  Strings.toHexString */\n      tag_153\n        /* \"@openzeppelin/contracts/access/AccessControl.sol\":4088:4126  Strings.toHexString(uint256(role), 32) */\n      jump\t// in\n    tag_152:\n        /* \"@openzeppelin/contracts/access/AccessControl.sol\":3896:4148  abi.encodePacked(... */\n      add(0x20, mload(0x40))\n      tag_154\n      swap3\n      swap2\n      swap1\n      tag_155\n      jump\t// in\n    tag_154:\n      mload(0x40)\n      0x20\n      dup2\n      dup4\n      sub\n      sub\n      dup2\n      mstore\n      swap1\n      0x40\n      mstore\n        /* \"@openzeppelin/contracts/access/AccessControl.sol\":3844:4180  revert(... */\n      mload(0x40)\n      0x08c379a000000000000000000000000000000000000000000000000000000000\n      dup2\n      mstore\n      0x04\n      add\n      tag_156\n      swap2\n      swap1\n      tag_157\n      jump\t// in\n    tag_156:\n      mload(0x40)\n      dup1\n      swap2\n      sub\n      swap1\n      revert\n        /* \"@openzeppelin/contracts/access/AccessControl.sol\":3801:4191  if (!hasRole(role, account)) {... */\n    tag_149:\n        /* \"@openzeppelin/contracts/access/AccessControl.sol\":3718:4197  function _checkRole(bytes32 role, address account) internal view virtual {... */\n      pop\n      pop\n      jump\t// out\n        /* \"@openzeppelin/contracts/access/AccessControl.sol\":7461:7694  function _grantRole(bytes32 role, address account) internal virtual {... */\n    tag_121:\n        /* \"@openzeppelin/contracts/access/AccessControl.sol\":7544:7566  hasRole(role, account) */\n      tag_159\n        /* \"@openzeppelin/contracts/access/AccessControl.sol\":7552:7556  role */\n      dup3\n        /* \"@openzeppelin/contracts/access/AccessControl.sol\":7558:7565  account */\n      dup3\n        /* \"@openzeppelin/contracts/access/AccessControl.sol\":7544:7551  hasRole */\n      tag_47\n        /* \"@openzeppelin/contracts/access/AccessControl.sol\":7544:7566  hasRole(role, account) */\n      jump\t// in\n    tag_159:\n        /* \"@openzeppelin/contracts/access/AccessControl.sol\":7539:7688  if (!hasRole(role, account)) {... */\n      tag_160\n      jumpi\n        /* \"@openzeppelin/contracts/access/AccessControl.sol\":7614:7618  true */\n      0x01\n        /* \"@openzeppelin/contracts/access/AccessControl.sol\":7582:7588  _roles */\n      0x00\n        /* \"@openzeppelin/contracts/access/AccessControl.sol\":7582:7594  _roles[role] */\n      dup1\n        /* \"@openzeppelin/contracts/access/AccessControl.sol\":7589:7593  role */\n      dup5\n        /* \"@openzeppelin/contracts/access/AccessControl.sol\":7582:7594  _roles[role] */\n      dup2\n      mstore\n      0x20\n      add\n      swap1\n      dup2\n      mstore\n      0x20\n      add\n      0x00\n      keccak256\n        /* \"@openzeppelin/contracts/access/AccessControl.sol\":7582:7602  _roles[role].members */\n      0x00\n      add\n        /* \"@openzeppelin/contracts/access/AccessControl.sol\":7582:7611  _roles[role].members[account] */\n      0x00\n        /* \"@openzeppelin/contracts/access/AccessControl.sol\":7603:7610  account */\n      dup4\n        /* \"@openzeppelin/contracts/access/AccessControl.sol\":7582:7611  _roles[role].members[account] */\n      0xffffffffffffffffffffffffffffffffffffffff\n      and\n      0xffffffffffffffffffffffffffffffffffffffff\n      and\n      dup2\n      mstore\n      0x20\n      add\n      swap1\n      dup2\n      mstore\n      0x20\n      add\n      0x00\n      keccak256\n      0x00\n        /* \"@openzeppelin/contracts/access/AccessControl.sol\":7582:7618  _roles[role].members[account] = true */\n      0x0100\n      exp\n      dup2\n      sload\n      dup2\n      0xff\n      mul\n      not\n      and\n      swap1\n      dup4\n      iszero\n      iszero\n      mul\n      or\n      swap1\n      sstore\n      pop\n        /* \"@openzeppelin/contracts/access/AccessControl.sol\":7664:7676  _msgSender() */\n      tag_161\n        /* \"@openzeppelin/contracts/access/AccessControl.sol\":7664:7674  _msgSender */\n      tag_82\n        /* \"@openzeppelin/contracts/access/AccessControl.sol\":7664:7676  _msgSender() */\n      jump\t// in\n    tag_161:\n        /* \"@openzeppelin/contracts/access/AccessControl.sol\":7637:7677  RoleGranted(role, account, _msgSender()) */\n      0xffffffffffffffffffffffffffffffffffffffff\n      and\n        /* \"@openzeppelin/contracts/access/AccessControl.sol\":7655:7662  account */\n      dup2\n        /* \"@openzeppelin/contracts/access/AccessControl.sol\":7637:7677  RoleGranted(role, account, _msgSender()) */\n      0xffffffffffffffffffffffffffffffffffffffff\n      and\n        /* \"@openzeppelin/contracts/access/AccessControl.sol\":7649:7653  role */\n      dup4\n        /* \"@openzeppelin/contracts/access/AccessControl.sol\":7637:7677  RoleGranted(role, account, _msgSender()) */\n      0x2f8788117e7eff1d82e926ec794901d17c78024a50270940304540a733656f0d\n      mload(0x40)\n      mload(0x40)\n      dup1\n      swap2\n      sub\n      swap1\n      log4\n        /* \"@openzeppelin/contracts/access/AccessControl.sol\":7539:7688  if (!hasRole(role, account)) {... */\n    tag_160:\n        /* \"@openzeppelin/contracts/access/AccessControl.sol\":7461:7694  function _grantRole(bytes32 role, address account) internal virtual {... */\n      pop\n      pop\n      jump\t// out\n        /* \"@openzeppelin/contracts/utils/structs/EnumerableSet.sol\":8297:8447  function add(AddressSet storage set, address value) internal returns (bool) {... */\n    tag_123:\n        /* \"@openzeppelin/contracts/utils/structs/EnumerableSet.sol\":8367:8371  bool */\n      0x00\n        /* \"@openzeppelin/contracts/utils/structs/EnumerableSet.sol\":8390:8440  _add(set._inner, bytes32(uint256(uint160(value)))) */\n      tag_163\n        /* \"@openzeppelin/contracts/utils/structs/EnumerableSet.sol\":8395:8398  set */\n      dup4\n        /* \"@openzeppelin/contracts/utils/structs/EnumerableSet.sol\":8395:8405  set._inner */\n      0x00\n      add\n        /* \"@openzeppelin/contracts/utils/structs/EnumerableSet.sol\":8431:8436  value */\n      dup4\n        /* \"@openzeppelin/contracts/utils/structs/EnumerableSet.sol\":8415:8438  uint256(uint160(value)) */\n      0xffffffffffffffffffffffffffffffffffffffff\n      and\n        /* \"@openzeppelin/contracts/utils/structs/EnumerableSet.sol\":8407:8439  bytes32(uint256(uint160(value))) */\n      0x00\n      shl\n        /* \"@openzeppelin/contracts/utils/structs/EnumerableSet.sol\":8390:8394  _add */\n      tag_164\n        /* \"@openzeppelin/contracts/utils/structs/EnumerableSet.sol\":8390:8440  _add(set._inner, bytes32(uint256(uint160(value)))) */\n      jump\t// in\n    tag_163:\n        /* \"@openzeppelin/contracts/utils/structs/EnumerableSet.sol\":8383:8440  return _add(set._inner, bytes32(uint256(uint160(value)))) */\n      swap1\n      pop\n        /* \"@openzeppelin/contracts/utils/structs/EnumerableSet.sol\":8297:8447  function add(AddressSet storage set, address value) internal returns (bool) {... */\n      swap3\n      swap2\n      pop\n      pop\n      jump\t// out\n        /* \"@openzeppelin/contracts/access/AccessControl.sol\":7865:8099  function _revokeRole(bytes32 role, address account) internal virtual {... */\n    tag_127:\n        /* \"@openzeppelin/contracts/access/AccessControl.sol\":7948:7970  hasRole(role, account) */\n      tag_166\n        /* \"@openzeppelin/contracts/access/AccessControl.sol\":7956:7960  role */\n      dup3\n        /* \"@openzeppelin/contracts/access/AccessControl.sol\":7962:7969  account */\n      dup3\n        /* \"@openzeppelin/contracts/access/AccessControl.sol\":7948:7955  hasRole */\n      tag_47\n        /* \"@openzeppelin/contracts/access/AccessControl.sol\":7948:7970  hasRole(role, account) */\n      jump\t// in\n    tag_166:\n        /* \"@openzeppelin/contracts/access/AccessControl.sol\":7944:8093  if (hasRole(role, account)) {... */\n      iszero\n      tag_167\n      jumpi\n        /* \"@openzeppelin/contracts/access/AccessControl.sol\":8018:8023  false */\n      0x00\n        /* \"@openzeppelin/contracts/access/AccessControl.sol\":7986:7992  _roles */\n      dup1\n        /* \"@openzeppelin/contracts/access/AccessControl.sol\":7986:7998  _roles[role] */\n      0x00\n        /* \"@openzeppelin/contracts/access/AccessControl.sol\":7993:7997  role */\n      dup5\n        /* \"@openzeppelin/contracts/access/AccessControl.sol\":7986:7998  _roles[role] */\n      dup2\n      mstore\n      0x20\n      add\n      swap1\n      dup2\n      mstore\n      0x20\n      add\n      0x00\n      keccak256\n        /* \"@openzeppelin/contracts/access/AccessControl.sol\":7986:8006  _roles[role].members */\n      0x00\n      add\n        /* \"@openzeppelin/contracts/access/AccessControl.sol\":7986:8015  _roles[role].members[account] */\n      0x00\n        /* \"@openzeppelin/contracts/access/AccessControl.sol\":8007:8014  account */\n      dup4\n        /* \"@openzeppelin/contracts/access/AccessControl.sol\":7986:8015  _roles[role].members[account] */\n      0xffffffffffffffffffffffffffffffffffffffff\n      and\n      0xffffffffffffffffffffffffffffffffffffffff\n      and\n      dup2\n      mstore\n      0x20\n      add\n      swap1\n      dup2\n      mstore\n      0x20\n      add\n      0x00\n      keccak256\n      0x00\n        /* \"@openzeppelin/contracts/access/AccessControl.sol\":7986:8023  _roles[role].members[account] = false */\n      0x0100\n      exp\n      dup2\n      sload\n      dup2\n      0xff\n      mul\n      not\n      and\n      swap1\n      dup4\n      iszero\n      iszero\n      mul\n      or\n      swap1\n      sstore\n      pop\n        /* \"@openzeppelin/contracts/access/AccessControl.sol\":8069:8081  _msgSender() */\n      tag_168\n        /* \"@openzeppelin/contracts/access/AccessControl.sol\":8069:8079  _msgSender */\n      tag_82\n        /* \"@openzeppelin/contracts/access/AccessControl.sol\":8069:8081  _msgSender() */\n      jump\t// in\n    tag_168:\n        /* \"@openzeppelin/contracts/access/AccessControl.sol\":8042:8082  RoleRevoked(role, account, _msgSender()) */\n      0xffffffffffffffffffffffffffffffffffffffff\n      and\n        /* \"@openzeppelin/contracts/access/AccessControl.sol\":8060:8067  account */\n      dup2\n        /* \"@openzeppelin/contracts/access/AccessControl.sol\":8042:8082  RoleRevoked(role, account, _msgSender()) */\n      0xffffffffffffffffffffffffffffffffffffffff\n      and\n        /* \"@openzeppelin/contracts/access/AccessControl.sol\":8054:8058  role */\n      dup4\n        /* \"@openzeppelin/contracts/access/AccessControl.sol\":8042:8082  RoleRevoked(role, account, _msgSender()) */\n      0xf6391f5c32d9c69d2a47ea670b442974b53935d1edc7fd64eb21e047a839171b\n      mload(0x40)\n      mload(0x40)\n      dup1\n      swap2\n      sub\n      swap1\n      log4\n        /* \"@openzeppelin/contracts/access/AccessControl.sol\":7944:8093  if (hasRole(role, account)) {... */\n    tag_167:\n        /* \"@openzeppelin/contracts/access/AccessControl.sol\":7865:8099  function _revokeRole(bytes32 role, address account) internal virtual {... */\n      pop\n      pop\n      jump\t// out\n        /* \"@openzeppelin/contracts/utils/structs/EnumerableSet.sol\":8615:8771  function remove(AddressSet storage set, address value) internal returns (bool) {... */\n    tag_129:\n        /* \"@openzeppelin/contracts/utils/structs/EnumerableSet.sol\":8688:8692  bool */\n      0x00\n        /* \"@openzeppelin/contracts/utils/structs/EnumerableSet.sol\":8711:8764  _remove(set._inner, bytes32(uint256(uint160(value)))) */\n      tag_170\n        /* \"@openzeppelin/contracts/utils/structs/EnumerableSet.sol\":8719:8722  set */\n      dup4\n        /* \"@openzeppelin/contracts/utils/structs/EnumerableSet.sol\":8719:8729  set._inner */\n      0x00\n      add\n        /* \"@openzeppelin/contracts/utils/structs/EnumerableSet.sol\":8755:8760  value */\n      dup4\n        /* \"@openzeppelin/contracts/utils/structs/EnumerableSet.sol\":8739:8762  uint256(uint160(value)) */\n      0xffffffffffffffffffffffffffffffffffffffff\n      and\n        /* \"@openzeppelin/contracts/utils/structs/EnumerableSet.sol\":8731:8763  bytes32(uint256(uint160(value))) */\n      0x00\n      shl\n        /* \"@openzeppelin/contracts/utils/structs/EnumerableSet.sol\":8711:8718  _remove */\n      tag_171\n        /* \"@openzeppelin/contracts/utils/structs/EnumerableSet.sol\":8711:8764  _remove(set._inner, bytes32(uint256(uint160(value)))) */\n      jump\t// in\n    tag_170:\n        /* \"@openzeppelin/contracts/utils/structs/EnumerableSet.sol\":8704:8764  return _remove(set._inner, bytes32(uint256(uint160(value)))) */\n      swap1\n      pop\n        /* \"@openzeppelin/contracts/utils/structs/EnumerableSet.sol\":8615:8771  function remove(AddressSet storage set, address value) internal returns (bool) {... */\n      swap3\n      swap2\n      pop\n      pop\n      jump\t// out\n        /* \"contracts/Whitelist.sol\":1932:2091  function prefixed(bytes32 hash) internal pure returns (bytes32) {... */\n    tag_133:\n        /* \"contracts/Whitelist.sol\":1987:1994  bytes32 */\n      0x00\n        /* \"contracts/Whitelist.sol\":2077:2081  hash */\n      dup2\n        /* \"contracts/Whitelist.sol\":2024:2082  abi.encodePacked(\"\\x19Ethereum Signed Message:\\n32\", hash) */\n      add(0x20, mload(0x40))\n      tag_173\n      swap2\n      swap1\n      tag_174\n      jump\t// in\n    tag_173:\n      mload(0x40)\n      0x20\n      dup2\n      dup4\n      sub\n      sub\n      dup2\n      mstore\n      swap1\n      0x40\n      mstore\n        /* \"contracts/Whitelist.sol\":2014:2083  keccak256(abi.encodePacked(\"\\x19Ethereum Signed Message:\\n32\", hash)) */\n      dup1\n      mload\n      swap1\n      0x20\n      add\n      keccak256\n        /* \"contracts/Whitelist.sol\":2007:2083  return keccak256(abi.encodePacked(\"\\x19Ethereum Signed Message:\\n32\", hash)) */\n      swap1\n      pop\n        /* \"contracts/Whitelist.sol\":1932:2091  function prefixed(bytes32 hash) internal pure returns (bytes32) {... */\n      swap2\n      swap1\n      pop\n      jump\t// out\n        /* \"contracts/Whitelist.sol\":1242:1451  function recoverSigner(bytes32 message, bytes memory sig) internal pure returns (address) {... */\n    tag_135:\n        /* \"contracts/Whitelist.sol\":1323:1330  address */\n      0x00\n        /* \"contracts/Whitelist.sol\":1344:1351  uint8 v */\n      dup1\n        /* \"contracts/Whitelist.sol\":1353:1362  bytes32 r */\n      0x00\n        /* \"contracts/Whitelist.sol\":1364:1373  bytes32 s */\n      dup1\n        /* \"contracts/Whitelist.sol\":1377:1396  splitSignature(sig) */\n      tag_176\n        /* \"contracts/Whitelist.sol\":1392:1395  sig */\n      dup6\n        /* \"contracts/Whitelist.sol\":1377:1391  splitSignature */\n      tag_177\n        /* \"contracts/Whitelist.sol\":1377:1396  splitSignature(sig) */\n      jump\t// in\n    tag_176:\n        /* \"contracts/Whitelist.sol\":1343:1396  (uint8 v, bytes32 r, bytes32 s) = splitSignature(sig) */\n      swap3\n      pop\n      swap3\n      pop\n      swap3\n      pop\n        /* \"contracts/Whitelist.sol\":1416:1443  ecrecover(message, v, r, s) */\n      0x01\n        /* \"contracts/Whitelist.sol\":1426:1433  message */\n      dup7\n        /* \"contracts/Whitelist.sol\":1435:1436  v */\n      dup5\n        /* \"contracts/Whitelist.sol\":1438:1439  r */\n      dup5\n        /* \"contracts/Whitelist.sol\":1441:1442  s */\n      dup5\n        /* \"contracts/Whitelist.sol\":1416:1443  ecrecover(message, v, r, s) */\n      mload(0x40)\n      0x00\n      dup2\n      mstore\n      0x20\n      add\n      0x40\n      mstore\n      mload(0x40)\n      tag_178\n      swap5\n      swap4\n      swap3\n      swap2\n      swap1\n      tag_179\n      jump\t// in\n    tag_178:\n      0x20\n      mload(0x40)\n      0x20\n      dup2\n      sub\n      swap1\n      dup1\n      dup5\n      sub\n      swap1\n      dup6\n      gas\n      staticcall\n      iszero\n      dup1\n      iszero\n      tag_181\n      jumpi\n      returndatasize\n      0x00\n      dup1\n      returndatacopy\n      revert(0x00, returndatasize)\n    tag_181:\n      pop\n      pop\n      pop\n      mload(sub(mload(0x40), 0x20))\n        /* \"contracts/Whitelist.sol\":1409:1443  return ecrecover(message, v, r, s) */\n      swap4\n      pop\n      pop\n      pop\n      pop\n        /* \"contracts/Whitelist.sol\":1242:1451  function recoverSigner(bytes32 message, bytes memory sig) internal pure returns (address) {... */\n      swap3\n      swap2\n      pop\n      pop\n      jump\t// out\n        /* \"@openzeppelin/contracts/utils/structs/EnumerableSet.sol\":4904:5022  function _at(Set storage set, uint256 index) private view returns (bytes32) {... */\n    tag_142:\n        /* \"@openzeppelin/contracts/utils/structs/EnumerableSet.sol\":4971:4978  bytes32 */\n      0x00\n        /* \"@openzeppelin/contracts/utils/structs/EnumerableSet.sol\":4997:5000  set */\n      dup3\n        /* \"@openzeppelin/contracts/utils/structs/EnumerableSet.sol\":4997:5008  set._values */\n      0x00\n      add\n        /* \"@openzeppelin/contracts/utils/structs/EnumerableSet.sol\":5009:5014  index */\n      dup3\n        /* \"@openzeppelin/contracts/utils/structs/EnumerableSet.sol\":4997:5015  set._values[index] */\n      dup2\n      sload\n      dup2\n      lt\n      tag_183\n      jumpi\n      tag_184\n      tag_185\n      jump\t// in\n    tag_184:\n    tag_183:\n      swap1\n      0x00\n      mstore\n      keccak256(0x00, 0x20)\n      add\n      sload\n        /* \"@openzeppelin/contracts/utils/structs/EnumerableSet.sol\":4990:5015  return set._values[index] */\n      swap1\n      pop\n        /* \"@openzeppelin/contracts/utils/structs/EnumerableSet.sol\":4904:5022  function _at(Set storage set, uint256 index) private view returns (bytes32) {... */\n      swap3\n      swap2\n      pop\n      pop\n      jump\t// out\n        /* \"@openzeppelin/contracts/utils/structs/EnumerableSet.sol\":4455:4562  function _length(Set storage set) private view returns (uint256) {... */\n    tag_145:\n        /* \"@openzeppelin/contracts/utils/structs/EnumerableSet.sol\":4511:4518  uint256 */\n      0x00\n        /* \"@openzeppelin/contracts/utils/structs/EnumerableSet.sol\":4537:4540  set */\n      dup2\n        /* \"@openzeppelin/contracts/utils/structs/EnumerableSet.sol\":4537:4548  set._values */\n      0x00\n      add\n        /* \"@openzeppelin/contracts/utils/structs/EnumerableSet.sol\":4537:4555  set._values.length */\n      dup1\n      sload\n      swap1\n      pop\n        /* \"@openzeppelin/contracts/utils/structs/EnumerableSet.sol\":4530:4555  return set._values.length */\n      swap1\n      pop\n        /* \"@openzeppelin/contracts/utils/structs/EnumerableSet.sol\":4455:4562  function _length(Set storage set) private view returns (uint256) {... */\n      swap2\n      swap1\n      pop\n      jump\t// out\n        /* \"@openzeppelin/contracts/utils/Strings.sol\":2102:2251  function toHexString(address addr) internal pure returns (string memory) {... */\n    tag_151:\n        /* \"@openzeppelin/contracts/utils/Strings.sol\":2160:2173  string memory */\n      0x60\n        /* \"@openzeppelin/contracts/utils/Strings.sol\":2192:2244  toHexString(uint256(uint160(addr)), _ADDRESS_LENGTH) */\n      tag_189\n        /* \"@openzeppelin/contracts/utils/Strings.sol\":2220:2224  addr */\n      dup3\n        /* \"@openzeppelin/contracts/utils/Strings.sol\":2204:2226  uint256(uint160(addr)) */\n      0xffffffffffffffffffffffffffffffffffffffff\n      and\n        /* \"@openzeppelin/contracts/utils/Strings.sol\":311:313  20 */\n      0x14\n        /* \"@openzeppelin/contracts/utils/Strings.sol\":2192:2244  toHexString(uint256(uint160(addr)), _ADDRESS_LENGTH) */\n      0xff\n      and\n        /* \"@openzeppelin/contracts/utils/Strings.sol\":2192:2203  toHexString */\n      tag_153\n        /* \"@openzeppelin/contracts/utils/Strings.sol\":2192:2244  toHexString(uint256(uint160(addr)), _ADDRESS_LENGTH) */\n      jump\t// in\n    tag_189:\n        /* \"@openzeppelin/contracts/utils/Strings.sol\":2185:2244  return toHexString(uint256(uint160(addr)), _ADDRESS_LENGTH) */\n      swap1\n      pop\n        /* \"@openzeppelin/contracts/utils/Strings.sol\":2102:2251  function toHexString(address addr) internal pure returns (string memory) {... */\n      swap2\n      swap1\n      pop\n      jump\t// out\n        /* \"@openzeppelin/contracts/utils/Strings.sol\":1513:1950  function toHexString(uint256 value, uint256 length) internal pure returns (string memory) {... */\n    tag_153:\n        /* \"@openzeppelin/contracts/utils/Strings.sol\":1588:1601  string memory */\n      0x60\n        /* \"@openzeppelin/contracts/utils/Strings.sol\":1613:1632  bytes memory buffer */\n      0x00\n        /* \"@openzeppelin/contracts/utils/Strings.sol\":1658:1659  2 */\n      0x02\n        /* \"@openzeppelin/contracts/utils/Strings.sol\":1649:1655  length */\n      dup4\n        /* \"@openzeppelin/contracts/utils/Strings.sol\":1645:1646  2 */\n      0x02\n        /* \"@openzeppelin/contracts/utils/Strings.sol\":1645:1655  2 * length */\n      tag_191\n      swap2\n      swap1\n      tag_192\n      jump\t// in\n    tag_191:\n        /* \"@openzeppelin/contracts/utils/Strings.sol\":1645:1659  2 * length + 2 */\n      tag_193\n      swap2\n      swap1\n      tag_194\n      jump\t// in\n    tag_193:\n        /* \"@openzeppelin/contracts/utils/Strings.sol\":1635:1660  new bytes(2 * length + 2) */\n      0xffffffffffffffff\n      dup2\n      gt\n      iszero\n      tag_195\n      jumpi\n      tag_196\n      tag_197\n      jump\t// in\n    tag_196:\n    tag_195:\n      mload(0x40)\n      swap1\n      dup1\n      dup3\n      mstore\n      dup1\n      0x1f\n      add\n      not(0x1f)\n      and\n      0x20\n      add\n      dup3\n      add\n      0x40\n      mstore\n      dup1\n      iszero\n      tag_198\n      jumpi\n      dup2\n      0x20\n      add\n      0x01\n      dup3\n      mul\n      dup1\n      calldatasize\n      dup4\n      calldatacopy\n      dup1\n      dup3\n      add\n      swap2\n      pop\n      pop\n      swap1\n      pop\n    tag_198:\n      pop\n        /* \"@openzeppelin/contracts/utils/Strings.sol\":1613:1660  bytes memory buffer = new bytes(2 * length + 2) */\n      swap1\n      pop\n        /* \"@openzeppelin/contracts/utils/Strings.sol\":1670:1685  buffer[0] = \"0\" */\n      0x3000000000000000000000000000000000000000000000000000000000000000\n        /* \"@openzeppelin/contracts/utils/Strings.sol\":1670:1676  buffer */\n      dup2\n        /* \"@openzeppelin/contracts/utils/Strings.sol\":1677:1678  0 */\n      0x00\n        /* \"@openzeppelin/contracts/utils/Strings.sol\":1670:1679  buffer[0] */\n      dup2\n      mload\n      dup2\n      lt\n      tag_199\n      jumpi\n      tag_200\n      tag_185\n      jump\t// in\n    tag_200:\n    tag_199:\n      0x20\n      add\n      add\n        /* \"@openzeppelin/contracts/utils/Strings.sol\":1670:1685  buffer[0] = \"0\" */\n      swap1\n      not(0xffffffffffffffffffffffffffffffffffffffffffffffffffffffffffffff)\n      and\n      swap1\n      dup2\n      0x00\n      byte\n      swap1\n      mstore8\n      pop\n        /* \"@openzeppelin/contracts/utils/Strings.sol\":1695:1710  buffer[1] = \"x\" */\n      0x7800000000000000000000000000000000000000000000000000000000000000\n        /* \"@openzeppelin/contracts/utils/Strings.sol\":1695:1701  buffer */\n      dup2\n        /* \"@openzeppelin/contracts/utils/Strings.sol\":1702:1703  1 */\n      0x01\n        /* \"@openzeppelin/contracts/utils/Strings.sol\":1695:1704  buffer[1] */\n      dup2\n      mload\n      dup2\n      lt\n      tag_201\n      jumpi\n      tag_202\n      tag_185\n      jump\t// in\n    tag_202:\n    tag_201:\n      0x20\n      add\n      add\n        /* \"@openzeppelin/contracts/utils/Strings.sol\":1695:1710  buffer[1] = \"x\" */\n      swap1\n      not(0xffffffffffffffffffffffffffffffffffffffffffffffffffffffffffffff)\n      and\n      swap1\n      dup2\n      0x00\n      byte\n      swap1\n      mstore8\n      pop\n        /* \"@openzeppelin/contracts/utils/Strings.sol\":1725:1734  uint256 i */\n      0x00\n        /* \"@openzeppelin/contracts/utils/Strings.sol\":1750:1751  1 */\n      0x01\n        /* \"@openzeppelin/contracts/utils/Strings.sol\":1741:1747  length */\n      dup5\n        /* \"@openzeppelin/contracts/utils/Strings.sol\":1737:1738  2 */\n      0x02\n        /* \"@openzeppelin/contracts/utils/Strings.sol\":1737:1747  2 * length */\n      tag_206\n      swap2\n      swap1\n      tag_192\n      jump\t// in\n    tag_206:\n        /* \"@openzeppelin/contracts/utils/Strings.sol\":1737:1751  2 * length + 1 */\n      tag_207\n      swap2\n      swap1\n      tag_194\n      jump\t// in\n    tag_207:\n        /* \"@openzeppelin/contracts/utils/Strings.sol\":1725:1751  uint256 i = 2 * length + 1 */\n      swap1\n      pop\n        /* \"@openzeppelin/contracts/utils/Strings.sol\":1720:1848  for (uint256 i = 2 * length + 1; i > 1; --i) {... */\n    tag_203:\n        /* \"@openzeppelin/contracts/utils/Strings.sol\":1757:1758  1 */\n      0x01\n        /* \"@openzeppelin/contracts/utils/Strings.sol\":1753:1754  i */\n      dup2\n        /* \"@openzeppelin/contracts/utils/Strings.sol\":1753:1758  i > 1 */\n      gt\n        /* \"@openzeppelin/contracts/utils/Strings.sol\":1720:1848  for (uint256 i = 2 * length + 1; i > 1; --i) {... */\n      iszero\n      tag_204\n      jumpi\n        /* \"@openzeppelin/contracts/utils/Strings.sol\":1791:1799  _SYMBOLS */\n      0x3031323334353637383961626364656600000000000000000000000000000000\n        /* \"@openzeppelin/contracts/utils/Strings.sol\":1808:1811  0xf */\n      0x0f\n        /* \"@openzeppelin/contracts/utils/Strings.sol\":1800:1805  value */\n      dup7\n        /* \"@openzeppelin/contracts/utils/Strings.sol\":1800:1811  value & 0xf */\n      and\n        /* \"@openzeppelin/contracts/utils/Strings.sol\":1791:1812  _SYMBOLS[value & 0xf] */\n      0x10\n      dup2\n      lt\n      tag_208\n      jumpi\n      tag_209\n      tag_185\n      jump\t// in\n    tag_209:\n    tag_208:\n      byte\n      0xf8\n      shl\n        /* \"@openzeppelin/contracts/utils/Strings.sol\":1779:1785  buffer */\n      dup3\n        /* \"@openzeppelin/contracts/utils/Strings.sol\":1786:1787  i */\n      dup3\n        /* \"@openzeppelin/contracts/utils/Strings.sol\":1779:1788  buffer[i] */\n      dup2\n      mload\n      dup2\n      lt\n      tag_210\n      jumpi\n      tag_211\n      tag_185\n      jump\t// in\n    tag_211:\n    tag_210:\n      0x20\n      add\n      add\n        /* \"@openzeppelin/contracts/utils/Strings.sol\":1779:1812  buffer[i] = _SYMBOLS[value & 0xf] */\n      swap1\n      not(0xffffffffffffffffffffffffffffffffffffffffffffffffffffffffffffff)\n      and\n      swap1\n      dup2\n      0x00\n      byte\n      swap1\n      mstore8\n      pop\n        /* \"@openzeppelin/contracts/utils/Strings.sol\":1836:1837  4 */\n      0x04\n        /* \"@openzeppelin/contracts/utils/Strings.sol\":1826:1837  value >>= 4 */\n      dup6\n      swap1\n      shr\n      swap5\n      pop\n        /* \"@openzeppelin/contracts/utils/Strings.sol\":1760:1763  --i */\n      dup1\n      tag_212\n      swap1\n      tag_213\n      jump\t// in\n    tag_212:\n      swap1\n      pop\n        /* \"@openzeppelin/contracts/utils/Strings.sol\":1720:1848  for (uint256 i = 2 * length + 1; i > 1; --i) {... */\n      jump(tag_203)\n    tag_204:\n      pop\n        /* \"@openzeppelin/contracts/utils/Strings.sol\":1874:1875  0 */\n      0x00\n        /* \"@openzeppelin/contracts/utils/Strings.sol\":1865:1870  value */\n      dup5\n        /* \"@openzeppelin/contracts/utils/Strings.sol\":1865:1875  value == 0 */\n      eq\n        /* \"@openzeppelin/contracts/utils/Strings.sol\":1857:1912  require(value == 0, \"Strings: hex length insufficient\") */\n      tag_214\n      jumpi\n      mload(0x40)\n      0x08c379a000000000000000000000000000000000000000000000000000000000\n      dup2\n      mstore\n      0x04\n      add\n      tag_215\n      swap1\n      tag_216\n      jump\t// in\n    tag_215:\n      mload(0x40)\n      dup1\n      swap2\n      sub\n      swap1\n      revert\n    tag_214:\n        /* \"@openzeppelin/contracts/utils/Strings.sol\":1936:1942  buffer */\n      dup1\n        /* \"@openzeppelin/contracts/utils/Strings.sol\":1922:1943  return string(buffer) */\n      swap2\n      pop\n      pop\n        /* \"@openzeppelin/contracts/utils/Strings.sol\":1513:1950  function toHexString(uint256 value, uint256 length) internal pure returns (string memory) {... */\n      swap3\n      swap2\n      pop\n      pop\n      jump\t// out\n        /* \"@openzeppelin/contracts/utils/structs/EnumerableSet.sol\":2206:2610  function _add(Set storage set, bytes32 value) private returns (bool) {... */\n    tag_164:\n        /* \"@openzeppelin/contracts/utils/structs/EnumerableSet.sol\":2269:2273  bool */\n      0x00\n        /* \"@openzeppelin/contracts/utils/structs/EnumerableSet.sol\":2290:2311  _contains(set, value) */\n      tag_218\n        /* \"@openzeppelin/contracts/utils/structs/EnumerableSet.sol\":2300:2303  set */\n      dup4\n        /* \"@openzeppelin/contracts/utils/structs/EnumerableSet.sol\":2305:2310  value */\n      dup4\n        /* \"@openzeppelin/contracts/utils/structs/EnumerableSet.sol\":2290:2299  _contains */\n      tag_219\n        /* \"@openzeppelin/contracts/utils/structs/EnumerableSet.sol\":2290:2311  _contains(set, value) */\n      jump\t// in\n    tag_218:\n        /* \"@openzeppelin/contracts/utils/structs/EnumerableSet.sol\":2285:2604  if (!_contains(set, value)) {... */\n      tag_220\n      jumpi\n        /* \"@openzeppelin/contracts/utils/structs/EnumerableSet.sol\":2327:2330  set */\n      dup3\n        /* \"@openzeppelin/contracts/utils/structs/EnumerableSet.sol\":2327:2338  set._values */\n      0x00\n      add\n        /* \"@openzeppelin/contracts/utils/structs/EnumerableSet.sol\":2344:2349  value */\n      dup3\n        /* \"@openzeppelin/contracts/utils/structs/EnumerableSet.sol\":2327:2350  set._values.push(value) */\n      swap1\n      dup1\n      0x01\n      dup2\n      sload\n      add\n      dup1\n      dup3\n      sstore\n      dup1\n      swap2\n      pop\n      pop\n      0x01\n      swap1\n      sub\n      swap1\n      0x00\n      mstore\n      keccak256(0x00, 0x20)\n      add\n      0x00\n      swap1\n      swap2\n      swap1\n      swap2\n      swap1\n      swap2\n      pop\n      sstore\n        /* \"@openzeppelin/contracts/utils/structs/EnumerableSet.sol\":2507:2510  set */\n      dup3\n        /* \"@openzeppelin/contracts/utils/structs/EnumerableSet.sol\":2507:2518  set._values */\n      0x00\n      add\n        /* \"@openzeppelin/contracts/utils/structs/EnumerableSet.sol\":2507:2525  set._values.length */\n      dup1\n      sload\n      swap1\n      pop\n        /* \"@openzeppelin/contracts/utils/structs/EnumerableSet.sol\":2485:2488  set */\n      dup4\n        /* \"@openzeppelin/contracts/utils/structs/EnumerableSet.sol\":2485:2497  set._indexes */\n      0x01\n      add\n        /* \"@openzeppelin/contracts/utils/structs/EnumerableSet.sol\":2485:2504  set._indexes[value] */\n      0x00\n        /* \"@openzeppelin/contracts/utils/structs/EnumerableSet.sol\":2498:2503  value */\n      dup5\n        /* \"@openzeppelin/contracts/utils/structs/EnumerableSet.sol\":2485:2504  set._indexes[value] */\n      dup2\n      mstore\n      0x20\n      add\n      swap1\n      dup2\n      mstore\n      0x20\n      add\n      0x00\n      keccak256\n        /* \"@openzeppelin/contracts/utils/structs/EnumerableSet.sol\":2485:2525  set._indexes[value] = set._values.length */\n      dup2\n      swap1\n      sstore\n      pop\n        /* \"@openzeppelin/contracts/utils/structs/EnumerableSet.sol\":2546:2550  true */\n      0x01\n        /* \"@openzeppelin/contracts/utils/structs/EnumerableSet.sol\":2539:2550  return true */\n      swap1\n      pop\n      jump(tag_217)\n        /* \"@openzeppelin/contracts/utils/structs/EnumerableSet.sol\":2285:2604  if (!_contains(set, value)) {... */\n    tag_220:\n        /* \"@openzeppelin/contracts/utils/structs/EnumerableSet.sol\":2588:2593  false */\n      0x00\n        /* \"@openzeppelin/contracts/utils/structs/EnumerableSet.sol\":2581:2593  return false */\n      swap1\n      pop\n        /* \"@openzeppelin/contracts/utils/structs/EnumerableSet.sol\":2206:2610  function _add(Set storage set, bytes32 value) private returns (bool) {... */\n    tag_217:\n      swap3\n      swap2\n      pop\n      pop\n      jump\t// out\n        /* \"@openzeppelin/contracts/utils/structs/EnumerableSet.sol\":2778:4166  function _remove(Set storage set, bytes32 value) private returns (bool) {... */\n    tag_171:\n        /* \"@openzeppelin/contracts/utils/structs/EnumerableSet.sol\":2844:2848  bool */\n      0x00\n        /* \"@openzeppelin/contracts/utils/structs/EnumerableSet.sol\":2960:2978  uint256 valueIndex */\n      dup1\n        /* \"@openzeppelin/contracts/utils/structs/EnumerableSet.sol\":2981:2984  set */\n      dup4\n        /* \"@openzeppelin/contracts/utils/structs/EnumerableSet.sol\":2981:2993  set._indexes */\n      0x01\n      add\n        /* \"@openzeppelin/contracts/utils/structs/EnumerableSet.sol\":2981:3000  set._indexes[value] */\n      0x00\n        /* \"@openzeppelin/contracts/utils/structs/EnumerableSet.sol\":2994:2999  value */\n      dup5\n        /* \"@openzeppelin/contracts/utils/structs/EnumerableSet.sol\":2981:3000  set._indexes[value] */\n      dup2\n      mstore\n      0x20\n      add\n      swap1\n      dup2\n      mstore\n      0x20\n      add\n      0x00\n      keccak256\n      sload\n        /* \"@openzeppelin/contracts/utils/structs/EnumerableSet.sol\":2960:3000  uint256 valueIndex = set._indexes[value] */\n      swap1\n      pop\n        /* \"@openzeppelin/contracts/utils/structs/EnumerableSet.sol\":3029:3030  0 */\n      0x00\n        /* \"@openzeppelin/contracts/utils/structs/EnumerableSet.sol\":3015:3025  valueIndex */\n      dup2\n        /* \"@openzeppelin/contracts/utils/structs/EnumerableSet.sol\":3015:3030  valueIndex != 0 */\n      eq\n        /* \"@openzeppelin/contracts/utils/structs/EnumerableSet.sol\":3011:4160  if (valueIndex != 0) {... */\n      tag_224\n      jumpi\n        /* \"@openzeppelin/contracts/utils/structs/EnumerableSet.sol\":3384:3405  uint256 toDeleteIndex */\n      0x00\n        /* \"@openzeppelin/contracts/utils/structs/EnumerableSet.sol\":3421:3422  1 */\n      0x01\n        /* \"@openzeppelin/contracts/utils/structs/EnumerableSet.sol\":3408:3418  valueIndex */\n      dup3\n        /* \"@openzeppelin/contracts/utils/structs/EnumerableSet.sol\":3408:3422  valueIndex - 1 */\n      tag_225\n      swap2\n      swap1\n      tag_226\n      jump\t// in\n    tag_225:\n        /* \"@openzeppelin/contracts/utils/structs/EnumerableSet.sol\":3384:3422  uint256 toDeleteIndex = valueIndex - 1 */\n      swap1\n      pop\n        /* \"@openzeppelin/contracts/utils/structs/EnumerableSet.sol\":3436:3453  uint256 lastIndex */\n      0x00\n        /* \"@openzeppelin/contracts/utils/structs/EnumerableSet.sol\":3477:3478  1 */\n      0x01\n        /* \"@openzeppelin/contracts/utils/structs/EnumerableSet.sol\":3456:3459  set */\n      dup7\n        /* \"@openzeppelin/contracts/utils/structs/EnumerableSet.sol\":3456:3467  set._values */\n      0x00\n      add\n        /* \"@openzeppelin/contracts/utils/structs/EnumerableSet.sol\":3456:3474  set._values.length */\n      dup1\n      sload\n      swap1\n      pop\n        /* \"@openzeppelin/contracts/utils/structs/EnumerableSet.sol\":3456:3478  set._values.length - 1 */\n      tag_227\n      swap2\n      swap1\n      tag_226\n      jump\t// in\n    tag_227:\n        /* \"@openzeppelin/contracts/utils/structs/EnumerableSet.sol\":3436:3478  uint256 lastIndex = set._values.length - 1 */\n      swap1\n      pop\n        /* \"@openzeppelin/contracts/utils/structs/EnumerableSet.sol\":3510:3523  toDeleteIndex */\n      dup2\n        /* \"@openzeppelin/contracts/utils/structs/EnumerableSet.sol\":3497:3506  lastIndex */\n      dup2\n        /* \"@openzeppelin/contracts/utils/structs/EnumerableSet.sol\":3497:3523  lastIndex != toDeleteIndex */\n      eq\n        /* \"@openzeppelin/contracts/utils/structs/EnumerableSet.sol\":3493:3891  if (lastIndex != toDeleteIndex) {... */\n      tag_228\n      jumpi\n        /* \"@openzeppelin/contracts/utils/structs/EnumerableSet.sol\":3543:3560  bytes32 lastValue */\n      0x00\n        /* \"@openzeppelin/contracts/utils/structs/EnumerableSet.sol\":3563:3566  set */\n      dup7\n        /* \"@openzeppelin/contracts/utils/structs/EnumerableSet.sol\":3563:3574  set._values */\n      0x00\n      add\n        /* \"@openzeppelin/contracts/utils/structs/EnumerableSet.sol\":3575:3584  lastIndex */\n      dup3\n        /* \"@openzeppelin/contracts/utils/structs/EnumerableSet.sol\":3563:3585  set._values[lastIndex] */\n      dup2\n      sload\n      dup2\n      lt\n      tag_229\n      jumpi\n      tag_230\n      tag_185\n      jump\t// in\n    tag_230:\n    tag_229:\n      swap1\n      0x00\n      mstore\n      keccak256(0x00, 0x20)\n      add\n      sload\n        /* \"@openzeppelin/contracts/utils/structs/EnumerableSet.sol\":3543:3585  bytes32 lastValue = set._values[lastIndex] */\n      swap1\n      pop\n        /* \"@openzeppelin/contracts/utils/structs/EnumerableSet.sol\":3714:3723  lastValue */\n      dup1\n        /* \"@openzeppelin/contracts/utils/structs/EnumerableSet.sol\":3685:3688  set */\n      dup8\n        /* \"@openzeppelin/contracts/utils/structs/EnumerableSet.sol\":3685:3696  set._values */\n      0x00\n      add\n        /* \"@openzeppelin/contracts/utils/structs/EnumerableSet.sol\":3697:3710  toDeleteIndex */\n      dup5\n        /* \"@openzeppelin/contracts/utils/structs/EnumerableSet.sol\":3685:3711  set._values[toDeleteIndex] */\n      dup2\n      sload\n      dup2\n      lt\n      tag_232\n      jumpi\n      tag_233\n      tag_185\n      jump\t// in\n    tag_233:\n    tag_232:\n      swap1\n      0x00\n      mstore\n      keccak256(0x00, 0x20)\n      add\n        /* \"@openzeppelin/contracts/utils/structs/EnumerableSet.sol\":3685:3723  set._values[toDeleteIndex] = lastValue */\n      dup2\n      swap1\n      sstore\n      pop\n        /* \"@openzeppelin/contracts/utils/structs/EnumerableSet.sol\":3823:3833  valueIndex */\n      dup4\n        /* \"@openzeppelin/contracts/utils/structs/EnumerableSet.sol\":3797:3800  set */\n      dup8\n        /* \"@openzeppelin/contracts/utils/structs/EnumerableSet.sol\":3797:3809  set._indexes */\n      0x01\n      add\n        /* \"@openzeppelin/contracts/utils/structs/EnumerableSet.sol\":3797:3820  set._indexes[lastValue] */\n      0x00\n        /* \"@openzeppelin/contracts/utils/structs/EnumerableSet.sol\":3810:3819  lastValue */\n      dup4\n        /* \"@openzeppelin/contracts/utils/structs/EnumerableSet.sol\":3797:3820  set._indexes[lastValue] */\n      dup2\n      mstore\n      0x20\n      add\n      swap1\n      dup2\n      mstore\n      0x20\n      add\n      0x00\n      keccak256\n        /* \"@openzeppelin/contracts/utils/structs/EnumerableSet.sol\":3797:3833  set._indexes[lastValue] = valueIndex */\n      dup2\n      swap1\n      sstore\n      pop\n        /* \"@openzeppelin/contracts/utils/structs/EnumerableSet.sol\":3525:3891  {... */\n      pop\n        /* \"@openzeppelin/contracts/utils/structs/EnumerableSet.sol\":3493:3891  if (lastIndex != toDeleteIndex) {... */\n    tag_228:\n        /* \"@openzeppelin/contracts/utils/structs/EnumerableSet.sol\":3969:3972  set */\n      dup6\n        /* \"@openzeppelin/contracts/utils/structs/EnumerableSet.sol\":3969:3980  set._values */\n      0x00\n      add\n        /* \"@openzeppelin/contracts/utils/structs/EnumerableSet.sol\":3969:3986  set._values.pop() */\n      dup1\n      sload\n      dup1\n      tag_235\n      jumpi\n      tag_236\n      tag_237\n      jump\t// in\n    tag_236:\n    tag_235:\n      0x01\n      swap1\n      sub\n      dup2\n      dup2\n      swap1\n      0x00\n      mstore\n      keccak256(0x00, 0x20)\n      add\n      0x00\n      swap1\n      sstore\n      swap1\n      sstore\n        /* \"@openzeppelin/contracts/utils/structs/EnumerableSet.sol\":4061:4064  set */\n      dup6\n        /* \"@openzeppelin/contracts/utils/structs/EnumerableSet.sol\":4061:4073  set._indexes */\n      0x01\n      add\n        /* \"@openzeppelin/contracts/utils/structs/EnumerableSet.sol\":4061:4080  set._indexes[value] */\n      0x00\n        /* \"@openzeppelin/contracts/utils/structs/EnumerableSet.sol\":4074:4079  value */\n      dup7\n        /* \"@openzeppelin/contracts/utils/structs/EnumerableSet.sol\":4061:4080  set._indexes[value] */\n      dup2\n      mstore\n      0x20\n      add\n      swap1\n      dup2\n      mstore\n      0x20\n      add\n      0x00\n      keccak256\n        /* \"@openzeppelin/contracts/utils/structs/EnumerableSet.sol\":4054:4080  delete set._indexes[value] */\n      0x00\n      swap1\n      sstore\n        /* \"@openzeppelin/contracts/utils/structs/EnumerableSet.sol\":4102:4106  true */\n      0x01\n        /* \"@openzeppelin/contracts/utils/structs/EnumerableSet.sol\":4095:4106  return true */\n      swap4\n      pop\n      pop\n      pop\n      pop\n      jump(tag_223)\n        /* \"@openzeppelin/contracts/utils/structs/EnumerableSet.sol\":3011:4160  if (valueIndex != 0) {... */\n    tag_224:\n        /* \"@openzeppelin/contracts/utils/structs/EnumerableSet.sol\":4144:4149  false */\n      0x00\n        /* \"@openzeppelin/contracts/utils/structs/EnumerableSet.sol\":4137:4149  return false */\n      swap2\n      pop\n      pop\n        /* \"@openzeppelin/contracts/utils/structs/EnumerableSet.sol\":2778:4166  function _remove(Set storage set, bytes32 value) private returns (bool) {... */\n    tag_223:\n      swap3\n      swap2\n      pop\n      pop\n      jump\t// out\n        /* \"contracts/Whitelist.sol\":1459:1924  function splitSignature(bytes memory sig) internal pure returns (uint8 v, bytes32 r, bytes32 s) {... */\n    tag_177:\n        /* \"contracts/Whitelist.sol\":1524:1531  uint8 v */\n      0x00\n        /* \"contracts/Whitelist.sol\":1533:1542  bytes32 r */\n      dup1\n        /* \"contracts/Whitelist.sol\":1544:1553  bytes32 s */\n      0x00\n        /* \"contracts/Whitelist.sol\":1588:1590  65 */\n      0x41\n        /* \"contracts/Whitelist.sol\":1574:1577  sig */\n      dup5\n        /* \"contracts/Whitelist.sol\":1574:1584  sig.length */\n      mload\n        /* \"contracts/Whitelist.sol\":1574:1590  sig.length == 65 */\n      eq\n        /* \"contracts/Whitelist.sol\":1566:1591  require(sig.length == 65) */\n      tag_241\n      jumpi\n      0x00\n      dup1\n      revert\n    tag_241:\n        /* \"contracts/Whitelist.sol\":1701:1703  32 */\n      0x20\n        /* \"contracts/Whitelist.sol\":1696:1699  sig */\n      dup5\n        /* \"contracts/Whitelist.sol\":1692:1704  add(sig, 32) */\n      add\n        /* \"contracts/Whitelist.sol\":1686:1705  mload(add(sig, 32)) */\n      mload\n        /* \"contracts/Whitelist.sol\":1681:1705  r := mload(add(sig, 32)) */\n      swap2\n      pop\n        /* \"contracts/Whitelist.sol\":1768:1770  64 */\n      0x40\n        /* \"contracts/Whitelist.sol\":1763:1766  sig */\n      dup5\n        /* \"contracts/Whitelist.sol\":1759:1771  add(sig, 64) */\n      add\n        /* \"contracts/Whitelist.sol\":1753:1772  mload(add(sig, 64)) */\n      mload\n        /* \"contracts/Whitelist.sol\":1748:1772  s := mload(add(sig, 64)) */\n      swap1\n      pop\n        /* \"contracts/Whitelist.sol\":1872:1874  96 */\n      0x60\n        /* \"contracts/Whitelist.sol\":1867:1870  sig */\n      dup5\n        /* \"contracts/Whitelist.sol\":1863:1875  add(sig, 96) */\n      add\n        /* \"contracts/Whitelist.sol\":1857:1876  mload(add(sig, 96)) */\n      mload\n        /* \"contracts/Whitelist.sol\":1854:1855  0 */\n      0x00\n        /* \"contracts/Whitelist.sol\":1849:1877  byte(0, mload(add(sig, 96))) */\n      byte\n        /* \"contracts/Whitelist.sol\":1844:1877  v := byte(0, mload(add(sig, 96))) */\n      swap3\n      pop\n        /* \"contracts/Whitelist.sol\":1459:1924  function splitSignature(bytes memory sig) internal pure returns (uint8 v, bytes32 r, bytes32 s) {... */\n      swap2\n      swap4\n      swap1\n      swap3\n      pop\n      jump\t// out\n        /* \"@openzeppelin/contracts/utils/structs/EnumerableSet.sol\":4247:4374  function _contains(Set storage set, bytes32 value) private view returns (bool) {... */\n    tag_219:\n        /* \"@openzeppelin/contracts/utils/structs/EnumerableSet.sol\":4320:4324  bool */\n      0x00\n        /* \"@openzeppelin/contracts/utils/structs/EnumerableSet.sol\":4366:4367  0 */\n      dup1\n        /* \"@openzeppelin/contracts/utils/structs/EnumerableSet.sol\":4343:4346  set */\n      dup4\n        /* \"@openzeppelin/contracts/utils/structs/EnumerableSet.sol\":4343:4355  set._indexes */\n      0x01\n      add\n        /* \"@openzeppelin/contracts/utils/structs/EnumerableSet.sol\":4343:4362  set._indexes[value] */\n      0x00\n        /* \"@openzeppelin/contracts/utils/structs/EnumerableSet.sol\":4356:4361  value */\n      dup5\n        /* \"@openzeppelin/contracts/utils/structs/EnumerableSet.sol\":4343:4362  set._indexes[value] */\n      dup2\n      mstore\n      0x20\n      add\n      swap1\n      dup2\n      mstore\n      0x20\n      add\n      0x00\n      keccak256\n      sload\n        /* \"@openzeppelin/contracts/utils/structs/EnumerableSet.sol\":4343:4367  set._indexes[value] != 0 */\n      eq\n      iszero\n        /* \"@openzeppelin/contracts/utils/structs/EnumerableSet.sol\":4336:4367  return set._indexes[value] != 0 */\n      swap1\n      pop\n        /* \"@openzeppelin/contracts/utils/structs/EnumerableSet.sol\":4247:4374  function _contains(Set storage set, bytes32 value) private view returns (bool) {... */\n      swap3\n      swap2\n      pop\n      pop\n      jump\t// out\n        /* \"#utility.yul\":7:82   */\n    tag_243:\n        /* \"#utility.yul\":40:46   */\n      0x00\n        /* \"#utility.yul\":73:75   */\n      0x40\n        /* \"#utility.yul\":67:76   */\n      mload\n        /* \"#utility.yul\":57:76   */\n      swap1\n      pop\n        /* \"#utility.yul\":7:82   */\n      swap1\n      jump\t// out\n        /* \"#utility.yul\":88:205   */\n    tag_244:\n        /* \"#utility.yul\":197:198   */\n      0x00\n        /* \"#utility.yul\":194:195   */\n      dup1\n        /* \"#utility.yul\":187:199   */\n      revert\n        /* \"#utility.yul\":211:328   */\n    tag_245:\n        /* \"#utility.yul\":320:321   */\n      0x00\n        /* \"#utility.yul\":317:318   */\n      dup1\n        /* \"#utility.yul\":310:322   */\n      revert\n        /* \"#utility.yul\":334:483   */\n    tag_246:\n        /* \"#utility.yul\":370:377   */\n      0x00\n        /* \"#utility.yul\":410:476   */\n      0xffffffff00000000000000000000000000000000000000000000000000000000\n        /* \"#utility.yul\":403:408   */\n      dup3\n        /* \"#utility.yul\":399:477   */\n      and\n        /* \"#utility.yul\":388:477   */\n      swap1\n      pop\n        /* \"#utility.yul\":334:483   */\n      swap2\n      swap1\n      pop\n      jump\t// out\n        /* \"#utility.yul\":489:609   */\n    tag_247:\n        /* \"#utility.yul\":561:584   */\n      tag_312\n        /* \"#utility.yul\":578:583   */\n      dup2\n        /* \"#utility.yul\":561:584   */\n      tag_246\n      jump\t// in\n    tag_312:\n        /* \"#utility.yul\":554:559   */\n      dup2\n        /* \"#utility.yul\":551:585   */\n      eq\n        /* \"#utility.yul\":541:603   */\n      tag_313\n      jumpi\n        /* \"#utility.yul\":599:600   */\n      0x00\n        /* \"#utility.yul\":596:597   */\n      dup1\n        /* \"#utility.yul\":589:601   */\n      revert\n        /* \"#utility.yul\":541:603   */\n    tag_313:\n        /* \"#utility.yul\":489:609   */\n      pop\n      jump\t// out\n        /* \"#utility.yul\":615:752   */\n    tag_248:\n        /* \"#utility.yul\":660:665   */\n      0x00\n        /* \"#utility.yul\":698:704   */\n      dup2\n        /* \"#utility.yul\":685:705   */\n      calldataload\n        /* \"#utility.yul\":676:705   */\n      swap1\n      pop\n        /* \"#utility.yul\":714:746   */\n      tag_315\n        /* \"#utility.yul\":740:745   */\n      dup2\n        /* \"#utility.yul\":714:746   */\n      tag_247\n      jump\t// in\n    tag_315:\n        /* \"#utility.yul\":615:752   */\n      swap3\n      swap2\n      pop\n      pop\n      jump\t// out\n        /* \"#utility.yul\":758:1085   */\n    tag_18:\n        /* \"#utility.yul\":816:822   */\n      0x00\n        /* \"#utility.yul\":865:867   */\n      0x20\n        /* \"#utility.yul\":853:862   */\n      dup3\n        /* \"#utility.yul\":844:851   */\n      dup5\n        /* \"#utility.yul\":840:863   */\n      sub\n        /* \"#utility.yul\":836:868   */\n      slt\n        /* \"#utility.yul\":833:952   */\n      iszero\n      tag_317\n      jumpi\n        /* \"#utility.yul\":871:950   */\n      tag_318\n      tag_244\n      jump\t// in\n    tag_318:\n        /* \"#utility.yul\":833:952   */\n    tag_317:\n        /* \"#utility.yul\":991:992   */\n      0x00\n        /* \"#utility.yul\":1016:1068   */\n      tag_319\n        /* \"#utility.yul\":1060:1067   */\n      dup5\n        /* \"#utility.yul\":1051:1057   */\n      dup3\n        /* \"#utility.yul\":1040:1049   */\n      dup6\n        /* \"#utility.yul\":1036:1058   */\n      add\n        /* \"#utility.yul\":1016:1068   */\n      tag_248\n      jump\t// in\n    tag_319:\n        /* \"#utility.yul\":1006:1068   */\n      swap2\n      pop\n        /* \"#utility.yul\":962:1078   */\n      pop\n        /* \"#utility.yul\":758:1085   */\n      swap3\n      swap2\n      pop\n      pop\n      jump\t// out\n        /* \"#utility.yul\":1091:1181   */\n    tag_249:\n        /* \"#utility.yul\":1125:1132   */\n      0x00\n        /* \"#utility.yul\":1168:1173   */\n      dup2\n        /* \"#utility.yul\":1161:1174   */\n      iszero\n        /* \"#utility.yul\":1154:1175   */\n      iszero\n        /* \"#utility.yul\":1143:1175   */\n      swap1\n      pop\n        /* \"#utility.yul\":1091:1181   */\n      swap2\n      swap1\n      pop\n      jump\t// out\n        /* \"#utility.yul\":1187:1296   */\n    tag_250:\n        /* \"#utility.yul\":1268:1289   */\n      tag_322\n        /* \"#utility.yul\":1283:1288   */\n      dup2\n        /* \"#utility.yul\":1268:1289   */\n      tag_249\n      jump\t// in\n    tag_322:\n        /* \"#utility.yul\":1263:1266   */\n      dup3\n        /* \"#utility.yul\":1256:1290   */\n      mstore\n        /* \"#utility.yul\":1187:1296   */\n      pop\n      pop\n      jump\t// out\n        /* \"#utility.yul\":1302:1512   */\n    tag_21:\n        /* \"#utility.yul\":1389:1393   */\n      0x00\n        /* \"#utility.yul\":1427:1429   */\n      0x20\n        /* \"#utility.yul\":1416:1425   */\n      dup3\n        /* \"#utility.yul\":1412:1430   */\n      add\n        /* \"#utility.yul\":1404:1430   */\n      swap1\n      pop\n        /* \"#utility.yul\":1440:1505   */\n      tag_324\n        /* \"#utility.yul\":1502:1503   */\n      0x00\n        /* \"#utility.yul\":1491:1500   */\n      dup4\n        /* \"#utility.yul\":1487:1504   */\n      add\n        /* \"#utility.yul\":1478:1484   */\n      dup5\n        /* \"#utility.yul\":1440:1505   */\n      tag_250\n      jump\t// in\n    tag_324:\n        /* \"#utility.yul\":1302:1512   */\n      swap3\n      swap2\n      pop\n      pop\n      jump\t// out\n        /* \"#utility.yul\":1518:1595   */\n    tag_251:\n        /* \"#utility.yul\":1555:1562   */\n      0x00\n        /* \"#utility.yul\":1584:1589   */\n      dup2\n        /* \"#utility.yul\":1573:1589   */\n      swap1\n      pop\n        /* \"#utility.yul\":1518:1595   */\n      swap2\n      swap1\n      pop\n      jump\t// out\n        /* \"#utility.yul\":1601:1723   */\n    tag_252:\n        /* \"#utility.yul\":1674:1698   */\n      tag_327\n        /* \"#utility.yul\":1692:1697   */\n      dup2\n        /* \"#utility.yul\":1674:1698   */\n      tag_251\n      jump\t// in\n    tag_327:\n        /* \"#utility.yul\":1667:1672   */\n      dup2\n        /* \"#utility.yul\":1664:1699   */\n      eq\n        /* \"#utility.yul\":1654:1717   */\n      tag_328\n      jumpi\n        /* \"#utility.yul\":1713:1714   */\n      0x00\n        /* \"#utility.yul\":1710:1711   */\n      dup1\n        /* \"#utility.yul\":1703:1715   */\n      revert\n        /* \"#utility.yul\":1654:1717   */\n    tag_328:\n        /* \"#utility.yul\":1601:1723   */\n      pop\n      jump\t// out\n        /* \"#utility.yul\":1729:1868   */\n    tag_253:\n        /* \"#utility.yul\":1775:1780   */\n      0x00\n        /* \"#utility.yul\":1813:1819   */\n      dup2\n        /* \"#utility.yul\":1800:1820   */\n      calldataload\n        /* \"#utility.yul\":1791:1820   */\n      swap1\n      pop\n        /* \"#utility.yul\":1829:1862   */\n      tag_330\n        /* \"#utility.yul\":1856:1861   */\n      dup2\n        /* \"#utility.yul\":1829:1862   */\n      tag_252\n      jump\t// in\n    tag_330:\n        /* \"#utility.yul\":1729:1868   */\n      swap3\n      swap2\n      pop\n      pop\n      jump\t// out\n        /* \"#utility.yul\":1874:2203   */\n    tag_24:\n        /* \"#utility.yul\":1933:1939   */\n      0x00\n        /* \"#utility.yul\":1982:1984   */\n      0x20\n        /* \"#utility.yul\":1970:1979   */\n      dup3\n        /* \"#utility.yul\":1961:1968   */\n      dup5\n        /* \"#utility.yul\":1957:1980   */\n      sub\n        /* \"#utility.yul\":1953:1985   */\n      slt\n        /* \"#utility.yul\":1950:2069   */\n      iszero\n      tag_332\n      jumpi\n        /* \"#utility.yul\":1988:2067   */\n      tag_333\n      tag_244\n      jump\t// in\n    tag_333:\n        /* \"#utility.yul\":1950:2069   */\n    tag_332:\n        /* \"#utility.yul\":2108:2109   */\n      0x00\n        /* \"#utility.yul\":2133:2186   */\n      tag_334\n        /* \"#utility.yul\":2178:2185   */\n      dup5\n        /* \"#utility.yul\":2169:2175   */\n      dup3\n        /* \"#utility.yul\":2158:2167   */\n      dup6\n        /* \"#utility.yul\":2154:2176   */\n      add\n        /* \"#utility.yul\":2133:2186   */\n      tag_253\n      jump\t// in\n    tag_334:\n        /* \"#utility.yul\":2123:2186   */\n      swap2\n      pop\n        /* \"#utility.yul\":2079:2196   */\n      pop\n        /* \"#utility.yul\":1874:2203   */\n      swap3\n      swap2\n      pop\n      pop\n      jump\t// out\n        /* \"#utility.yul\":2209:2327   */\n    tag_254:\n        /* \"#utility.yul\":2296:2320   */\n      tag_336\n        /* \"#utility.yul\":2314:2319   */\n      dup2\n        /* \"#utility.yul\":2296:2320   */\n      tag_251\n      jump\t// in\n    tag_336:\n        /* \"#utility.yul\":2291:2294   */\n      dup3\n        /* \"#utility.yul\":2284:2321   */\n      mstore\n        /* \"#utility.yul\":2209:2327   */\n      pop\n      pop\n      jump\t// out\n        /* \"#utility.yul\":2333:2555   */\n    tag_27:\n        /* \"#utility.yul\":2426:2430   */\n      0x00\n        /* \"#utility.yul\":2464:2466   */\n      0x20\n        /* \"#utility.yul\":2453:2462   */\n      dup3\n        /* \"#utility.yul\":2449:2467   */\n      add\n        /* \"#utility.yul\":2441:2467   */\n      swap1\n      pop\n        /* \"#utility.yul\":2477:2548   */\n      tag_338\n        /* \"#utility.yul\":2545:2546   */\n      0x00\n        /* \"#utility.yul\":2534:2543   */\n      dup4\n        /* \"#utility.yul\":2530:2547   */\n      add\n        /* \"#utility.yul\":2521:2527   */\n      dup5\n        /* \"#utility.yul\":2477:2548   */\n      tag_254\n      jump\t// in\n    tag_338:\n        /* \"#utility.yul\":2333:2555   */\n      swap3\n      swap2\n      pop\n      pop\n      jump\t// out\n        /* \"#utility.yul\":2561:2687   */\n    tag_255:\n        /* \"#utility.yul\":2598:2605   */\n      0x00\n        /* \"#utility.yul\":2638:2680   */\n      0xffffffffffffffffffffffffffffffffffffffff\n        /* \"#utility.yul\":2631:2636   */\n      dup3\n        /* \"#utility.yul\":2627:2681   */\n      and\n        /* \"#utility.yul\":2616:2681   */\n      swap1\n      pop\n        /* \"#utility.yul\":2561:2687   */\n      swap2\n      swap1\n      pop\n      jump\t// out\n        /* \"#utility.yul\":2693:2789   */\n    tag_256:\n        /* \"#utility.yul\":2730:2737   */\n      0x00\n        /* \"#utility.yul\":2759:2783   */\n      tag_341\n        /* \"#utility.yul\":2777:2782   */\n      dup3\n        /* \"#utility.yul\":2759:2783   */\n      tag_255\n      jump\t// in\n    tag_341:\n        /* \"#utility.yul\":2748:2783   */\n      swap1\n      pop\n        /* \"#utility.yul\":2693:2789   */\n      swap2\n      swap1\n      pop\n      jump\t// out\n        /* \"#utility.yul\":2795:2917   */\n    tag_257:\n        /* \"#utility.yul\":2868:2892   */\n      tag_343\n        /* \"#utility.yul\":2886:2891   */\n      dup2\n        /* \"#utility.yul\":2868:2892   */\n      tag_256\n      jump\t// in\n    tag_343:\n        /* \"#utility.yul\":2861:2866   */\n      dup2\n        /* \"#utility.yul\":2858:2893   */\n      eq\n        /* \"#utility.yul\":2848:2911   */\n      tag_344\n      jumpi\n        /* \"#utility.yul\":2907:2908   */\n      0x00\n        /* \"#utility.yul\":2904:2905   */\n      dup1\n        /* \"#utility.yul\":2897:2909   */\n      revert\n        /* \"#utility.yul\":2848:2911   */\n    tag_344:\n        /* \"#utility.yul\":2795:2917   */\n      pop\n      jump\t// out\n        /* \"#utility.yul\":2923:3062   */\n    tag_258:\n        /* \"#utility.yul\":2969:2974   */\n      0x00\n        /* \"#utility.yul\":3007:3013   */\n      dup2\n        /* \"#utility.yul\":2994:3014   */\n      calldataload\n        /* \"#utility.yul\":2985:3014   */\n      swap1\n      pop\n        /* \"#utility.yul\":3023:3056   */\n      tag_346\n        /* \"#utility.yul\":3050:3055   */\n      dup2\n        /* \"#utility.yul\":3023:3056   */\n      tag_257\n      jump\t// in\n    tag_346:\n        /* \"#utility.yul\":2923:3062   */\n      swap3\n      swap2\n      pop\n      pop\n      jump\t// out\n        /* \"#utility.yul\":3068:3542   */\n    tag_30:\n        /* \"#utility.yul\":3136:3142   */\n      0x00\n        /* \"#utility.yul\":3144:3150   */\n      dup1\n        /* \"#utility.yul\":3193:3195   */\n      0x40\n        /* \"#utility.yul\":3181:3190   */\n      dup4\n        /* \"#utility.yul\":3172:3179   */\n      dup6\n        /* \"#utility.yul\":3168:3191   */\n      sub\n        /* \"#utility.yul\":3164:3196   */\n      slt\n        /* \"#utility.yul\":3161:3280   */\n      iszero\n      tag_348\n      jumpi\n        /* \"#utility.yul\":3199:3278   */\n      tag_349\n      tag_244\n      jump\t// in\n    tag_349:\n        /* \"#utility.yul\":3161:3280   */\n    tag_348:\n        /* \"#utility.yul\":3319:3320   */\n      0x00\n        /* \"#utility.yul\":3344:3397   */\n      tag_350\n        /* \"#utility.yul\":3389:3396   */\n      dup6\n        /* \"#utility.yul\":3380:3386   */\n      dup3\n        /* \"#utility.yul\":3369:3378   */\n      dup7\n        /* \"#utility.yul\":3365:3387   */\n      add\n        /* \"#utility.yul\":3344:3397   */\n      tag_253\n      jump\t// in\n    tag_350:\n        /* \"#utility.yul\":3334:3397   */\n      swap3\n      pop\n        /* \"#utility.yul\":3290:3407   */\n      pop\n        /* \"#utility.yul\":3446:3448   */\n      0x20\n        /* \"#utility.yul\":3472:3525   */\n      tag_351\n        /* \"#utility.yul\":3517:3524   */\n      dup6\n        /* \"#utility.yul\":3508:3514   */\n      dup3\n        /* \"#utility.yul\":3497:3506   */\n      dup7\n        /* \"#utility.yul\":3493:3515   */\n      add\n        /* \"#utility.yul\":3472:3525   */\n      tag_258\n      jump\t// in\n    tag_351:\n        /* \"#utility.yul\":3462:3525   */\n      swap2\n      pop\n        /* \"#utility.yul\":3417:3535   */\n      pop\n        /* \"#utility.yul\":3068:3542   */\n      swap3\n      pop\n      swap3\n      swap1\n      pop\n      jump\t// out\n        /* \"#utility.yul\":3548:3637   */\n    tag_259:\n        /* \"#utility.yul\":3584:3591   */\n      0x00\n        /* \"#utility.yul\":3624:3630   */\n      0xffff\n        /* \"#utility.yul\":3617:3622   */\n      dup3\n        /* \"#utility.yul\":3613:3631   */\n      and\n        /* \"#utility.yul\":3602:3631   */\n      swap1\n      pop\n        /* \"#utility.yul\":3548:3637   */\n      swap2\n      swap1\n      pop\n      jump\t// out\n        /* \"#utility.yul\":3643:3763   */\n    tag_260:\n        /* \"#utility.yul\":3715:3738   */\n      tag_354\n        /* \"#utility.yul\":3732:3737   */\n      dup2\n        /* \"#utility.yul\":3715:3738   */\n      tag_259\n      jump\t// in\n    tag_354:\n        /* \"#utility.yul\":3708:3713   */\n      dup2\n        /* \"#utility.yul\":3705:3739   */\n      eq\n        /* \"#utility.yul\":3695:3757   */\n      tag_355\n      jumpi\n        /* \"#utility.yul\":3753:3754   */\n      0x00\n        /* \"#utility.yul\":3750:3751   */\n      dup1\n        /* \"#utility.yul\":3743:3755   */\n      revert\n        /* \"#utility.yul\":3695:3757   */\n    tag_355:\n        /* \"#utility.yul\":3643:3763   */\n      pop\n      jump\t// out\n        /* \"#utility.yul\":3769:3906   */\n    tag_261:\n        /* \"#utility.yul\":3814:3819   */\n      0x00\n        /* \"#utility.yul\":3852:3858   */\n      dup2\n        /* \"#utility.yul\":3839:3859   */\n      calldataload\n        /* \"#utility.yul\":3830:3859   */\n      swap1\n      pop\n        /* \"#utility.yul\":3868:3900   */\n      tag_357\n        /* \"#utility.yul\":3894:3899   */\n      dup2\n        /* \"#utility.yul\":3868:3900   */\n      tag_260\n      jump\t// in\n    tag_357:\n        /* \"#utility.yul\":3769:3906   */\n      swap3\n      swap2\n      pop\n      pop\n      jump\t// out\n        /* \"#utility.yul\":3912:4029   */\n    tag_262:\n        /* \"#utility.yul\":4021:4022   */\n      0x00\n        /* \"#utility.yul\":4018:4019   */\n      dup1\n        /* \"#utility.yul\":4011:4023   */\n      revert\n        /* \"#utility.yul\":4035:4152   */\n    tag_263:\n        /* \"#utility.yul\":4144:4145   */\n      0x00\n        /* \"#utility.yul\":4141:4142   */\n      dup1\n        /* \"#utility.yul\":4134:4146   */\n      revert\n        /* \"#utility.yul\":4158:4260   */\n    tag_264:\n        /* \"#utility.yul\":4199:4205   */\n      0x00\n        /* \"#utility.yul\":4250:4252   */\n      0x1f\n        /* \"#utility.yul\":4246:4253   */\n      not\n        /* \"#utility.yul\":4241:4243   */\n      0x1f\n        /* \"#utility.yul\":4234:4239   */\n      dup4\n        /* \"#utility.yul\":4230:4244   */\n      add\n        /* \"#utility.yul\":4226:4254   */\n      and\n        /* \"#utility.yul\":4216:4254   */\n      swap1\n      pop\n        /* \"#utility.yul\":4158:4260   */\n      swap2\n      swap1\n      pop\n      jump\t// out\n        /* \"#utility.yul\":4266:4446   */\n    tag_197:\n        /* \"#utility.yul\":4314:4391   */\n      0x4e487b7100000000000000000000000000000000000000000000000000000000\n        /* \"#utility.yul\":4311:4312   */\n      0x00\n        /* \"#utility.yul\":4304:4392   */\n      mstore\n        /* \"#utility.yul\":4411:4415   */\n      0x41\n        /* \"#utility.yul\":4408:4409   */\n      0x04\n        /* \"#utility.yul\":4401:4416   */\n      mstore\n        /* \"#utility.yul\":4435:4439   */\n      0x24\n        /* \"#utility.yul\":4432:4433   */\n      0x00\n        /* \"#utility.yul\":4425:4440   */\n      revert\n        /* \"#utility.yul\":4452:4733   */\n    tag_265:\n        /* \"#utility.yul\":4535:4562   */\n      tag_363\n        /* \"#utility.yul\":4557:4561   */\n      dup3\n        /* \"#utility.yul\":4535:4562   */\n      tag_264\n      jump\t// in\n    tag_363:\n        /* \"#utility.yul\":4527:4533   */\n      dup2\n        /* \"#utility.yul\":4523:4563   */\n      add\n        /* \"#utility.yul\":4665:4671   */\n      dup2\n        /* \"#utility.yul\":4653:4663   */\n      dup2\n        /* \"#utility.yul\":4650:4672   */\n      lt\n        /* \"#utility.yul\":4629:4647   */\n      0xffffffffffffffff\n        /* \"#utility.yul\":4617:4627   */\n      dup3\n        /* \"#utility.yul\":4614:4648   */\n      gt\n        /* \"#utility.yul\":4611:4673   */\n      or\n        /* \"#utility.yul\":4608:4696   */\n      iszero\n      tag_364\n      jumpi\n        /* \"#utility.yul\":4676:4694   */\n      tag_365\n      tag_197\n      jump\t// in\n    tag_365:\n        /* \"#utility.yul\":4608:4696   */\n    tag_364:\n        /* \"#utility.yul\":4716:4726   */\n      dup1\n        /* \"#utility.yul\":4712:4714   */\n      0x40\n        /* \"#utility.yul\":4705:4727   */\n      mstore\n        /* \"#utility.yul\":4495:4733   */\n      pop\n        /* \"#utility.yul\":4452:4733   */\n      pop\n      pop\n      jump\t// out\n        /* \"#utility.yul\":4739:4868   */\n    tag_266:\n        /* \"#utility.yul\":4773:4779   */\n      0x00\n        /* \"#utility.yul\":4800:4820   */\n      tag_367\n      tag_243\n      jump\t// in\n    tag_367:\n        /* \"#utility.yul\":4790:4820   */\n      swap1\n      pop\n        /* \"#utility.yul\":4829:4862   */\n      tag_368\n        /* \"#utility.yul\":4857:4861   */\n      dup3\n        /* \"#utility.yul\":4849:4855   */\n      dup3\n        /* \"#utility.yul\":4829:4862   */\n      tag_265\n      jump\t// in\n    tag_368:\n        /* \"#utility.yul\":4739:4868   */\n      swap2\n      swap1\n      pop\n      jump\t// out\n        /* \"#utility.yul\":4874:5181   */\n    tag_267:\n        /* \"#utility.yul\":4935:4939   */\n      0x00\n        /* \"#utility.yul\":5025:5043   */\n      0xffffffffffffffff\n        /* \"#utility.yul\":5017:5023   */\n      dup3\n        /* \"#utility.yul\":5014:5044   */\n      gt\n        /* \"#utility.yul\":5011:5067   */\n      iszero\n      tag_370\n      jumpi\n        /* \"#utility.yul\":5047:5065   */\n      tag_371\n      tag_197\n      jump\t// in\n    tag_371:\n        /* \"#utility.yul\":5011:5067   */\n    tag_370:\n        /* \"#utility.yul\":5085:5114   */\n      tag_372\n        /* \"#utility.yul\":5107:5113   */\n      dup3\n        /* \"#utility.yul\":5085:5114   */\n      tag_264\n      jump\t// in\n    tag_372:\n        /* \"#utility.yul\":5077:5114   */\n      swap1\n      pop\n        /* \"#utility.yul\":5169:5173   */\n      0x20\n        /* \"#utility.yul\":5163:5167   */\n      dup2\n        /* \"#utility.yul\":5159:5174   */\n      add\n        /* \"#utility.yul\":5151:5174   */\n      swap1\n      pop\n        /* \"#utility.yul\":4874:5181   */\n      swap2\n      swap1\n      pop\n      jump\t// out\n        /* \"#utility.yul\":5187:5335   */\n    tag_268:\n        /* \"#utility.yul\":5285:5291   */\n      dup3\n        /* \"#utility.yul\":5280:5283   */\n      dup2\n        /* \"#utility.yul\":5275:5278   */\n      dup4\n        /* \"#utility.yul\":5262:5292   */\n      calldatacopy\n        /* \"#utility.yul\":5326:5327   */\n      0x00\n        /* \"#utility.yul\":5317:5323   */\n      dup4\n        /* \"#utility.yul\":5312:5315   */\n      dup4\n        /* \"#utility.yul\":5308:5324   */\n      add\n        /* \"#utility.yul\":5301:5328   */\n      mstore\n        /* \"#utility.yul\":5187:5335   */\n      pop\n      pop\n      pop\n      jump\t// out\n        /* \"#utility.yul\":5341:5764   */\n    tag_269:\n        /* \"#utility.yul\":5418:5423   */\n      0x00\n        /* \"#utility.yul\":5443:5508   */\n      tag_375\n        /* \"#utility.yul\":5459:5507   */\n      tag_376\n        /* \"#utility.yul\":5500:5506   */\n      dup5\n        /* \"#utility.yul\":5459:5507   */\n      tag_267\n      jump\t// in\n    tag_376:\n        /* \"#utility.yul\":5443:5508   */\n      tag_266\n      jump\t// in\n    tag_375:\n        /* \"#utility.yul\":5434:5508   */\n      swap1\n      pop\n        /* \"#utility.yul\":5531:5537   */\n      dup3\n        /* \"#utility.yul\":5524:5529   */\n      dup2\n        /* \"#utility.yul\":5517:5538   */\n      mstore\n        /* \"#utility.yul\":5569:5573   */\n      0x20\n        /* \"#utility.yul\":5562:5567   */\n      dup2\n        /* \"#utility.yul\":5558:5574   */\n      add\n        /* \"#utility.yul\":5607:5610   */\n      dup5\n        /* \"#utility.yul\":5598:5604   */\n      dup5\n        /* \"#utility.yul\":5593:5596   */\n      dup5\n        /* \"#utility.yul\":5589:5605   */\n      add\n        /* \"#utility.yul\":5586:5611   */\n      gt\n        /* \"#utility.yul\":5583:5695   */\n      iszero\n      tag_377\n      jumpi\n        /* \"#utility.yul\":5614:5693   */\n      tag_378\n      tag_263\n      jump\t// in\n    tag_378:\n        /* \"#utility.yul\":5583:5695   */\n    tag_377:\n        /* \"#utility.yul\":5704:5758   */\n      tag_379\n        /* \"#utility.yul\":5751:5757   */\n      dup5\n        /* \"#utility.yul\":5746:5749   */\n      dup3\n        /* \"#utility.yul\":5741:5744   */\n      dup6\n        /* \"#utility.yul\":5704:5758   */\n      tag_268\n      jump\t// in\n    tag_379:\n        /* \"#utility.yul\":5424:5764   */\n      pop\n        /* \"#utility.yul\":5341:5764   */\n      swap4\n      swap3\n      pop\n      pop\n      pop\n      jump\t// out\n        /* \"#utility.yul\":5783:6121   */\n    tag_270:\n        /* \"#utility.yul\":5838:5843   */\n      0x00\n        /* \"#utility.yul\":5887:5890   */\n      dup3\n        /* \"#utility.yul\":5880:5884   */\n      0x1f\n        /* \"#utility.yul\":5872:5878   */\n      dup4\n        /* \"#utility.yul\":5868:5885   */\n      add\n        /* \"#utility.yul\":5864:5891   */\n      slt\n        /* \"#utility.yul\":5854:5976   */\n      tag_381\n      jumpi\n        /* \"#utility.yul\":5895:5974   */\n      tag_382\n      tag_262\n      jump\t// in\n    tag_382:\n        /* \"#utility.yul\":5854:5976   */\n    tag_381:\n        /* \"#utility.yul\":6012:6018   */\n      dup2\n        /* \"#utility.yul\":5999:6019   */\n      calldataload\n        /* \"#utility.yul\":6037:6115   */\n      tag_383\n        /* \"#utility.yul\":6111:6114   */\n      dup5\n        /* \"#utility.yul\":6103:6109   */\n      dup3\n        /* \"#utility.yul\":6096:6100   */\n      0x20\n        /* \"#utility.yul\":6088:6094   */\n      dup7\n        /* \"#utility.yul\":6084:6101   */\n      add\n        /* \"#utility.yul\":6037:6115   */\n      tag_269\n      jump\t// in\n    tag_383:\n        /* \"#utility.yul\":6028:6115   */\n      swap2\n      pop\n        /* \"#utility.yul\":5844:6121   */\n      pop\n        /* \"#utility.yul\":5783:6121   */\n      swap3\n      swap2\n      pop\n      pop\n      jump\t// out\n        /* \"#utility.yul\":6127:6922   */\n    tag_37:\n        /* \"#utility.yul\":6212:6218   */\n      0x00\n        /* \"#utility.yul\":6220:6226   */\n      dup1\n        /* \"#utility.yul\":6228:6234   */\n      0x00\n        /* \"#utility.yul\":6277:6279   */\n      0x60\n        /* \"#utility.yul\":6265:6274   */\n      dup5\n        /* \"#utility.yul\":6256:6263   */\n      dup7\n        /* \"#utility.yul\":6252:6275   */\n      sub\n        /* \"#utility.yul\":6248:6280   */\n      slt\n        /* \"#utility.yul\":6245:6364   */\n      iszero\n      tag_385\n      jumpi\n        /* \"#utility.yul\":6283:6362   */\n      tag_386\n      tag_244\n      jump\t// in\n    tag_386:\n        /* \"#utility.yul\":6245:6364   */\n    tag_385:\n        /* \"#utility.yul\":6403:6404   */\n      0x00\n        /* \"#utility.yul\":6428:6481   */\n      tag_387\n        /* \"#utility.yul\":6473:6480   */\n      dup7\n        /* \"#utility.yul\":6464:6470   */\n      dup3\n        /* \"#utility.yul\":6453:6462   */\n      dup8\n        /* \"#utility.yul\":6449:6471   */\n      add\n        /* \"#utility.yul\":6428:6481   */\n      tag_258\n      jump\t// in\n    tag_387:\n        /* \"#utility.yul\":6418:6481   */\n      swap4\n      pop\n        /* \"#utility.yul\":6374:6491   */\n      pop\n        /* \"#utility.yul\":6530:6532   */\n      0x20\n        /* \"#utility.yul\":6556:6608   */\n      tag_388\n        /* \"#utility.yul\":6600:6607   */\n      dup7\n        /* \"#utility.yul\":6591:6597   */\n      dup3\n        /* \"#utility.yul\":6580:6589   */\n      dup8\n        /* \"#utility.yul\":6576:6598   */\n      add\n        /* \"#utility.yul\":6556:6608   */\n      tag_261\n      jump\t// in\n    tag_388:\n        /* \"#utility.yul\":6546:6608   */\n      swap3\n      pop\n        /* \"#utility.yul\":6501:6618   */\n      pop\n        /* \"#utility.yul\":6685:6687   */\n      0x40\n        /* \"#utility.yul\":6674:6683   */\n      dup5\n        /* \"#utility.yul\":6670:6688   */\n      add\n        /* \"#utility.yul\":6657:6689   */\n      calldataload\n        /* \"#utility.yul\":6716:6734   */\n      0xffffffffffffffff\n        /* \"#utility.yul\":6708:6714   */\n      dup2\n        /* \"#utility.yul\":6705:6735   */\n      gt\n        /* \"#utility.yul\":6702:6819   */\n      iszero\n      tag_389\n      jumpi\n        /* \"#utility.yul\":6738:6817   */\n      tag_390\n      tag_245\n      jump\t// in\n    tag_390:\n        /* \"#utility.yul\":6702:6819   */\n    tag_389:\n        /* \"#utility.yul\":6843:6905   */\n      tag_391\n        /* \"#utility.yul\":6897:6904   */\n      dup7\n        /* \"#utility.yul\":6888:6894   */\n      dup3\n        /* \"#utility.yul\":6877:6886   */\n      dup8\n        /* \"#utility.yul\":6873:6895   */\n      add\n        /* \"#utility.yul\":6843:6905   */\n      tag_270\n      jump\t// in\n    tag_391:\n        /* \"#utility.yul\":6833:6905   */\n      swap2\n      pop\n        /* \"#utility.yul\":6628:6915   */\n      pop\n        /* \"#utility.yul\":6127:6922   */\n      swap3\n      pop\n      swap3\n      pop\n      swap3\n      jump\t// out\n        /* \"#utility.yul\":6928:7005   */\n    tag_271:\n        /* \"#utility.yul\":6965:6972   */\n      0x00\n        /* \"#utility.yul\":6994:6999   */\n      dup2\n        /* \"#utility.yul\":6983:6999   */\n      swap1\n      pop\n        /* \"#utility.yul\":6928:7005   */\n      swap2\n      swap1\n      pop\n      jump\t// out\n        /* \"#utility.yul\":7011:7133   */\n    tag_272:\n        /* \"#utility.yul\":7084:7108   */\n      tag_394\n        /* \"#utility.yul\":7102:7107   */\n      dup2\n        /* \"#utility.yul\":7084:7108   */\n      tag_271\n      jump\t// in\n    tag_394:\n        /* \"#utility.yul\":7077:7082   */\n      dup2\n        /* \"#utility.yul\":7074:7109   */\n      eq\n        /* \"#utility.yul\":7064:7127   */\n      tag_395\n      jumpi\n        /* \"#utility.yul\":7123:7124   */\n      0x00\n        /* \"#utility.yul\":7120:7121   */\n      dup1\n        /* \"#utility.yul\":7113:7125   */\n      revert\n        /* \"#utility.yul\":7064:7127   */\n    tag_395:\n        /* \"#utility.yul\":7011:7133   */\n      pop\n      jump\t// out\n        /* \"#utility.yul\":7139:7278   */\n    tag_273:\n        /* \"#utility.yul\":7185:7190   */\n      0x00\n        /* \"#utility.yul\":7223:7229   */\n      dup2\n        /* \"#utility.yul\":7210:7230   */\n      calldataload\n        /* \"#utility.yul\":7201:7230   */\n      swap1\n      pop\n        /* \"#utility.yul\":7239:7272   */\n      tag_397\n        /* \"#utility.yul\":7266:7271   */\n      dup2\n        /* \"#utility.yul\":7239:7272   */\n      tag_272\n      jump\t// in\n    tag_397:\n        /* \"#utility.yul\":7139:7278   */\n      swap3\n      swap2\n      pop\n      pop\n      jump\t// out\n        /* \"#utility.yul\":7284:7758   */\n    tag_41:\n        /* \"#utility.yul\":7352:7358   */\n      0x00\n        /* \"#utility.yul\":7360:7366   */\n      dup1\n        /* \"#utility.yul\":7409:7411   */\n      0x40\n        /* \"#utility.yul\":7397:7406   */\n      dup4\n        /* \"#utility.yul\":7388:7395   */\n      dup6\n        /* \"#utility.yul\":7384:7407   */\n      sub\n        /* \"#utility.yul\":7380:7412   */\n      slt\n        /* \"#utility.yul\":7377:7496   */\n      iszero\n      tag_399\n      jumpi\n        /* \"#utility.yul\":7415:7494   */\n      tag_400\n      tag_244\n      jump\t// in\n    tag_400:\n        /* \"#utility.yul\":7377:7496   */\n    tag_399:\n        /* \"#utility.yul\":7535:7536   */\n      0x00\n        /* \"#utility.yul\":7560:7613   */\n      tag_401\n        /* \"#utility.yul\":7605:7612   */\n      dup6\n        /* \"#utility.yul\":7596:7602   */\n      dup3\n        /* \"#utility.yul\":7585:7594   */\n      dup7\n        /* \"#utility.yul\":7581:7603   */\n      add\n        /* \"#utility.yul\":7560:7613   */\n      tag_253\n      jump\t// in\n    tag_401:\n        /* \"#utility.yul\":7550:7613   */\n      swap3\n      pop\n        /* \"#utility.yul\":7506:7623   */\n      pop\n        /* \"#utility.yul\":7662:7664   */\n      0x20\n        /* \"#utility.yul\":7688:7741   */\n      tag_402\n        /* \"#utility.yul\":7733:7740   */\n      dup6\n        /* \"#utility.yul\":7724:7730   */\n      dup3\n        /* \"#utility.yul\":7713:7722   */\n      dup7\n        /* \"#utility.yul\":7709:7731   */\n      add\n        /* \"#utility.yul\":7688:7741   */\n      tag_273\n      jump\t// in\n    tag_402:\n        /* \"#utility.yul\":7678:7741   */\n      swap2\n      pop\n        /* \"#utility.yul\":7633:7751   */\n      pop\n        /* \"#utility.yul\":7284:7758   */\n      swap3\n      pop\n      swap3\n      swap1\n      pop\n      jump\t// out\n        /* \"#utility.yul\":7764:7882   */\n    tag_274:\n        /* \"#utility.yul\":7851:7875   */\n      tag_404\n        /* \"#utility.yul\":7869:7874   */\n      dup2\n        /* \"#utility.yul\":7851:7875   */\n      tag_256\n      jump\t// in\n    tag_404:\n        /* \"#utility.yul\":7846:7849   */\n      dup3\n        /* \"#utility.yul\":7839:7876   */\n      mstore\n        /* \"#utility.yul\":7764:7882   */\n      pop\n      pop\n      jump\t// out\n        /* \"#utility.yul\":7888:8110   */\n    tag_44:\n        /* \"#utility.yul\":7981:7985   */\n      0x00\n        /* \"#utility.yul\":8019:8021   */\n      0x20\n        /* \"#utility.yul\":8008:8017   */\n      dup3\n        /* \"#utility.yul\":8004:8022   */\n      add\n        /* \"#utility.yul\":7996:8022   */\n      swap1\n      pop\n        /* \"#utility.yul\":8032:8103   */\n      tag_406\n        /* \"#utility.yul\":8100:8101   */\n      0x00\n        /* \"#utility.yul\":8089:8098   */\n      dup4\n        /* \"#utility.yul\":8085:8102   */\n      add\n        /* \"#utility.yul\":8076:8082   */\n      dup5\n        /* \"#utility.yul\":8032:8103   */\n      tag_274\n      jump\t// in\n    tag_406:\n        /* \"#utility.yul\":7888:8110   */\n      swap3\n      swap2\n      pop\n      pop\n      jump\t// out\n        /* \"#utility.yul\":8116:8234   */\n    tag_275:\n        /* \"#utility.yul\":8203:8227   */\n      tag_408\n        /* \"#utility.yul\":8221:8226   */\n      dup2\n        /* \"#utility.yul\":8203:8227   */\n      tag_271\n      jump\t// in\n    tag_408:\n        /* \"#utility.yul\":8198:8201   */\n      dup3\n        /* \"#utility.yul\":8191:8228   */\n      mstore\n        /* \"#utility.yul\":8116:8234   */\n      pop\n      pop\n      jump\t// out\n        /* \"#utility.yul\":8240:8462   */\n    tag_59:\n        /* \"#utility.yul\":8333:8337   */\n      0x00\n        /* \"#utility.yul\":8371:8373   */\n      0x20\n        /* \"#utility.yul\":8360:8369   */\n      dup3\n        /* \"#utility.yul\":8356:8374   */\n      add\n        /* \"#utility.yul\":8348:8374   */\n      swap1\n      pop\n        /* \"#utility.yul\":8384:8455   */\n      tag_410\n        /* \"#utility.yul\":8452:8453   */\n      0x00\n        /* \"#utility.yul\":8441:8450   */\n      dup4\n        /* \"#utility.yul\":8437:8454   */\n      add\n        /* \"#utility.yul\":8428:8434   */\n      dup5\n        /* \"#utility.yul\":8384:8455   */\n      tag_275\n      jump\t// in\n    tag_410:\n        /* \"#utility.yul\":8240:8462   */\n      swap3\n      swap2\n      pop\n      pop\n      jump\t// out\n        /* \"#utility.yul\":8468:8797   */\n    tag_65:\n        /* \"#utility.yul\":8527:8533   */\n      0x00\n        /* \"#utility.yul\":8576:8578   */\n      0x20\n        /* \"#utility.yul\":8564:8573   */\n      dup3\n        /* \"#utility.yul\":8555:8562   */\n      dup5\n        /* \"#utility.yul\":8551:8574   */\n      sub\n        /* \"#utility.yul\":8547:8579   */\n      slt\n        /* \"#utility.yul\":8544:8663   */\n      iszero\n      tag_412\n      jumpi\n        /* \"#utility.yul\":8582:8661   */\n      tag_413\n      tag_244\n      jump\t// in\n    tag_413:\n        /* \"#utility.yul\":8544:8663   */\n    tag_412:\n        /* \"#utility.yul\":8702:8703   */\n      0x00\n        /* \"#utility.yul\":8727:8780   */\n      tag_414\n        /* \"#utility.yul\":8772:8779   */\n      dup5\n        /* \"#utility.yul\":8763:8769   */\n      dup3\n        /* \"#utility.yul\":8752:8761   */\n      dup6\n        /* \"#utility.yul\":8748:8770   */\n      add\n        /* \"#utility.yul\":8727:8780   */\n      tag_258\n      jump\t// in\n    tag_414:\n        /* \"#utility.yul\":8717:8780   */\n      swap2\n      pop\n        /* \"#utility.yul\":8673:8790   */\n      pop\n        /* \"#utility.yul\":8468:8797   */\n      swap3\n      swap2\n      pop\n      pop\n      jump\t// out\n        /* \"#utility.yul\":8803:8972   */\n    tag_276:\n        /* \"#utility.yul\":8887:8898   */\n      0x00\n        /* \"#utility.yul\":8921:8927   */\n      dup3\n        /* \"#utility.yul\":8916:8919   */\n      dup3\n        /* \"#utility.yul\":8909:8928   */\n      mstore\n        /* \"#utility.yul\":8961:8965   */\n      0x20\n        /* \"#utility.yul\":8956:8959   */\n      dup3\n        /* \"#utility.yul\":8952:8966   */\n      add\n        /* \"#utility.yul\":8937:8966   */\n      swap1\n      pop\n        /* \"#utility.yul\":8803:8972   */\n      swap3\n      swap2\n      pop\n      pop\n      jump\t// out\n        /* \"#utility.yul\":8978:9212   */\n    tag_277:\n        /* \"#utility.yul\":9118:9152   */\n      0x416363657373436f6e74726f6c3a2063616e206f6e6c792072656e6f756e6365\n        /* \"#utility.yul\":9114:9115   */\n      0x00\n        /* \"#utility.yul\":9106:9112   */\n      dup3\n        /* \"#utility.yul\":9102:9116   */\n      add\n        /* \"#utility.yul\":9095:9153   */\n      mstore\n        /* \"#utility.yul\":9187:9204   */\n      0x20726f6c657320666f722073656c660000000000000000000000000000000000\n        /* \"#utility.yul\":9182:9184   */\n      0x20\n        /* \"#utility.yul\":9174:9180   */\n      dup3\n        /* \"#utility.yul\":9170:9185   */\n      add\n        /* \"#utility.yul\":9163:9205   */\n      mstore\n        /* \"#utility.yul\":8978:9212   */\n      pop\n      jump\t// out\n        /* \"#utility.yul\":9218:9584   */\n    tag_278:\n        /* \"#utility.yul\":9360:9363   */\n      0x00\n        /* \"#utility.yul\":9381:9448   */\n      tag_418\n        /* \"#utility.yul\":9445:9447   */\n      0x2f\n        /* \"#utility.yul\":9440:9443   */\n      dup4\n        /* \"#utility.yul\":9381:9448   */\n      tag_276\n      jump\t// in\n    tag_418:\n        /* \"#utility.yul\":9374:9448   */\n      swap2\n      pop\n        /* \"#utility.yul\":9457:9550   */\n      tag_419\n        /* \"#utility.yul\":9546:9549   */\n      dup3\n        /* \"#utility.yul\":9457:9550   */\n      tag_277\n      jump\t// in\n    tag_419:\n        /* \"#utility.yul\":9575:9577   */\n      0x40\n        /* \"#utility.yul\":9570:9573   */\n      dup3\n        /* \"#utility.yul\":9566:9578   */\n      add\n        /* \"#utility.yul\":9559:9578   */\n      swap1\n      pop\n        /* \"#utility.yul\":9218:9584   */\n      swap2\n      swap1\n      pop\n      jump\t// out\n        /* \"#utility.yul\":9590:10009   */\n    tag_85:\n        /* \"#utility.yul\":9756:9760   */\n      0x00\n        /* \"#utility.yul\":9794:9796   */\n      0x20\n        /* \"#utility.yul\":9783:9792   */\n      dup3\n        /* \"#utility.yul\":9779:9797   */\n      add\n        /* \"#utility.yul\":9771:9797   */\n      swap1\n      pop\n        /* \"#utility.yul\":9843:9852   */\n      dup2\n        /* \"#utility.yul\":9837:9841   */\n      dup2\n        /* \"#utility.yul\":9833:9853   */\n      sub\n        /* \"#utility.yul\":9829:9830   */\n      0x00\n        /* \"#utility.yul\":9818:9827   */\n      dup4\n        /* \"#utility.yul\":9814:9831   */\n      add\n        /* \"#utility.yul\":9807:9854   */\n      mstore\n        /* \"#utility.yul\":9871:10002   */\n      tag_421\n        /* \"#utility.yul\":9997:10001   */\n      dup2\n        /* \"#utility.yul\":9871:10002   */\n      tag_278\n      jump\t// in\n    tag_421:\n        /* \"#utility.yul\":9863:10002   */\n      swap1\n      pop\n        /* \"#utility.yul\":9590:10009   */\n      swap2\n      swap1\n      pop\n      jump\t// out\n        /* \"#utility.yul\":10015:10192   */\n    tag_279:\n        /* \"#utility.yul\":10155:10184   */\n      0x4163636f756e7420616c72656164792077686974656c69737465640000000000\n        /* \"#utility.yul\":10151:10152   */\n      0x00\n        /* \"#utility.yul\":10143:10149   */\n      dup3\n        /* \"#utility.yul\":10139:10153   */\n      add\n        /* \"#utility.yul\":10132:10185   */\n      mstore\n        /* \"#utility.yul\":10015:10192   */\n      pop\n      jump\t// out\n        /* \"#utility.yul\":10198:10564   */\n    tag_280:\n        /* \"#utility.yul\":10340:10343   */\n      0x00\n        /* \"#utility.yul\":10361:10428   */\n      tag_424\n        /* \"#utility.yul\":10425:10427   */\n      0x1b\n        /* \"#utility.yul\":10420:10423   */\n      dup4\n        /* \"#utility.yul\":10361:10428   */\n      tag_276\n      jump\t// in\n    tag_424:\n        /* \"#utility.yul\":10354:10428   */\n      swap2\n      pop\n        /* \"#utility.yul\":10437:10530   */\n      tag_425\n        /* \"#utility.yul\":10526:10529   */\n      dup3\n        /* \"#utility.yul\":10437:10530   */\n      tag_279\n      jump\t// in\n    tag_425:\n        /* \"#utility.yul\":10555:10557   */\n      0x20\n        /* \"#utility.yul\":10550:10553   */\n      dup3\n        /* \"#utility.yul\":10546:10558   */\n      add\n        /* \"#utility.yul\":10539:10558   */\n      swap1\n      pop\n        /* \"#utility.yul\":10198:10564   */\n      swap2\n      swap1\n      pop\n      jump\t// out\n        /* \"#utility.yul\":10570:10989   */\n    tag_91:\n        /* \"#utility.yul\":10736:10740   */\n      0x00\n        /* \"#utility.yul\":10774:10776   */\n      0x20\n        /* \"#utility.yul\":10763:10772   */\n      dup3\n        /* \"#utility.yul\":10759:10777   */\n      add\n        /* \"#utility.yul\":10751:10777   */\n      swap1\n      pop\n        /* \"#utility.yul\":10823:10832   */\n      dup2\n        /* \"#utility.yul\":10817:10821   */\n      dup2\n        /* \"#utility.yul\":10813:10833   */\n      sub\n        /* \"#utility.yul\":10809:10810   */\n      0x00\n        /* \"#utility.yul\":10798:10807   */\n      dup4\n        /* \"#utility.yul\":10794:10811   */\n      add\n        /* \"#utility.yul\":10787:10834   */\n      mstore\n        /* \"#utility.yul\":10851:10982   */\n      tag_427\n        /* \"#utility.yul\":10977:10981   */\n      dup2\n        /* \"#utility.yul\":10851:10982   */\n      tag_280\n      jump\t// in\n    tag_427:\n        /* \"#utility.yul\":10843:10982   */\n      swap1\n      pop\n        /* \"#utility.yul\":10570:10989   */\n      swap2\n      swap1\n      pop\n      jump\t// out\n        /* \"#utility.yul\":10995:11074   */\n    tag_281:\n        /* \"#utility.yul\":11034:11041   */\n      0x00\n        /* \"#utility.yul\":11063:11068   */\n      dup2\n        /* \"#utility.yul\":11052:11068   */\n      swap1\n      pop\n        /* \"#utility.yul\":10995:11074   */\n      swap2\n      swap1\n      pop\n      jump\t// out\n        /* \"#utility.yul\":11080:11237   */\n    tag_282:\n        /* \"#utility.yul\":11185:11230   */\n      tag_430\n        /* \"#utility.yul\":11205:11229   */\n      tag_431\n        /* \"#utility.yul\":11223:11228   */\n      dup3\n        /* \"#utility.yul\":11205:11229   */\n      tag_271\n      jump\t// in\n    tag_431:\n        /* \"#utility.yul\":11185:11230   */\n      tag_281\n      jump\t// in\n    tag_430:\n        /* \"#utility.yul\":11180:11183   */\n      dup3\n        /* \"#utility.yul\":11173:11231   */\n      mstore\n        /* \"#utility.yul\":11080:11237   */\n      pop\n      pop\n      jump\t// out\n        /* \"#utility.yul\":11243:11339   */\n    tag_283:\n        /* \"#utility.yul\":11277:11285   */\n      0x00\n        /* \"#utility.yul\":11326:11331   */\n      dup2\n        /* \"#utility.yul\":11321:11324   */\n      0xf0\n        /* \"#utility.yul\":11317:11332   */\n      shl\n        /* \"#utility.yul\":11296:11332   */\n      swap1\n      pop\n        /* \"#utility.yul\":11243:11339   */\n      swap2\n      swap1\n      pop\n      jump\t// out\n        /* \"#utility.yul\":11345:11439   */\n    tag_284:\n        /* \"#utility.yul\":11383:11390   */\n      0x00\n        /* \"#utility.yul\":11412:11433   */\n      tag_434\n        /* \"#utility.yul\":11427:11432   */\n      dup3\n        /* \"#utility.yul\":11412:11433   */\n      tag_283\n      jump\t// in\n    tag_434:\n        /* \"#utility.yul\":11401:11433   */\n      swap1\n      pop\n        /* \"#utility.yul\":11345:11439   */\n      swap2\n      swap1\n      pop\n      jump\t// out\n        /* \"#utility.yul\":11445:11598   */\n    tag_285:\n        /* \"#utility.yul\":11548:11591   */\n      tag_436\n        /* \"#utility.yul\":11567:11590   */\n      tag_437\n        /* \"#utility.yul\":11584:11589   */\n      dup3\n        /* \"#utility.yul\":11567:11590   */\n      tag_259\n      jump\t// in\n    tag_437:\n        /* \"#utility.yul\":11548:11591   */\n      tag_284\n      jump\t// in\n    tag_436:\n        /* \"#utility.yul\":11543:11546   */\n      dup3\n        /* \"#utility.yul\":11536:11592   */\n      mstore\n        /* \"#utility.yul\":11445:11598   */\n      pop\n      pop\n      jump\t// out\n        /* \"#utility.yul\":11604:11996   */\n    tag_95:\n        /* \"#utility.yul\":11742:11745   */\n      0x00\n        /* \"#utility.yul\":11757:11832   */\n      tag_439\n        /* \"#utility.yul\":11828:11831   */\n      dup3\n        /* \"#utility.yul\":11819:11825   */\n      dup6\n        /* \"#utility.yul\":11757:11832   */\n      tag_282\n      jump\t// in\n    tag_439:\n        /* \"#utility.yul\":11857:11859   */\n      0x20\n        /* \"#utility.yul\":11852:11855   */\n      dup3\n        /* \"#utility.yul\":11848:11860   */\n      add\n        /* \"#utility.yul\":11841:11860   */\n      swap2\n      pop\n        /* \"#utility.yul\":11870:11943   */\n      tag_440\n        /* \"#utility.yul\":11939:11942   */\n      dup3\n        /* \"#utility.yul\":11930:11936   */\n      dup5\n        /* \"#utility.yul\":11870:11943   */\n      tag_285\n      jump\t// in\n    tag_440:\n        /* \"#utility.yul\":11968:11969   */\n      0x02\n        /* \"#utility.yul\":11963:11966   */\n      dup3\n        /* \"#utility.yul\":11959:11970   */\n      add\n        /* \"#utility.yul\":11952:11970   */\n      swap2\n      pop\n        /* \"#utility.yul\":11987:11990   */\n      dup2\n        /* \"#utility.yul\":11980:11990   */\n      swap1\n      pop\n        /* \"#utility.yul\":11604:11996   */\n      swap4\n      swap3\n      pop\n      pop\n      pop\n      jump\t// out\n        /* \"#utility.yul\":12002:12183   */\n    tag_286:\n        /* \"#utility.yul\":12142:12175   */\n      0x5369676e657220646f65736e27742068617665205349474e455220726f6c6500\n        /* \"#utility.yul\":12138:12139   */\n      0x00\n        /* \"#utility.yul\":12130:12136   */\n      dup3\n        /* \"#utility.yul\":12126:12140   */\n      add\n        /* \"#utility.yul\":12119:12176   */\n      mstore\n        /* \"#utility.yul\":12002:12183   */\n      pop\n      jump\t// out\n        /* \"#utility.yul\":12189:12555   */\n    tag_287:\n        /* \"#utility.yul\":12331:12334   */\n      0x00\n        /* \"#utility.yul\":12352:12419   */\n      tag_443\n        /* \"#utility.yul\":12416:12418   */\n      0x1f\n        /* \"#utility.yul\":12411:12414   */\n      dup4\n        /* \"#utility.yul\":12352:12419   */\n      tag_276\n      jump\t// in\n    tag_443:\n        /* \"#utility.yul\":12345:12419   */\n      swap2\n      pop\n        /* \"#utility.yul\":12428:12521   */\n      tag_444\n        /* \"#utility.yul\":12517:12520   */\n      dup3\n        /* \"#utility.yul\":12428:12521   */\n      tag_286\n      jump\t// in\n    tag_444:\n        /* \"#utility.yul\":12546:12548   */\n      0x20\n        /* \"#utility.yul\":12541:12544   */\n      dup3\n        /* \"#utility.yul\":12537:12549   */\n      add\n        /* \"#utility.yul\":12530:12549   */\n      swap1\n      pop\n        /* \"#utility.yul\":12189:12555   */\n      swap2\n      swap1\n      pop\n      jump\t// out\n        /* \"#utility.yul\":12561:12980   */\n    tag_139:\n        /* \"#utility.yul\":12727:12731   */\n      0x00\n        /* \"#utility.yul\":12765:12767   */\n      0x20\n        /* \"#utility.yul\":12754:12763   */\n      dup3\n        /* \"#utility.yul\":12750:12768   */\n      add\n        /* \"#utility.yul\":12742:12768   */\n      swap1\n      pop\n        /* \"#utility.yul\":12814:12823   */\n      dup2\n        /* \"#utility.yul\":12808:12812   */\n      dup2\n        /* \"#utility.yul\":12804:12824   */\n      sub\n        /* \"#utility.yul\":12800:12801   */\n      0x00\n        /* \"#utility.yul\":12789:12798   */\n      dup4\n        /* \"#utility.yul\":12785:12802   */\n      add\n        /* \"#utility.yul\":12778:12825   */\n      mstore\n        /* \"#utility.yul\":12842:12973   */\n      tag_446\n        /* \"#utility.yul\":12968:12972   */\n      dup2\n        /* \"#utility.yul\":12842:12973   */\n      tag_287\n      jump\t// in\n    tag_446:\n        /* \"#utility.yul\":12834:12973   */\n      swap1\n      pop\n        /* \"#utility.yul\":12561:12980   */\n      swap2\n      swap1\n      pop\n      jump\t// out\n        /* \"#utility.yul\":12986:13134   */\n    tag_288:\n        /* \"#utility.yul\":13088:13099   */\n      0x00\n        /* \"#utility.yul\":13125:13128   */\n      dup2\n        /* \"#utility.yul\":13110:13128   */\n      swap1\n      pop\n        /* \"#utility.yul\":12986:13134   */\n      swap3\n      swap2\n      pop\n      pop\n      jump\t// out\n        /* \"#utility.yul\":13140:13313   */\n    tag_289:\n        /* \"#utility.yul\":13280:13305   */\n      0x416363657373436f6e74726f6c3a206163636f756e7420000000000000000000\n        /* \"#utility.yul\":13276:13277   */\n      0x00\n        /* \"#utility.yul\":13268:13274   */\n      dup3\n        /* \"#utility.yul\":13264:13278   */\n      add\n        /* \"#utility.yul\":13257:13306   */\n      mstore\n        /* \"#utility.yul\":13140:13313   */\n      pop\n      jump\t// out\n        /* \"#utility.yul\":13319:13721   */\n    tag_290:\n        /* \"#utility.yul\":13479:13482   */\n      0x00\n        /* \"#utility.yul\":13500:13585   */\n      tag_450\n        /* \"#utility.yul\":13582:13584   */\n      0x17\n        /* \"#utility.yul\":13577:13580   */\n      dup4\n        /* \"#utility.yul\":13500:13585   */\n      tag_288\n      jump\t// in\n    tag_450:\n        /* \"#utility.yul\":13493:13585   */\n      swap2\n      pop\n        /* \"#utility.yul\":13594:13687   */\n      tag_451\n        /* \"#utility.yul\":13683:13686   */\n      dup3\n        /* \"#utility.yul\":13594:13687   */\n      tag_289\n      jump\t// in\n    tag_451:\n        /* \"#utility.yul\":13712:13714   */\n      0x17\n        /* \"#utility.yul\":13707:13710   */\n      dup3\n        /* \"#utility.yul\":13703:13715   */\n      add\n        /* \"#utility.yul\":13696:13715   */\n      swap1\n      pop\n        /* \"#utility.yul\":13319:13721   */\n      swap2\n      swap1\n      pop\n      jump\t// out\n        /* \"#utility.yul\":13727:13826   */\n    tag_291:\n        /* \"#utility.yul\":13779:13785   */\n      0x00\n        /* \"#utility.yul\":13813:13818   */\n      dup2\n        /* \"#utility.yul\":13807:13819   */\n      mload\n        /* \"#utility.yul\":13797:13819   */\n      swap1\n      pop\n        /* \"#utility.yul\":13727:13826   */\n      swap2\n      swap1\n      pop\n      jump\t// out\n        /* \"#utility.yul\":13832:13971   */\n    tag_292:\n        /* \"#utility.yul\":13921:13927   */\n      dup3\n        /* \"#utility.yul\":13916:13919   */\n      dup2\n        /* \"#utility.yul\":13911:13914   */\n      dup4\n        /* \"#utility.yul\":13905:13928   */\n      mcopy\n        /* \"#utility.yul\":13962:13963   */\n      0x00\n        /* \"#utility.yul\":13953:13959   */\n      dup4\n        /* \"#utility.yul\":13948:13951   */\n      dup4\n        /* \"#utility.yul\":13944:13960   */\n      add\n        /* \"#utility.yul\":13937:13964   */\n      mstore\n        /* \"#utility.yul\":13832:13971   */\n      pop\n      pop\n      pop\n      jump\t// out\n        /* \"#utility.yul\":13977:14367   */\n    tag_293:\n        /* \"#utility.yul\":14083:14086   */\n      0x00\n        /* \"#utility.yul\":14111:14150   */\n      tag_455\n        /* \"#utility.yul\":14144:14149   */\n      dup3\n        /* \"#utility.yul\":14111:14150   */\n      tag_291\n      jump\t// in\n    tag_455:\n        /* \"#utility.yul\":14166:14255   */\n      tag_456\n        /* \"#utility.yul\":14248:14254   */\n      dup2\n        /* \"#utility.yul\":14243:14246   */\n      dup6\n        /* \"#utility.yul\":14166:14255   */\n      tag_288\n      jump\t// in\n    tag_456:\n        /* \"#utility.yul\":14159:14255   */\n      swap4\n      pop\n        /* \"#utility.yul\":14264:14329   */\n      tag_457\n        /* \"#utility.yul\":14322:14328   */\n      dup2\n        /* \"#utility.yul\":14317:14320   */\n      dup6\n        /* \"#utility.yul\":14310:14314   */\n      0x20\n        /* \"#utility.yul\":14303:14308   */\n      dup7\n        /* \"#utility.yul\":14299:14315   */\n      add\n        /* \"#utility.yul\":14264:14329   */\n      tag_292\n      jump\t// in\n    tag_457:\n        /* \"#utility.yul\":14354:14360   */\n      dup1\n        /* \"#utility.yul\":14349:14352   */\n      dup5\n        /* \"#utility.yul\":14345:14361   */\n      add\n        /* \"#utility.yul\":14338:14361   */\n      swap2\n      pop\n        /* \"#utility.yul\":14087:14367   */\n      pop\n        /* \"#utility.yul\":13977:14367   */\n      swap3\n      swap2\n      pop\n      pop\n      jump\t// out\n        /* \"#utility.yul\":14373:14540   */\n    tag_294:\n        /* \"#utility.yul\":14513:14532   */\n      0x206973206d697373696e6720726f6c6520000000000000000000000000000000\n        /* \"#utility.yul\":14509:14510   */\n      0x00\n        /* \"#utility.yul\":14501:14507   */\n      dup3\n        /* \"#utility.yul\":14497:14511   */\n      add\n        /* \"#utility.yul\":14490:14533   */\n      mstore\n        /* \"#utility.yul\":14373:14540   */\n      pop\n      jump\t// out\n        /* \"#utility.yul\":14546:14948   */\n    tag_295:\n        /* \"#utility.yul\":14706:14709   */\n      0x00\n        /* \"#utility.yul\":14727:14812   */\n      tag_460\n        /* \"#utility.yul\":14809:14811   */\n      0x11\n        /* \"#utility.yul\":14804:14807   */\n      dup4\n        /* \"#utility.yul\":14727:14812   */\n      tag_288\n      jump\t// in\n    tag_460:\n        /* \"#utility.yul\":14720:14812   */\n      swap2\n      pop\n        /* \"#utility.yul\":14821:14914   */\n      tag_461\n        /* \"#utility.yul\":14910:14913   */\n      dup3\n        /* \"#utility.yul\":14821:14914   */\n      tag_294\n      jump\t// in\n    tag_461:\n        /* \"#utility.yul\":14939:14941   */\n      0x11\n        /* \"#utility.yul\":14934:14937   */\n      dup3\n        /* \"#utility.yul\":14930:14942   */\n      add\n        /* \"#utility.yul\":14923:14942   */\n      swap1\n      pop\n        /* \"#utility.yul\":14546:14948   */\n      swap2\n      swap1\n      pop\n      jump\t// out\n        /* \"#utility.yul\":14954:15921   */\n    tag_155:\n        /* \"#utility.yul\":15336:15339   */\n      0x00\n        /* \"#utility.yul\":15358:15506   */\n      tag_463\n        /* \"#utility.yul\":15502:15505   */\n      dup3\n        /* \"#utility.yul\":15358:15506   */\n      tag_290\n      jump\t// in\n    tag_463:\n        /* \"#utility.yul\":15351:15506   */\n      swap2\n      pop\n        /* \"#utility.yul\":15523:15618   */\n      tag_464\n        /* \"#utility.yul\":15614:15617   */\n      dup3\n        /* \"#utility.yul\":15605:15611   */\n      dup6\n        /* \"#utility.yul\":15523:15618   */\n      tag_293\n      jump\t// in\n    tag_464:\n        /* \"#utility.yul\":15516:15618   */\n      swap2\n      pop\n        /* \"#utility.yul\":15635:15783   */\n      tag_465\n        /* \"#utility.yul\":15779:15782   */\n      dup3\n        /* \"#utility.yul\":15635:15783   */\n      tag_295\n      jump\t// in\n    tag_465:\n        /* \"#utility.yul\":15628:15783   */\n      swap2\n      pop\n        /* \"#utility.yul\":15800:15895   */\n      tag_466\n        /* \"#utility.yul\":15891:15894   */\n      dup3\n        /* \"#utility.yul\":15882:15888   */\n      dup5\n        /* \"#utility.yul\":15800:15895   */\n      tag_293\n      jump\t// in\n    tag_466:\n        /* \"#utility.yul\":15793:15895   */\n      swap2\n      pop\n        /* \"#utility.yul\":15912:15915   */\n      dup2\n        /* \"#utility.yul\":15905:15915   */\n      swap1\n      pop\n        /* \"#utility.yul\":14954:15921   */\n      swap4\n      swap3\n      pop\n      pop\n      pop\n      jump\t// out\n        /* \"#utility.yul\":15927:16304   */\n    tag_296:\n        /* \"#utility.yul\":16015:16018   */\n      0x00\n        /* \"#utility.yul\":16043:16082   */\n      tag_468\n        /* \"#utility.yul\":16076:16081   */\n      dup3\n        /* \"#utility.yul\":16043:16082   */\n      tag_291\n      jump\t// in\n    tag_468:\n        /* \"#utility.yul\":16098:16169   */\n      tag_469\n        /* \"#utility.yul\":16162:16168   */\n      dup2\n        /* \"#utility.yul\":16157:16160   */\n      dup6\n        /* \"#utility.yul\":16098:16169   */\n      tag_276\n      jump\t// in\n    tag_469:\n        /* \"#utility.yul\":16091:16169   */\n      swap4\n      pop\n        /* \"#utility.yul\":16178:16243   */\n      tag_470\n        /* \"#utility.yul\":16236:16242   */\n      dup2\n        /* \"#utility.yul\":16231:16234   */\n      dup6\n        /* \"#utility.yul\":16224:16228   */\n      0x20\n        /* \"#utility.yul\":16217:16222   */\n      dup7\n        /* \"#utility.yul\":16213:16229   */\n      add\n        /* \"#utility.yul\":16178:16243   */\n      tag_292\n      jump\t// in\n    tag_470:\n        /* \"#utility.yul\":16268:16297   */\n      tag_471\n        /* \"#utility.yul\":16290:16296   */\n      dup2\n        /* \"#utility.yul\":16268:16297   */\n      tag_264\n      jump\t// in\n    tag_471:\n        /* \"#utility.yul\":16263:16266   */\n      dup5\n        /* \"#utility.yul\":16259:16298   */\n      add\n        /* \"#utility.yul\":16252:16298   */\n      swap2\n      pop\n        /* \"#utility.yul\":16019:16304   */\n      pop\n        /* \"#utility.yul\":15927:16304   */\n      swap3\n      swap2\n      pop\n      pop\n      jump\t// out\n        /* \"#utility.yul\":16310:16623   */\n    tag_157:\n        /* \"#utility.yul\":16423:16427   */\n      0x00\n        /* \"#utility.yul\":16461:16463   */\n      0x20\n        /* \"#utility.yul\":16450:16459   */\n      dup3\n        /* \"#utility.yul\":16446:16464   */\n      add\n        /* \"#utility.yul\":16438:16464   */\n      swap1\n      pop\n        /* \"#utility.yul\":16510:16519   */\n      dup2\n        /* \"#utility.yul\":16504:16508   */\n      dup2\n        /* \"#utility.yul\":16500:16520   */\n      sub\n        /* \"#utility.yul\":16496:16497   */\n      0x00\n        /* \"#utility.yul\":16485:16494   */\n      dup4\n        /* \"#utility.yul\":16481:16498   */\n      add\n        /* \"#utility.yul\":16474:16521   */\n      mstore\n        /* \"#utility.yul\":16538:16616   */\n      tag_473\n        /* \"#utility.yul\":16611:16615   */\n      dup2\n        /* \"#utility.yul\":16602:16608   */\n      dup5\n        /* \"#utility.yul\":16538:16616   */\n      tag_296\n      jump\t// in\n    tag_473:\n        /* \"#utility.yul\":16530:16616   */\n      swap1\n      pop\n        /* \"#utility.yul\":16310:16623   */\n      swap3\n      swap2\n      pop\n      pop\n      jump\t// out\n        /* \"#utility.yul\":16629:16843   */\n    tag_297:\n        /* \"#utility.yul\":16769:16835   */\n      0x19457468657265756d205369676e6564204d6573736167653a0a333200000000\n        /* \"#utility.yul\":16765:16766   */\n      0x00\n        /* \"#utility.yul\":16757:16763   */\n      dup3\n        /* \"#utility.yul\":16753:16767   */\n      add\n        /* \"#utility.yul\":16746:16836   */\n      mstore\n        /* \"#utility.yul\":16629:16843   */\n      pop\n      jump\t// out\n        /* \"#utility.yul\":16849:17251   */\n    tag_298:\n        /* \"#utility.yul\":17009:17012   */\n      0x00\n        /* \"#utility.yul\":17030:17115   */\n      tag_476\n        /* \"#utility.yul\":17112:17114   */\n      0x1c\n        /* \"#utility.yul\":17107:17110   */\n      dup4\n        /* \"#utility.yul\":17030:17115   */\n      tag_288\n      jump\t// in\n    tag_476:\n        /* \"#utility.yul\":17023:17115   */\n      swap2\n      pop\n        /* \"#utility.yul\":17124:17217   */\n      tag_477\n        /* \"#utility.yul\":17213:17216   */\n      dup3\n        /* \"#utility.yul\":17124:17217   */\n      tag_297\n      jump\t// in\n    tag_477:\n        /* \"#utility.yul\":17242:17244   */\n      0x1c\n        /* \"#utility.yul\":17237:17240   */\n      dup3\n        /* \"#utility.yul\":17233:17245   */\n      add\n        /* \"#utility.yul\":17226:17245   */\n      swap1\n      pop\n        /* \"#utility.yul\":16849:17251   */\n      swap2\n      swap1\n      pop\n      jump\t// out\n        /* \"#utility.yul\":17257:17336   */\n    tag_299:\n        /* \"#utility.yul\":17296:17303   */\n      0x00\n        /* \"#utility.yul\":17325:17330   */\n      dup2\n        /* \"#utility.yul\":17314:17330   */\n      swap1\n      pop\n        /* \"#utility.yul\":17257:17336   */\n      swap2\n      swap1\n      pop\n      jump\t// out\n        /* \"#utility.yul\":17342:17499   */\n    tag_300:\n        /* \"#utility.yul\":17447:17492   */\n      tag_480\n        /* \"#utility.yul\":17467:17491   */\n      tag_481\n        /* \"#utility.yul\":17485:17490   */\n      dup3\n        /* \"#utility.yul\":17467:17491   */\n      tag_251\n      jump\t// in\n    tag_481:\n        /* \"#utility.yul\":17447:17492   */\n      tag_299\n      jump\t// in\n    tag_480:\n        /* \"#utility.yul\":17442:17445   */\n      dup3\n        /* \"#utility.yul\":17435:17493   */\n      mstore\n        /* \"#utility.yul\":17342:17499   */\n      pop\n      pop\n      jump\t// out\n        /* \"#utility.yul\":17505:18027   */\n    tag_174:\n        /* \"#utility.yul\":17718:17721   */\n      0x00\n        /* \"#utility.yul\":17740:17888   */\n      tag_483\n        /* \"#utility.yul\":17884:17887   */\n      dup3\n        /* \"#utility.yul\":17740:17888   */\n      tag_298\n      jump\t// in\n    tag_483:\n        /* \"#utility.yul\":17733:17888   */\n      swap2\n      pop\n        /* \"#utility.yul\":17898:17973   */\n      tag_484\n        /* \"#utility.yul\":17969:17972   */\n      dup3\n        /* \"#utility.yul\":17960:17966   */\n      dup5\n        /* \"#utility.yul\":17898:17973   */\n      tag_300\n      jump\t// in\n    tag_484:\n        /* \"#utility.yul\":17998:18000   */\n      0x20\n        /* \"#utility.yul\":17993:17996   */\n      dup3\n        /* \"#utility.yul\":17989:18001   */\n      add\n        /* \"#utility.yul\":17982:18001   */\n      swap2\n      pop\n        /* \"#utility.yul\":18018:18021   */\n      dup2\n        /* \"#utility.yul\":18011:18021   */\n      swap1\n      pop\n        /* \"#utility.yul\":17505:18027   */\n      swap3\n      swap2\n      pop\n      pop\n      jump\t// out\n        /* \"#utility.yul\":18033:18119   */\n    tag_301:\n        /* \"#utility.yul\":18068:18075   */\n      0x00\n        /* \"#utility.yul\":18108:18112   */\n      0xff\n        /* \"#utility.yul\":18101:18106   */\n      dup3\n        /* \"#utility.yul\":18097:18113   */\n      and\n        /* \"#utility.yul\":18086:18113   */\n      swap1\n      pop\n        /* \"#utility.yul\":18033:18119   */\n      swap2\n      swap1\n      pop\n      jump\t// out\n        /* \"#utility.yul\":18125:18237   */\n    tag_302:\n        /* \"#utility.yul\":18208:18230   */\n      tag_487\n        /* \"#utility.yul\":18224:18229   */\n      dup2\n        /* \"#utility.yul\":18208:18230   */\n      tag_301\n      jump\t// in\n    tag_487:\n        /* \"#utility.yul\":18203:18206   */\n      dup3\n        /* \"#utility.yul\":18196:18231   */\n      mstore\n        /* \"#utility.yul\":18125:18237   */\n      pop\n      pop\n      jump\t// out\n        /* \"#utility.yul\":18243:18788   */\n    tag_179:\n        /* \"#utility.yul\":18416:18420   */\n      0x00\n        /* \"#utility.yul\":18454:18457   */\n      0x80\n        /* \"#utility.yul\":18443:18452   */\n      dup3\n        /* \"#utility.yul\":18439:18458   */\n      add\n        /* \"#utility.yul\":18431:18458   */\n      swap1\n      pop\n        /* \"#utility.yul\":18468:18539   */\n      tag_489\n        /* \"#utility.yul\":18536:18537   */\n      0x00\n        /* \"#utility.yul\":18525:18534   */\n      dup4\n        /* \"#utility.yul\":18521:18538   */\n      add\n        /* \"#utility.yul\":18512:18518   */\n      dup8\n        /* \"#utility.yul\":18468:18539   */\n      tag_254\n      jump\t// in\n    tag_489:\n        /* \"#utility.yul\":18549:18617   */\n      tag_490\n        /* \"#utility.yul\":18613:18615   */\n      0x20\n        /* \"#utility.yul\":18602:18611   */\n      dup4\n        /* \"#utility.yul\":18598:18616   */\n      add\n        /* \"#utility.yul\":18589:18595   */\n      dup7\n        /* \"#utility.yul\":18549:18617   */\n      tag_302\n      jump\t// in\n    tag_490:\n        /* \"#utility.yul\":18627:18699   */\n      tag_491\n        /* \"#utility.yul\":18695:18697   */\n      0x40\n        /* \"#utility.yul\":18684:18693   */\n      dup4\n        /* \"#utility.yul\":18680:18698   */\n      add\n        /* \"#utility.yul\":18671:18677   */\n      dup6\n        /* \"#utility.yul\":18627:18699   */\n      tag_254\n      jump\t// in\n    tag_491:\n        /* \"#utility.yul\":18709:18781   */\n      tag_492\n        /* \"#utility.yul\":18777:18779   */\n      0x60\n        /* \"#utility.yul\":18766:18775   */\n      dup4\n        /* \"#utility.yul\":18762:18780   */\n      add\n        /* \"#utility.yul\":18753:18759   */\n      dup5\n        /* \"#utility.yul\":18709:18781   */\n      tag_254\n      jump\t// in\n    tag_492:\n        /* \"#utility.yul\":18243:18788   */\n      swap6\n      swap5\n      pop\n      pop\n      pop\n      pop\n      pop\n      jump\t// out\n        /* \"#utility.yul\":18794:18974   */\n    tag_185:\n        /* \"#utility.yul\":18842:18919   */\n      0x4e487b7100000000000000000000000000000000000000000000000000000000\n        /* \"#utility.yul\":18839:18840   */\n      0x00\n        /* \"#utility.yul\":18832:18920   */\n      mstore\n        /* \"#utility.yul\":18939:18943   */\n      0x32\n        /* \"#utility.yul\":18936:18937   */\n      0x04\n        /* \"#utility.yul\":18929:18944   */\n      mstore\n        /* \"#utility.yul\":18963:18967   */\n      0x24\n        /* \"#utility.yul\":18960:18961   */\n      0x00\n        /* \"#utility.yul\":18953:18968   */\n      revert\n        /* \"#utility.yul\":18980:19160   */\n    tag_303:\n        /* \"#utility.yul\":19028:19105   */\n      0x4e487b7100000000000000000000000000000000000000000000000000000000\n        /* \"#utility.yul\":19025:19026   */\n      0x00\n        /* \"#utility.yul\":19018:19106   */\n      mstore\n        /* \"#utility.yul\":19125:19129   */\n      0x11\n        /* \"#utility.yul\":19122:19123   */\n      0x04\n        /* \"#utility.yul\":19115:19130   */\n      mstore\n        /* \"#utility.yul\":19149:19153   */\n      0x24\n        /* \"#utility.yul\":19146:19147   */\n      0x00\n        /* \"#utility.yul\":19139:19154   */\n      revert\n        /* \"#utility.yul\":19166:19576   */\n    tag_192:\n        /* \"#utility.yul\":19206:19213   */\n      0x00\n        /* \"#utility.yul\":19229:19249   */\n      tag_496\n        /* \"#utility.yul\":19247:19248   */\n      dup3\n        /* \"#utility.yul\":19229:19249   */\n      tag_271\n      jump\t// in\n    tag_496:\n        /* \"#utility.yul\":19224:19249   */\n      swap2\n      pop\n        /* \"#utility.yul\":19263:19283   */\n      tag_497\n        /* \"#utility.yul\":19281:19282   */\n      dup4\n        /* \"#utility.yul\":19263:19283   */\n      tag_271\n      jump\t// in\n    tag_497:\n        /* \"#utility.yul\":19258:19283   */\n      swap3\n      pop\n        /* \"#utility.yul\":19318:19319   */\n      dup3\n        /* \"#utility.yul\":19315:19316   */\n      dup3\n        /* \"#utility.yul\":19311:19320   */\n      mul\n        /* \"#utility.yul\":19340:19370   */\n      tag_498\n        /* \"#utility.yul\":19358:19369   */\n      dup2\n        /* \"#utility.yul\":19340:19370   */\n      tag_271\n      jump\t// in\n    tag_498:\n        /* \"#utility.yul\":19329:19370   */\n      swap2\n      pop\n        /* \"#utility.yul\":19519:19520   */\n      dup3\n        /* \"#utility.yul\":19510:19517   */\n      dup3\n        /* \"#utility.yul\":19506:19521   */\n      div\n        /* \"#utility.yul\":19503:19504   */\n      dup5\n        /* \"#utility.yul\":19500:19522   */\n      eq\n        /* \"#utility.yul\":19480:19481   */\n      dup4\n        /* \"#utility.yul\":19473:19482   */\n      iszero\n        /* \"#utility.yul\":19453:19536   */\n      or\n        /* \"#utility.yul\":19430:19569   */\n      tag_499\n      jumpi\n        /* \"#utility.yul\":19549:19567   */\n      tag_500\n      tag_303\n      jump\t// in\n    tag_500:\n        /* \"#utility.yul\":19430:19569   */\n    tag_499:\n        /* \"#utility.yul\":19214:19576   */\n      pop\n        /* \"#utility.yul\":19166:19576   */\n      swap3\n      swap2\n      pop\n      pop\n      jump\t// out\n        /* \"#utility.yul\":19582:19773   */\n    tag_194:\n        /* \"#utility.yul\":19622:19625   */\n      0x00\n        /* \"#utility.yul\":19641:19661   */\n      tag_502\n        /* \"#utility.yul\":19659:19660   */\n      dup3\n        /* \"#utility.yul\":19641:19661   */\n      tag_271\n      jump\t// in\n    tag_502:\n        /* \"#utility.yul\":19636:19661   */\n      swap2\n      pop\n        /* \"#utility.yul\":19675:19695   */\n      tag_503\n        /* \"#utility.yul\":19693:19694   */\n      dup4\n        /* \"#utility.yul\":19675:19695   */\n      tag_271\n      jump\t// in\n    tag_503:\n        /* \"#utility.yul\":19670:19695   */\n      swap3\n      pop\n        /* \"#utility.yul\":19718:19719   */\n      dup3\n        /* \"#utility.yul\":19715:19716   */\n      dup3\n        /* \"#utility.yul\":19711:19720   */\n      add\n        /* \"#utility.yul\":19704:19720   */\n      swap1\n      pop\n        /* \"#utility.yul\":19739:19742   */\n      dup1\n        /* \"#utility.yul\":19736:19737   */\n      dup3\n        /* \"#utility.yul\":19733:19743   */\n      gt\n        /* \"#utility.yul\":19730:19766   */\n      iszero\n      tag_504\n      jumpi\n        /* \"#utility.yul\":19746:19764   */\n      tag_505\n      tag_303\n      jump\t// in\n    tag_505:\n        /* \"#utility.yul\":19730:19766   */\n    tag_504:\n        /* \"#utility.yul\":19582:19773   */\n      swap3\n      swap2\n      pop\n      pop\n      jump\t// out\n        /* \"#utility.yul\":19779:19950   */\n    tag_213:\n        /* \"#utility.yul\":19818:19821   */\n      0x00\n        /* \"#utility.yul\":19841:19865   */\n      tag_507\n        /* \"#utility.yul\":19859:19864   */\n      dup3\n        /* \"#utility.yul\":19841:19865   */\n      tag_271\n      jump\t// in\n    tag_507:\n        /* \"#utility.yul\":19832:19865   */\n      swap2\n      pop\n        /* \"#utility.yul\":19887:19891   */\n      0x00\n        /* \"#utility.yul\":19880:19885   */\n      dup3\n        /* \"#utility.yul\":19877:19892   */\n      sub\n        /* \"#utility.yul\":19874:19915   */\n      tag_508\n      jumpi\n        /* \"#utility.yul\":19895:19913   */\n      tag_509\n      tag_303\n      jump\t// in\n    tag_509:\n        /* \"#utility.yul\":19874:19915   */\n    tag_508:\n        /* \"#utility.yul\":19942:19943   */\n      0x01\n        /* \"#utility.yul\":19935:19940   */\n      dup3\n        /* \"#utility.yul\":19931:19944   */\n      sub\n        /* \"#utility.yul\":19924:19944   */\n      swap1\n      pop\n        /* \"#utility.yul\":19779:19950   */\n      swap2\n      swap1\n      pop\n      jump\t// out\n        /* \"#utility.yul\":19956:20138   */\n    tag_304:\n        /* \"#utility.yul\":20096:20130   */\n      0x537472696e67733a20686578206c656e67746820696e73756666696369656e74\n        /* \"#utility.yul\":20092:20093   */\n      0x00\n        /* \"#utility.yul\":20084:20090   */\n      dup3\n        /* \"#utility.yul\":20080:20094   */\n      add\n        /* \"#utility.yul\":20073:20131   */\n      mstore\n        /* \"#utility.yul\":19956:20138   */\n      pop\n      jump\t// out\n        /* \"#utility.yul\":20144:20510   */\n    tag_305:\n        /* \"#utility.yul\":20286:20289   */\n      0x00\n        /* \"#utility.yul\":20307:20374   */\n      tag_512\n        /* \"#utility.yul\":20371:20373   */\n      0x20\n        /* \"#utility.yul\":20366:20369   */\n      dup4\n        /* \"#utility.yul\":20307:20374   */\n      tag_276\n      jump\t// in\n    tag_512:\n        /* \"#utility.yul\":20300:20374   */\n      swap2\n      pop\n        /* \"#utility.yul\":20383:20476   */\n      tag_513\n        /* \"#utility.yul\":20472:20475   */\n      dup3\n        /* \"#utility.yul\":20383:20476   */\n      tag_304\n      jump\t// in\n    tag_513:\n        /* \"#utility.yul\":20501:20503   */\n      0x20\n        /* \"#utility.yul\":20496:20499   */\n      dup3\n        /* \"#utility.yul\":20492:20504   */\n      add\n        /* \"#utility.yul\":20485:20504   */\n      swap1\n      pop\n        /* \"#utility.yul\":20144:20510   */\n      swap2\n      swap1\n      pop\n      jump\t// out\n        /* \"#utility.yul\":20516:20935   */\n    tag_216:\n        /* \"#utility.yul\":20682:20686   */\n      0x00\n        /* \"#utility.yul\":20720:20722   */\n      0x20\n        /* \"#utility.yul\":20709:20718   */\n      dup3\n        /* \"#utility.yul\":20705:20723   */\n      add\n        /* \"#utility.yul\":20697:20723   */\n      swap1\n      pop\n        /* \"#utility.yul\":20769:20778   */\n      dup2\n        /* \"#utility.yul\":20763:20767   */\n      dup2\n        /* \"#utility.yul\":20759:20779   */\n      sub\n        /* \"#utility.yul\":20755:20756   */\n      0x00\n        /* \"#utility.yul\":20744:20753   */\n      dup4\n        /* \"#utility.yul\":20740:20757   */\n      add\n        /* \"#utility.yul\":20733:20780   */\n      mstore\n        /* \"#utility.yul\":20797:20928   */\n      tag_515\n        /* \"#utility.yul\":20923:20927   */\n      dup2\n        /* \"#utility.yul\":20797:20928   */\n      tag_305\n      jump\t// in\n    tag_515:\n        /* \"#utility.yul\":20789:20928   */\n      swap1\n      pop\n        /* \"#utility.yul\":20516:20935   */\n      swap2\n      swap1\n      pop\n      jump\t// out\n        /* \"#utility.yul\":20941:21135   */\n    tag_226:\n        /* \"#utility.yul\":20981:20985   */\n      0x00\n        /* \"#utility.yul\":21001:21021   */\n      tag_517\n        /* \"#utility.yul\":21019:21020   */\n      dup3\n        /* \"#utility.yul\":21001:21021   */\n      tag_271\n      jump\t// in\n    tag_517:\n        /* \"#utility.yul\":20996:21021   */\n      swap2\n      pop\n        /* \"#utility.yul\":21035:21055   */\n      tag_518\n        /* \"#utility.yul\":21053:21054   */\n      dup4\n        /* \"#utility.yul\":21035:21055   */\n      tag_271\n      jump\t// in\n    tag_518:\n        /* \"#utility.yul\":21030:21055   */\n      swap3\n      pop\n        /* \"#utility.yul\":21079:21080   */\n      dup3\n        /* \"#utility.yul\":21076:21077   */\n      dup3\n        /* \"#utility.yul\":21072:21081   */\n      sub\n        /* \"#utility.yul\":21064:21081   */\n      swap1\n      pop\n        /* \"#utility.yul\":21103:21104   */\n      dup2\n        /* \"#utility.yul\":21097:21101   */\n      dup2\n        /* \"#utility.yul\":21094:21105   */\n      gt\n        /* \"#utility.yul\":21091:21128   */\n      iszero\n      tag_519\n      jumpi\n        /* \"#utility.yul\":21108:21126   */\n      tag_520\n      tag_303\n      jump\t// in\n    tag_520:\n        /* \"#utility.yul\":21091:21128   */\n    tag_519:\n        /* \"#utility.yul\":20941:21135   */\n      swap3\n      swap2\n      pop\n      pop\n      jump\t// out\n        /* \"#utility.yul\":21141:21321   */\n    tag_237:\n        /* \"#utility.yul\":21189:21266   */\n      0x4e487b7100000000000000000000000000000000000000000000000000000000\n        /* \"#utility.yul\":21186:21187   */\n      0x00\n        /* \"#utility.yul\":21179:21267   */\n      mstore\n        /* \"#utility.yul\":21286:21290   */\n      0x31\n        /* \"#utility.yul\":21283:21284   */\n      0x04\n        /* \"#utility.yul\":21276:21291   */\n      mstore\n        /* \"#utility.yul\":21310:21314   */\n      0x24\n        /* \"#utility.yul\":21307:21308   */\n      0x00\n        /* \"#utility.yul\":21300:21315   */\n      revert\n\n    auxdata: 0xa2646970667358221220c9b2118054a5923c7c25ff011033928f41d0dc0e40e37ddacb380c86f9b0dac864736f6c634300081a0033\n}\n",
				"bytecode": {
					"linkReferences": {},
					"object": "6080604052348015600e575f80fd5b50611ac48061001c5f395ff3fe608060405234801561000f575f80fd5b50600436106100b2575f3560e01c806391d148541161006f57806391d148541461019a578063a1ebf35d146101ca578063a217fddf146101e8578063ca15c87314610206578063d547741f14610236578063d936547e14610252576100b2565b806301ffc9a7146100b6578063248a9ca3146100e65780632f2ff15d1461011657806336568abe14610132578063560d29011461014e5780639010d07c1461016a575b5f80fd5b6100d060048036038101906100cb9190611039565b610282565b6040516100dd919061107e565b60405180910390f35b61010060048036038101906100fb91906110ca565b6102fb565b60405161010d9190611104565b60405180910390f35b610130600480360381019061012b9190611177565b610317565b005b61014c60048036038101906101479190611177565b610338565b005b61016860048036038101906101639190611328565b6103bb565b005b610184600480360381019061017f91906113c7565b610515565b6040516101919190611414565b60405180910390f35b6101b460048036038101906101af9190611177565b610541565b6040516101c1919061107e565b60405180910390f35b6101d26105a4565b6040516101df9190611104565b60405180910390f35b6101f06105c8565b6040516101fd9190611104565b60405180910390f35b610220600480360381019061021b91906110ca565b6105ce565b60405161022d919061143c565b60405180910390f35b610250600480360381019061024b9190611177565b6105ef565b005b61026c60048036038101906102679190611455565b610610565b604051610279919061107e565b60405180910390f35b5f7f5a05180f000000000000000000000000000000000000000000000000000000007bffffffffffffffffffffffffffffffffffffffffffffffffffffffff1916827bffffffffffffffffffffffffffffffffffffffffffffffffffffffff191614806102f457506102f38261062d565b5b9050919050565b5f805f8381526020019081526020015f20600101549050919050565b610320826102fb565b610329816106a6565b61033383836106ba565b505050565b6103406106ec565b73ffffffffffffffffffffffffffffffffffffffff168173ffffffffffffffffffffffffffffffffffffffff16146103ad576040517f08c379a00000000000000000000000000000000000000000000000000000000081526004016103a490611500565b60405180910390fd5b6103b782826106f3565b5050565b60025f8473ffffffffffffffffffffffffffffffffffffffff1673ffffffffffffffffffffffffffffffffffffffff1681526020019081526020015f205f9054906101000a900460ff1615610445576040517f08c379a000000000000000000000000000000000000000000000000000000000815260040161043c90611568565b60405180910390fd5b5f61044f84610725565b836040516020016104619291906115da565b6040516020818303038152906040528051906020012090506104838183610744565b600160025f8673ffffffffffffffffffffffffffffffffffffffff1673ffffffffffffffffffffffffffffffffffffffff1681526020019081526020015f205f6101000a81548160ff0219169083151502179055507feb73900b98b6a3e2b8b01708fe544760cf570d21e7fbe5225f24e48b5b2b432e846040516105079190611414565b60405180910390a150505050565b5f6105398260015f8681526020019081526020015f206107cc90919063ffffffff16565b905092915050565b5f805f8481526020019081526020015f205f015f8373ffffffffffffffffffffffffffffffffffffffff1673ffffffffffffffffffffffffffffffffffffffff1681526020019081526020015f205f9054906101000a900460ff16905092915050565b7fe2f4eaae4a9751e85a3e4a7b9587827a877f29914755229b07a7b2da98285f7081565b5f801b81565b5f6105e860015f8481526020019081526020015f206107e3565b9050919050565b6105f8826102fb565b610601816106a6565b61060b83836106f3565b505050565b6002602052805f5260405f205f915054906101000a900460ff1681565b5f7f7965db0b000000000000000000000000000000000000000000000000000000007bffffffffffffffffffffffffffffffffffffffffffffffffffffffff1916827bffffffffffffffffffffffffffffffffffffffffffffffffffffffff1916148061069f575061069e826107f6565b5b9050919050565b6106b7816106b26106ec565b61085f565b50565b6106c482826108e3565b6106e78160015f8581526020019081526020015f206109bd90919063ffffffff16565b505050565b5f33905090565b6106fd82826109ea565b6107208160015f8581526020019081526020015f20610ac490919063ffffffff16565b505050565b5f8173ffffffffffffffffffffffffffffffffffffffff169050919050565b5f61074e83610af1565b90505f61075b8284610b20565b90506107877fe2f4eaae4a9751e85a3e4a7b9587827a877f29914755229b07a7b2da98285f7082610541565b6107c6576040517f08c379a00000000000000000000000000000000000000000000000000000000081526004016107bd9061164f565b60405180910390fd5b50505050565b5f6107d9835f0183610b8a565b5f1c905092915050565b5f6107ef825f01610bb1565b9050919050565b5f7f01ffc9a7000000000000000000000000000000000000000000000000000000007bffffffffffffffffffffffffffffffffffffffffffffffffffffffff1916827bffffffffffffffffffffffffffffffffffffffffffffffffffffffff1916149050919050565b6108698282610541565b6108df5761087681610bc0565b610883835f1c6020610bed565b604051602001610894929190611753565b6040516020818303038152906040526040517f08c379a00000000000000000000000000000000000000000000000000000000081526004016108d691906117c4565b60405180910390fd5b5050565b6108ed8282610541565b6109b95760015f808481526020019081526020015f205f015f8373ffffffffffffffffffffffffffffffffffffffff1673ffffffffffffffffffffffffffffffffffffffff1681526020019081526020015f205f6101000a81548160ff02191690831515021790555061095e6106ec565b73ffffffffffffffffffffffffffffffffffffffff168173ffffffffffffffffffffffffffffffffffffffff16837f2f8788117e7eff1d82e926ec794901d17c78024a50270940304540a733656f0d60405160405180910390a45b5050565b5f6109e2835f018373ffffffffffffffffffffffffffffffffffffffff165f1b610e22565b905092915050565b6109f48282610541565b15610ac0575f805f8481526020019081526020015f205f015f8373ffffffffffffffffffffffffffffffffffffffff1673ffffffffffffffffffffffffffffffffffffffff1681526020019081526020015f205f6101000a81548160ff021916908315150217905550610a656106ec565b73ffffffffffffffffffffffffffffffffffffffff168173ffffffffffffffffffffffffffffffffffffffff16837ff6391f5c32d9c69d2a47ea670b442974b53935d1edc7fd64eb21e047a839171b60405160405180910390a45b5050565b5f610ae9835f018373ffffffffffffffffffffffffffffffffffffffff165f1b610e89565b905092915050565b5f81604051602001610b03919061184e565b604051602081830303815290604052805190602001209050919050565b5f805f80610b2d85610f85565b9250925092506001868484846040515f8152602001604052604051610b55949392919061188e565b6020604051602081039080840390855afa158015610b75573d5f803e3d5ffd5b50505060206040510351935050505092915050565b5f825f018281548110610ba057610b9f6118d1565b5b905f5260205f200154905092915050565b5f815f01805490509050919050565b6060610be68273ffffffffffffffffffffffffffffffffffffffff16601460ff16610bed565b9050919050565b60605f6002836002610bff919061192b565b610c09919061196c565b67ffffffffffffffff811115610c2257610c21611204565b5b6040519080825280601f01601f191660200182016040528015610c545781602001600182028036833780820191505090505b5090507f3000000000000000000000000000000000000000000000000000000000000000815f81518110610c8b57610c8a6118d1565b5b60200101907effffffffffffffffffffffffffffffffffffffffffffffffffffffffffffff191690815f1a9053507f780000000000000000000000000000000000000000000000000000000000000081600181518110610cee57610ced6118d1565b5b60200101907effffffffffffffffffffffffffffffffffffffffffffffffffffffffffffff191690815f1a9053505f6001846002610d2c919061192b565b610d36919061196c565b90505b6001811115610dd5577f3031323334353637383961626364656600000000000000000000000000000000600f861660108110610d7857610d776118d1565b5b1a60f81b828281518110610d8f57610d8e6118d1565b5b60200101907effffffffffffffffffffffffffffffffffffffffffffffffffffffffffffff191690815f1a905350600485901c945080610dce9061199f565b9050610d39565b505f8414610e18576040517f08c379a0000000000000000000000000000000000000000000000000000000008152600401610e0f90611a10565b60405180910390fd5b8091505092915050565b5f610e2d8383610fb3565b610e7f57825f0182908060018154018082558091505060019003905f5260205f20015f9091909190915055825f0180549050836001015f8481526020019081526020015f208190555060019050610e83565b5f90505b92915050565b5f80836001015f8481526020019081526020015f205490505f8114610f7a575f600182610eb69190611a2e565b90505f6001865f0180549050610ecc9190611a2e565b9050818114610f32575f865f018281548110610eeb57610eea6118d1565b5b905f5260205f200154905080875f018481548110610f0c57610f0b6118d1565b5b905f5260205f20018190555083876001015f8381526020019081526020015f2081905550505b855f01805480610f4557610f44611a61565b5b600190038181905f5260205f20015f90559055856001015f8681526020019081526020015f205f905560019350505050610f7f565b5f9150505b92915050565b5f805f6041845114610f95575f80fd5b602084015191506040840151905060608401515f1a92509193909250565b5f80836001015f8481526020019081526020015f20541415905092915050565b5f604051905090565b5f80fd5b5f80fd5b5f7fffffffff0000000000000000000000000000000000000000000000000000000082169050919050565b61101881610fe4565b8114611022575f80fd5b50565b5f813590506110338161100f565b92915050565b5f6020828403121561104e5761104d610fdc565b5b5f61105b84828501611025565b91505092915050565b5f8115159050919050565b61107881611064565b82525050565b5f6020820190506110915f83018461106f565b92915050565b5f819050919050565b6110a981611097565b81146110b3575f80fd5b50565b5f813590506110c4816110a0565b92915050565b5f602082840312156110df576110de610fdc565b5b5f6110ec848285016110b6565b91505092915050565b6110fe81611097565b82525050565b5f6020820190506111175f8301846110f5565b92915050565b5f73ffffffffffffffffffffffffffffffffffffffff82169050919050565b5f6111468261111d565b9050919050565b6111568161113c565b8114611160575f80fd5b50565b5f813590506111718161114d565b92915050565b5f806040838503121561118d5761118c610fdc565b5b5f61119a858286016110b6565b92505060206111ab85828601611163565b9150509250929050565b5f61ffff82169050919050565b6111cb816111b5565b81146111d5575f80fd5b50565b5f813590506111e6816111c2565b92915050565b5f80fd5b5f80fd5b5f601f19601f8301169050919050565b7f4e487b71000000000000000000000000000000000000000000000000000000005f52604160045260245ffd5b61123a826111f4565b810181811067ffffffffffffffff8211171561125957611258611204565b5b80604052505050565b5f61126b610fd3565b90506112778282611231565b919050565b5f67ffffffffffffffff82111561129657611295611204565b5b61129f826111f4565b9050602081019050919050565b828183375f83830152505050565b5f6112cc6112c78461127c565b611262565b9050828152602081018484840111156112e8576112e76111f0565b5b6112f38482856112ac565b509392505050565b5f82601f83011261130f5761130e6111ec565b5b813561131f8482602086016112ba565b91505092915050565b5f805f6060848603121561133f5761133e610fdc565b5b5f61134c86828701611163565b935050602061135d868287016111d8565b925050604084013567ffffffffffffffff81111561137e5761137d610fe0565b5b61138a868287016112fb565b9150509250925092565b5f819050919050565b6113a681611394565b81146113b0575f80fd5b50565b5f813590506113c18161139d565b92915050565b5f80604083850312156113dd576113dc610fdc565b5b5f6113ea858286016110b6565b92505060206113fb858286016113b3565b9150509250929050565b61140e8161113c565b82525050565b5f6020820190506114275f830184611405565b92915050565b61143681611394565b82525050565b5f60208201905061144f5f83018461142d565b92915050565b5f6020828403121561146a57611469610fdc565b5b5f61147784828501611163565b91505092915050565b5f82825260208201905092915050565b7f416363657373436f6e74726f6c3a2063616e206f6e6c792072656e6f756e63655f8201527f20726f6c657320666f722073656c660000000000000000000000000000000000602082015250565b5f6114ea602f83611480565b91506114f582611490565b604082019050919050565b5f6020820190508181035f830152611517816114de565b9050919050565b7f4163636f756e7420616c72656164792077686974656c697374656400000000005f82015250565b5f611552601b83611480565b915061155d8261151e565b602082019050919050565b5f6020820190508181035f83015261157f81611546565b9050919050565b5f819050919050565b6115a061159b82611394565b611586565b82525050565b5f8160f01b9050919050565b5f6115bc826115a6565b9050919050565b6115d46115cf826111b5565b6115b2565b82525050565b5f6115e5828561158f565b6020820191506115f582846115c3565b6002820191508190509392505050565b7f5369676e657220646f65736e27742068617665205349474e455220726f6c65005f82015250565b5f611639601f83611480565b915061164482611605565b602082019050919050565b5f6020820190508181035f8301526116668161162d565b9050919050565b5f81905092915050565b7f416363657373436f6e74726f6c3a206163636f756e74200000000000000000005f82015250565b5f6116ab60178361166d565b91506116b682611677565b601782019050919050565b5f81519050919050565b8281835e5f83830152505050565b5f6116e3826116c1565b6116ed818561166d565b93506116fd8185602086016116cb565b80840191505092915050565b7f206973206d697373696e6720726f6c65200000000000000000000000000000005f82015250565b5f61173d60118361166d565b915061174882611709565b601182019050919050565b5f61175d8261169f565b915061176982856116d9565b915061177482611731565b915061178082846116d9565b91508190509392505050565b5f611796826116c1565b6117a08185611480565b93506117b08185602086016116cb565b6117b9816111f4565b840191505092915050565b5f6020820190508181035f8301526117dc818461178c565b905092915050565b7f19457468657265756d205369676e6564204d6573736167653a0a3332000000005f82015250565b5f611818601c8361166d565b9150611823826117e4565b601c82019050919050565b5f819050919050565b61184861184382611097565b61182e565b82525050565b5f6118588261180c565b91506118648284611837565b60208201915081905092915050565b5f60ff82169050919050565b61188881611873565b82525050565b5f6080820190506118a15f8301876110f5565b6118ae602083018661187f565b6118bb60408301856110f5565b6118c860608301846110f5565b95945050505050565b7f4e487b71000000000000000000000000000000000000000000000000000000005f52603260045260245ffd5b7f4e487b71000000000000000000000000000000000000000000000000000000005f52601160045260245ffd5b5f61193582611394565b915061194083611394565b925082820261194e81611394565b91508282048414831517611965576119646118fe565b5b5092915050565b5f61197682611394565b915061198183611394565b9250828201905080821115611999576119986118fe565b5b92915050565b5f6119a982611394565b91505f82036119bb576119ba6118fe565b5b600182039050919050565b7f537472696e67733a20686578206c656e67746820696e73756666696369656e745f82015250565b5f6119fa602083611480565b9150611a05826119c6565b602082019050919050565b5f6020820190508181035f830152611a27816119ee565b9050919050565b5f611a3882611394565b9150611a4383611394565b9250828203905081811115611a5b57611a5a6118fe565b5b92915050565b7f4e487b71000000000000000000000000000000000000000000000000000000005f52603160045260245ffdfea2646970667358221220c9b2118054a5923c7c25ff011033928f41d0dc0e40e37ddacb380c86f9b0dac864736f6c634300081a0033",
					"opcodes": "PUSH1 0x80 PUSH1 0x40 MSTORE CALLVALUE DUP1 ISZERO PUSH1 0xE JUMPI PUSH0 DUP1 REVERT JUMPDEST POP PUSH2 0x1AC4 DUP1 PUSH2 0x1C PUSH0 CODECOPY PUSH0 RETURN INVALID PUSH1 0x80 PUSH1 0x40 MSTORE CALLVALUE DUP1 ISZERO PUSH2 0xF JUMPI PUSH0 DUP1 REVERT JUMPDEST POP PUSH1 0x4 CALLDATASIZE LT PUSH2 0xB2 JUMPI PUSH0 CALLDATALOAD PUSH1 0xE0 SHR DUP1 PUSH4 0x91D14854 GT PUSH2 0x6F JUMPI DUP1 PUSH4 0x91D14854 EQ PUSH2 0x19A JUMPI DUP1 PUSH4 0xA1EBF35D EQ PUSH2 0x1CA JUMPI DUP1 PUSH4 0xA217FDDF EQ PUSH2 0x1E8 JUMPI DUP1 PUSH4 0xCA15C873 EQ PUSH2 0x206 JUMPI DUP1 PUSH4 0xD547741F EQ PUSH2 0x236 JUMPI DUP1 PUSH4 0xD936547E EQ PUSH2 0x252 JUMPI PUSH2 0xB2 JUMP JUMPDEST DUP1 PUSH4 0x1FFC9A7 EQ PUSH2 0xB6 JUMPI DUP1 PUSH4 0x248A9CA3 EQ PUSH2 0xE6 JUMPI DUP1 PUSH4 0x2F2FF15D EQ PUSH2 0x116 JUMPI DUP1 PUSH4 0x36568ABE EQ PUSH2 0x132 JUMPI DUP1 PUSH4 0x560D2901 EQ PUSH2 0x14E JUMPI DUP1 PUSH4 0x9010D07C EQ PUSH2 0x16A JUMPI JUMPDEST PUSH0 DUP1 REVERT JUMPDEST PUSH2 0xD0 PUSH1 0x4 DUP1 CALLDATASIZE SUB DUP2 ADD SWAP1 PUSH2 0xCB SWAP2 SWAP1 PUSH2 0x1039 JUMP JUMPDEST PUSH2 0x282 JUMP JUMPDEST PUSH1 0x40 MLOAD PUSH2 0xDD SWAP2 SWAP1 PUSH2 0x107E JUMP JUMPDEST PUSH1 0x40 MLOAD DUP1 SWAP2 SUB SWAP1 RETURN JUMPDEST PUSH2 0x100 PUSH1 0x4 DUP1 CALLDATASIZE SUB DUP2 ADD SWAP1 PUSH2 0xFB SWAP2 SWAP1 PUSH2 0x10CA JUMP JUMPDEST PUSH2 0x2FB JUMP JUMPDEST PUSH1 0x40 MLOAD PUSH2 0x10D SWAP2 SWAP1 PUSH2 0x1104 JUMP JUMPDEST PUSH1 0x40 MLOAD DUP1 SWAP2 SUB SWAP1 RETURN JUMPDEST PUSH2 0x130 PUSH1 0x4 DUP1 CALLDATASIZE SUB DUP2 ADD SWAP1 PUSH2 0x12B SWAP2 SWAP1 PUSH2 0x1177 JUMP JUMPDEST PUSH2 0x317 JUMP JUMPDEST STOP JUMPDEST PUSH2 0x14C PUSH1 0x4 DUP1 CALLDATASIZE SUB DUP2 ADD SWAP1 PUSH2 0x147 SWAP2 SWAP1 PUSH2 0x1177 JUMP JUMPDEST PUSH2 0x338 JUMP JUMPDEST STOP JUMPDEST PUSH2 0x168 PUSH1 0x4 DUP1 CALLDATASIZE SUB DUP2 ADD SWAP1 PUSH2 0x163 SWAP2 SWAP1 PUSH2 0x1328 JUMP JUMPDEST PUSH2 0x3BB JUMP JUMPDEST STOP JUMPDEST PUSH2 0x184 PUSH1 0x4 DUP1 CALLDATASIZE SUB DUP2 ADD SWAP1 PUSH2 0x17F SWAP2 SWAP1 PUSH2 0x13C7 JUMP JUMPDEST PUSH2 0x515 JUMP JUMPDEST PUSH1 0x40 MLOAD PUSH2 0x191 SWAP2 SWAP1 PUSH2 0x1414 JUMP JUMPDEST PUSH1 0x40 MLOAD DUP1 SWAP2 SUB SWAP1 RETURN JUMPDEST PUSH2 0x1B4 PUSH1 0x4 DUP1 CALLDATASIZE SUB DUP2 ADD SWAP1 PUSH2 0x1AF SWAP2 SWAP1 PUSH2 0x1177 JUMP JUMPDEST PUSH2 0x541 JUMP JUMPDEST PUSH1 0x40 MLOAD PUSH2 0x1C1 SWAP2 SWAP1 PUSH2 0x107E JUMP JUMPDEST PUSH1 0x40 MLOAD DUP1 SWAP2 SUB SWAP1 RETURN JUMPDEST PUSH2 0x1D2 PUSH2 0x5A4 JUMP JUMPDEST PUSH1 0x40 MLOAD PUSH2 0x1DF SWAP2 SWAP1 PUSH2 0x1104 JUMP JUMPDEST PUSH1 0x40 MLOAD DUP1 SWAP2 SUB SWAP1 RETURN JUMPDEST PUSH2 0x1F0 PUSH2 0x5C8 JUMP JUMPDEST PUSH1 0x40 MLOAD PUSH2 0x1FD SWAP2 SWAP1 PUSH2 0x1104 JUMP JUMPDEST PUSH1 0x40 MLOAD DUP1 SWAP2 SUB SWAP1 RETURN JUMPDEST PUSH2 0x220 PUSH1 0x4 DUP1 CALLDATASIZE SUB DUP2 ADD SWAP1 PUSH2 0x21B SWAP2 SWAP1 PUSH2 0x10CA JUMP JUMPDEST PUSH2 0x5CE JUMP JUMPDEST PUSH1 0x40 MLOAD PUSH2 0x22D SWAP2 SWAP1 PUSH2 0x143C JUMP JUMPDEST PUSH1 0x40 MLOAD DUP1 SWAP2 SUB SWAP1 RETURN JUMPDEST PUSH2 0x250 PUSH1 0x4 DUP1 CALLDATASIZE SUB DUP2 ADD SWAP1 PUSH2 0x24B SWAP2 SWAP1 PUSH2 0x1177 JUMP JUMPDEST PUSH2 0x5EF JUMP JUMPDEST STOP JUMPDEST PUSH2 0x26C PUSH1 0x4 DUP1 CALLDATASIZE SUB DUP2 ADD SWAP1 PUSH2 0x267 SWAP2 SWAP1 PUSH2 0x1455 JUMP JUMPDEST PUSH2 0x610 JUMP JUMPDEST PUSH1 0x40 MLOAD PUSH2 0x279 SWAP2 SWAP1 PUSH2 0x107E JUMP JUMPDEST PUSH1 0x40 MLOAD DUP1 SWAP2 SUB SWAP1 RETURN JUMPDEST PUSH0 PUSH32 0x5A05180F00000000000000000000000000000000000000000000000000000000 PUSH28 0xFFFFFFFFFFFFFFFFFFFFFFFFFFFFFFFFFFFFFFFFFFFFFFFFFFFFFFFF NOT AND DUP3 PUSH28 0xFFFFFFFFFFFFFFFFFFFFFFFFFFFFFFFFFFFFFFFFFFFFFFFFFFFFFFFF NOT AND EQ DUP1 PUSH2 0x2F4 JUMPI POP PUSH2 0x2F3 DUP3 PUSH2 0x62D JUMP JUMPDEST JUMPDEST SWAP1 POP SWAP2 SWAP1 POP JUMP JUMPDEST PUSH0 DUP1 PUSH0 DUP4 DUP2 MSTORE PUSH1 0x20 ADD SWAP1 DUP2 MSTORE PUSH1 0x20 ADD PUSH0 KECCAK256 PUSH1 0x1 ADD SLOAD SWAP1 POP SWAP2 SWAP1 POP JUMP JUMPDEST PUSH2 0x320 DUP3 PUSH2 0x2FB JUMP JUMPDEST PUSH2 0x329 DUP2 PUSH2 0x6A6 JUMP JUMPDEST PUSH2 0x333 DUP4 DUP4 PUSH2 0x6BA JUMP JUMPDEST POP POP POP JUMP JUMPDEST PUSH2 0x340 PUSH2 0x6EC JUMP JUMPDEST PUSH20 0xFFFFFFFFFFFFFFFFFFFFFFFFFFFFFFFFFFFFFFFF AND DUP2 PUSH20 0xFFFFFFFFFFFFFFFFFFFFFFFFFFFFFFFFFFFFFFFF AND EQ PUSH2 0x3AD JUMPI PUSH1 0x40 MLOAD PUSH32 0x8C379A000000000000000000000000000000000000000000000000000000000 DUP2 MSTORE PUSH1 0x4 ADD PUSH2 0x3A4 SWAP1 PUSH2 0x1500 JUMP JUMPDEST PUSH1 0x40 MLOAD DUP1 SWAP2 SUB SWAP1 REVERT JUMPDEST PUSH2 0x3B7 DUP3 DUP3 PUSH2 0x6F3 JUMP JUMPDEST POP POP JUMP JUMPDEST PUSH1 0x2 PUSH0 DUP5 PUSH20 0xFFFFFFFFFFFFFFFFFFFFFFFFFFFFFFFFFFFFFFFF AND PUSH20 0xFFFFFFFFFFFFFFFFFFFFFFFFFFFFFFFFFFFFFFFF AND DUP2 MSTORE PUSH1 0x20 ADD SWAP1 DUP2 MSTORE PUSH1 0x20 ADD PUSH0 KECCAK256 PUSH0 SWAP1 SLOAD SWAP1 PUSH2 0x100 EXP SWAP1 DIV PUSH1 0xFF AND ISZERO PUSH2 0x445 JUMPI PUSH1 0x40 MLOAD PUSH32 0x8C379A000000000000000000000000000000000000000000000000000000000 DUP2 MSTORE PUSH1 0x4 ADD PUSH2 0x43C SWAP1 PUSH2 0x1568 JUMP JUMPDEST PUSH1 0x40 MLOAD DUP1 SWAP2 SUB SWAP1 REVERT JUMPDEST PUSH0 PUSH2 0x44F DUP5 PUSH2 0x725 JUMP JUMPDEST DUP4 PUSH1 0x40 MLOAD PUSH1 0x20 ADD PUSH2 0x461 SWAP3 SWAP2 SWAP1 PUSH2 0x15DA JUMP JUMPDEST PUSH1 0x40 MLOAD PUSH1 0x20 DUP2 DUP4 SUB SUB DUP2 MSTORE SWAP1 PUSH1 0x40 MSTORE DUP1 MLOAD SWAP1 PUSH1 0x20 ADD KECCAK256 SWAP1 POP PUSH2 0x483 DUP2 DUP4 PUSH2 0x744 JUMP JUMPDEST PUSH1 0x1 PUSH1 0x2 PUSH0 DUP7 PUSH20 0xFFFFFFFFFFFFFFFFFFFFFFFFFFFFFFFFFFFFFFFF AND PUSH20 0xFFFFFFFFFFFFFFFFFFFFFFFFFFFFFFFFFFFFFFFF AND DUP2 MSTORE PUSH1 0x20 ADD SWAP1 DUP2 MSTORE PUSH1 0x20 ADD PUSH0 KECCAK256 PUSH0 PUSH2 0x100 EXP DUP2 SLOAD DUP2 PUSH1 0xFF MUL NOT AND SWAP1 DUP4 ISZERO ISZERO MUL OR SWAP1 SSTORE POP PUSH32 0xEB73900B98B6A3E2B8B01708FE544760CF570D21E7FBE5225F24E48B5B2B432E DUP5 PUSH1 0x40 MLOAD PUSH2 0x507 SWAP2 SWAP1 PUSH2 0x1414 JUMP JUMPDEST PUSH1 0x40 MLOAD DUP1 SWAP2 SUB SWAP1 LOG1 POP POP POP POP JUMP JUMPDEST PUSH0 PUSH2 0x539 DUP3 PUSH1 0x1 PUSH0 DUP7 DUP2 MSTORE PUSH1 0x20 ADD SWAP1 DUP2 MSTORE PUSH1 0x20 ADD PUSH0 KECCAK256 PUSH2 0x7CC SWAP1 SWAP2 SWAP1 PUSH4 0xFFFFFFFF AND JUMP JUMPDEST SWAP1 POP SWAP3 SWAP2 POP POP JUMP JUMPDEST PUSH0 DUP1 PUSH0 DUP5 DUP2 MSTORE PUSH1 0x20 ADD SWAP1 DUP2 MSTORE PUSH1 0x20 ADD PUSH0 KECCAK256 PUSH0 ADD PUSH0 DUP4 PUSH20 0xFFFFFFFFFFFFFFFFFFFFFFFFFFFFFFFFFFFFFFFF AND PUSH20 0xFFFFFFFFFFFFFFFFFFFFFFFFFFFFFFFFFFFFFFFF AND DUP2 MSTORE PUSH1 0x20 ADD SWAP1 DUP2 MSTORE PUSH1 0x20 ADD PUSH0 KECCAK256 PUSH0 SWAP1 SLOAD SWAP1 PUSH2 0x100 EXP SWAP1 DIV PUSH1 0xFF AND SWAP1 POP SWAP3 SWAP2 POP POP JUMP JUMPDEST PUSH32 0xE2F4EAAE4A9751E85A3E4A7B9587827A877F29914755229B07A7B2DA98285F70 DUP2 JUMP JUMPDEST PUSH0 DUP1 SHL DUP2 JUMP JUMPDEST PUSH0 PUSH2 0x5E8 PUSH1 0x1 PUSH0 DUP5 DUP2 MSTORE PUSH1 0x20 ADD SWAP1 DUP2 MSTORE PUSH1 0x20 ADD PUSH0 KECCAK256 PUSH2 0x7E3 JUMP JUMPDEST SWAP1 POP SWAP2 SWAP1 POP JUMP JUMPDEST PUSH2 0x5F8 DUP3 PUSH2 0x2FB JUMP JUMPDEST PUSH2 0x601 DUP2 PUSH2 0x6A6 JUMP JUMPDEST PUSH2 0x60B DUP4 DUP4 PUSH2 0x6F3 JUMP JUMPDEST POP POP POP JUMP JUMPDEST PUSH1 0x2 PUSH1 0x20 MSTORE DUP1 PUSH0 MSTORE PUSH1 0x40 PUSH0 KECCAK256 PUSH0 SWAP2 POP SLOAD SWAP1 PUSH2 0x100 EXP SWAP1 DIV PUSH1 0xFF AND DUP2 JUMP JUMPDEST PUSH0 PUSH32 0x7965DB0B00000000000000000000000000000000000000000000000000000000 PUSH28 0xFFFFFFFFFFFFFFFFFFFFFFFFFFFFFFFFFFFFFFFFFFFFFFFFFFFFFFFF NOT AND DUP3 PUSH28 0xFFFFFFFFFFFFFFFFFFFFFFFFFFFFFFFFFFFFFFFFFFFFFFFFFFFFFFFF NOT AND EQ DUP1 PUSH2 0x69F JUMPI POP PUSH2 0x69E DUP3 PUSH2 0x7F6 JUMP JUMPDEST JUMPDEST SWAP1 POP SWAP2 SWAP1 POP JUMP JUMPDEST PUSH2 0x6B7 DUP2 PUSH2 0x6B2 PUSH2 0x6EC JUMP JUMPDEST PUSH2 0x85F JUMP JUMPDEST POP JUMP JUMPDEST PUSH2 0x6C4 DUP3 DUP3 PUSH2 0x8E3 JUMP JUMPDEST PUSH2 0x6E7 DUP2 PUSH1 0x1 PUSH0 DUP6 DUP2 MSTORE PUSH1 0x20 ADD SWAP1 DUP2 MSTORE PUSH1 0x20 ADD PUSH0 KECCAK256 PUSH2 0x9BD SWAP1 SWAP2 SWAP1 PUSH4 0xFFFFFFFF AND JUMP JUMPDEST POP POP POP JUMP JUMPDEST PUSH0 CALLER SWAP1 POP SWAP1 JUMP JUMPDEST PUSH2 0x6FD DUP3 DUP3 PUSH2 0x9EA JUMP JUMPDEST PUSH2 0x720 DUP2 PUSH1 0x1 PUSH0 DUP6 DUP2 MSTORE PUSH1 0x20 ADD SWAP1 DUP2 MSTORE PUSH1 0x20 ADD PUSH0 KECCAK256 PUSH2 0xAC4 SWAP1 SWAP2 SWAP1 PUSH4 0xFFFFFFFF AND JUMP JUMPDEST POP POP POP JUMP JUMPDEST PUSH0 DUP2 PUSH20 0xFFFFFFFFFFFFFFFFFFFFFFFFFFFFFFFFFFFFFFFF AND SWAP1 POP SWAP2 SWAP1 POP JUMP JUMPDEST PUSH0 PUSH2 0x74E DUP4 PUSH2 0xAF1 JUMP JUMPDEST SWAP1 POP PUSH0 PUSH2 0x75B DUP3 DUP5 PUSH2 0xB20 JUMP JUMPDEST SWAP1 POP PUSH2 0x787 PUSH32 0xE2F4EAAE4A9751E85A3E4A7B9587827A877F29914755229B07A7B2DA98285F70 DUP3 PUSH2 0x541 JUMP JUMPDEST PUSH2 0x7C6 JUMPI PUSH1 0x40 MLOAD PUSH32 0x8C379A000000000000000000000000000000000000000000000000000000000 DUP2 MSTORE PUSH1 0x4 ADD PUSH2 0x7BD SWAP1 PUSH2 0x164F JUMP JUMPDEST PUSH1 0x40 MLOAD DUP1 SWAP2 SUB SWAP1 REVERT JUMPDEST POP POP POP POP JUMP JUMPDEST PUSH0 PUSH2 0x7D9 DUP4 PUSH0 ADD DUP4 PUSH2 0xB8A JUMP JUMPDEST PUSH0 SHR SWAP1 POP SWAP3 SWAP2 POP POP JUMP JUMPDEST PUSH0 PUSH2 0x7EF DUP3 PUSH0 ADD PUSH2 0xBB1 JUMP JUMPDEST SWAP1 POP SWAP2 SWAP1 POP JUMP JUMPDEST PUSH0 PUSH32 0x1FFC9A700000000000000000000000000000000000000000000000000000000 PUSH28 0xFFFFFFFFFFFFFFFFFFFFFFFFFFFFFFFFFFFFFFFFFFFFFFFFFFFFFFFF NOT AND DUP3 PUSH28 0xFFFFFFFFFFFFFFFFFFFFFFFFFFFFFFFFFFFFFFFFFFFFFFFFFFFFFFFF NOT AND EQ SWAP1 POP SWAP2 SWAP1 POP JUMP JUMPDEST PUSH2 0x869 DUP3 DUP3 PUSH2 0x541 JUMP JUMPDEST PUSH2 0x8DF JUMPI PUSH2 0x876 DUP2 PUSH2 0xBC0 JUMP JUMPDEST PUSH2 0x883 DUP4 PUSH0 SHR PUSH1 0x20 PUSH2 0xBED JUMP JUMPDEST PUSH1 0x40 MLOAD PUSH1 0x20 ADD PUSH2 0x894 SWAP3 SWAP2 SWAP1 PUSH2 0x1753 JUMP JUMPDEST PUSH1 0x40 MLOAD PUSH1 0x20 DUP2 DUP4 SUB SUB DUP2 MSTORE SWAP1 PUSH1 0x40 MSTORE PUSH1 0x40 MLOAD PUSH32 0x8C379A000000000000000000000000000000000000000000000000000000000 DUP2 MSTORE PUSH1 0x4 ADD PUSH2 0x8D6 SWAP2 SWAP1 PUSH2 0x17C4 JUMP JUMPDEST PUSH1 0x40 MLOAD DUP1 SWAP2 SUB SWAP1 REVERT JUMPDEST POP POP JUMP JUMPDEST PUSH2 0x8ED DUP3 DUP3 PUSH2 0x541 JUMP JUMPDEST PUSH2 0x9B9 JUMPI PUSH1 0x1 PUSH0 DUP1 DUP5 DUP2 MSTORE PUSH1 0x20 ADD SWAP1 DUP2 MSTORE PUSH1 0x20 ADD PUSH0 KECCAK256 PUSH0 ADD PUSH0 DUP4 PUSH20 0xFFFFFFFFFFFFFFFFFFFFFFFFFFFFFFFFFFFFFFFF AND PUSH20 0xFFFFFFFFFFFFFFFFFFFFFFFFFFFFFFFFFFFFFFFF AND DUP2 MSTORE PUSH1 0x20 ADD SWAP1 DUP2 MSTORE PUSH1 0x20 ADD PUSH0 KECCAK256 PUSH0 PUSH2 0x100 EXP DUP2 SLOAD DUP2 PUSH1 0xFF MUL NOT AND SWAP1 DUP4 ISZERO ISZERO MUL OR SWAP1 SSTORE POP PUSH2 0x95E PUSH2 0x6EC JUMP JUMPDEST PUSH20 0xFFFFFFFFFFFFFFFFFFFFFFFFFFFFFFFFFFFFFFFF AND DUP2 PUSH20 0xFFFFFFFFFFFFFFFFFFFFFFFFFFFFFFFFFFFFFFFF AND DUP4 PUSH32 0x2F8788117E7EFF1D82E926EC794901D17C78024A50270940304540A733656F0D PUSH1 0x40 MLOAD PUSH1 0x40 MLOAD DUP1 SWAP2 SUB SWAP1 LOG4 JUMPDEST POP POP JUMP JUMPDEST PUSH0 PUSH2 0x9E2 DUP4 PUSH0 ADD DUP4 PUSH20 0xFFFFFFFFFFFFFFFFFFFFFFFFFFFFFFFFFFFFFFFF AND PUSH0 SHL PUSH2 0xE22 JUMP JUMPDEST SWAP1 POP SWAP3 SWAP2 POP POP JUMP JUMPDEST PUSH2 0x9F4 DUP3 DUP3 PUSH2 0x541 JUMP JUMPDEST ISZERO PUSH2 0xAC0 JUMPI PUSH0 DUP1 PUSH0 DUP5 DUP2 MSTORE PUSH1 0x20 ADD SWAP1 DUP2 MSTORE PUSH1 0x20 ADD PUSH0 KECCAK256 PUSH0 ADD PUSH0 DUP4 PUSH20 0xFFFFFFFFFFFFFFFFFFFFFFFFFFFFFFFFFFFFFFFF AND PUSH20 0xFFFFFFFFFFFFFFFFFFFFFFFFFFFFFFFFFFFFFFFF AND DUP2 MSTORE PUSH1 0x20 ADD SWAP1 DUP2 MSTORE PUSH1 0x20 ADD PUSH0 KECCAK256 PUSH0 PUSH2 0x100 EXP DUP2 SLOAD DUP2 PUSH1 0xFF MUL NOT AND SWAP1 DUP4 ISZERO ISZERO MUL OR SWAP1 SSTORE POP PUSH2 0xA65 PUSH2 0x6EC JUMP JUMPDEST PUSH20 0xFFFFFFFFFFFFFFFFFFFFFFFFFFFFFFFFFFFFFFFF AND DUP2 PUSH20 0xFFFFFFFFFFFFFFFFFFFFFFFFFFFFFFFFFFFFFFFF AND DUP4 PUSH32 0xF6391F5C32D9C69D2A47EA670B442974B53935D1EDC7FD64EB21E047A839171B PUSH1 0x40 MLOAD PUSH1 0x40 MLOAD DUP1 SWAP2 SUB SWAP1 LOG4 JUMPDEST POP POP JUMP JUMPDEST PUSH0 PUSH2 0xAE9 DUP4 PUSH0 ADD DUP4 PUSH20 0xFFFFFFFFFFFFFFFFFFFFFFFFFFFFFFFFFFFFFFFF AND PUSH0 SHL PUSH2 0xE89 JUMP JUMPDEST SWAP1 POP SWAP3 SWAP2 POP POP JUMP JUMPDEST PUSH0 DUP2 PUSH1 0x40 MLOAD PUSH1 0x20 ADD PUSH2 0xB03 SWAP2 SWAP1 PUSH2 0x184E JUMP JUMPDEST PUSH1 0x40 MLOAD PUSH1 0x20 DUP2 DUP4 SUB SUB DUP2 MSTORE SWAP1 PUSH1 0x40 MSTORE DUP1 MLOAD SWAP1 PUSH1 0x20 ADD KECCAK256 SWAP1 POP SWAP2 SWAP1 POP JUMP JUMPDEST PUSH0 DUP1 PUSH0 DUP1 PUSH2 0xB2D DUP6 PUSH2 0xF85 JUMP JUMPDEST SWAP3 POP SWAP3 POP SWAP3 POP PUSH1 0x1 DUP7 DUP5 DUP5 DUP5 PUSH1 0x40 MLOAD PUSH0 DUP2 MSTORE PUSH1 0x20 ADD PUSH1 0x40 MSTORE PUSH1 0x40 MLOAD PUSH2 0xB55 SWAP5 SWAP4 SWAP3 SWAP2 SWAP1 PUSH2 0x188E JUMP JUMPDEST PUSH1 0x20 PUSH1 0x40 MLOAD PUSH1 0x20 DUP2 SUB SWAP1 DUP1 DUP5 SUB SWAP1 DUP6 GAS STATICCALL ISZERO DUP1 ISZERO PUSH2 0xB75 JUMPI RETURNDATASIZE PUSH0 DUP1 RETURNDATACOPY RETURNDATASIZE PUSH0 REVERT JUMPDEST POP POP POP PUSH1 0x20 PUSH1 0x40 MLOAD SUB MLOAD SWAP4 POP POP POP POP SWAP3 SWAP2 POP POP JUMP JUMPDEST PUSH0 DUP3 PUSH0 ADD DUP3 DUP2 SLOAD DUP2 LT PUSH2 0xBA0 JUMPI PUSH2 0xB9F PUSH2 0x18D1 JUMP JUMPDEST JUMPDEST SWAP1 PUSH0 MSTORE PUSH1 0x20 PUSH0 KECCAK256 ADD SLOAD SWAP1 POP SWAP3 SWAP2 POP POP JUMP JUMPDEST PUSH0 DUP2 PUSH0 ADD DUP1 SLOAD SWAP1 POP SWAP1 POP SWAP2 SWAP1 POP JUMP JUMPDEST PUSH1 0x60 PUSH2 0xBE6 DUP3 PUSH20 0xFFFFFFFFFFFFFFFFFFFFFFFFFFFFFFFFFFFFFFFF AND PUSH1 0x14 PUSH1 0xFF AND PUSH2 0xBED JUMP JUMPDEST SWAP1 POP SWAP2 SWAP1 POP JUMP JUMPDEST PUSH1 0x60 PUSH0 PUSH1 0x2 DUP4 PUSH1 0x2 PUSH2 0xBFF SWAP2 SWAP1 PUSH2 0x192B JUMP JUMPDEST PUSH2 0xC09 SWAP2 SWAP1 PUSH2 0x196C JUMP JUMPDEST PUSH8 0xFFFFFFFFFFFFFFFF DUP2 GT ISZERO PUSH2 0xC22 JUMPI PUSH2 0xC21 PUSH2 0x1204 JUMP JUMPDEST JUMPDEST PUSH1 0x40 MLOAD SWAP1 DUP1 DUP3 MSTORE DUP1 PUSH1 0x1F ADD PUSH1 0x1F NOT AND PUSH1 0x20 ADD DUP3 ADD PUSH1 0x40 MSTORE DUP1 ISZERO PUSH2 0xC54 JUMPI DUP2 PUSH1 0x20 ADD PUSH1 0x1 DUP3 MUL DUP1 CALLDATASIZE DUP4 CALLDATACOPY DUP1 DUP3 ADD SWAP2 POP POP SWAP1 POP JUMPDEST POP SWAP1 POP PUSH32 0x3000000000000000000000000000000000000000000000000000000000000000 DUP2 PUSH0 DUP2 MLOAD DUP2 LT PUSH2 0xC8B JUMPI PUSH2 0xC8A PUSH2 0x18D1 JUMP JUMPDEST JUMPDEST PUSH1 0x20 ADD ADD SWAP1 PUSH31 0xFFFFFFFFFFFFFFFFFFFFFFFFFFFFFFFFFFFFFFFFFFFFFFFFFFFFFFFFFFFFFF NOT AND SWAP1 DUP2 PUSH0 BYTE SWAP1 MSTORE8 POP PUSH32 0x7800000000000000000000000000000000000000000000000000000000000000 DUP2 PUSH1 0x1 DUP2 MLOAD DUP2 LT PUSH2 0xCEE JUMPI PUSH2 0xCED PUSH2 0x18D1 JUMP JUMPDEST JUMPDEST PUSH1 0x20 ADD ADD SWAP1 PUSH31 0xFFFFFFFFFFFFFFFFFFFFFFFFFFFFFFFFFFFFFFFFFFFFFFFFFFFFFFFFFFFFFF NOT AND SWAP1 DUP2 PUSH0 BYTE SWAP1 MSTORE8 POP PUSH0 PUSH1 0x1 DUP5 PUSH1 0x2 PUSH2 0xD2C SWAP2 SWAP1 PUSH2 0x192B JUMP JUMPDEST PUSH2 0xD36 SWAP2 SWAP1 PUSH2 0x196C JUMP JUMPDEST SWAP1 POP JUMPDEST PUSH1 0x1 DUP2 GT ISZERO PUSH2 0xDD5 JUMPI PUSH32 0x3031323334353637383961626364656600000000000000000000000000000000 PUSH1 0xF DUP7 AND PUSH1 0x10 DUP2 LT PUSH2 0xD78 JUMPI PUSH2 0xD77 PUSH2 0x18D1 JUMP JUMPDEST JUMPDEST BYTE PUSH1 0xF8 SHL DUP3 DUP3 DUP2 MLOAD DUP2 LT PUSH2 0xD8F JUMPI PUSH2 0xD8E PUSH2 0x18D1 JUMP JUMPDEST JUMPDEST PUSH1 0x20 ADD ADD SWAP1 PUSH31 0xFFFFFFFFFFFFFFFFFFFFFFFFFFFFFFFFFFFFFFFFFFFFFFFFFFFFFFFFFFFFFF NOT AND SWAP1 DUP2 PUSH0 BYTE SWAP1 MSTORE8 POP PUSH1 0x4 DUP6 SWAP1 SHR SWAP5 POP DUP1 PUSH2 0xDCE SWAP1 PUSH2 0x199F JUMP JUMPDEST SWAP1 POP PUSH2 0xD39 JUMP JUMPDEST POP PUSH0 DUP5 EQ PUSH2 0xE18 JUMPI PUSH1 0x40 MLOAD PUSH32 0x8C379A000000000000000000000000000000000000000000000000000000000 DUP2 MSTORE PUSH1 0x4 ADD PUSH2 0xE0F SWAP1 PUSH2 0x1A10 JUMP JUMPDEST PUSH1 0x40 MLOAD DUP1 SWAP2 SUB SWAP1 REVERT JUMPDEST DUP1 SWAP2 POP POP SWAP3 SWAP2 POP POP JUMP JUMPDEST PUSH0 PUSH2 0xE2D DUP4 DUP4 PUSH2 0xFB3 JUMP JUMPDEST PUSH2 0xE7F JUMPI DUP3 PUSH0 ADD DUP3 SWAP1 DUP1 PUSH1 0x1 DUP2 SLOAD ADD DUP1 DUP3 SSTORE DUP1 SWAP2 POP POP PUSH1 0x1 SWAP1 SUB SWAP1 PUSH0 MSTORE PUSH1 0x20 PUSH0 KECCAK256 ADD PUSH0 SWAP1 SWAP2 SWAP1 SWAP2 SWAP1 SWAP2 POP SSTORE DUP3 PUSH0 ADD DUP1 SLOAD SWAP1 POP DUP4 PUSH1 0x1 ADD PUSH0 DUP5 DUP2 MSTORE PUSH1 0x20 ADD SWAP1 DUP2 MSTORE PUSH1 0x20 ADD PUSH0 KECCAK256 DUP2 SWAP1 SSTORE POP PUSH1 0x1 SWAP1 POP PUSH2 0xE83 JUMP JUMPDEST PUSH0 SWAP1 POP JUMPDEST SWAP3 SWAP2 POP POP JUMP JUMPDEST PUSH0 DUP1 DUP4 PUSH1 0x1 ADD PUSH0 DUP5 DUP2 MSTORE PUSH1 0x20 ADD SWAP1 DUP2 MSTORE PUSH1 0x20 ADD PUSH0 KECCAK256 SLOAD SWAP1 POP PUSH0 DUP2 EQ PUSH2 0xF7A JUMPI PUSH0 PUSH1 0x1 DUP3 PUSH2 0xEB6 SWAP2 SWAP1 PUSH2 0x1A2E JUMP JUMPDEST SWAP1 POP PUSH0 PUSH1 0x1 DUP7 PUSH0 ADD DUP1 SLOAD SWAP1 POP PUSH2 0xECC SWAP2 SWAP1 PUSH2 0x1A2E JUMP JUMPDEST SWAP1 POP DUP2 DUP2 EQ PUSH2 0xF32 JUMPI PUSH0 DUP7 PUSH0 ADD DUP3 DUP2 SLOAD DUP2 LT PUSH2 0xEEB JUMPI PUSH2 0xEEA PUSH2 0x18D1 JUMP JUMPDEST JUMPDEST SWAP1 PUSH0 MSTORE PUSH1 0x20 PUSH0 KECCAK256 ADD SLOAD SWAP1 POP DUP1 DUP8 PUSH0 ADD DUP5 DUP2 SLOAD DUP2 LT PUSH2 0xF0C JUMPI PUSH2 0xF0B PUSH2 0x18D1 JUMP JUMPDEST JUMPDEST SWAP1 PUSH0 MSTORE PUSH1 0x20 PUSH0 KECCAK256 ADD DUP2 SWAP1 SSTORE POP DUP4 DUP8 PUSH1 0x1 ADD PUSH0 DUP4 DUP2 MSTORE PUSH1 0x20 ADD SWAP1 DUP2 MSTORE PUSH1 0x20 ADD PUSH0 KECCAK256 DUP2 SWAP1 SSTORE POP POP JUMPDEST DUP6 PUSH0 ADD DUP1 SLOAD DUP1 PUSH2 0xF45 JUMPI PUSH2 0xF44 PUSH2 0x1A61 JUMP JUMPDEST JUMPDEST PUSH1 0x1 SWAP1 SUB DUP2 DUP2 SWAP1 PUSH0 MSTORE PUSH1 0x20 PUSH0 KECCAK256 ADD PUSH0 SWAP1 SSTORE SWAP1 SSTORE DUP6 PUSH1 0x1 ADD PUSH0 DUP7 DUP2 MSTORE PUSH1 0x20 ADD SWAP1 DUP2 MSTORE PUSH1 0x20 ADD PUSH0 KECCAK256 PUSH0 SWAP1 SSTORE PUSH1 0x1 SWAP4 POP POP POP POP PUSH2 0xF7F JUMP JUMPDEST PUSH0 SWAP2 POP POP JUMPDEST SWAP3 SWAP2 POP POP JUMP JUMPDEST PUSH0 DUP1 PUSH0 PUSH1 0x41 DUP5 MLOAD EQ PUSH2 0xF95 JUMPI PUSH0 DUP1 REVERT JUMPDEST PUSH1 0x20 DUP5 ADD MLOAD SWAP2 POP PUSH1 0x40 DUP5 ADD MLOAD SWAP1 POP PUSH1 0x60 DUP5 ADD MLOAD PUSH0 BYTE SWAP3 POP SWAP2 SWAP4 SWAP1 SWAP3 POP JUMP JUMPDEST PUSH0 DUP1 DUP4 PUSH1 0x1 ADD PUSH0 DUP5 DUP2 MSTORE PUSH1 0x20 ADD SWAP1 DUP2 MSTORE PUSH1 0x20 ADD PUSH0 KECCAK256 SLOAD EQ ISZERO SWAP1 POP SWAP3 SWAP2 POP POP JUMP JUMPDEST PUSH0 PUSH1 0x40 MLOAD SWAP1 POP SWAP1 JUMP JUMPDEST PUSH0 DUP1 REVERT JUMPDEST PUSH0 DUP1 REVERT JUMPDEST PUSH0 PUSH32 0xFFFFFFFF00000000000000000000000000000000000000000000000000000000 DUP3 AND SWAP1 POP SWAP2 SWAP1 POP JUMP JUMPDEST PUSH2 0x1018 DUP2 PUSH2 0xFE4 JUMP JUMPDEST DUP2 EQ PUSH2 0x1022 JUMPI PUSH0 DUP1 REVERT JUMPDEST POP JUMP JUMPDEST PUSH0 DUP2 CALLDATALOAD SWAP1 POP PUSH2 0x1033 DUP2 PUSH2 0x100F JUMP JUMPDEST SWAP3 SWAP2 POP POP JUMP JUMPDEST PUSH0 PUSH1 0x20 DUP3 DUP5 SUB SLT ISZERO PUSH2 0x104E JUMPI PUSH2 0x104D PUSH2 0xFDC JUMP JUMPDEST JUMPDEST PUSH0 PUSH2 0x105B DUP5 DUP3 DUP6 ADD PUSH2 0x1025 JUMP JUMPDEST SWAP2 POP POP SWAP3 SWAP2 POP POP JUMP JUMPDEST PUSH0 DUP2 ISZERO ISZERO SWAP1 POP SWAP2 SWAP1 POP JUMP JUMPDEST PUSH2 0x1078 DUP2 PUSH2 0x1064 JUMP JUMPDEST DUP3 MSTORE POP POP JUMP JUMPDEST PUSH0 PUSH1 0x20 DUP3 ADD SWAP1 POP PUSH2 0x1091 PUSH0 DUP4 ADD DUP5 PUSH2 0x106F JUMP JUMPDEST SWAP3 SWAP2 POP POP JUMP JUMPDEST PUSH0 DUP2 SWAP1 POP SWAP2 SWAP1 POP JUMP JUMPDEST PUSH2 0x10A9 DUP2 PUSH2 0x1097 JUMP JUMPDEST DUP2 EQ PUSH2 0x10B3 JUMPI PUSH0 DUP1 REVERT JUMPDEST POP JUMP JUMPDEST PUSH0 DUP2 CALLDATALOAD SWAP1 POP PUSH2 0x10C4 DUP2 PUSH2 0x10A0 JUMP JUMPDEST SWAP3 SWAP2 POP POP JUMP JUMPDEST PUSH0 PUSH1 0x20 DUP3 DUP5 SUB SLT ISZERO PUSH2 0x10DF JUMPI PUSH2 0x10DE PUSH2 0xFDC JUMP JUMPDEST JUMPDEST PUSH0 PUSH2 0x10EC DUP5 DUP3 DUP6 ADD PUSH2 0x10B6 JUMP JUMPDEST SWAP2 POP POP SWAP3 SWAP2 POP POP JUMP JUMPDEST PUSH2 0x10FE DUP2 PUSH2 0x1097 JUMP JUMPDEST DUP3 MSTORE POP POP JUMP JUMPDEST PUSH0 PUSH1 0x20 DUP3 ADD SWAP1 POP PUSH2 0x1117 PUSH0 DUP4 ADD DUP5 PUSH2 0x10F5 JUMP JUMPDEST SWAP3 SWAP2 POP POP JUMP JUMPDEST PUSH0 PUSH20 0xFFFFFFFFFFFFFFFFFFFFFFFFFFFFFFFFFFFFFFFF DUP3 AND SWAP1 POP SWAP2 SWAP1 POP JUMP JUMPDEST PUSH0 PUSH2 0x1146 DUP3 PUSH2 0x111D JUMP JUMPDEST SWAP1 POP SWAP2 SWAP1 POP JUMP JUMPDEST PUSH2 0x1156 DUP2 PUSH2 0x113C JUMP JUMPDEST DUP2 EQ PUSH2 0x1160 JUMPI PUSH0 DUP1 REVERT JUMPDEST POP JUMP JUMPDEST PUSH0 DUP2 CALLDATALOAD SWAP1 POP PUSH2 0x1171 DUP2 PUSH2 0x114D JUMP JUMPDEST SWAP3 SWAP2 POP POP JUMP JUMPDEST PUSH0 DUP1 PUSH1 0x40 DUP4 DUP6 SUB SLT ISZERO PUSH2 0x118D JUMPI PUSH2 0x118C PUSH2 0xFDC JUMP JUMPDEST JUMPDEST PUSH0 PUSH2 0x119A DUP6 DUP3 DUP7 ADD PUSH2 0x10B6 JUMP JUMPDEST SWAP3 POP POP PUSH1 0x20 PUSH2 0x11AB DUP6 DUP3 DUP7 ADD PUSH2 0x1163 JUMP JUMPDEST SWAP2 POP POP SWAP3 POP SWAP3 SWAP1 POP JUMP JUMPDEST PUSH0 PUSH2 0xFFFF DUP3 AND SWAP1 POP SWAP2 SWAP1 POP JUMP JUMPDEST PUSH2 0x11CB DUP2 PUSH2 0x11B5 JUMP JUMPDEST DUP2 EQ PUSH2 0x11D5 JUMPI PUSH0 DUP1 REVERT JUMPDEST POP JUMP JUMPDEST PUSH0 DUP2 CALLDATALOAD SWAP1 POP PUSH2 0x11E6 DUP2 PUSH2 0x11C2 JUMP JUMPDEST SWAP3 SWAP2 POP POP JUMP JUMPDEST PUSH0 DUP1 REVERT JUMPDEST PUSH0 DUP1 REVERT JUMPDEST PUSH0 PUSH1 0x1F NOT PUSH1 0x1F DUP4 ADD AND SWAP1 POP SWAP2 SWAP1 POP JUMP JUMPDEST PUSH32 0x4E487B7100000000000000000000000000000000000000000000000000000000 PUSH0 MSTORE PUSH1 0x41 PUSH1 0x4 MSTORE PUSH1 0x24 PUSH0 REVERT JUMPDEST PUSH2 0x123A DUP3 PUSH2 0x11F4 JUMP JUMPDEST DUP2 ADD DUP2 DUP2 LT PUSH8 0xFFFFFFFFFFFFFFFF DUP3 GT OR ISZERO PUSH2 0x1259 JUMPI PUSH2 0x1258 PUSH2 0x1204 JUMP JUMPDEST JUMPDEST DUP1 PUSH1 0x40 MSTORE POP POP POP JUMP JUMPDEST PUSH0 PUSH2 0x126B PUSH2 0xFD3 JUMP JUMPDEST SWAP1 POP PUSH2 0x1277 DUP3 DUP3 PUSH2 0x1231 JUMP JUMPDEST SWAP2 SWAP1 POP JUMP JUMPDEST PUSH0 PUSH8 0xFFFFFFFFFFFFFFFF DUP3 GT ISZERO PUSH2 0x1296 JUMPI PUSH2 0x1295 PUSH2 0x1204 JUMP JUMPDEST JUMPDEST PUSH2 0x129F DUP3 PUSH2 0x11F4 JUMP JUMPDEST SWAP1 POP PUSH1 0x20 DUP2 ADD SWAP1 POP SWAP2 SWAP1 POP JUMP JUMPDEST DUP3 DUP2 DUP4 CALLDATACOPY PUSH0 DUP4 DUP4 ADD MSTORE POP POP POP JUMP JUMPDEST PUSH0 PUSH2 0x12CC PUSH2 0x12C7 DUP5 PUSH2 0x127C JUMP JUMPDEST PUSH2 0x1262 JUMP JUMPDEST SWAP1 POP DUP3 DUP2 MSTORE PUSH1 0x20 DUP2 ADD DUP5 DUP5 DUP5 ADD GT ISZERO PUSH2 0x12E8 JUMPI PUSH2 0x12E7 PUSH2 0x11F0 JUMP JUMPDEST JUMPDEST PUSH2 0x12F3 DUP5 DUP3 DUP6 PUSH2 0x12AC JUMP JUMPDEST POP SWAP4 SWAP3 POP POP POP JUMP JUMPDEST PUSH0 DUP3 PUSH1 0x1F DUP4 ADD SLT PUSH2 0x130F JUMPI PUSH2 0x130E PUSH2 0x11EC JUMP JUMPDEST JUMPDEST DUP2 CALLDATALOAD PUSH2 0x131F DUP5 DUP3 PUSH1 0x20 DUP7 ADD PUSH2 0x12BA JUMP JUMPDEST SWAP2 POP POP SWAP3 SWAP2 POP POP JUMP JUMPDEST PUSH0 DUP1 PUSH0 PUSH1 0x60 DUP5 DUP7 SUB SLT ISZERO PUSH2 0x133F JUMPI PUSH2 0x133E PUSH2 0xFDC JUMP JUMPDEST JUMPDEST PUSH0 PUSH2 0x134C DUP7 DUP3 DUP8 ADD PUSH2 0x1163 JUMP JUMPDEST SWAP4 POP POP PUSH1 0x20 PUSH2 0x135D DUP7 DUP3 DUP8 ADD PUSH2 0x11D8 JUMP JUMPDEST SWAP3 POP POP PUSH1 0x40 DUP5 ADD CALLDATALOAD PUSH8 0xFFFFFFFFFFFFFFFF DUP2 GT ISZERO PUSH2 0x137E JUMPI PUSH2 0x137D PUSH2 0xFE0 JUMP JUMPDEST JUMPDEST PUSH2 0x138A DUP7 DUP3 DUP8 ADD PUSH2 0x12FB JUMP JUMPDEST SWAP2 POP POP SWAP3 POP SWAP3 POP SWAP3 JUMP JUMPDEST PUSH0 DUP2 SWAP1 POP SWAP2 SWAP1 POP JUMP JUMPDEST PUSH2 0x13A6 DUP2 PUSH2 0x1394 JUMP JUMPDEST DUP2 EQ PUSH2 0x13B0 JUMPI PUSH0 DUP1 REVERT JUMPDEST POP JUMP JUMPDEST PUSH0 DUP2 CALLDATALOAD SWAP1 POP PUSH2 0x13C1 DUP2 PUSH2 0x139D JUMP JUMPDEST SWAP3 SWAP2 POP POP JUMP JUMPDEST PUSH0 DUP1 PUSH1 0x40 DUP4 DUP6 SUB SLT ISZERO PUSH2 0x13DD JUMPI PUSH2 0x13DC PUSH2 0xFDC JUMP JUMPDEST JUMPDEST PUSH0 PUSH2 0x13EA DUP6 DUP3 DUP7 ADD PUSH2 0x10B6 JUMP JUMPDEST SWAP3 POP POP PUSH1 0x20 PUSH2 0x13FB DUP6 DUP3 DUP7 ADD PUSH2 0x13B3 JUMP JUMPDEST SWAP2 POP POP SWAP3 POP SWAP3 SWAP1 POP JUMP JUMPDEST PUSH2 0x140E DUP2 PUSH2 0x113C JUMP JUMPDEST DUP3 MSTORE POP POP JUMP JUMPDEST PUSH0 PUSH1 0x20 DUP3 ADD SWAP1 POP PUSH2 0x1427 PUSH0 DUP4 ADD DUP5 PUSH2 0x1405 JUMP JUMPDEST SWAP3 SWAP2 POP POP JUMP JUMPDEST PUSH2 0x1436 DUP2 PUSH2 0x1394 JUMP JUMPDEST DUP3 MSTORE POP POP JUMP JUMPDEST PUSH0 PUSH1 0x20 DUP3 ADD SWAP1 POP PUSH2 0x144F PUSH0 DUP4 ADD DUP5 PUSH2 0x142D JUMP JUMPDEST SWAP3 SWAP2 POP POP JUMP JUMPDEST PUSH0 PUSH1 0x20 DUP3 DUP5 SUB SLT ISZERO PUSH2 0x146A JUMPI PUSH2 0x1469 PUSH2 0xFDC JUMP JUMPDEST JUMPDEST PUSH0 PUSH2 0x1477 DUP5 DUP3 DUP6 ADD PUSH2 0x1163 JUMP JUMPDEST SWAP2 POP POP SWAP3 SWAP2 POP POP JUMP JUMPDEST PUSH0 DUP3 DUP3 MSTORE PUSH1 0x20 DUP3 ADD SWAP1 POP SWAP3 SWAP2 POP POP JUMP JUMPDEST PUSH32 0x416363657373436F6E74726F6C3A2063616E206F6E6C792072656E6F756E6365 PUSH0 DUP3 ADD MSTORE PUSH32 0x20726F6C657320666F722073656C660000000000000000000000000000000000 PUSH1 0x20 DUP3 ADD MSTORE POP JUMP JUMPDEST PUSH0 PUSH2 0x14EA PUSH1 0x2F DUP4 PUSH2 0x1480 JUMP JUMPDEST SWAP2 POP PUSH2 0x14F5 DUP3 PUSH2 0x1490 JUMP JUMPDEST PUSH1 0x40 DUP3 ADD SWAP1 POP SWAP2 SWAP1 POP JUMP JUMPDEST PUSH0 PUSH1 0x20 DUP3 ADD SWAP1 POP DUP2 DUP2 SUB PUSH0 DUP4 ADD MSTORE PUSH2 0x1517 DUP2 PUSH2 0x14DE JUMP JUMPDEST SWAP1 POP SWAP2 SWAP1 POP JUMP JUMPDEST PUSH32 0x4163636F756E7420616C72656164792077686974656C69737465640000000000 PUSH0 DUP3 ADD MSTORE POP JUMP JUMPDEST PUSH0 PUSH2 0x1552 PUSH1 0x1B DUP4 PUSH2 0x1480 JUMP JUMPDEST SWAP2 POP PUSH2 0x155D DUP3 PUSH2 0x151E JUMP JUMPDEST PUSH1 0x20 DUP3 ADD SWAP1 POP SWAP2 SWAP1 POP JUMP JUMPDEST PUSH0 PUSH1 0x20 DUP3 ADD SWAP1 POP DUP2 DUP2 SUB PUSH0 DUP4 ADD MSTORE PUSH2 0x157F DUP2 PUSH2 0x1546 JUMP JUMPDEST SWAP1 POP SWAP2 SWAP1 POP JUMP JUMPDEST PUSH0 DUP2 SWAP1 POP SWAP2 SWAP1 POP JUMP JUMPDEST PUSH2 0x15A0 PUSH2 0x159B DUP3 PUSH2 0x1394 JUMP JUMPDEST PUSH2 0x1586 JUMP JUMPDEST DUP3 MSTORE POP POP JUMP JUMPDEST PUSH0 DUP2 PUSH1 0xF0 SHL SWAP1 POP SWAP2 SWAP1 POP JUMP JUMPDEST PUSH0 PUSH2 0x15BC DUP3 PUSH2 0x15A6 JUMP JUMPDEST SWAP1 POP SWAP2 SWAP1 POP JUMP JUMPDEST PUSH2 0x15D4 PUSH2 0x15CF DUP3 PUSH2 0x11B5 JUMP JUMPDEST PUSH2 0x15B2 JUMP JUMPDEST DUP3 MSTORE POP POP JUMP JUMPDEST PUSH0 PUSH2 0x15E5 DUP3 DUP6 PUSH2 0x158F JUMP JUMPDEST PUSH1 0x20 DUP3 ADD SWAP2 POP PUSH2 0x15F5 DUP3 DUP5 PUSH2 0x15C3 JUMP JUMPDEST PUSH1 0x2 DUP3 ADD SWAP2 POP DUP2 SWAP1 POP SWAP4 SWAP3 POP POP POP JUMP JUMPDEST PUSH32 0x5369676E657220646F65736E27742068617665205349474E455220726F6C6500 PUSH0 DUP3 ADD MSTORE POP JUMP JUMPDEST PUSH0 PUSH2 0x1639 PUSH1 0x1F DUP4 PUSH2 0x1480 JUMP JUMPDEST SWAP2 POP PUSH2 0x1644 DUP3 PUSH2 0x1605 JUMP JUMPDEST PUSH1 0x20 DUP3 ADD SWAP1 POP SWAP2 SWAP1 POP JUMP JUMPDEST PUSH0 PUSH1 0x20 DUP3 ADD SWAP1 POP DUP2 DUP2 SUB PUSH0 DUP4 ADD MSTORE PUSH2 0x1666 DUP2 PUSH2 0x162D JUMP JUMPDEST SWAP1 POP SWAP2 SWAP1 POP JUMP JUMPDEST PUSH0 DUP2 SWAP1 POP SWAP3 SWAP2 POP POP JUMP JUMPDEST PUSH32 0x416363657373436F6E74726F6C3A206163636F756E7420000000000000000000 PUSH0 DUP3 ADD MSTORE POP JUMP JUMPDEST PUSH0 PUSH2 0x16AB PUSH1 0x17 DUP4 PUSH2 0x166D JUMP JUMPDEST SWAP2 POP PUSH2 0x16B6 DUP3 PUSH2 0x1677 JUMP JUMPDEST PUSH1 0x17 DUP3 ADD SWAP1 POP SWAP2 SWAP1 POP JUMP JUMPDEST PUSH0 DUP2 MLOAD SWAP1 POP SWAP2 SWAP1 POP JUMP JUMPDEST DUP3 DUP2 DUP4 MCOPY PUSH0 DUP4 DUP4 ADD MSTORE POP POP POP JUMP JUMPDEST PUSH0 PUSH2 0x16E3 DUP3 PUSH2 0x16C1 JUMP JUMPDEST PUSH2 0x16ED DUP2 DUP6 PUSH2 0x166D JUMP JUMPDEST SWAP4 POP PUSH2 0x16FD DUP2 DUP6 PUSH1 0x20 DUP7 ADD PUSH2 0x16CB JUMP JUMPDEST DUP1 DUP5 ADD SWAP2 POP POP SWAP3 SWAP2 POP POP JUMP JUMPDEST PUSH32 0x206973206D697373696E6720726F6C6520000000000000000000000000000000 PUSH0 DUP3 ADD MSTORE POP JUMP JUMPDEST PUSH0 PUSH2 0x173D PUSH1 0x11 DUP4 PUSH2 0x166D JUMP JUMPDEST SWAP2 POP PUSH2 0x1748 DUP3 PUSH2 0x1709 JUMP JUMPDEST PUSH1 0x11 DUP3 ADD SWAP1 POP SWAP2 SWAP1 POP JUMP JUMPDEST PUSH0 PUSH2 0x175D DUP3 PUSH2 0x169F JUMP JUMPDEST SWAP2 POP PUSH2 0x1769 DUP3 DUP6 PUSH2 0x16D9 JUMP JUMPDEST SWAP2 POP PUSH2 0x1774 DUP3 PUSH2 0x1731 JUMP JUMPDEST SWAP2 POP PUSH2 0x1780 DUP3 DUP5 PUSH2 0x16D9 JUMP JUMPDEST SWAP2 POP DUP2 SWAP1 POP SWAP4 SWAP3 POP POP POP JUMP JUMPDEST PUSH0 PUSH2 0x1796 DUP3 PUSH2 0x16C1 JUMP JUMPDEST PUSH2 0x17A0 DUP2 DUP6 PUSH2 0x1480 JUMP JUMPDEST SWAP4 POP PUSH2 0x17B0 DUP2 DUP6 PUSH1 0x20 DUP7 ADD PUSH2 0x16CB JUMP JUMPDEST PUSH2 0x17B9 DUP2 PUSH2 0x11F4 JUMP JUMPDEST DUP5 ADD SWAP2 POP POP SWAP3 SWAP2 POP POP JUMP JUMPDEST PUSH0 PUSH1 0x20 DUP3 ADD SWAP1 POP DUP2 DUP2 SUB PUSH0 DUP4 ADD MSTORE PUSH2 0x17DC DUP2 DUP5 PUSH2 0x178C JUMP JUMPDEST SWAP1 POP SWAP3 SWAP2 POP POP JUMP JUMPDEST PUSH32 0x19457468657265756D205369676E6564204D6573736167653A0A333200000000 PUSH0 DUP3 ADD MSTORE POP JUMP JUMPDEST PUSH0 PUSH2 0x1818 PUSH1 0x1C DUP4 PUSH2 0x166D JUMP JUMPDEST SWAP2 POP PUSH2 0x1823 DUP3 PUSH2 0x17E4 JUMP JUMPDEST PUSH1 0x1C DUP3 ADD SWAP1 POP SWAP2 SWAP1 POP JUMP JUMPDEST PUSH0 DUP2 SWAP1 POP SWAP2 SWAP1 POP JUMP JUMPDEST PUSH2 0x1848 PUSH2 0x1843 DUP3 PUSH2 0x1097 JUMP JUMPDEST PUSH2 0x182E JUMP JUMPDEST DUP3 MSTORE POP POP JUMP JUMPDEST PUSH0 PUSH2 0x1858 DUP3 PUSH2 0x180C JUMP JUMPDEST SWAP2 POP PUSH2 0x1864 DUP3 DUP5 PUSH2 0x1837 JUMP JUMPDEST PUSH1 0x20 DUP3 ADD SWAP2 POP DUP2 SWAP1 POP SWAP3 SWAP2 POP POP JUMP JUMPDEST PUSH0 PUSH1 0xFF DUP3 AND SWAP1 POP SWAP2 SWAP1 POP JUMP JUMPDEST PUSH2 0x1888 DUP2 PUSH2 0x1873 JUMP JUMPDEST DUP3 MSTORE POP POP JUMP JUMPDEST PUSH0 PUSH1 0x80 DUP3 ADD SWAP1 POP PUSH2 0x18A1 PUSH0 DUP4 ADD DUP8 PUSH2 0x10F5 JUMP JUMPDEST PUSH2 0x18AE PUSH1 0x20 DUP4 ADD DUP7 PUSH2 0x187F JUMP JUMPDEST PUSH2 0x18BB PUSH1 0x40 DUP4 ADD DUP6 PUSH2 0x10F5 JUMP JUMPDEST PUSH2 0x18C8 PUSH1 0x60 DUP4 ADD DUP5 PUSH2 0x10F5 JUMP JUMPDEST SWAP6 SWAP5 POP POP POP POP POP JUMP JUMPDEST PUSH32 0x4E487B7100000000000000000000000000000000000000000000000000000000 PUSH0 MSTORE PUSH1 0x32 PUSH1 0x4 MSTORE PUSH1 0x24 PUSH0 REVERT JUMPDEST PUSH32 0x4E487B7100000000000000000000000000000000000000000000000000000000 PUSH0 MSTORE PUSH1 0x11 PUSH1 0x4 MSTORE PUSH1 0x24 PUSH0 REVERT JUMPDEST PUSH0 PUSH2 0x1935 DUP3 PUSH2 0x1394 JUMP JUMPDEST SWAP2 POP PUSH2 0x1940 DUP4 PUSH2 0x1394 JUMP JUMPDEST SWAP3 POP DUP3 DUP3 MUL PUSH2 0x194E DUP2 PUSH2 0x1394 JUMP JUMPDEST SWAP2 POP DUP3 DUP3 DIV DUP5 EQ DUP4 ISZERO OR PUSH2 0x1965 JUMPI PUSH2 0x1964 PUSH2 0x18FE JUMP JUMPDEST JUMPDEST POP SWAP3 SWAP2 POP POP JUMP JUMPDEST PUSH0 PUSH2 0x1976 DUP3 PUSH2 0x1394 JUMP JUMPDEST SWAP2 POP PUSH2 0x1981 DUP4 PUSH2 0x1394 JUMP JUMPDEST SWAP3 POP DUP3 DUP3 ADD SWAP1 POP DUP1 DUP3 GT ISZERO PUSH2 0x1999 JUMPI PUSH2 0x1998 PUSH2 0x18FE JUMP JUMPDEST JUMPDEST SWAP3 SWAP2 POP POP JUMP JUMPDEST PUSH0 PUSH2 0x19A9 DUP3 PUSH2 0x1394 JUMP JUMPDEST SWAP2 POP PUSH0 DUP3 SUB PUSH2 0x19BB JUMPI PUSH2 0x19BA PUSH2 0x18FE JUMP JUMPDEST JUMPDEST PUSH1 0x1 DUP3 SUB SWAP1 POP SWAP2 SWAP1 POP JUMP JUMPDEST PUSH32 0x537472696E67733A20686578206C656E67746820696E73756666696369656E74 PUSH0 DUP3 ADD MSTORE POP JUMP JUMPDEST PUSH0 PUSH2 0x19FA PUSH1 0x20 DUP4 PUSH2 0x1480 JUMP JUMPDEST SWAP2 POP PUSH2 0x1A05 DUP3 PUSH2 0x19C6 JUMP JUMPDEST PUSH1 0x20 DUP3 ADD SWAP1 POP SWAP2 SWAP1 POP JUMP JUMPDEST PUSH0 PUSH1 0x20 DUP3 ADD SWAP1 POP DUP2 DUP2 SUB PUSH0 DUP4 ADD MSTORE PUSH2 0x1A27 DUP2 PUSH2 0x19EE JUMP JUMPDEST SWAP1 POP SWAP2 SWAP1 POP JUMP JUMPDEST PUSH0 PUSH2 0x1A38 DUP3 PUSH2 0x1394 JUMP JUMPDEST SWAP2 POP PUSH2 0x1A43 DUP4 PUSH2 0x1394 JUMP JUMPDEST SWAP3 POP DUP3 DUP3 SUB SWAP1 POP DUP2 DUP2 GT ISZERO PUSH2 0x1A5B JUMPI PUSH2 0x1A5A PUSH2 0x18FE JUMP JUMPDEST JUMPDEST SWAP3 SWAP2 POP POP JUMP JUMPDEST PUSH32 0x4E487B7100000000000000000000000000000000000000000000000000000000 PUSH0 MSTORE PUSH1 0x31 PUSH1 0x4 MSTORE PUSH1 0x24 PUSH0 REVERT INVALID LOG2 PUSH5 0x6970667358 0x22 SLT KECCAK256 0xC9 0xB2 GT DUP1 SLOAD 0xA5 SWAP3 EXTCODECOPY PUSH29 0x25FF011033928F41D0DC0E40E37DDACB380C86F9B0DAC864736F6C6343 STOP ADDMOD BYTE STOP CALLER "
				},
				"gasEstimates": {
					"creation": {
						"codeDepositCost": "1370400",
						"executionCost": "1429",
						"totalCost": "1371829"
					},
					"external": {
						"DEFAULT_ADMIN_ROLE()": "374",
						"SIGNER_ROLE()": "347",
						"getRoleAdmin(bytes32)": "infinite",
						"getRoleMember(bytes32,uint256)": "infinite",
						"getRoleMemberCount(bytes32)": "2937",
						"grantRole(bytes32,address)": "infinite",
						"hasRole(bytes32,address)": "3122",
						"renounceRole(bytes32,address)": "infinite",
						"revokeRole(bytes32,address)": "infinite",
						"supportsInterface(bytes4)": "806",
						"whitelist(address,uint16,bytes)": "infinite",
						"whitelisted(address)": "2943"
					},
					"internal": {
						"prefixed(bytes32)": "infinite",
						"recoverSigner(bytes32,bytes memory)": "infinite",
						"splitSignature(bytes memory)": "infinite",
						"toUint(address)": "33",
						"verifySigner(bytes32,bytes memory)": "infinite"
					}
				},
				"methodIdentifiers": {
					"DEFAULT_ADMIN_ROLE()": "a217fddf",
					"SIGNER_ROLE()": "a1ebf35d",
					"getRoleAdmin(bytes32)": "248a9ca3",
					"getRoleMember(bytes32,uint256)": "9010d07c",
					"getRoleMemberCount(bytes32)": "ca15c873",
					"grantRole(bytes32,address)": "2f2ff15d",
					"hasRole(bytes32,address)": "91d14854",
					"renounceRole(bytes32,address)": "36568abe",
					"revokeRole(bytes32,address)": "d547741f",
					"supportsInterface(bytes4)": "01ffc9a7",
					"whitelist(address,uint16,bytes)": "560d2901",
					"whitelisted(address)": "d936547e"
				}
			},
			"storageLayout": {
				"storage": [
					{
						"astId": 24,
						"contract": "contracts/Whitelist.sol:WhitelistStorage",
						"label": "_roles",
						"offset": 0,
						"slot": "0",
						"type": "t_mapping(t_bytes32,t_struct(RoleData)19_storage)"
					},
					{
						"astId": 334,
						"contract": "contracts/Whitelist.sol:WhitelistStorage",
						"label": "_roleMembers",
						"offset": 0,
						"slot": "1",
						"type": "t_mapping(t_bytes32,t_struct(AddressSet)1962_storage)"
					},
					{
						"astId": 2263,
						"contract": "contracts/Whitelist.sol:WhitelistStorage",
						"label": "whitelisted",
						"offset": 0,
						"slot": "2",
						"type": "t_mapping(t_address,t_bool)"
					}
				],
				"types": {
					"t_address": {
						"encoding": "inplace",
						"label": "address",
						"numberOfBytes": "20"
					},
					"t_array(t_bytes32)dyn_storage": {
						"base": "t_bytes32",
						"encoding": "dynamic_array",
						"label": "bytes32[]",
						"numberOfBytes": "32"
					},
					"t_bool": {
						"encoding": "inplace",
						"label": "bool",
						"numberOfBytes": "1"
					},
					"t_bytes32": {
						"encoding": "inplace",
						"label": "bytes32",
						"numberOfBytes": "32"
					},
					"t_mapping(t_address,t_bool)": {
						"encoding": "mapping",
						"key": "t_address",
						"label": "mapping(address => bool)",
						"numberOfBytes": "32",
						"value": "t_bool"
					},
					"t_mapping(t_bytes32,t_struct(AddressSet)1962_storage)": {
						"encoding": "mapping",
						"key": "t_bytes32",
						"label": "mapping(bytes32 => struct EnumerableSet.AddressSet)",
						"numberOfBytes": "32",
						"value": "t_struct(AddressSet)1962_storage"
					},
					"t_mapping(t_bytes32,t_struct(RoleData)19_storage)": {
						"encoding": "mapping",
						"key": "t_bytes32",
						"label": "mapping(bytes32 => struct AccessControl.RoleData)",
						"numberOfBytes": "32",
						"value": "t_struct(RoleData)19_storage"
					},
					"t_mapping(t_bytes32,t_uint256)": {
						"encoding": "mapping",
						"key": "t_bytes32",
						"label": "mapping(bytes32 => uint256)",
						"numberOfBytes": "32",
						"value": "t_uint256"
					},
					"t_struct(AddressSet)1962_storage": {
						"encoding": "inplace",
						"label": "struct EnumerableSet.AddressSet",
						"members": [
							{
								"astId": 1961,
								"contract": "contracts/Whitelist.sol:WhitelistStorage",
								"label": "_inner",
								"offset": 0,
								"slot": "0",
								"type": "t_struct(Set)1647_storage"
							}
						],
						"numberOfBytes": "64"
					},
					"t_struct(RoleData)19_storage": {
						"encoding": "inplace",
						"label": "struct AccessControl.RoleData",
						"members": [
							{
								"astId": 16,
								"contract": "contracts/Whitelist.sol:WhitelistStorage",
								"label": "members",
								"offset": 0,
								"slot": "0",
								"type": "t_mapping(t_address,t_bool)"
							},
							{
								"astId": 18,
								"contract": "contracts/Whitelist.sol:WhitelistStorage",
								"label": "adminRole",
								"offset": 0,
								"slot": "1",
								"type": "t_bytes32"
							}
						],
						"numberOfBytes": "64"
					},
					"t_struct(Set)1647_storage": {
						"encoding": "inplace",
						"label": "struct EnumerableSet.Set",
						"members": [
							{
								"astId": 1642,
								"contract": "contracts/Whitelist.sol:WhitelistStorage",
								"label": "_values",
								"offset": 0,
								"slot": "0",
								"type": "t_array(t_bytes32)dyn_storage"
							},
							{
								"astId": 1646,
								"contract": "contracts/Whitelist.sol:WhitelistStorage",
								"label": "_indexes",
								"offset": 0,
								"slot": "1",
								"type": "t_mapping(t_bytes32,t_uint256)"
							}
						],
						"numberOfBytes": "64"
					},
					"t_uint256": {
						"encoding": "inplace",
						"label": "uint256",
						"numberOfBytes": "32"
					}
				}
			},
			"userdoc": {
				"kind": "user",
				"methods": {},
				"version": 1
			}
		}
	}
}